{
  "address": "0xDEBF814B1d4D1C0F4CA7e3A5A693A251337dDEFc",
  "abi": [
    {
      "anonymous": false,
      "inputs": [
        {
          "indexed": false,
          "internalType": "address",
          "name": "previousAdmin",
          "type": "address"
        },
        {
          "indexed": false,
          "internalType": "address",
          "name": "newAdmin",
          "type": "address"
        }
      ],
      "name": "AdminChanged",
      "type": "event"
    },
    {
      "anonymous": false,
      "inputs": [
        {
          "indexed": true,
          "internalType": "address",
          "name": "beacon",
          "type": "address"
        }
      ],
      "name": "BeaconUpgraded",
      "type": "event"
    },
    {
      "anonymous": false,
      "inputs": [
        {
          "indexed": true,
          "internalType": "address",
          "name": "previousOwner",
          "type": "address"
        },
        {
          "indexed": true,
          "internalType": "address",
          "name": "newOwner",
          "type": "address"
        }
      ],
      "name": "OwnershipTransferred",
      "type": "event"
    },
    {
      "anonymous": false,
      "inputs": [
        {
          "indexed": true,
          "internalType": "uint256",
          "name": "transfer_id",
          "type": "uint256"
        },
        {
          "indexed": true,
          "internalType": "bytes32",
          "name": "from",
          "type": "bytes32"
        },
        {
          "indexed": true,
          "internalType": "address",
          "name": "to",
          "type": "address"
        },
        {
          "indexed": false,
          "internalType": "uint256",
          "name": "amount",
          "type": "uint256"
        }
      ],
      "name": "TokensReleased",
      "type": "event"
    },
    {
      "anonymous": false,
      "inputs": [
        {
          "indexed": true,
          "internalType": "uint256",
          "name": "transfer_id",
          "type": "uint256"
        },
        {
          "indexed": true,
          "internalType": "address",
          "name": "from",
          "type": "address"
        },
        {
          "indexed": true,
          "internalType": "bytes32",
          "name": "to",
          "type": "bytes32"
        },
        {
          "indexed": false,
          "internalType": "uint256",
          "name": "amount",
          "type": "uint256"
        },
        {
          "indexed": false,
          "internalType": "uint16",
          "name": "targetChain",
          "type": "uint16"
        }
      ],
      "name": "TransferInitiated",
      "type": "event"
    },
    {
      "anonymous": false,
      "inputs": [
        {
          "indexed": true,
          "internalType": "address",
          "name": "implementation",
          "type": "address"
        }
      ],
      "name": "Upgraded",
      "type": "event"
    },
    {
      "inputs": [],
      "name": "bholdusToken",
      "outputs": [
        {
          "internalType": "address",
          "name": "",
          "type": "address"
        }
      ],
      "stateMutability": "view",
      "type": "function"
    },
    {
      "inputs": [
        {
          "internalType": "uint16",
          "name": "",
          "type": "uint16"
        }
      ],
      "name": "chains",
      "outputs": [
        {
          "internalType": "bool",
          "name": "",
          "type": "bool"
        }
      ],
      "stateMutability": "view",
      "type": "function"
    },
    {
      "inputs": [
        {
          "internalType": "uint256",
          "name": "transfer_id",
          "type": "uint256"
        }
      ],
      "name": "confirmTransfer",
      "outputs": [],
      "stateMutability": "nonpayable",
      "type": "function"
    },
    {
      "inputs": [],
      "name": "forceFreeze",
      "outputs": [],
      "stateMutability": "nonpayable",
      "type": "function"
    },
    {
      "inputs": [
        {
          "internalType": "uint16",
          "name": "chain",
          "type": "uint16"
        }
      ],
      "name": "forceRegisterChain",
      "outputs": [],
      "stateMutability": "nonpayable",
      "type": "function"
    },
    {
      "inputs": [
        {
          "internalType": "address",
          "name": "_relayer",
          "type": "address"
        }
      ],
      "name": "forceRegisterRelayer",
      "outputs": [],
      "stateMutability": "nonpayable",
      "type": "function"
    },
    {
      "inputs": [
        {
          "internalType": "address",
          "name": "_token",
          "type": "address"
        }
      ],
      "name": "forceRegisterToken",
      "outputs": [],
      "stateMutability": "nonpayable",
      "type": "function"
    },
    {
      "inputs": [
        {
          "internalType": "uint256",
          "name": "_fee",
          "type": "uint256"
        }
      ],
      "name": "forceSetFee",
      "outputs": [],
      "stateMutability": "nonpayable",
      "type": "function"
    },
    {
      "inputs": [
        {
          "internalType": "uint256",
          "name": "amount",
          "type": "uint256"
        }
      ],
      "name": "forceSetMinDeposit",
      "outputs": [],
      "stateMutability": "nonpayable",
      "type": "function"
    },
    {
      "inputs": [],
      "name": "forceUnfreeze",
      "outputs": [],
      "stateMutability": "nonpayable",
      "type": "function"
    },
    {
      "inputs": [
        {
          "internalType": "uint16",
          "name": "chain",
          "type": "uint16"
        }
      ],
      "name": "forceUnregisterChain",
      "outputs": [],
      "stateMutability": "nonpayable",
      "type": "function"
    },
    {
      "inputs": [
        {
          "internalType": "address",
          "name": "_relayer",
          "type": "address"
        }
      ],
      "name": "forceUnregisterRelayer",
      "outputs": [],
      "stateMutability": "nonpayable",
      "type": "function"
    },
    {
      "inputs": [
        {
          "internalType": "address",
          "name": "to",
          "type": "address"
        }
      ],
      "name": "forceWithdraw",
      "outputs": [],
      "stateMutability": "nonpayable",
      "type": "function"
    },
    {
      "inputs": [
        {
          "internalType": "address payable",
          "name": "to",
          "type": "address"
        }
      ],
      "name": "forceWithdrawNative",
      "outputs": [],
      "stateMutability": "nonpayable",
      "type": "function"
    },
    {
      "inputs": [],
      "name": "frozen",
      "outputs": [
        {
          "internalType": "bool",
          "name": "",
          "type": "bool"
        }
      ],
      "stateMutability": "view",
      "type": "function"
    },
    {
      "inputs": [
        {
          "internalType": "address",
          "name": "addr",
          "type": "address"
        }
      ],
      "name": "getBalance",
      "outputs": [
        {
          "internalType": "uint256",
          "name": "",
          "type": "uint256"
        }
      ],
      "stateMutability": "view",
      "type": "function"
    },
    {
      "inputs": [
        {
          "internalType": "address",
          "name": "_admin",
          "type": "address"
        },
        {
          "internalType": "address",
          "name": "_token",
          "type": "address"
        },
        {
          "internalType": "uint256",
          "name": "_fee",
          "type": "uint256"
        },
        {
          "internalType": "uint256",
          "name": "_minDeposit",
          "type": "uint256"
        }
      ],
      "name": "initialize",
      "outputs": [
        {
          "internalType": "bool",
          "name": "",
          "type": "bool"
        }
      ],
      "stateMutability": "nonpayable",
      "type": "function"
    },
    {
      "inputs": [
        {
          "internalType": "bytes32",
          "name": "to",
          "type": "bytes32"
        },
        {
          "internalType": "uint256",
          "name": "amount",
          "type": "uint256"
        },
        {
          "internalType": "uint16",
          "name": "targetChain",
          "type": "uint16"
        }
      ],
      "name": "initiateTransfer",
      "outputs": [],
      "stateMutability": "payable",
      "type": "function"
    },
    {
      "inputs": [],
      "name": "minDeposit",
      "outputs": [
        {
          "internalType": "uint256",
          "name": "",
          "type": "uint256"
        }
      ],
      "stateMutability": "view",
      "type": "function"
    },
    {
      "inputs": [],
      "name": "nextConfirmOutboundTransferId",
      "outputs": [
        {
          "internalType": "uint256",
          "name": "",
          "type": "uint256"
        }
      ],
      "stateMutability": "view",
      "type": "function"
    },
    {
      "inputs": [],
      "name": "nextInboundTransferId",
      "outputs": [
        {
          "internalType": "uint256",
          "name": "",
          "type": "uint256"
        }
      ],
      "stateMutability": "view",
      "type": "function"
    },
    {
      "inputs": [],
      "name": "nextOutboundTransferId",
      "outputs": [
        {
          "internalType": "uint256",
          "name": "",
          "type": "uint256"
        }
      ],
      "stateMutability": "view",
      "type": "function"
    },
    {
      "inputs": [
        {
          "internalType": "uint256",
          "name": "",
          "type": "uint256"
        }
      ],
      "name": "outboundTransfers",
      "outputs": [
        {
          "internalType": "uint256",
          "name": "amount",
          "type": "uint256"
        },
        {
          "internalType": "uint256",
          "name": "serviceFee",
          "type": "uint256"
        },
        {
          "internalType": "address",
          "name": "from",
          "type": "address"
        },
        {
          "internalType": "bytes32",
          "name": "to",
          "type": "bytes32"
        },
        {
          "internalType": "uint16",
          "name": "targetChain",
          "type": "uint16"
        },
        {
          "internalType": "bool",
          "name": "isExist",
          "type": "bool"
        }
      ],
      "stateMutability": "view",
      "type": "function"
    },
    {
      "inputs": [],
      "name": "owner",
      "outputs": [
        {
          "internalType": "address",
          "name": "",
          "type": "address"
        }
      ],
      "stateMutability": "view",
      "type": "function"
    },
    {
      "inputs": [
        {
          "internalType": "address",
          "name": "",
          "type": "address"
        }
      ],
      "name": "relayers",
      "outputs": [
        {
          "internalType": "bool",
          "name": "",
          "type": "bool"
        }
      ],
      "stateMutability": "view",
      "type": "function"
    },
    {
      "inputs": [
        {
          "internalType": "uint256",
          "name": "transfer_id",
          "type": "uint256"
        },
        {
          "internalType": "bytes32",
          "name": "from",
          "type": "bytes32"
        },
        {
          "internalType": "address",
          "name": "to",
          "type": "address"
        },
        {
          "internalType": "uint256",
          "name": "amount",
          "type": "uint256"
        }
      ],
      "name": "releaseToken",
      "outputs": [],
      "stateMutability": "nonpayable",
      "type": "function"
    },
    {
      "inputs": [],
      "name": "renounceOwnership",
      "outputs": [],
      "stateMutability": "nonpayable",
      "type": "function"
    },
    {
      "inputs": [],
      "name": "serviceFee",
      "outputs": [
        {
          "internalType": "uint256",
          "name": "",
          "type": "uint256"
        }
      ],
      "stateMutability": "view",
      "type": "function"
    },
    {
      "inputs": [
        {
          "internalType": "address",
          "name": "newOwner",
          "type": "address"
        }
      ],
      "name": "transferOwnership",
      "outputs": [],
      "stateMutability": "nonpayable",
      "type": "function"
    },
    {
      "inputs": [
        {
          "internalType": "address",
          "name": "newImplementation",
          "type": "address"
        }
      ],
      "name": "upgradeTo",
      "outputs": [],
      "stateMutability": "nonpayable",
      "type": "function"
    },
    {
      "inputs": [
        {
          "internalType": "address",
          "name": "newImplementation",
          "type": "address"
        },
        {
          "internalType": "bytes",
          "name": "data",
          "type": "bytes"
        }
      ],
      "name": "upgradeToAndCall",
      "outputs": [],
      "stateMutability": "payable",
      "type": "function"
    }
  ],
  "transactionHash": "0xd67c916b5356d17981e639385ac9a7d65e224de2a1ef5f82a5c9f9ae515c9fa4",
  "args": [],
  "solcInputHash": "d88e567460db397e235afff343693813",
  "bytecode": "0x60a06040523073ffffffffffffffffffffffffffffffffffffffff1660809073ffffffffffffffffffffffffffffffffffffffff1660601b81525034801561004657600080fd5b5060805160601c613af861007a60003960008181610ccd01528181610d5c01528181610fe101526110700152613af86000f3fe6080604052600436106101d85760003560e01c8063609c951a11610102578063b6e5c6ca11610095578063eb9b93bc11610064578063eb9b93bc14610652578063f2fde38b1461066e578063f8b2cb4f14610697578063fed8c3a6146106d4576101d8565b8063b6e5c6ca146105ac578063b800f993146105d5578063d851f1f4146105ec578063eb990c5914610615576101d8565b8063882f3e16116100d1578063882f3e16146105045780638abdf5aa1461052d5780638da5cb5b1461055857806396d0a30314610583576101d8565b8063609c951a14610457578063715018a61461048057806372e39cc9146104975780637c033df7146104d9576101d8565b80633659cfe61161017a5780634f1ef286116101495780634f1ef286146103aa5780635300f841146103c65780635c385ba8146104035780635f8568cd1461042e576101d8565b80633659cfe6146103165780633c263d331461033f57806341b3d185146103565780634cd9bf5814610381576101d8565b80631a8fbf67116101b65780631a8fbf671461026e5780631e166f1c14610299578063215b1032146102c45780632c48e7db146102ed576101d8565b8063054f7d9c146101dd5780630e74015614610208578063116e354b14610231575b600080fd5b3480156101e957600080fd5b506101f26106fd565b6040516101ff9190613186565b60405180910390f35b34801561021457600080fd5b5061022f600480360381019061022a9190612dcf565b610710565b005b34801561023d57600080fd5b5061025860048036038101906102539190612d54565b610957565b6040516102659190613186565b60405180910390f35b34801561027a57600080fd5b50610283610977565b604051610290919061310b565b60405180910390f35b3480156102a557600080fd5b506102ae61099d565b6040516102bb91906133a3565b60405180910390f35b3480156102d057600080fd5b506102eb60048036038101906102e69190612d7d565b6109a3565b005b3480156102f957600080fd5b50610314600480360381019061030f9190612d7d565b610a29565b005b34801561032257600080fd5b5061033d60048036038101906103389190612bd3565b610ccb565b005b34801561034b57600080fd5b50610354610e7a565b005b34801561036257600080fd5b5061036b610f13565b60405161037891906133a3565b60405180910390f35b34801561038d57600080fd5b506103a860048036038101906103a39190612bfc565b610f19565b005b6103c460048036038101906103bf9190612c88565b610fdf565b005b3480156103d257600080fd5b506103ed60048036038101906103e89190612bd3565b61111c565b6040516103fa9190613186565b60405180910390f35b34801561040f57600080fd5b5061041861113c565b60405161042591906133a3565b60405180910390f35b34801561043a57600080fd5b5061045560048036038101906104509190612bd3565b611142565b005b34801561046357600080fd5b5061047e60048036038101906104799190612d54565b611202565b005b34801561048c57600080fd5b506104956112b5565b005b3480156104a357600080fd5b506104be60048036038101906104b99190612d7d565b61133d565b6040516104d0969594939291906133e7565b60405180910390f35b3480156104e557600080fd5b506104ee6113b4565b6040516104fb91906133a3565b60405180910390f35b34801561051057600080fd5b5061052b60048036038101906105269190612bd3565b6113ba565b005b34801561053957600080fd5b50610542611593565b60405161054f91906133a3565b60405180910390f35b34801561056457600080fd5b5061056d611599565b60405161057a919061310b565b60405180910390f35b34801561058f57600080fd5b506105aa60048036038101906105a59190612d54565b6115c3565b005b3480156105b857600080fd5b506105d360048036038101906105ce9190612bd3565b611676565b005b3480156105e157600080fd5b506105ea61174d565b005b3480156105f857600080fd5b50610613600480360381019061060e9190612bd3565b6117e6565b005b34801561062157600080fd5b5061063c60048036038101906106379190612c25565b6118bd565b6040516106499190613186565b60405180910390f35b61066c60048036038101906106679190612d05565b611a09565b005b34801561067a57600080fd5b5061069560048036038101906106909190612bd3565b611daf565b005b3480156106a357600080fd5b506106be60048036038101906106b99190612bd3565b611ea7565b6040516106cb91906133a3565b60405180910390f35b3480156106e057600080fd5b506106fb60048036038101906106f69190612d7d565b611ec8565b005b60d160149054906101000a900460ff1681565b6001151560ca60003373ffffffffffffffffffffffffffffffffffffffff1673ffffffffffffffffffffffffffffffffffffffff16815260200190815260200160002060009054906101000a900460ff161515146107a3576040517f08c379a000000000000000000000000000000000000000000000000000000000815260040161079a90613223565b60405180910390fd5b60d160149054906101000a900460ff16156107f3576040517f08c379a00000000000000000000000000000000000000000000000000000000081526004016107ea90613363565b60405180910390fd5b60ce548414610837576040517f08c379a000000000000000000000000000000000000000000000000000000000815260040161082e90613303565b60405180910390fd5b60d160009054906101000a900473ffffffffffffffffffffffffffffffffffffffff1673ffffffffffffffffffffffffffffffffffffffff1663a9059cbb83836040518363ffffffff1660e01b815260040161089492919061315d565b602060405180830381600087803b1580156108ae57600080fd5b505af11580156108c2573d6000803e3d6000fd5b505050506040513d601f19601f820116820180604052508101906108e69190612cdc565b50600160ce60008282546108fa91906134d0565b925050819055508173ffffffffffffffffffffffffffffffffffffffff1683857f60c4bb98a247ace5183d5a5fa34a6cf34ce8101a7608d5edcd508cb5de5e222e8460405161094991906133a3565b60405180910390a450505050565b60cb6020528060005260406000206000915054906101000a900460ff1681565b60d160009054906101000a900473ffffffffffffffffffffffffffffffffffffffff1681565b60cc5481565b6109ab611f4e565b73ffffffffffffffffffffffffffffffffffffffff166109c9611599565b73ffffffffffffffffffffffffffffffffffffffff1614610a1f576040517f08c379a0000000000000000000000000000000000000000000000000000000008152600401610a1690613343565b60405180910390fd5b8060cf8190555050565b6001151560ca60003373ffffffffffffffffffffffffffffffffffffffff1673ffffffffffffffffffffffffffffffffffffffff16815260200190815260200160002060009054906101000a900460ff16151514610abc576040517f08c379a0000000000000000000000000000000000000000000000000000000008152600401610ab390613223565b60405180910390fd5b60d160149054906101000a900460ff1615610b0c576040517f08c379a0000000000000000000000000000000000000000000000000000000008152600401610b0390613363565b60405180910390fd5b60cc5460cd5410610b52576040517f08c379a0000000000000000000000000000000000000000000000000000000008152600401610b49906132e3565b60405180910390fd5b8060cd5414610b96576040517f08c379a0000000000000000000000000000000000000000000000000000000008152600401610b8d90613303565b60405180910390fd5b600060c960008381526020019081526020016000206040518060c001604052908160008201548152602001600182015481526020016002820160009054906101000a900473ffffffffffffffffffffffffffffffffffffffff1673ffffffffffffffffffffffffffffffffffffffff1673ffffffffffffffffffffffffffffffffffffffff168152602001600382015481526020016004820160009054906101000a900461ffff1661ffff1661ffff1681526020016004820160029054906101000a900460ff16151515158152505090503373ffffffffffffffffffffffffffffffffffffffff166108fc82602001519081150290604051600060405180830381858888f19350505050158015610cb1573d6000803e3d6000fd5b50600160cd54610cc191906134d0565b60cd819055505050565b7f000000000000000000000000000000000000000000000000000000000000000073ffffffffffffffffffffffffffffffffffffffff163073ffffffffffffffffffffffffffffffffffffffff161415610d5a576040517f08c379a0000000000000000000000000000000000000000000000000000000008152600401610d5190613243565b60405180910390fd5b7f000000000000000000000000000000000000000000000000000000000000000073ffffffffffffffffffffffffffffffffffffffff16610d99611f56565b73ffffffffffffffffffffffffffffffffffffffff1614610def576040517f08c379a0000000000000000000000000000000000000000000000000000000008152600401610de690613263565b60405180910390fd5b610df881611fad565b610e7781600067ffffffffffffffff811115610e3d577f4e487b7100000000000000000000000000000000000000000000000000000000600052604160045260246000fd5b6040519080825280601f01601f191660200182016040528015610e6f5781602001600182028036833780820191505090505b50600061202c565b50565b610e82611f4e565b73ffffffffffffffffffffffffffffffffffffffff16610ea0611599565b73ffffffffffffffffffffffffffffffffffffffff1614610ef6576040517f08c379a0000000000000000000000000000000000000000000000000000000008152600401610eed90613343565b60405180910390fd5b600060d160146101000a81548160ff021916908315150217905550565b60d05481565b610f21611f4e565b73ffffffffffffffffffffffffffffffffffffffff16610f3f611599565b73ffffffffffffffffffffffffffffffffffffffff1614610f95576040517f08c379a0000000000000000000000000000000000000000000000000000000008152600401610f8c90613343565b60405180910390fd5b8073ffffffffffffffffffffffffffffffffffffffff166108fc479081150290604051600060405180830381858888f19350505050158015610fdb573d6000803e3d6000fd5b5050565b7f000000000000000000000000000000000000000000000000000000000000000073ffffffffffffffffffffffffffffffffffffffff163073ffffffffffffffffffffffffffffffffffffffff16141561106e576040517f08c379a000000000000000000000000000000000000000000000000000000000815260040161106590613243565b60405180910390fd5b7f000000000000000000000000000000000000000000000000000000000000000073ffffffffffffffffffffffffffffffffffffffff166110ad611f56565b73ffffffffffffffffffffffffffffffffffffffff1614611103576040517f08c379a00000000000000000000000000000000000000000000000000000000081526004016110fa90613263565b60405180910390fd5b61110c82611fad565b6111188282600161202c565b5050565b60ca6020528060005260406000206000915054906101000a900460ff1681565b60ce5481565b61114a611f4e565b73ffffffffffffffffffffffffffffffffffffffff16611168611599565b73ffffffffffffffffffffffffffffffffffffffff16146111be576040517f08c379a00000000000000000000000000000000000000000000000000000000081526004016111b590613343565b60405180910390fd5b8060d160006101000a81548173ffffffffffffffffffffffffffffffffffffffff021916908373ffffffffffffffffffffffffffffffffffffffff16021790555050565b61120a611f4e565b73ffffffffffffffffffffffffffffffffffffffff16611228611599565b73ffffffffffffffffffffffffffffffffffffffff161461127e576040517f08c379a000000000000000000000000000000000000000000000000000000000815260040161127590613343565b60405180910390fd5b600160cb60008361ffff1661ffff16815260200190815260200160002060006101000a81548160ff02191690831515021790555050565b6112bd611f4e565b73ffffffffffffffffffffffffffffffffffffffff166112db611599565b73ffffffffffffffffffffffffffffffffffffffff1614611331576040517f08c379a000000000000000000000000000000000000000000000000000000000815260040161132890613343565b60405180910390fd5b61133b60006121fd565b565b60c96020528060005260406000206000915090508060000154908060010154908060020160009054906101000a900473ffffffffffffffffffffffffffffffffffffffff16908060030154908060040160009054906101000a900461ffff16908060040160029054906101000a900460ff16905086565b60cd5481565b6113c2611f4e565b73ffffffffffffffffffffffffffffffffffffffff166113e0611599565b73ffffffffffffffffffffffffffffffffffffffff1614611436576040517f08c379a000000000000000000000000000000000000000000000000000000000815260040161142d90613343565b60405180910390fd5b60d160009054906101000a900473ffffffffffffffffffffffffffffffffffffffff1673ffffffffffffffffffffffffffffffffffffffff1663a9059cbb8260d160009054906101000a900473ffffffffffffffffffffffffffffffffffffffff1673ffffffffffffffffffffffffffffffffffffffff166370a08231306040518263ffffffff1660e01b81526004016114d0919061310b565b60206040518083038186803b1580156114e857600080fd5b505afa1580156114fc573d6000803e3d6000fd5b505050506040513d601f19601f820116820180604052508101906115209190612da6565b6040518363ffffffff1660e01b815260040161153d92919061315d565b602060405180830381600087803b15801561155757600080fd5b505af115801561156b573d6000803e3d6000fd5b505050506040513d601f19601f8201168201806040525081019061158f9190612cdc565b5050565b60cf5481565b6000603360009054906101000a900473ffffffffffffffffffffffffffffffffffffffff16905090565b6115cb611f4e565b73ffffffffffffffffffffffffffffffffffffffff166115e9611599565b73ffffffffffffffffffffffffffffffffffffffff161461163f576040517f08c379a000000000000000000000000000000000000000000000000000000000815260040161163690613343565b60405180910390fd5b600060cb60008361ffff1661ffff16815260200190815260200160002060006101000a81548160ff02191690831515021790555050565b61167e611f4e565b73ffffffffffffffffffffffffffffffffffffffff1661169c611599565b73ffffffffffffffffffffffffffffffffffffffff16146116f2576040517f08c379a00000000000000000000000000000000000000000000000000000000081526004016116e990613343565b60405180910390fd5b600060ca60008373ffffffffffffffffffffffffffffffffffffffff1673ffffffffffffffffffffffffffffffffffffffff16815260200190815260200160002060006101000a81548160ff02191690831515021790555050565b611755611f4e565b73ffffffffffffffffffffffffffffffffffffffff16611773611599565b73ffffffffffffffffffffffffffffffffffffffff16146117c9576040517f08c379a00000000000000000000000000000000000000000000000000000000081526004016117c090613343565b60405180910390fd5b600160d160146101000a81548160ff021916908315150217905550565b6117ee611f4e565b73ffffffffffffffffffffffffffffffffffffffff1661180c611599565b73ffffffffffffffffffffffffffffffffffffffff1614611862576040517f08c379a000000000000000000000000000000000000000000000000000000000815260040161185990613343565b60405180910390fd5b600160ca60008373ffffffffffffffffffffffffffffffffffffffff1673ffffffffffffffffffffffffffffffffffffffff16815260200190815260200160002060006101000a81548160ff02191690831515021790555050565b60008060019054906101000a900460ff16806118e4575060008054906101000a900460ff16155b611923576040517f08c379a000000000000000000000000000000000000000000000000000000000815260040161191a906132a3565b60405180910390fd5b60008060019054906101000a900460ff161590508015611973576001600060016101000a81548160ff02191690831515021790555060016000806101000a81548160ff0219169083151502179055505b61197b6122c3565b6119836123ac565b8460d160006101000a81548173ffffffffffffffffffffffffffffffffffffffff021916908373ffffffffffffffffffffffffffffffffffffffff1602179055508360cf819055508260d0819055506119db86611daf565b600191508015611a005760008060016101000a81548160ff0219169083151502179055505b50949350505050565b60d160149054906101000a900460ff1615611a59576040517f08c379a0000000000000000000000000000000000000000000000000000000008152600401611a5090613363565b60405180910390fd5b60cb60008261ffff1661ffff16815260200190815260200160002060009054906101000a900460ff16611ac1576040517f08c379a0000000000000000000000000000000000000000000000000000000008152600401611ab8906131c3565b60405180910390fd5b60cf543414611b05576040517f08c379a0000000000000000000000000000000000000000000000000000000008152600401611afc90613283565b60405180910390fd5b60d054821015611b4a576040517f08c379a0000000000000000000000000000000000000000000000000000000008152600401611b41906132c3565b60405180910390fd5b60d160009054906101000a900473ffffffffffffffffffffffffffffffffffffffff1673ffffffffffffffffffffffffffffffffffffffff166323b872dd3330856040518463ffffffff1660e01b8152600401611ba993929190613126565b602060405180830381600087803b158015611bc357600080fd5b505af1158015611bd7573d6000803e3d6000fd5b505050506040513d601f19601f82011682018060405250810190611bfb9190612cdc565b50611c04612a83565b348160200181815250508281600001818152505033816040019073ffffffffffffffffffffffffffffffffffffffff16908173ffffffffffffffffffffffffffffffffffffffff16815250508381606001818152505081816080019061ffff16908161ffff168152505060018160a00190151590811515815250508060c9600060cc548152602001908152602001600020600082015181600001556020820151816001015560408201518160020160006101000a81548173ffffffffffffffffffffffffffffffffffffffff021916908373ffffffffffffffffffffffffffffffffffffffff1602179055506060820151816003015560808201518160040160006101000a81548161ffff021916908361ffff16021790555060a08201518160040160026101000a81548160ff021916908315150217905550905050833373ffffffffffffffffffffffffffffffffffffffff1660cc547f6eda71a50ae771fd150241e0e84416fc65df5420a5513ddf916f82ed22eebaeb8686604051611d8c9291906133be565b60405180910390a4600160cc54611da391906134d0565b60cc8190555050505050565b611db7611f4e565b73ffffffffffffffffffffffffffffffffffffffff16611dd5611599565b73ffffffffffffffffffffffffffffffffffffffff1614611e2b576040517f08c379a0000000000000000000000000000000000000000000000000000000008152600401611e2290613343565b60405180910390fd5b600073ffffffffffffffffffffffffffffffffffffffff168173ffffffffffffffffffffffffffffffffffffffff161415611e9b576040517f08c379a0000000000000000000000000000000000000000000000000000000008152600401611e9290613203565b60405180910390fd5b611ea4816121fd565b50565b60008173ffffffffffffffffffffffffffffffffffffffff16319050919050565b611ed0611f4e565b73ffffffffffffffffffffffffffffffffffffffff16611eee611599565b73ffffffffffffffffffffffffffffffffffffffff1614611f44576040517f08c379a0000000000000000000000000000000000000000000000000000000008152600401611f3b90613343565b60405180910390fd5b8060d08190555050565b600033905090565b6000611f847f360894a13ba1a3210667c828492db98dca3e2076cc3735a920a3ca505d382bbc60001b612495565b60000160009054906101000a900473ffffffffffffffffffffffffffffffffffffffff16905090565b611fb5611f4e565b73ffffffffffffffffffffffffffffffffffffffff16611fd3611599565b73ffffffffffffffffffffffffffffffffffffffff1614612029576040517f08c379a000000000000000000000000000000000000000000000000000000000815260040161202090613343565b60405180910390fd5b50565b6000612036611f56565b90506120418461249f565b60008351118061204e5750815b1561205f5761205d8484612558565b505b600061208d7f4910fdfa16fed3260ed0e7147f7cc6da11a60208b5b9406d12a635614ffd914360001b61263c565b90508060000160009054906101000a900460ff166121f65760018160000160006101000a81548160ff02191690831515021790555061215985836040516024016120d7919061310b565b6040516020818303038152906040527f3659cfe6000000000000000000000000000000000000000000000000000000007bffffffffffffffffffffffffffffffffffffffffffffffffffffffff19166020820180517bffffffffffffffffffffffffffffffffffffffffffffffffffffffff8381831617835250505050612558565b5060008160000160006101000a81548160ff02191690831515021790555061217f611f56565b73ffffffffffffffffffffffffffffffffffffffff168273ffffffffffffffffffffffffffffffffffffffff16146121ec576040517f08c379a00000000000000000000000000000000000000000000000000000000081526004016121e3906131e3565b60405180910390fd5b6121f585612646565b5b5050505050565b6000603360009054906101000a900473ffffffffffffffffffffffffffffffffffffffff16905081603360006101000a81548173ffffffffffffffffffffffffffffffffffffffff021916908373ffffffffffffffffffffffffffffffffffffffff1602179055508173ffffffffffffffffffffffffffffffffffffffff168173ffffffffffffffffffffffffffffffffffffffff167f8be0079c531659141344cd1fd0a4f28419497f9722a3daafe3b4186f6b6457e060405160405180910390a35050565b600060019054906101000a900460ff16806122e9575060008054906101000a900460ff16155b612328576040517f08c379a000000000000000000000000000000000000000000000000000000000815260040161231f906132a3565b60405180910390fd5b60008060019054906101000a900460ff161590508015612378576001600060016101000a81548160ff02191690831515021790555060016000806101000a81548160ff0219169083151502179055505b612380612695565b61238861276e565b80156123a95760008060016101000a81548160ff0219169083151502179055505b50565b600060019054906101000a900460ff16806123d2575060008054906101000a900460ff16155b612411576040517f08c379a0000000000000000000000000000000000000000000000000000000008152600401612408906132a3565b60405180910390fd5b60008060019054906101000a900460ff161590508015612461576001600060016101000a81548160ff02191690831515021790555060016000806101000a81548160ff0219169083151502179055505b612469612857565b612471612930565b80156124925760008060016101000a81548160ff0219169083151502179055505b50565b6000819050919050565b6124a881612a09565b6124e7576040517f08c379a00000000000000000000000000000000000000000000000000000000081526004016124de90613323565b60405180910390fd5b806125147f360894a13ba1a3210667c828492db98dca3e2076cc3735a920a3ca505d382bbc60001b612495565b60000160006101000a81548173ffffffffffffffffffffffffffffffffffffffff021916908373ffffffffffffffffffffffffffffffffffffffff16021790555050565b606061256383612a09565b6125a2576040517f08c379a000000000000000000000000000000000000000000000000000000000815260040161259990613383565b60405180910390fd5b6000808473ffffffffffffffffffffffffffffffffffffffff16846040516125ca91906130f4565b600060405180830381855af49150503d8060008114612605576040519150601f19603f3d011682016040523d82523d6000602084013e61260a565b606091505b50915091506126328282604051806060016040528060278152602001613a9c60279139612a1c565b9250505092915050565b6000819050919050565b61264f8161249f565b8073ffffffffffffffffffffffffffffffffffffffff167fbc7cd75a20ee27fd9adebab32041f755214dbc6bffa90cc0225b39da2e5c2d3b60405160405180910390a250565b600060019054906101000a900460ff16806126bb575060008054906101000a900460ff16155b6126fa576040517f08c379a00000000000000000000000000000000000000000000000000000000081526004016126f1906132a3565b60405180910390fd5b60008060019054906101000a900460ff16159050801561274a576001600060016101000a81548160ff02191690831515021790555060016000806101000a81548160ff0219169083151502179055505b801561276b5760008060016101000a81548160ff0219169083151502179055505b50565b600060019054906101000a900460ff1680612794575060008054906101000a900460ff16155b6127d3576040517f08c379a00000000000000000000000000000000000000000000000000000000081526004016127ca906132a3565b60405180910390fd5b60008060019054906101000a900460ff161590508015612823576001600060016101000a81548160ff02191690831515021790555060016000806101000a81548160ff0219169083151502179055505b61283361282e611f4e565b6121fd565b80156128545760008060016101000a81548160ff0219169083151502179055505b50565b600060019054906101000a900460ff168061287d575060008054906101000a900460ff16155b6128bc576040517f08c379a00000000000000000000000000000000000000000000000000000000081526004016128b3906132a3565b60405180910390fd5b60008060019054906101000a900460ff16159050801561290c576001600060016101000a81548160ff02191690831515021790555060016000806101000a81548160ff0219169083151502179055505b801561292d5760008060016101000a81548160ff0219169083151502179055505b50565b600060019054906101000a900460ff1680612956575060008054906101000a900460ff16155b612995576040517f08c379a000000000000000000000000000000000000000000000000000000000815260040161298c906132a3565b60405180910390fd5b60008060019054906101000a900460ff1615905080156129e5576001600060016101000a81548160ff02191690831515021790555060016000806101000a81548160ff0219169083151502179055505b8015612a065760008060016101000a81548160ff0219169083151502179055505b50565b600080823b905060008111915050919050565b60608315612a2c57829050612a7c565b600083511115612a3f5782518084602001fd5b816040517f08c379a0000000000000000000000000000000000000000000000000000000008152600401612a7391906131a1565b60405180910390fd5b9392505050565b6040518060c001604052806000815260200160008152602001600073ffffffffffffffffffffffffffffffffffffffff16815260200160008019168152602001600061ffff1681526020016000151581525090565b6000612aeb612ae68461346d565b613448565b905082815260208101848484011115612b0357600080fd5b612b0e848285613598565b509392505050565b600081359050612b2581613a11565b92915050565b600081359050612b3a81613a28565b92915050565b600081519050612b4f81613a3f565b92915050565b600081359050612b6481613a56565b92915050565b600082601f830112612b7b57600080fd5b8135612b8b848260208601612ad8565b91505092915050565b600081359050612ba381613a6d565b92915050565b600081359050612bb881613a84565b92915050565b600081519050612bcd81613a84565b92915050565b600060208284031215612be557600080fd5b6000612bf384828501612b16565b91505092915050565b600060208284031215612c0e57600080fd5b6000612c1c84828501612b2b565b91505092915050565b60008060008060808587031215612c3b57600080fd5b6000612c4987828801612b16565b9450506020612c5a87828801612b16565b9350506040612c6b87828801612ba9565b9250506060612c7c87828801612ba9565b91505092959194509250565b60008060408385031215612c9b57600080fd5b6000612ca985828601612b16565b925050602083013567ffffffffffffffff811115612cc657600080fd5b612cd285828601612b6a565b9150509250929050565b600060208284031215612cee57600080fd5b6000612cfc84828501612b40565b91505092915050565b600080600060608486031215612d1a57600080fd5b6000612d2886828701612b55565b9350506020612d3986828701612ba9565b9250506040612d4a86828701612b94565b9150509250925092565b600060208284031215612d6657600080fd5b6000612d7484828501612b94565b91505092915050565b600060208284031215612d8f57600080fd5b6000612d9d84828501612ba9565b91505092915050565b600060208284031215612db857600080fd5b6000612dc684828501612bbe565b91505092915050565b60008060008060808587031215612de557600080fd5b6000612df387828801612ba9565b9450506020612e0487828801612b55565b9350506040612e1587828801612b16565b9250506060612e2687828801612ba9565b91505092959194509250565b612e3b81613526565b82525050565b612e4a8161354a565b82525050565b612e5981613556565b82525050565b6000612e6a8261349e565b612e7481856134b4565b9350612e848185602086016135a7565b80840191505092915050565b6000612e9b826134a9565b612ea581856134bf565b9350612eb58185602086016135a7565b612ebe81613669565b840191505092915050565b6000612ed66011836134bf565b9150612ee18261367a565b602082019050919050565b6000612ef9602f836134bf565b9150612f04826136a3565b604082019050919050565b6000612f1c6026836134bf565b9150612f27826136f2565b604082019050919050565b6000612f3f6024836134bf565b9150612f4a82613741565b604082019050919050565b6000612f62602c836134bf565b9150612f6d82613790565b604082019050919050565b6000612f85602c836134bf565b9150612f90826137df565b604082019050919050565b6000612fa86013836134bf565b9150612fb38261382e565b602082019050919050565b6000612fcb602e836134bf565b9150612fd682613857565b604082019050919050565b6000612fee6017836134bf565b9150612ff9826138a6565b602082019050919050565b6000613011601b836134bf565b915061301c826138cf565b602082019050919050565b60006130346013836134bf565b915061303f826138f8565b602082019050919050565b6000613057602d836134bf565b915061306282613921565b604082019050919050565b600061307a6020836134bf565b915061308582613970565b602082019050919050565b600061309d6019836134bf565b91506130a882613999565b602082019050919050565b60006130c06026836134bf565b91506130cb826139c2565b604082019050919050565b6130df81613560565b82525050565b6130ee8161358e565b82525050565b60006131008284612e5f565b915081905092915050565b60006020820190506131206000830184612e32565b92915050565b600060608201905061313b6000830186612e32565b6131486020830185612e32565b61315560408301846130e5565b949350505050565b60006040820190506131726000830185612e32565b61317f60208301846130e5565b9392505050565b600060208201905061319b6000830184612e41565b92915050565b600060208201905081810360008301526131bb8184612e90565b905092915050565b600060208201905081810360008301526131dc81612ec9565b9050919050565b600060208201905081810360008301526131fc81612eec565b9050919050565b6000602082019050818103600083015261321c81612f0f565b9050919050565b6000602082019050818103600083015261323c81612f32565b9050919050565b6000602082019050818103600083015261325c81612f55565b9050919050565b6000602082019050818103600083015261327c81612f78565b9050919050565b6000602082019050818103600083015261329c81612f9b565b9050919050565b600060208201905081810360008301526132bc81612fbe565b9050919050565b600060208201905081810360008301526132dc81612fe1565b9050919050565b600060208201905081810360008301526132fc81613004565b9050919050565b6000602082019050818103600083015261331c81613027565b9050919050565b6000602082019050818103600083015261333c8161304a565b9050919050565b6000602082019050818103600083015261335c8161306d565b9050919050565b6000602082019050818103600083015261337c81613090565b9050919050565b6000602082019050818103600083015261339c816130b3565b9050919050565b60006020820190506133b860008301846130e5565b92915050565b60006040820190506133d360008301856130e5565b6133e060208301846130d6565b9392505050565b600060c0820190506133fc60008301896130e5565b61340960208301886130e5565b6134166040830187612e32565b6134236060830186612e50565b61343060808301856130d6565b61343d60a0830184612e41565b979650505050505050565b6000613452613463565b905061345e82826135da565b919050565b6000604051905090565b600067ffffffffffffffff8211156134885761348761363a565b5b61349182613669565b9050602081019050919050565b600081519050919050565b600081519050919050565b600081905092915050565b600082825260208201905092915050565b60006134db8261358e565b91506134e68361358e565b9250827fffffffffffffffffffffffffffffffffffffffffffffffffffffffffffffffff0382111561351b5761351a61360b565b5b828201905092915050565b60006135318261356e565b9050919050565b60006135438261356e565b9050919050565b60008115159050919050565b6000819050919050565b600061ffff82169050919050565b600073ffffffffffffffffffffffffffffffffffffffff82169050919050565b6000819050919050565b82818337600083830152505050565b60005b838110156135c55780820151818401526020810190506135aa565b838111156135d4576000848401525b50505050565b6135e382613669565b810181811067ffffffffffffffff821117156136025761360161363a565b5b80604052505050565b7f4e487b7100000000000000000000000000000000000000000000000000000000600052601160045260246000fd5b7f4e487b7100000000000000000000000000000000000000000000000000000000600052604160045260246000fd5b6000601f19601f8301169050919050565b7f556e737570706f7274656420636861696e000000000000000000000000000000600082015250565b7f45524331393637557067726164653a207570677261646520627265616b73206660008201527f7572746865722075706772616465730000000000000000000000000000000000602082015250565b7f4f776e61626c653a206e6577206f776e657220697320746865207a65726f206160008201527f6464726573730000000000000000000000000000000000000000000000000000602082015250565b7f43616c6c6572206973206e6f742074686520726567697374657265642072656c60008201527f6179657200000000000000000000000000000000000000000000000000000000602082015250565b7f46756e6374696f6e206d7573742062652063616c6c6564207468726f7567682060008201527f64656c656761746563616c6c0000000000000000000000000000000000000000602082015250565b7f46756e6374696f6e206d7573742062652063616c6c6564207468726f7567682060008201527f6163746976652070726f78790000000000000000000000000000000000000000602082015250565b7f4d697373696e6720736572766963652066656500000000000000000000000000600082015250565b7f496e697469616c697a61626c653a20636f6e747261637420697320616c72656160008201527f647920696e697469616c697a6564000000000000000000000000000000000000602082015250565b7f4d696e696d756d20616d6f756e74207265717569726564000000000000000000600082015250565b7f416c6c207472616e73666572732061726520636f6e6669726d65640000000000600082015250565b7f496e76616c6964207472616e7366657220696400000000000000000000000000600082015250565b7f455243313936373a206e657720696d706c656d656e746174696f6e206973206e60008201527f6f74206120636f6e747261637400000000000000000000000000000000000000602082015250565b7f4f776e61626c653a2063616c6c6572206973206e6f7420746865206f776e6572600082015250565b7f4272696467652069732066726f7a656e2062792061646d696e00000000000000600082015250565b7f416464726573733a2064656c65676174652063616c6c20746f206e6f6e2d636f60008201527f6e74726163740000000000000000000000000000000000000000000000000000602082015250565b613a1a81613526565b8114613a2557600080fd5b50565b613a3181613538565b8114613a3c57600080fd5b50565b613a488161354a565b8114613a5357600080fd5b50565b613a5f81613556565b8114613a6a57600080fd5b50565b613a7681613560565b8114613a8157600080fd5b50565b613a8d8161358e565b8114613a9857600080fd5b5056fe416464726573733a206c6f772d6c6576656c2064656c65676174652063616c6c206661696c6564a2646970667358221220a93382375ee84cfa04b7731c10a11de9523a9c8553d3a7633831cf6ffa9d2e8064736f6c63430008040033",
  "devdoc": {
    "kind": "dev",
    "methods": {
      "owner()": {
        "details": "Returns the address of the current owner."
      },
      "renounceOwnership()": {
        "details": "Leaves the contract without owner. It will not be possible to call `onlyOwner` functions anymore. Can only be called by the current owner. NOTE: Renouncing ownership will leave the contract without an owner, thereby removing any functionality that is only available to the owner."
      },
      "transferOwnership(address)": {
        "details": "Transfers ownership of the contract to a new account (`newOwner`). Can only be called by the current owner."
      },
      "upgradeTo(address)": {
        "details": "Upgrade the implementation of the proxy to `newImplementation`. Calls {_authorizeUpgrade}. Emits an {Upgraded} event."
      },
      "upgradeToAndCall(address,bytes)": {
        "details": "Upgrade the implementation of the proxy to `newImplementation`, and subsequently execute the function call encoded in `data`. Calls {_authorizeUpgrade}. Emits an {Upgraded} event."
      }
    },
    "version": 1
  },
  "userdoc": {
    "kind": "user",
    "methods": {},
    "version": 1
  },
  "storageLayout": {
    "storage": [
      {
        "astId": 538,
        "contract": "contracts/bridge/Bridge.sol:Bridge",
        "label": "_initialized",
        "offset": 0,
        "slot": "0",
        "type": "t_bool"
      },
      {
        "astId": 541,
        "contract": "contracts/bridge/Bridge.sol:Bridge",
        "label": "_initializing",
        "offset": 1,
        "slot": "0",
        "type": "t_bool"
      },
      {
        "astId": 977,
        "contract": "contracts/bridge/Bridge.sol:Bridge",
        "label": "__gap",
        "offset": 0,
        "slot": "1",
        "type": "t_array(t_uint256)50_storage"
      },
      {
        "astId": 10,
        "contract": "contracts/bridge/Bridge.sol:Bridge",
        "label": "_owner",
        "offset": 0,
        "slot": "51",
        "type": "t_address"
      },
      {
        "astId": 123,
        "contract": "contracts/bridge/Bridge.sol:Bridge",
        "label": "__gap",
        "offset": 0,
        "slot": "52",
        "type": "t_array(t_uint256)49_storage"
      },
      {
        "astId": 521,
        "contract": "contracts/bridge/Bridge.sol:Bridge",
        "label": "__gap",
        "offset": 0,
        "slot": "101",
        "type": "t_array(t_uint256)50_storage"
      },
      {
        "astId": 688,
        "contract": "contracts/bridge/Bridge.sol:Bridge",
        "label": "__gap",
        "offset": 0,
        "slot": "151",
        "type": "t_array(t_uint256)50_storage"
      },
      {
        "astId": 1065,
        "contract": "contracts/bridge/Bridge.sol:Bridge",
        "label": "outboundTransfers",
        "offset": 0,
        "slot": "201",
        "type": "t_mapping(t_uint256,t_struct(TransferInfo)1060_storage)"
      },
      {
        "astId": 1069,
        "contract": "contracts/bridge/Bridge.sol:Bridge",
        "label": "relayers",
        "offset": 0,
        "slot": "202",
        "type": "t_mapping(t_address,t_bool)"
      },
      {
        "astId": 1073,
        "contract": "contracts/bridge/Bridge.sol:Bridge",
        "label": "chains",
        "offset": 0,
        "slot": "203",
        "type": "t_mapping(t_uint16,t_bool)"
      },
      {
        "astId": 1075,
        "contract": "contracts/bridge/Bridge.sol:Bridge",
        "label": "nextOutboundTransferId",
        "offset": 0,
        "slot": "204",
        "type": "t_uint256"
      },
      {
        "astId": 1077,
        "contract": "contracts/bridge/Bridge.sol:Bridge",
        "label": "nextConfirmOutboundTransferId",
        "offset": 0,
        "slot": "205",
        "type": "t_uint256"
      },
      {
        "astId": 1079,
        "contract": "contracts/bridge/Bridge.sol:Bridge",
        "label": "nextInboundTransferId",
        "offset": 0,
        "slot": "206",
        "type": "t_uint256"
      },
      {
        "astId": 1081,
        "contract": "contracts/bridge/Bridge.sol:Bridge",
        "label": "serviceFee",
        "offset": 0,
        "slot": "207",
        "type": "t_uint256"
      },
      {
        "astId": 1083,
        "contract": "contracts/bridge/Bridge.sol:Bridge",
        "label": "minDeposit",
        "offset": 0,
        "slot": "208",
        "type": "t_uint256"
      },
      {
        "astId": 1085,
        "contract": "contracts/bridge/Bridge.sol:Bridge",
        "label": "bholdusToken",
        "offset": 0,
        "slot": "209",
        "type": "t_address"
      },
      {
        "astId": 1087,
        "contract": "contracts/bridge/Bridge.sol:Bridge",
        "label": "frozen",
        "offset": 20,
        "slot": "209",
        "type": "t_bool"
      }
    ],
    "types": {
      "t_address": {
        "encoding": "inplace",
        "label": "address",
        "numberOfBytes": "20"
      },
      "t_array(t_uint256)49_storage": {
        "base": "t_uint256",
        "encoding": "inplace",
        "label": "uint256[49]",
        "numberOfBytes": "1568"
      },
      "t_array(t_uint256)50_storage": {
        "base": "t_uint256",
        "encoding": "inplace",
        "label": "uint256[50]",
        "numberOfBytes": "1600"
      },
      "t_bool": {
        "encoding": "inplace",
        "label": "bool",
        "numberOfBytes": "1"
      },
      "t_bytes32": {
        "encoding": "inplace",
        "label": "bytes32",
        "numberOfBytes": "32"
      },
      "t_mapping(t_address,t_bool)": {
        "encoding": "mapping",
        "key": "t_address",
        "label": "mapping(address => bool)",
        "numberOfBytes": "32",
        "value": "t_bool"
      },
      "t_mapping(t_uint16,t_bool)": {
        "encoding": "mapping",
        "key": "t_uint16",
        "label": "mapping(uint16 => bool)",
        "numberOfBytes": "32",
        "value": "t_bool"
      },
      "t_mapping(t_uint256,t_struct(TransferInfo)1060_storage)": {
        "encoding": "mapping",
        "key": "t_uint256",
        "label": "mapping(uint256 => struct Bridge.TransferInfo)",
        "numberOfBytes": "32",
        "value": "t_struct(TransferInfo)1060_storage"
      },
      "t_struct(TransferInfo)1060_storage": {
        "encoding": "inplace",
        "label": "struct Bridge.TransferInfo",
        "members": [
          {
            "astId": 1049,
            "contract": "contracts/bridge/Bridge.sol:Bridge",
            "label": "amount",
            "offset": 0,
            "slot": "0",
            "type": "t_uint256"
          },
          {
            "astId": 1051,
            "contract": "contracts/bridge/Bridge.sol:Bridge",
            "label": "serviceFee",
            "offset": 0,
            "slot": "1",
            "type": "t_uint256"
          },
          {
            "astId": 1053,
            "contract": "contracts/bridge/Bridge.sol:Bridge",
            "label": "from",
            "offset": 0,
            "slot": "2",
            "type": "t_address"
          },
          {
            "astId": 1055,
            "contract": "contracts/bridge/Bridge.sol:Bridge",
            "label": "to",
            "offset": 0,
            "slot": "3",
            "type": "t_bytes32"
          },
          {
            "astId": 1057,
            "contract": "contracts/bridge/Bridge.sol:Bridge",
            "label": "targetChain",
            "offset": 0,
            "slot": "4",
            "type": "t_uint16"
          },
          {
            "astId": 1059,
            "contract": "contracts/bridge/Bridge.sol:Bridge",
            "label": "isExist",
            "offset": 2,
            "slot": "4",
            "type": "t_bool"
          }
        ],
        "numberOfBytes": "160"
      },
      "t_uint16": {
        "encoding": "inplace",
        "label": "uint16",
        "numberOfBytes": "2"
      },
      "t_uint256": {
        "encoding": "inplace",
        "label": "uint256",
        "numberOfBytes": "32"
      }
    }
  }
}