{
  "address": "0xd9f7A8B500344F3C005a952F286e9dFa147732e1",
  "abi": [
    {
      "anonymous": false,
      "inputs": [
        {
          "indexed": false,
          "internalType": "address",
          "name": "proxy",
          "type": "address"
        },
        {
          "indexed": false,
          "internalType": "address",
          "name": "implementation",
          "type": "address"
        },
        {
          "indexed": false,
          "internalType": "address",
          "name": "proxyOwner",
          "type": "address"
        }
      ],
      "name": "ProxyCreated",
      "type": "event"
    },
    {
      "inputs": [
        {
          "internalType": "address",
          "name": "owner_",
          "type": "address"
        },
        {
          "internalType": "address",
          "name": "lock",
          "type": "address"
        },
        {
          "internalType": "address",
          "name": "user_",
          "type": "address"
        },
        {
          "internalType": "address",
          "name": "token_",
          "type": "address"
        },
        {
          "internalType": "uint32[]",
          "name": "lockDurations_",
          "type": "uint32[]"
        },
        {
          "internalType": "uint256[]",
          "name": "releaseAmounts_",
          "type": "uint256[]"
        },
        {
          "internalType": "uint64",
          "name": "startDate_",
          "type": "uint64"
        }
      ],
      "name": "createProxy",
      "outputs": [
        {
          "internalType": "address",
          "name": "",
          "type": "address"
        }
      ],
      "stateMutability": "nonpayable",
      "type": "function"
    }
  ],
  "transactionHash": "0xc170dfb4b535b3ebf786cb4ce0beb53f625adf8c37cd01190f4635f2fd2318d7",
  "args": [],
  "solcInputHash": "010a011ea4e8da41a26858e4dac2ddab",
  "bytecode": "0x608060405234801561001057600080fd5b50610875806100206000396000f3fe608060405234801561001057600080fd5b506004361061002b5760003560e01c80636300388914610030575b600080fd5b61004a60048036038101906100459190610355565b610060565b6040516100579190610594565b60405180910390f35b60008061006c8a610198565b905060008173ffffffffffffffffffffffffffffffffffffffff1663bf8626828d8c8c8c8c8c8c8c6040518963ffffffff1660e01b81526004016100b79897969594939291906105e6565b602060405180830381600087803b1580156100d157600080fd5b505af11580156100e5573d6000803e3d6000fd5b505050506040513d601f19601f82011682018060405250810190610109919061042b565b90508061014b576040517f08c379a000000000000000000000000000000000000000000000000000000000815260040161014290610679565b60405180910390fd5b7f5983cdcaa370320b76fe01a3a32a0430e6a13b9f47a55e806afb13b5aef95a12828c8e60405161017e939291906105af565b60405180910390a181925050509998505050505050505050565b60006040517f3d602d80600a3d3981f3363d3d373d3d3d363d7300000000000000000000000081528260601b60148201527f5af43d82803e903d91602b57fd5bf3000000000000000000000000000000000060288201526037816000f0915050600073ffffffffffffffffffffffffffffffffffffffff168173ffffffffffffffffffffffffffffffffffffffff161415610268576040517f08c379a000000000000000000000000000000000000000000000000000000000815260040161025f90610659565b60405180910390fd5b919050565b60008135905061027c816107e3565b92915050565b60008083601f84011261029457600080fd5b8235905067ffffffffffffffff8111156102ad57600080fd5b6020830191508360208202830111156102c557600080fd5b9250929050565b60008083601f8401126102de57600080fd5b8235905067ffffffffffffffff8111156102f757600080fd5b60208301915083602082028301111561030f57600080fd5b9250929050565b600081519050610325816107fa565b92915050565b60008135905061033a81610811565b92915050565b60008135905061034f81610828565b92915050565b600080600080600080600080600060e08a8c03121561037357600080fd5b60006103818c828d0161026d565b99505060206103928c828d0161026d565b98505060406103a38c828d0161026d565b97505060606103b48c828d0161026d565b96505060808a013567ffffffffffffffff8111156103d157600080fd5b6103dd8c828d016102cc565b955095505060a08a013567ffffffffffffffff8111156103fc57600080fd5b6104088c828d01610282565b935093505060c061041b8c828d01610340565b9150509295985092959850929598565b60006020828403121561043d57600080fd5b600061044b84828501610316565b91505092915050565b60006104608383610576565b60208301905092915050565b610475816106fa565b82525050565b600061048783856106b0565b93507f07ffffffffffffffffffffffffffffffffffffffffffffffffffffffffffffff8311156104b657600080fd5b6020830292506104c783858461075c565b82840190509392505050565b60006104df83856106c1565b93506104ea82610699565b8060005b858110156105235761050082846106e3565b61050a8882610454565b9750610515836106a3565b9250506001810190506104ee565b5085925050509392505050565b600061053d6016836106d2565b91506105488261076b565b602082019050919050565b60006105606027836106d2565b915061056b82610794565b604082019050919050565b61057f81610738565b82525050565b61058e81610748565b82525050565b60006020820190506105a9600083018461046c565b92915050565b60006060820190506105c4600083018661046c565b6105d1602083018561046c565b6105de604083018461046c565b949350505050565b600060c0820190506105fb600083018b61046c565b610608602083018a61046c565b610615604083018961046c565b81810360608301526106288187896104d3565b9050818103608083015261063d81858761047b565b905061064c60a0830184610585565b9998505050505050505050565b6000602082019050818103600083015261067281610530565b9050919050565b6000602082019050818103600083015261069281610553565b9050919050565b6000819050919050565b6000602082019050919050565b600082825260208201905092915050565b600082825260208201905092915050565b600082825260208201905092915050565b60006106f2602084018461032b565b905092915050565b600061070582610718565b9050919050565b60008115159050919050565b600073ffffffffffffffffffffffffffffffffffffffff82169050919050565b600063ffffffff82169050919050565b600067ffffffffffffffff82169050919050565b82818337600083830152505050565b7f455243313136373a20637265617465206661696c656400000000000000000000600082015250565b7f546f6b656e54696d654c6f636b4279416d6f756e7450726f78793a2063616e2760008201527f7420736574757000000000000000000000000000000000000000000000000000602082015250565b6107ec816106fa565b81146107f757600080fd5b50565b6108038161070c565b811461080e57600080fd5b50565b61081a81610738565b811461082557600080fd5b50565b61083181610748565b811461083c57600080fd5b5056fea2646970667358221220191629eaa39aa3905cd90b8f41cc86f573f639ec3ea51c84da26c6f3272d47b164736f6c63430008040033",
  "devdoc": {
    "kind": "dev",
    "methods": {},
    "version": 1
  },
  "userdoc": {
    "kind": "user",
    "methods": {},
    "version": 1
  },
  "storageLayout": {
    "storage": [],
    "types": null
  }
}