{
  "address": "0xFA35a8236b85Cf93A015f573cFefD80d92C5802A",
  "abi": [
    {
      "anonymous": false,
      "inputs": [
        {
          "indexed": false,
          "internalType": "uint256",
          "name": "phaseReleasedAmount",
          "type": "uint256"
        },
        {
          "indexed": false,
          "internalType": "uint256",
          "name": "totalReleasedAmount",
          "type": "uint256"
        },
        {
          "indexed": false,
          "internalType": "uint32",
          "name": "fromIdx",
          "type": "uint32"
        },
        {
          "indexed": false,
          "internalType": "uint32",
          "name": "toIdx",
          "type": "uint32"
        },
        {
          "indexed": false,
          "internalType": "uint64",
          "name": "date",
          "type": "uint64"
        }
      ],
      "name": "Released",
      "type": "event"
    },
    {
      "inputs": [],
      "name": "amount",
      "outputs": [
        {
          "internalType": "uint256",
          "name": "",
          "type": "uint256"
        }
      ],
      "stateMutability": "view",
      "type": "function"
    },
    {
      "inputs": [],
      "name": "beneficiary",
      "outputs": [
        {
          "internalType": "address",
          "name": "",
          "type": "address"
        }
      ],
      "stateMutability": "view",
      "type": "function"
    },
    {
      "inputs": [],
      "name": "factory",
      "outputs": [
        {
          "internalType": "address",
          "name": "",
          "type": "address"
        }
      ],
      "stateMutability": "view",
      "type": "function"
    },
    {
      "inputs": [
        {
          "internalType": "address",
          "name": "factory_",
          "type": "address"
        },
        {
          "internalType": "address",
          "name": "user_",
          "type": "address"
        },
        {
          "internalType": "address",
          "name": "token_",
          "type": "address"
        },
        {
          "internalType": "uint32[]",
          "name": "lockDurations_",
          "type": "uint32[]"
        },
        {
          "internalType": "uint256[]",
          "name": "releaseAmounts_",
          "type": "uint256[]"
        },
        {
          "internalType": "uint64",
          "name": "startDate_",
          "type": "uint64"
        }
      ],
      "name": "initialize",
      "outputs": [
        {
          "internalType": "bool",
          "name": "",
          "type": "bool"
        }
      ],
      "stateMutability": "nonpayable",
      "type": "function"
    },
    {
      "inputs": [],
      "name": "lockData",
      "outputs": [
        {
          "internalType": "address",
          "name": "user",
          "type": "address"
        },
        {
          "internalType": "address",
          "name": "token_",
          "type": "address"
        },
        {
          "internalType": "uint256",
          "name": "amount_",
          "type": "uint256"
        },
        {
          "internalType": "uint256",
          "name": "releasedAmount_",
          "type": "uint256"
        },
        {
          "internalType": "uint64",
          "name": "startDate_",
          "type": "uint64"
        },
        {
          "internalType": "uint32[]",
          "name": "lockDurations_",
          "type": "uint32[]"
        },
        {
          "internalType": "uint256[]",
          "name": "releaseAmounts_",
          "type": "uint256[]"
        },
        {
          "internalType": "uint64[]",
          "name": "releaseDates_",
          "type": "uint64[]"
        },
        {
          "internalType": "uint32",
          "name": "nextReleaseIdx_",
          "type": "uint32"
        },
        {
          "internalType": "address",
          "name": "factory_",
          "type": "address"
        }
      ],
      "stateMutability": "view",
      "type": "function"
    },
    {
      "inputs": [],
      "name": "lockDurations",
      "outputs": [
        {
          "internalType": "uint32[]",
          "name": "",
          "type": "uint32[]"
        }
      ],
      "stateMutability": "view",
      "type": "function"
    },
    {
      "inputs": [],
      "name": "nextReleaseIdx",
      "outputs": [
        {
          "internalType": "uint32",
          "name": "",
          "type": "uint32"
        }
      ],
      "stateMutability": "view",
      "type": "function"
    },
    {
      "inputs": [],
      "name": "release",
      "outputs": [
        {
          "internalType": "bool",
          "name": "",
          "type": "bool"
        }
      ],
      "stateMutability": "nonpayable",
      "type": "function"
    },
    {
      "inputs": [],
      "name": "releaseAmounts",
      "outputs": [
        {
          "internalType": "uint256[]",
          "name": "",
          "type": "uint256[]"
        }
      ],
      "stateMutability": "view",
      "type": "function"
    },
    {
      "inputs": [],
      "name": "releaseDates",
      "outputs": [
        {
          "internalType": "uint64[]",
          "name": "",
          "type": "uint64[]"
        }
      ],
      "stateMutability": "view",
      "type": "function"
    },
    {
      "inputs": [],
      "name": "releasedAmount",
      "outputs": [
        {
          "internalType": "uint256",
          "name": "",
          "type": "uint256"
        }
      ],
      "stateMutability": "view",
      "type": "function"
    },
    {
      "inputs": [],
      "name": "startDate",
      "outputs": [
        {
          "internalType": "uint64",
          "name": "",
          "type": "uint64"
        }
      ],
      "stateMutability": "view",
      "type": "function"
    },
    {
      "inputs": [],
      "name": "token",
      "outputs": [
        {
          "internalType": "contract IBEP20",
          "name": "",
          "type": "address"
        }
      ],
      "stateMutability": "view",
      "type": "function"
    }
  ],
  "transactionHash": "0x3b308f3de24816eb21fadd253dceb0039b7d7b948a5078f4685f3f74296e5b51",
  "args": [],
  "solcInputHash": "fe733fa7331b76caeafd76981298a34d",
  "bytecode": "0x608060405234801561001057600080fd5b506124d5806100206000396000f3fe608060405234801561001057600080fd5b50600436106100cf5760003560e01c8063c00de5fc1161008c578063e090008011610066578063e0900080146101f4578063edca9f0e14610212578063f8fcd15614610230578063fc0c546a14610257576100cf565b8063c00de5fc1461019a578063c45a0155146101b8578063d6ec5270146101d6576100cf565b80630b97bc86146100d457806338af3eed146100f257806345d30a171461011057806386d1a69f1461012e578063aa8c217c1461014c578063bf8626821461016a575b600080fd5b6100dc610275565b6040516100e99190611d8d565b60405180910390f35b6100fa610293565b60405161010791906119f1565b60405180910390f35b6101186102bd565b6040516101259190611d04565b60405180910390f35b6101366102c7565b6040516101439190611b4c565b60405180910390f35b610154610820565b6040516101619190611d04565b60405180910390f35b610184600480360381019061017f91906114f1565b61082a565b6040516101919190611b4c565b60405180910390f35b6101a2610ce4565b6040516101af9190611b2a565b60405180910390f35b6101c0610d70565b6040516101cd91906119f1565b60405180910390f35b6101de610d9a565b6040516101eb9190611d72565b60405180910390f35b6101fc610db4565b6040516102099190611b08565b60405180910390f35b61021a610e38565b6040516102279190611ae6565b60405180910390f35b610238610e90565b60405161024e9a99989796959493929190611a0c565b60405180910390f35b61025f610f10565b60405161026c9190611b67565b60405180910390f35b6000600860009054906101000a900467ffffffffffffffff16905090565b6000600460009054906101000a900473ffffffffffffffffffffffffffffffffffffffff16905090565b6000600354905090565b600080600980549050905080600a60009054906101000a900463ffffffff1663ffffffff161061032c576040517f08c379a000000000000000000000000000000000000000000000000000000000815260040161032390611c84565b60405180910390fd5b60016009600a60009054906101000a900463ffffffff1663ffffffff1681548110610380577f4e487b7100000000000000000000000000000000000000000000000000000000600052603260045260246000fd5b90600052602060002090600891828204019190066004029054906101000a900463ffffffff166103b09190611f19565b63ffffffff16600860009054906101000a900467ffffffffffffffff166103d79190611edb565b67ffffffffffffffff16421015610423576040517f08c379a000000000000000000000000000000000000000000000000000000000815260040161041a90611c44565b60405180910390fd5b6000600a60009054906101000a900463ffffffff1663ffffffff16905060005b82600a60009054906101000a900463ffffffff1663ffffffff1610801561051e575060016009600a60009054906101000a900463ffffffff1663ffffffff16815481106104b9577f4e487b7100000000000000000000000000000000000000000000000000000000600052603260045260246000fd5b90600052602060002090600891828204019190066004029054906101000a900463ffffffff166104e99190611f19565b63ffffffff16600860009054906101000a900467ffffffffffffffff166105109190611edb565b67ffffffffffffffff164210155b156105d95760006001600a60009054906101000a900463ffffffff1663ffffffff1681548110610577577f4e487b7100000000000000000000000000000000000000000000000000000000600052603260045260246000fd5b9060005260206000200154905080826105909190611e85565b9150600a600081819054906101000a900463ffffffff16809291906105b490612097565b91906101000a81548163ffffffff021916908363ffffffff1602179055505050610443565b60006105e3610f10565b73ffffffffffffffffffffffffffffffffffffffff166370a08231306040518263ffffffff1660e01b815260040161061b91906119f1565b60206040518083038186803b15801561063357600080fd5b505afa158015610647573d6000803e3d6000fd5b505050506040513d601f19601f8201168201806040525081019061066b91906115dd565b9050818110156106b0576040517f08c379a00000000000000000000000000000000000000000000000000000000081526004016106a790611bc4565b60405180910390fd5b81600360008282546106c29190611e85565b925050819055506107026106d4610293565b836106dd610f10565b73ffffffffffffffffffffffffffffffffffffffff16610f3a9092919063ffffffff16565b600042905060008490505b600a60009054906101000a900463ffffffff1663ffffffff168110156107b4578160078281548110610768577f4e487b7100000000000000000000000000000000000000000000000000000000600052603260045260246000fd5b90600052602060002090600491828204019190066008026101000a81548167ffffffffffffffff021916908367ffffffffffffffff160217905550806107ad9061204e565b905061070d565b507f76264100b4b20aa06c294636c2e40aaf398c3490112488330659f4577010713f83600354866001600a60009054906101000a900463ffffffff166107fa9190611f57565b8560405161080c959493929190611d1f565b60405180910390a160019550505050505090565b6000600254905090565b60008060019054906101000a900460ff1680610851575060008054906101000a900460ff16155b610890576040517f08c379a000000000000000000000000000000000000000000000000000000000815260040161088790611c64565b60405180910390fd5b60008060019054906101000a900460ff1615905080156108e0576001600060016101000a81548160ff02191690831515021790555060016000806101000a81548160ff0219169083151502179055505b848490508787905014610928576040517f08c379a000000000000000000000000000000000000000000000000000000000815260040161091f90611c04565b60405180910390fd5b6000805b8686905081101561099557868682818110610970577f4e487b7100000000000000000000000000000000000000000000000000000000600052603260045260246000fd5b90506020020135826109829190611e85565b91508061098e9061204e565b905061092c565b50600073ffffffffffffffffffffffffffffffffffffffff168a73ffffffffffffffffffffffffffffffffffffffff161415610a06576040517f08c379a00000000000000000000000000000000000000000000000000000000081526004016109fd90611ce4565b60405180910390fd5b600073ffffffffffffffffffffffffffffffffffffffff168973ffffffffffffffffffffffffffffffffffffffff161415610a76576040517f08c379a0000000000000000000000000000000000000000000000000000000008152600401610a6d90611be4565b60405180910390fd5b600073ffffffffffffffffffffffffffffffffffffffff168b73ffffffffffffffffffffffffffffffffffffffff161415610ae6576040517f08c379a0000000000000000000000000000000000000000000000000000000008152600401610add90611cc4565b60405180910390fd5b8a600660006101000a81548173ffffffffffffffffffffffffffffffffffffffff021916908373ffffffffffffffffffffffffffffffffffffffff16021790555089600460006101000a81548173ffffffffffffffffffffffffffffffffffffffff021916908373ffffffffffffffffffffffffffffffffffffffff16021790555088600560006101000a81548173ffffffffffffffffffffffffffffffffffffffff021916908373ffffffffffffffffffffffffffffffffffffffff16021790555083600860006101000a81548167ffffffffffffffff021916908367ffffffffffffffff160217905550878760099190610be392919061122d565b50858560019190610bf59291906112e3565b508060028190555060006003819055506000600a60006101000a81548163ffffffff021916908363ffffffff16021790555060098054905067ffffffffffffffff811115610c6c577f4e487b7100000000000000000000000000000000000000000000000000000000600052604160045260246000fd5b604051908082528060200260200182016040528015610c9a5781602001602082028036833780820191505090505b5060079080519060200190610cb0929190611330565b5060019250508015610cd75760008060016101000a81548160ff0219169083151502179055505b5098975050505050505050565b60606007805480602002602001604051908101604052809291908181526020018280548015610d6657602002820191906000526020600020906000905b82829054906101000a900467ffffffffffffffff1667ffffffffffffffff1681526020019060080190602082600701049283019260010382029150808411610d215790505b5050505050905090565b6000600660009054906101000a900473ffffffffffffffffffffffffffffffffffffffff16905090565b6000600a60009054906101000a900463ffffffff16905090565b60606009805480602002602001604051908101604052809291908181526020018280548015610e2e57602002820191906000526020600020906000905b82829054906101000a900463ffffffff1663ffffffff1681526020019060040190602082600301049283019260010382029150808411610df15790505b5050505050905090565b60606001805480602002602001604051908101604052809291908181526020018280548015610e8657602002820191906000526020600020905b815481526020019060010190808311610e72575b5050505050905090565b60008060008060006060806060600080610ea8610293565b610eb0610f10565b610eb8610820565b610ec06102bd565b610ec8610275565b610ed0610db4565b610ed8610e38565b610ee0610ce4565b610ee8610d9a565b610ef0610d70565b995099509950995099509950995099509950995090919293949596979899565b6000600560009054906101000a900473ffffffffffffffffffffffffffffffffffffffff16905090565b610fbb8363a9059cbb60e01b8484604051602401610f59929190611abd565b604051602081830303815290604052907bffffffffffffffffffffffffffffffffffffffffffffffffffffffff19166020820180517bffffffffffffffffffffffffffffffffffffffffffffffffffffffff8381831617835250505050610fc0565b505050565b6000611022826040518060400160405280602081526020017f5361666542455032303a206c6f772d6c6576656c2063616c6c206661696c65648152508573ffffffffffffffffffffffffffffffffffffffff166110879092919063ffffffff16565b9050600081511115611082578080602001905181019061104291906115b4565b611081576040517f08c379a000000000000000000000000000000000000000000000000000000000815260040161107890611ba4565b60405180910390fd5b5b505050565b6060611096848460008561109f565b90509392505050565b6060824710156110e4576040517f08c379a00000000000000000000000000000000000000000000000000000000081526004016110db90611c24565b60405180910390fd5b6110ed856111b3565b61112c576040517f08c379a000000000000000000000000000000000000000000000000000000000815260040161112390611ca4565b60405180910390fd5b6000808673ffffffffffffffffffffffffffffffffffffffff16858760405161115591906119da565b60006040518083038185875af1925050503d8060008114611192576040519150601f19603f3d011682016040523d82523d6000602084013e611197565b606091505b50915091506111a78282866111c6565b92505050949350505050565b600080823b905060008111915050919050565b606083156111d657829050611226565b6000835111156111e95782518084602001fd5b816040517f08c379a000000000000000000000000000000000000000000000000000000000815260040161121d9190611b82565b60405180910390fd5b9392505050565b828054828255906000526020600020906007016008900481019282156112d25791602002820160005b838211156112a057833563ffffffff1683826101000a81548163ffffffff021916908363ffffffff1602179055509260200192600401602081600301049283019260010302611256565b80156112d05782816101000a81549063ffffffff02191690556004016020816003010492830192600103026112a0565b505b5090506112df91906113ec565b5090565b82805482825590600052602060002090810192821561131f579160200282015b8281111561131e578235825591602001919060010190611303565b5b50905061132c91906113ec565b5090565b828054828255906000526020600020906003016004900481019282156113db5791602002820160005b838211156113a557835183826101000a81548167ffffffffffffffff021916908367ffffffffffffffff1602179055509260200192600801602081600701049283019260010302611359565b80156113d95782816101000a81549067ffffffffffffffff02191690556008016020816007010492830192600103026113a5565b505b5090506113e891906113ec565b5090565b5b808211156114055760008160009055506001016113ed565b5090565b60008135905061141881612443565b92915050565b60008083601f84011261143057600080fd5b8235905067ffffffffffffffff81111561144957600080fd5b60208301915083602082028301111561146157600080fd5b9250929050565b60008083601f84011261147a57600080fd5b8235905067ffffffffffffffff81111561149357600080fd5b6020830191508360208202830111156114ab57600080fd5b9250929050565b6000815190506114c18161245a565b92915050565b6000815190506114d681612471565b92915050565b6000813590506114eb81612488565b92915050565b60008060008060008060008060c0898b03121561150d57600080fd5b600061151b8b828c01611409565b985050602061152c8b828c01611409565b975050604061153d8b828c01611409565b965050606089013567ffffffffffffffff81111561155a57600080fd5b6115668b828c01611468565b9550955050608089013567ffffffffffffffff81111561158557600080fd5b6115918b828c0161141e565b935093505060a06115a48b828c016114dc565b9150509295985092959890939650565b6000602082840312156115c657600080fd5b60006115d4848285016114b2565b91505092915050565b6000602082840312156115ef57600080fd5b60006115fd848285016114c7565b91505092915050565b60006116128383611980565b60208301905092915050565b600061162a838361199e565b60208301905092915050565b600061164283836119bc565b60208301905092915050565b61165781611f8b565b82525050565b600061166882611dd8565b6116728185611e36565b935061167d83611da8565b8060005b838110156116ae5781516116958882611606565b97506116a083611e0f565b925050600181019050611681565b5085935050505092915050565b60006116c682611de3565b6116d08185611e47565b93506116db83611db8565b8060005b8381101561170c5781516116f3888261161e565b97506116fe83611e1c565b9250506001810190506116df565b5085935050505092915050565b600061172482611dee565b61172e8185611e58565b935061173983611dc8565b8060005b8381101561176a5781516117518882611636565b975061175c83611e29565b92505060018101905061173d565b5085935050505092915050565b61178081611f9d565b82525050565b600061179182611df9565b61179b8185611e69565b93506117ab81856020860161201b565b80840191505092915050565b6117c081611ff7565b82525050565b60006117d182611e04565b6117db8185611e74565b93506117eb81856020860161201b565b6117f4816120f3565b840191505092915050565b600061180c602a83611e74565b915061181782612104565b604082019050919050565b600061182f602b83611e74565b915061183a82612153565b604082019050919050565b6000611852602c83611e74565b915061185d826121a2565b604082019050919050565b6000611875602e83611e74565b9150611880826121f1565b604082019050919050565b6000611898602683611e74565b91506118a382612240565b604082019050919050565b60006118bb602d83611e74565b91506118c68261228f565b604082019050919050565b60006118de602e83611e74565b91506118e9826122de565b604082019050919050565b6000611901602e83611e74565b915061190c8261232d565b604082019050919050565b6000611924601d83611e74565b915061192f8261237c565b602082019050919050565b6000611947602e83611e74565b9150611952826123a5565b604082019050919050565b600061196a602b83611e74565b9150611975826123f4565b604082019050919050565b61198981611fc9565b82525050565b61199881611fc9565b82525050565b6119a781611fd3565b82525050565b6119b681611fd3565b82525050565b6119c581611fe3565b82525050565b6119d481611fe3565b82525050565b60006119e68284611786565b915081905092915050565b6000602082019050611a06600083018461164e565b92915050565b600061014082019050611a22600083018d61164e565b611a2f602083018c61164e565b611a3c604083018b61198f565b611a49606083018a61198f565b611a5660808301896119cb565b81810360a0830152611a6881886116bb565b905081810360c0830152611a7c818761165d565b905081810360e0830152611a908186611719565b9050611aa06101008301856119ad565b611aae61012083018461164e565b9b9a5050505050505050505050565b6000604082019050611ad2600083018561164e565b611adf602083018461198f565b9392505050565b60006020820190508181036000830152611b00818461165d565b905092915050565b60006020820190508181036000830152611b2281846116bb565b905092915050565b60006020820190508181036000830152611b448184611719565b905092915050565b6000602082019050611b616000830184611777565b92915050565b6000602082019050611b7c60008301846117b7565b92915050565b60006020820190508181036000830152611b9c81846117c6565b905092915050565b60006020820190508181036000830152611bbd816117ff565b9050919050565b60006020820190508181036000830152611bdd81611822565b9050919050565b60006020820190508181036000830152611bfd81611845565b9050919050565b60006020820190508181036000830152611c1d81611868565b9050919050565b60006020820190508181036000830152611c3d8161188b565b9050919050565b60006020820190508181036000830152611c5d816118ae565b9050919050565b60006020820190508181036000830152611c7d816118d1565b9050919050565b60006020820190508181036000830152611c9d816118f4565b9050919050565b60006020820190508181036000830152611cbd81611917565b9050919050565b60006020820190508181036000830152611cdd8161193a565b9050919050565b60006020820190508181036000830152611cfd8161195d565b9050919050565b6000602082019050611d19600083018461198f565b92915050565b600060a082019050611d34600083018861198f565b611d41602083018761198f565b611d4e60408301866119ad565b611d5b60608301856119ad565b611d6860808301846119cb565b9695505050505050565b6000602082019050611d8760008301846119ad565b92915050565b6000602082019050611da260008301846119cb565b92915050565b6000819050602082019050919050565b6000819050602082019050919050565b6000819050602082019050919050565b600081519050919050565b600081519050919050565b600081519050919050565b600081519050919050565b600081519050919050565b6000602082019050919050565b6000602082019050919050565b6000602082019050919050565b600082825260208201905092915050565b600082825260208201905092915050565b600082825260208201905092915050565b600081905092915050565b600082825260208201905092915050565b6000611e9082611fc9565b9150611e9b83611fc9565b9250827fffffffffffffffffffffffffffffffffffffffffffffffffffffffffffffffff03821115611ed057611ecf6120c4565b5b828201905092915050565b6000611ee682611fe3565b9150611ef183611fe3565b92508267ffffffffffffffff03821115611f0e57611f0d6120c4565b5b828201905092915050565b6000611f2482611fd3565b9150611f2f83611fd3565b92508163ffffffff0483118215151615611f4c57611f4b6120c4565b5b828202905092915050565b6000611f6282611fd3565b9150611f6d83611fd3565b925082821015611f8057611f7f6120c4565b5b828203905092915050565b6000611f9682611fa9565b9050919050565b60008115159050919050565b600073ffffffffffffffffffffffffffffffffffffffff82169050919050565b6000819050919050565b600063ffffffff82169050919050565b600067ffffffffffffffff82169050919050565b600061200282612009565b9050919050565b600061201482611fa9565b9050919050565b60005b8381101561203957808201518184015260208101905061201e565b83811115612048576000848401525b50505050565b600061205982611fc9565b91507fffffffffffffffffffffffffffffffffffffffffffffffffffffffffffffffff82141561208c5761208b6120c4565b5b600182019050919050565b60006120a282611fd3565b915063ffffffff8214156120b9576120b86120c4565b5b600182019050919050565b7f4e487b7100000000000000000000000000000000000000000000000000000000600052601160045260246000fd5b6000601f19601f8301169050919050565b7f5361666542455032303a204245503230206f7065726174696f6e20646964206e60008201527f6f74207375636365656400000000000000000000000000000000000000000000602082015250565b7f546f6b656e54696d654c6f636b4279416d6f756e743a20696e7375666669636960008201527f656e742062616c616e6365000000000000000000000000000000000000000000602082015250565b7f546f6b656e54696d654c6f636b4279416d6f756e743a20746f6b656e2061646460008201527f72657373206973207a65726f0000000000000000000000000000000000000000602082015250565b7f546f6b656e54696d654c6f636b4279416d6f756e743a20756e6c6f636b206c6560008201527f6e677468206e6f74206d61746368000000000000000000000000000000000000602082015250565b7f416464726573733a20696e73756666696369656e742062616c616e636520666f60008201527f722063616c6c0000000000000000000000000000000000000000000000000000602082015250565b7f546f6b656e54696d654c6f636b4279416d6f756e743a206e657874207068617360008201527f6520756e617661696c61626c6500000000000000000000000000000000000000602082015250565b7f496e697469616c697a61626c653a20636f6e747261637420697320616c72656160008201527f647920696e697469616c697a6564000000000000000000000000000000000000602082015250565b7f546f6b656e54696d654c6f636b4279416d6f756e743a20616c6c20706861736560008201527f73206172652072656c6561736564000000000000000000000000000000000000602082015250565b7f416464726573733a2063616c6c20746f206e6f6e2d636f6e7472616374000000600082015250565b7f546f6b656e54696d654c6f636b4279416d6f756e743a20666163746f7279206160008201527f646472657373206973207a65726f000000000000000000000000000000000000602082015250565b7f546f6b656e54696d654c6f636b4279416d6f756e743a2075736572206164647260008201527f657373206973207a65726f000000000000000000000000000000000000000000602082015250565b61244c81611f8b565b811461245757600080fd5b50565b61246381611f9d565b811461246e57600080fd5b50565b61247a81611fc9565b811461248557600080fd5b50565b61249181611fe3565b811461249c57600080fd5b5056fea2646970667358221220a9b98171c542c8d3a9941420f5f834bacea346857180ad4b04c2ccb11e7dde8e64736f6c63430008040033",
  "devdoc": {
    "kind": "dev",
    "methods": {
      "release()": {
        "details": "User (sender) can release unlocked tokens by calling this function. This function will release locked tokens from multiple lock phases that meets unlock requirements Reverts in the following cases: - No tokens to be withdrawn including:     + All lock phases are already released     + Do not meet next unlock requirements - Amount of tokens that this smart contract holds is insufficient. In this case, users should contact the owner of the token.",
        "returns": {
          "_0": "Return `true` if succeeds, otherwise `false`"
        }
      }
    },
    "version": 1
  },
  "userdoc": {
    "kind": "user",
    "methods": {
      "initialize(address,address,address,uint32[],uint256[],uint64)": {
        "notice": "Register a new lock for a user Reverts in the following cases: - Duplicated lock id for a user. - `lockDurations` and `releaseAmounts` length don't match."
      },
      "release()": {
        "notice": "Release unlocked tokens to user."
      }
    },
    "version": 1
  },
  "storageLayout": {
    "storage": [
      {
        "astId": 5,
        "contract": "contracts/token/TokenTimeLockByAmount.sol:TokenTimeLockByAmount",
        "label": "_initialized",
        "offset": 0,
        "slot": "0",
        "type": "t_bool"
      },
      {
        "astId": 8,
        "contract": "contracts/token/TokenTimeLockByAmount.sol:TokenTimeLockByAmount",
        "label": "_initializing",
        "offset": 1,
        "slot": "0",
        "type": "t_bool"
      },
      {
        "astId": 1337,
        "contract": "contracts/token/TokenTimeLockByAmount.sol:TokenTimeLockByAmount",
        "label": "_releaseAmounts",
        "offset": 0,
        "slot": "1",
        "type": "t_array(t_uint256)dyn_storage"
      },
      {
        "astId": 1340,
        "contract": "contracts/token/TokenTimeLockByAmount.sol:TokenTimeLockByAmount",
        "label": "_amount",
        "offset": 0,
        "slot": "2",
        "type": "t_uint256"
      },
      {
        "astId": 1343,
        "contract": "contracts/token/TokenTimeLockByAmount.sol:TokenTimeLockByAmount",
        "label": "_releasedAmount",
        "offset": 0,
        "slot": "3",
        "type": "t_uint256"
      },
      {
        "astId": 1346,
        "contract": "contracts/token/TokenTimeLockByAmount.sol:TokenTimeLockByAmount",
        "label": "_user",
        "offset": 0,
        "slot": "4",
        "type": "t_address"
      },
      {
        "astId": 1349,
        "contract": "contracts/token/TokenTimeLockByAmount.sol:TokenTimeLockByAmount",
        "label": "_token",
        "offset": 0,
        "slot": "5",
        "type": "t_address"
      },
      {
        "astId": 1352,
        "contract": "contracts/token/TokenTimeLockByAmount.sol:TokenTimeLockByAmount",
        "label": "_factory",
        "offset": 0,
        "slot": "6",
        "type": "t_address"
      },
      {
        "astId": 1356,
        "contract": "contracts/token/TokenTimeLockByAmount.sol:TokenTimeLockByAmount",
        "label": "_releaseDates",
        "offset": 0,
        "slot": "7",
        "type": "t_array(t_uint64)dyn_storage"
      },
      {
        "astId": 1359,
        "contract": "contracts/token/TokenTimeLockByAmount.sol:TokenTimeLockByAmount",
        "label": "_startDate",
        "offset": 0,
        "slot": "8",
        "type": "t_uint64"
      },
      {
        "astId": 1363,
        "contract": "contracts/token/TokenTimeLockByAmount.sol:TokenTimeLockByAmount",
        "label": "_lockDurations",
        "offset": 0,
        "slot": "9",
        "type": "t_array(t_uint32)dyn_storage"
      },
      {
        "astId": 1366,
        "contract": "contracts/token/TokenTimeLockByAmount.sol:TokenTimeLockByAmount",
        "label": "_nextReleaseIdx",
        "offset": 0,
        "slot": "10",
        "type": "t_uint32"
      }
    ],
    "types": {
      "t_address": {
        "encoding": "inplace",
        "label": "address",
        "numberOfBytes": "20"
      },
      "t_array(t_uint256)dyn_storage": {
        "base": "t_uint256",
        "encoding": "dynamic_array",
        "label": "uint256[]",
        "numberOfBytes": "32"
      },
      "t_array(t_uint32)dyn_storage": {
        "base": "t_uint32",
        "encoding": "dynamic_array",
        "label": "uint32[]",
        "numberOfBytes": "32"
      },
      "t_array(t_uint64)dyn_storage": {
        "base": "t_uint64",
        "encoding": "dynamic_array",
        "label": "uint64[]",
        "numberOfBytes": "32"
      },
      "t_bool": {
        "encoding": "inplace",
        "label": "bool",
        "numberOfBytes": "1"
      },
      "t_uint256": {
        "encoding": "inplace",
        "label": "uint256",
        "numberOfBytes": "32"
      },
      "t_uint32": {
        "encoding": "inplace",
        "label": "uint32",
        "numberOfBytes": "4"
      },
      "t_uint64": {
        "encoding": "inplace",
        "label": "uint64",
        "numberOfBytes": "8"
      }
    }
  }
}