{
  "address": "0x786afd604665F346a65102F46d14701A3f9DB0bD",
  "abi": [
    {
      "anonymous": false,
      "inputs": [
        {
          "indexed": false,
          "internalType": "address",
          "name": "previousAdmin",
          "type": "address"
        },
        {
          "indexed": false,
          "internalType": "address",
          "name": "newAdmin",
          "type": "address"
        }
      ],
      "name": "AdminChanged",
      "type": "event"
    },
    {
      "anonymous": false,
      "inputs": [
        {
          "indexed": true,
          "internalType": "address",
          "name": "owner",
          "type": "address"
        },
        {
          "indexed": true,
          "internalType": "address",
          "name": "spender",
          "type": "address"
        },
        {
          "indexed": false,
          "internalType": "uint256",
          "name": "value",
          "type": "uint256"
        }
      ],
      "name": "Approval",
      "type": "event"
    },
    {
      "anonymous": false,
      "inputs": [
        {
          "indexed": true,
          "internalType": "address",
          "name": "beacon",
          "type": "address"
        }
      ],
      "name": "BeaconUpgraded",
      "type": "event"
    },
    {
      "anonymous": false,
      "inputs": [
        {
          "indexed": true,
          "internalType": "address",
          "name": "previousOwner",
          "type": "address"
        },
        {
          "indexed": true,
          "internalType": "address",
          "name": "newOwner",
          "type": "address"
        }
      ],
      "name": "OwnershipTransferred",
      "type": "event"
    },
    {
      "anonymous": false,
      "inputs": [
        {
          "indexed": true,
          "internalType": "address",
          "name": "from",
          "type": "address"
        },
        {
          "indexed": true,
          "internalType": "address",
          "name": "to",
          "type": "address"
        },
        {
          "indexed": false,
          "internalType": "uint256",
          "name": "value",
          "type": "uint256"
        }
      ],
      "name": "Transfer",
      "type": "event"
    },
    {
      "anonymous": false,
      "inputs": [
        {
          "indexed": true,
          "internalType": "address",
          "name": "implementation",
          "type": "address"
        }
      ],
      "name": "Upgraded",
      "type": "event"
    },
    {
      "inputs": [
        {
          "internalType": "address",
          "name": "owner",
          "type": "address"
        },
        {
          "internalType": "address",
          "name": "spender",
          "type": "address"
        }
      ],
      "name": "allowance",
      "outputs": [
        {
          "internalType": "uint256",
          "name": "",
          "type": "uint256"
        }
      ],
      "stateMutability": "view",
      "type": "function"
    },
    {
      "inputs": [
        {
          "internalType": "address",
          "name": "spender",
          "type": "address"
        },
        {
          "internalType": "uint256",
          "name": "amount",
          "type": "uint256"
        }
      ],
      "name": "approve",
      "outputs": [
        {
          "internalType": "bool",
          "name": "",
          "type": "bool"
        }
      ],
      "stateMutability": "nonpayable",
      "type": "function"
    },
    {
      "inputs": [
        {
          "internalType": "address",
          "name": "account",
          "type": "address"
        }
      ],
      "name": "balanceOf",
      "outputs": [
        {
          "internalType": "uint256",
          "name": "",
          "type": "uint256"
        }
      ],
      "stateMutability": "view",
      "type": "function"
    },
    {
      "inputs": [
        {
          "internalType": "uint256",
          "name": "amount",
          "type": "uint256"
        }
      ],
      "name": "burn",
      "outputs": [
        {
          "internalType": "bool",
          "name": "",
          "type": "bool"
        }
      ],
      "stateMutability": "nonpayable",
      "type": "function"
    },
    {
      "inputs": [
        {
          "internalType": "address",
          "name": "account",
          "type": "address"
        },
        {
          "internalType": "uint256",
          "name": "amount",
          "type": "uint256"
        }
      ],
      "name": "burnFrom",
      "outputs": [
        {
          "internalType": "bool",
          "name": "",
          "type": "bool"
        }
      ],
      "stateMutability": "nonpayable",
      "type": "function"
    },
    {
      "inputs": [],
      "name": "decimals",
      "outputs": [
        {
          "internalType": "uint8",
          "name": "",
          "type": "uint8"
        }
      ],
      "stateMutability": "view",
      "type": "function"
    },
    {
      "inputs": [
        {
          "internalType": "address",
          "name": "spender",
          "type": "address"
        },
        {
          "internalType": "uint256",
          "name": "subtractedValue",
          "type": "uint256"
        }
      ],
      "name": "decreaseAllowance",
      "outputs": [
        {
          "internalType": "bool",
          "name": "",
          "type": "bool"
        }
      ],
      "stateMutability": "nonpayable",
      "type": "function"
    },
    {
      "inputs": [],
      "name": "getOwner",
      "outputs": [
        {
          "internalType": "address",
          "name": "",
          "type": "address"
        }
      ],
      "stateMutability": "view",
      "type": "function"
    },
    {
      "inputs": [
        {
          "internalType": "address",
          "name": "spender",
          "type": "address"
        },
        {
          "internalType": "uint256",
          "name": "addedValue",
          "type": "uint256"
        }
      ],
      "name": "increaseAllowance",
      "outputs": [
        {
          "internalType": "bool",
          "name": "",
          "type": "bool"
        }
      ],
      "stateMutability": "nonpayable",
      "type": "function"
    },
    {
      "inputs": [],
      "name": "initialize",
      "outputs": [
        {
          "internalType": "bool",
          "name": "",
          "type": "bool"
        }
      ],
      "stateMutability": "nonpayable",
      "type": "function"
    },
    {
      "inputs": [
        {
          "internalType": "uint256",
          "name": "amount",
          "type": "uint256"
        }
      ],
      "name": "mint",
      "outputs": [
        {
          "internalType": "bool",
          "name": "",
          "type": "bool"
        }
      ],
      "stateMutability": "nonpayable",
      "type": "function"
    },
    {
      "inputs": [],
      "name": "name",
      "outputs": [
        {
          "internalType": "string",
          "name": "",
          "type": "string"
        }
      ],
      "stateMutability": "view",
      "type": "function"
    },
    {
      "inputs": [],
      "name": "owner",
      "outputs": [
        {
          "internalType": "address",
          "name": "",
          "type": "address"
        }
      ],
      "stateMutability": "view",
      "type": "function"
    },
    {
      "inputs": [],
      "name": "renounceOwnership",
      "outputs": [],
      "stateMutability": "nonpayable",
      "type": "function"
    },
    {
      "inputs": [],
      "name": "symbol",
      "outputs": [
        {
          "internalType": "string",
          "name": "",
          "type": "string"
        }
      ],
      "stateMutability": "view",
      "type": "function"
    },
    {
      "inputs": [],
      "name": "totalSupply",
      "outputs": [
        {
          "internalType": "uint256",
          "name": "",
          "type": "uint256"
        }
      ],
      "stateMutability": "view",
      "type": "function"
    },
    {
      "inputs": [
        {
          "internalType": "address",
          "name": "recipient",
          "type": "address"
        },
        {
          "internalType": "uint256",
          "name": "amount",
          "type": "uint256"
        }
      ],
      "name": "transfer",
      "outputs": [
        {
          "internalType": "bool",
          "name": "",
          "type": "bool"
        }
      ],
      "stateMutability": "nonpayable",
      "type": "function"
    },
    {
      "inputs": [
        {
          "internalType": "address",
          "name": "sender",
          "type": "address"
        },
        {
          "internalType": "address",
          "name": "recipient",
          "type": "address"
        },
        {
          "internalType": "uint256",
          "name": "amount",
          "type": "uint256"
        }
      ],
      "name": "transferFrom",
      "outputs": [
        {
          "internalType": "bool",
          "name": "",
          "type": "bool"
        }
      ],
      "stateMutability": "nonpayable",
      "type": "function"
    },
    {
      "inputs": [
        {
          "internalType": "address",
          "name": "newOwner",
          "type": "address"
        }
      ],
      "name": "transferOwnership",
      "outputs": [],
      "stateMutability": "nonpayable",
      "type": "function"
    },
    {
      "inputs": [
        {
          "internalType": "address",
          "name": "newImplementation",
          "type": "address"
        }
      ],
      "name": "upgradeTo",
      "outputs": [],
      "stateMutability": "nonpayable",
      "type": "function"
    },
    {
      "inputs": [
        {
          "internalType": "address",
          "name": "newImplementation",
          "type": "address"
        },
        {
          "internalType": "bytes",
          "name": "data",
          "type": "bytes"
        }
      ],
      "name": "upgradeToAndCall",
      "outputs": [],
      "stateMutability": "payable",
      "type": "function"
    }
  ],
  "transactionHash": "0x050ce92988fe7df31ea7c5d1ed93988c975a6d25cbb90b9de28ba64b8115a252",
  "args": [],
  "solcInputHash": "6238b4e271a0ca83296c79a7a0ec3d4b",
  "bytecode": "0x60a06040523073ffffffffffffffffffffffffffffffffffffffff1660809073ffffffffffffffffffffffffffffffffffffffff1660601b81525034801561004657600080fd5b5060805160601c61374e61007a600039600081816106ef0152818161077e0152818161096d01526109fc015261374e6000f3fe60806040526004361061012a5760003560e01c8063715018a6116100ab57806395d89b411161006f57806395d89b41146103fb578063a0712d6814610426578063a457c2d714610463578063a9059cbb146104a0578063dd62ed3e146104dd578063f2fde38b1461051a5761012a565b8063715018a61461032657806379cc67901461033d5780638129fc1c1461037a578063893d20e8146103a55780638da5cb5b146103d05761012a565b80633659cfe6116100f25780633659cfe61461022a578063395093511461025357806342966c68146102905780634f1ef286146102cd57806370a08231146102e95761012a565b806306fdde031461012f578063095ea7b31461015a57806318160ddd1461019757806323b872dd146101c2578063313ce567146101ff575b600080fd5b34801561013b57600080fd5b50610144610543565b6040516101519190612b6a565b60405180910390f35b34801561016657600080fd5b50610181600480360381019061017c9190612828565b6105d5565b60405161018e9190612b4f565b60405180910390f35b3480156101a357600080fd5b506101ac6105f3565b6040516101b99190612d4c565b60405180910390f35b3480156101ce57600080fd5b506101e960048036038101906101e49190612785565b6105fd565b6040516101f69190612b4f565b60405180910390f35b34801561020b57600080fd5b506102146106d6565b6040516102219190612d67565b60405180910390f35b34801561023657600080fd5b50610251600480360381019061024c9190612720565b6106ed565b005b34801561025f57600080fd5b5061027a60048036038101906102759190612828565b61089c565b6040516102879190612b4f565b60405180910390f35b34801561029c57600080fd5b506102b760048036038101906102b29190612864565b61094f565b6040516102c49190612b4f565b60405180910390f35b6102e760048036038101906102e291906127d4565b61096b565b005b3480156102f557600080fd5b50610310600480360381019061030b9190612720565b610aa8565b60405161031d9190612d4c565b60405180910390f35b34801561033257600080fd5b5061033b610af1565b005b34801561034957600080fd5b50610364600480360381019061035f9190612828565b610b79565b6040516103719190612b4f565b60405180910390f35b34801561038657600080fd5b5061038f610b8f565b60405161039c9190612b4f565b60405180910390f35b3480156103b157600080fd5b506103ba610e12565b6040516103c79190612b34565b60405180910390f35b3480156103dc57600080fd5b506103e5610e21565b6040516103f29190612b34565b60405180910390f35b34801561040757600080fd5b50610410610e4b565b60405161041d9190612b6a565b60405180910390f35b34801561043257600080fd5b5061044d60048036038101906104489190612864565b610edd565b60405161045a9190612b4f565b60405180910390f35b34801561046f57600080fd5b5061048a60048036038101906104859190612828565b610f75565b6040516104979190612b4f565b60405180910390f35b3480156104ac57600080fd5b506104c760048036038101906104c29190612828565b611042565b6040516104d49190612b4f565b60405180910390f35b3480156104e957600080fd5b5061050460048036038101906104ff9190612749565b611060565b6040516105119190612d4c565b60405180910390f35b34801561052657600080fd5b50610541600480360381019061053c9190612720565b6110e7565b005b606060ce8054610552906130f6565b80601f016020809104026020016040519081016040528092919081815260200182805461057e906130f6565b80156105cb5780601f106105a0576101008083540402835291602001916105cb565b820191906000526020600020905b8154815290600101906020018083116105ae57829003601f168201915b5050505050905090565b60006105e96105e26111df565b84846111e7565b6001905092915050565b600060cb54905090565b600061060a8484846113b2565b6106cb846106166111df565b6106c6856040518060600160405280602881526020016136396028913960ca60008b73ffffffffffffffffffffffffffffffffffffffff1673ffffffffffffffffffffffffffffffffffffffff168152602001908152602001600020600061067c6111df565b73ffffffffffffffffffffffffffffffffffffffff1673ffffffffffffffffffffffffffffffffffffffff168152602001908152602001600020546116409092919063ffffffff16565b6111e7565b600190509392505050565b600060cc60009054906101000a900460ff16905090565b7f000000000000000000000000000000000000000000000000000000000000000073ffffffffffffffffffffffffffffffffffffffff163073ffffffffffffffffffffffffffffffffffffffff16141561077c576040517f08c379a000000000000000000000000000000000000000000000000000000000815260040161077390612c0c565b60405180910390fd5b7f000000000000000000000000000000000000000000000000000000000000000073ffffffffffffffffffffffffffffffffffffffff166107bb611695565b73ffffffffffffffffffffffffffffffffffffffff1614610811576040517f08c379a000000000000000000000000000000000000000000000000000000000815260040161080890612c2c565b60405180910390fd5b61081a816116ec565b61089981600067ffffffffffffffff81111561085f577f4e487b7100000000000000000000000000000000000000000000000000000000600052604160045260246000fd5b6040519080825280601f01601f1916602001820160405280156108915781602001600182028036833780820191505090505b50600061176b565b50565b60006109456108a96111df565b846109408560ca60006108ba6111df565b73ffffffffffffffffffffffffffffffffffffffff1673ffffffffffffffffffffffffffffffffffffffff16815260200190815260200160002060008973ffffffffffffffffffffffffffffffffffffffff1673ffffffffffffffffffffffffffffffffffffffff1681526020019081526020016000205461193c90919063ffffffff16565b6111e7565b6001905092915050565b600061096261095c6111df565b83611952565b60019050919050565b7f000000000000000000000000000000000000000000000000000000000000000073ffffffffffffffffffffffffffffffffffffffff163073ffffffffffffffffffffffffffffffffffffffff1614156109fa576040517f08c379a00000000000000000000000000000000000000000000000000000000081526004016109f190612c0c565b60405180910390fd5b7f000000000000000000000000000000000000000000000000000000000000000073ffffffffffffffffffffffffffffffffffffffff16610a39611695565b73ffffffffffffffffffffffffffffffffffffffff1614610a8f576040517f08c379a0000000000000000000000000000000000000000000000000000000008152600401610a8690612c2c565b60405180910390fd5b610a98826116ec565b610aa48282600161176b565b5050565b600060c960008373ffffffffffffffffffffffffffffffffffffffff1673ffffffffffffffffffffffffffffffffffffffff168152602001908152602001600020549050919050565b610af96111df565b73ffffffffffffffffffffffffffffffffffffffff16610b17610e21565b73ffffffffffffffffffffffffffffffffffffffff1614610b6d576040517f08c379a0000000000000000000000000000000000000000000000000000000008152600401610b6490612cac565b60405180910390fd5b610b776000611af6565b565b6000610b858383611bbc565b6001905092915050565b60008060019054906101000a900460ff1680610bb6575060008054906101000a900460ff16155b610bf5576040517f08c379a0000000000000000000000000000000000000000000000000000000008152600401610bec90612c4c565b60405180910390fd5b60008060019054906101000a900460ff161590508015610c45576001600060016101000a81548160ff02191690831515021790555060016000806101000a81548160ff0219169083151502179055505b610c4d611c8b565b610c55611d74565b6040518060400160405280600d81526020017f42686f6c64757320546f6b656e0000000000000000000000000000000000000081525060ce9080519060200190610ca09291906125eb565b506040518060400160405280600381526020017f42484f000000000000000000000000000000000000000000000000000000000081525060cd9080519060200190610cec9291906125eb565b50601260cc60006101000a81548160ff021916908360ff16021790555060cc60009054906101000a900460ff16600a610d259190612eb3565b6402540be400610d359190612fd1565b60cb8190555060cb5460c960003373ffffffffffffffffffffffffffffffffffffffff1673ffffffffffffffffffffffffffffffffffffffff168152602001908152602001600020819055503373ffffffffffffffffffffffffffffffffffffffff16600073ffffffffffffffffffffffffffffffffffffffff167fddf252ad1be2c89b69c2b068fc378daa952ba7f163c4a11628f55a4df523b3ef60cb54604051610de19190612d4c565b60405180910390a3600191508015610e0e5760008060016101000a81548160ff0219169083151502179055505b5090565b6000610e1c610e21565b905090565b6000603360009054906101000a900473ffffffffffffffffffffffffffffffffffffffff16905090565b606060cd8054610e5a906130f6565b80601f0160208091040260200160405190810160405280929190818152602001828054610e86906130f6565b8015610ed35780601f10610ea857610100808354040283529160200191610ed3565b820191906000526020600020905b815481529060010190602001808311610eb657829003601f168201915b5050505050905090565b6000610ee76111df565b73ffffffffffffffffffffffffffffffffffffffff16610f05610e21565b73ffffffffffffffffffffffffffffffffffffffff1614610f5b576040517f08c379a0000000000000000000000000000000000000000000000000000000008152600401610f5290612cac565b60405180910390fd5b610f6c610f666111df565b83611e5d565b60019050919050565b6000611038610f826111df565b84611033856040518060600160405280602581526020016136ae6025913960ca6000610fac6111df565b73ffffffffffffffffffffffffffffffffffffffff1673ffffffffffffffffffffffffffffffffffffffff16815260200190815260200160002060008a73ffffffffffffffffffffffffffffffffffffffff1673ffffffffffffffffffffffffffffffffffffffff168152602001908152602001600020546116409092919063ffffffff16565b6111e7565b6001905092915050565b600061105661104f6111df565b84846113b2565b6001905092915050565b600060ca60008473ffffffffffffffffffffffffffffffffffffffff1673ffffffffffffffffffffffffffffffffffffffff16815260200190815260200160002060008373ffffffffffffffffffffffffffffffffffffffff1673ffffffffffffffffffffffffffffffffffffffff16815260200190815260200160002054905092915050565b6110ef6111df565b73ffffffffffffffffffffffffffffffffffffffff1661110d610e21565b73ffffffffffffffffffffffffffffffffffffffff1614611163576040517f08c379a000000000000000000000000000000000000000000000000000000000815260040161115a90612cac565b60405180910390fd5b600073ffffffffffffffffffffffffffffffffffffffff168173ffffffffffffffffffffffffffffffffffffffff1614156111d3576040517f08c379a00000000000000000000000000000000000000000000000000000000081526004016111ca90612bec565b60405180910390fd5b6111dc81611af6565b50565b600033905090565b600073ffffffffffffffffffffffffffffffffffffffff168373ffffffffffffffffffffffffffffffffffffffff161415611257576040517f08c379a000000000000000000000000000000000000000000000000000000000815260040161124e90612bac565b60405180910390fd5b600073ffffffffffffffffffffffffffffffffffffffff168273ffffffffffffffffffffffffffffffffffffffff1614156112c7576040517f08c379a00000000000000000000000000000000000000000000000000000000081526004016112be90612d2c565b60405180910390fd5b8060ca60008573ffffffffffffffffffffffffffffffffffffffff1673ffffffffffffffffffffffffffffffffffffffff16815260200190815260200160002060008473ffffffffffffffffffffffffffffffffffffffff1673ffffffffffffffffffffffffffffffffffffffff168152602001908152602001600020819055508173ffffffffffffffffffffffffffffffffffffffff168373ffffffffffffffffffffffffffffffffffffffff167f8c5be1e5ebec7d5bd14f71427d1e84f3dd0314c0f7b2291e5b200ac8c7c3b925836040516113a59190612d4c565b60405180910390a3505050565b600073ffffffffffffffffffffffffffffffffffffffff168373ffffffffffffffffffffffffffffffffffffffff161415611422576040517f08c379a000000000000000000000000000000000000000000000000000000000815260040161141990612b8c565b60405180910390fd5b600073ffffffffffffffffffffffffffffffffffffffff168273ffffffffffffffffffffffffffffffffffffffff161415611492576040517f08c379a000000000000000000000000000000000000000000000000000000000815260040161148990612ccc565b60405180910390fd5b6114fe816040518060600160405280602681526020016136886026913960c960008773ffffffffffffffffffffffffffffffffffffffff1673ffffffffffffffffffffffffffffffffffffffff168152602001908152602001600020546116409092919063ffffffff16565b60c960008573ffffffffffffffffffffffffffffffffffffffff1673ffffffffffffffffffffffffffffffffffffffff168152602001908152602001600020819055506115938160c960008573ffffffffffffffffffffffffffffffffffffffff1673ffffffffffffffffffffffffffffffffffffffff1681526020019081526020016000205461193c90919063ffffffff16565b60c960008473ffffffffffffffffffffffffffffffffffffffff1673ffffffffffffffffffffffffffffffffffffffff168152602001908152602001600020819055508173ffffffffffffffffffffffffffffffffffffffff168373ffffffffffffffffffffffffffffffffffffffff167fddf252ad1be2c89b69c2b068fc378daa952ba7f163c4a11628f55a4df523b3ef836040516116339190612d4c565b60405180910390a3505050565b6000838311158290611688576040517f08c379a000000000000000000000000000000000000000000000000000000000815260040161167f9190612b6a565b60405180910390fd5b5082840390509392505050565b60006116c37f360894a13ba1a3210667c828492db98dca3e2076cc3735a920a3ca505d382bbc60001b611fe7565b60000160009054906101000a900473ffffffffffffffffffffffffffffffffffffffff16905090565b6116f46111df565b73ffffffffffffffffffffffffffffffffffffffff16611712610e21565b73ffffffffffffffffffffffffffffffffffffffff1614611768576040517f08c379a000000000000000000000000000000000000000000000000000000000815260040161175f90612cac565b60405180910390fd5b50565b6000611775611695565b905061178084611ff1565b60008351118061178d5750815b1561179e5761179c84846120aa565b505b60006117cc7f4910fdfa16fed3260ed0e7147f7cc6da11a60208b5b9406d12a635614ffd914360001b61218e565b90508060000160009054906101000a900460ff166119355760018160000160006101000a81548160ff02191690831515021790555061189885836040516024016118169190612b34565b6040516020818303038152906040527f3659cfe6000000000000000000000000000000000000000000000000000000007bffffffffffffffffffffffffffffffffffffffffffffffffffffffff19166020820180517bffffffffffffffffffffffffffffffffffffffffffffffffffffffff83818316178352505050506120aa565b5060008160000160006101000a81548160ff0219169083151502179055506118be611695565b73ffffffffffffffffffffffffffffffffffffffff168273ffffffffffffffffffffffffffffffffffffffff161461192b576040517f08c379a000000000000000000000000000000000000000000000000000000000815260040161192290612bcc565b60405180910390fd5b61193485612198565b5b5050505050565b6000818361194a9190612e0a565b905092915050565b600073ffffffffffffffffffffffffffffffffffffffff168273ffffffffffffffffffffffffffffffffffffffff1614156119c2576040517f08c379a00000000000000000000000000000000000000000000000000000000081526004016119b990612cec565b60405180910390fd5b611a2e816040518060600160405280602281526020016136d36022913960c960008673ffffffffffffffffffffffffffffffffffffffff1673ffffffffffffffffffffffffffffffffffffffff168152602001908152602001600020546116409092919063ffffffff16565b60c960008473ffffffffffffffffffffffffffffffffffffffff1673ffffffffffffffffffffffffffffffffffffffff16815260200190815260200160002081905550611a868160cb546121e790919063ffffffff16565b60cb81905550600073ffffffffffffffffffffffffffffffffffffffff168273ffffffffffffffffffffffffffffffffffffffff167fddf252ad1be2c89b69c2b068fc378daa952ba7f163c4a11628f55a4df523b3ef83604051611aea9190612d4c565b60405180910390a35050565b6000603360009054906101000a900473ffffffffffffffffffffffffffffffffffffffff16905081603360006101000a81548173ffffffffffffffffffffffffffffffffffffffff021916908373ffffffffffffffffffffffffffffffffffffffff1602179055508173ffffffffffffffffffffffffffffffffffffffff168173ffffffffffffffffffffffffffffffffffffffff167f8be0079c531659141344cd1fd0a4f28419497f9722a3daafe3b4186f6b6457e060405160405180910390a35050565b611bc68282611952565b611c8782611bd26111df565b611c82846040518060600160405280602481526020016136f56024913960ca60008973ffffffffffffffffffffffffffffffffffffffff1673ffffffffffffffffffffffffffffffffffffffff1681526020019081526020016000206000611c386111df565b73ffffffffffffffffffffffffffffffffffffffff1673ffffffffffffffffffffffffffffffffffffffff168152602001908152602001600020546116409092919063ffffffff16565b6111e7565b5050565b600060019054906101000a900460ff1680611cb1575060008054906101000a900460ff16155b611cf0576040517f08c379a0000000000000000000000000000000000000000000000000000000008152600401611ce790612c4c565b60405180910390fd5b60008060019054906101000a900460ff161590508015611d40576001600060016101000a81548160ff02191690831515021790555060016000806101000a81548160ff0219169083151502179055505b611d486121fd565b611d506122d6565b8015611d715760008060016101000a81548160ff0219169083151502179055505b50565b600060019054906101000a900460ff1680611d9a575060008054906101000a900460ff16155b611dd9576040517f08c379a0000000000000000000000000000000000000000000000000000000008152600401611dd090612c4c565b60405180910390fd5b60008060019054906101000a900460ff161590508015611e29576001600060016101000a81548160ff02191690831515021790555060016000806101000a81548160ff0219169083151502179055505b611e316123bf565b611e39612498565b8015611e5a5760008060016101000a81548160ff0219169083151502179055505b50565b600073ffffffffffffffffffffffffffffffffffffffff168273ffffffffffffffffffffffffffffffffffffffff161415611ecd576040517f08c379a0000000000000000000000000000000000000000000000000000000008152600401611ec490612c8c565b60405180910390fd5b611ee28160cb5461193c90919063ffffffff16565b60cb81905550611f3a8160c960008573ffffffffffffffffffffffffffffffffffffffff1673ffffffffffffffffffffffffffffffffffffffff1681526020019081526020016000205461193c90919063ffffffff16565b60c960008473ffffffffffffffffffffffffffffffffffffffff1673ffffffffffffffffffffffffffffffffffffffff168152602001908152602001600020819055508173ffffffffffffffffffffffffffffffffffffffff16600073ffffffffffffffffffffffffffffffffffffffff167fddf252ad1be2c89b69c2b068fc378daa952ba7f163c4a11628f55a4df523b3ef83604051611fdb9190612d4c565b60405180910390a35050565b6000819050919050565b611ffa81612571565b612039576040517f08c379a000000000000000000000000000000000000000000000000000000000815260040161203090612c6c565b60405180910390fd5b806120667f360894a13ba1a3210667c828492db98dca3e2076cc3735a920a3ca505d382bbc60001b611fe7565b60000160006101000a81548173ffffffffffffffffffffffffffffffffffffffff021916908373ffffffffffffffffffffffffffffffffffffffff16021790555050565b60606120b583612571565b6120f4576040517f08c379a00000000000000000000000000000000000000000000000000000000081526004016120eb90612d0c565b60405180910390fd5b6000808473ffffffffffffffffffffffffffffffffffffffff168460405161211c9190612b1d565b600060405180830381855af49150503d8060008114612157576040519150601f19603f3d011682016040523d82523d6000602084013e61215c565b606091505b5091509150612184828260405180606001604052806027815260200161366160279139612584565b9250505092915050565b6000819050919050565b6121a181611ff1565b8073ffffffffffffffffffffffffffffffffffffffff167fbc7cd75a20ee27fd9adebab32041f755214dbc6bffa90cc0225b39da2e5c2d3b60405160405180910390a250565b600081836121f5919061302b565b905092915050565b600060019054906101000a900460ff1680612223575060008054906101000a900460ff16155b612262576040517f08c379a000000000000000000000000000000000000000000000000000000000815260040161225990612c4c565b60405180910390fd5b60008060019054906101000a900460ff1615905080156122b2576001600060016101000a81548160ff02191690831515021790555060016000806101000a81548160ff0219169083151502179055505b80156122d35760008060016101000a81548160ff0219169083151502179055505b50565b600060019054906101000a900460ff16806122fc575060008054906101000a900460ff16155b61233b576040517f08c379a000000000000000000000000000000000000000000000000000000000815260040161233290612c4c565b60405180910390fd5b60008060019054906101000a900460ff16159050801561238b576001600060016101000a81548160ff02191690831515021790555060016000806101000a81548160ff0219169083151502179055505b61239b6123966111df565b611af6565b80156123bc5760008060016101000a81548160ff0219169083151502179055505b50565b600060019054906101000a900460ff16806123e5575060008054906101000a900460ff16155b612424576040517f08c379a000000000000000000000000000000000000000000000000000000000815260040161241b90612c4c565b60405180910390fd5b60008060019054906101000a900460ff161590508015612474576001600060016101000a81548160ff02191690831515021790555060016000806101000a81548160ff0219169083151502179055505b80156124955760008060016101000a81548160ff0219169083151502179055505b50565b600060019054906101000a900460ff16806124be575060008054906101000a900460ff16155b6124fd576040517f08c379a00000000000000000000000000000000000000000000000000000000081526004016124f490612c4c565b60405180910390fd5b60008060019054906101000a900460ff16159050801561254d576001600060016101000a81548160ff02191690831515021790555060016000806101000a81548160ff0219169083151502179055505b801561256e5760008060016101000a81548160ff0219169083151502179055505b50565b600080823b905060008111915050919050565b60608315612594578290506125e4565b6000835111156125a75782518084602001fd5b816040517f08c379a00000000000000000000000000000000000000000000000000000000081526004016125db9190612b6a565b60405180910390fd5b9392505050565b8280546125f7906130f6565b90600052602060002090601f0160209004810192826126195760008555612660565b82601f1061263257805160ff1916838001178555612660565b82800160010185558215612660579182015b8281111561265f578251825591602001919060010190612644565b5b50905061266d9190612671565b5090565b5b8082111561268a576000816000905550600101612672565b5090565b60006126a161269c84612da7565b612d82565b9050828152602081018484840111156126b957600080fd5b6126c48482856130b4565b509392505050565b6000813590506126db8161360a565b92915050565b600082601f8301126126f257600080fd5b813561270284826020860161268e565b91505092915050565b60008135905061271a81613621565b92915050565b60006020828403121561273257600080fd5b6000612740848285016126cc565b91505092915050565b6000806040838503121561275c57600080fd5b600061276a858286016126cc565b925050602061277b858286016126cc565b9150509250929050565b60008060006060848603121561279a57600080fd5b60006127a8868287016126cc565b93505060206127b9868287016126cc565b92505060406127ca8682870161270b565b9150509250925092565b600080604083850312156127e757600080fd5b60006127f5858286016126cc565b925050602083013567ffffffffffffffff81111561281257600080fd5b61281e858286016126e1565b9150509250929050565b6000806040838503121561283b57600080fd5b6000612849858286016126cc565b925050602061285a8582860161270b565b9150509250929050565b60006020828403121561287657600080fd5b60006128848482850161270b565b91505092915050565b6128968161305f565b82525050565b6128a581613071565b82525050565b60006128b682612dd8565b6128c08185612dee565b93506128d08185602086016130c3565b80840191505092915050565b60006128e782612de3565b6128f18185612df9565b93506129018185602086016130c3565b61290a816131e6565b840191505092915050565b6000612922602583612df9565b915061292d82613204565b604082019050919050565b6000612945602483612df9565b915061295082613253565b604082019050919050565b6000612968602f83612df9565b9150612973826132a2565b604082019050919050565b600061298b602683612df9565b9150612996826132f1565b604082019050919050565b60006129ae602c83612df9565b91506129b982613340565b604082019050919050565b60006129d1602c83612df9565b91506129dc8261338f565b604082019050919050565b60006129f4602e83612df9565b91506129ff826133de565b604082019050919050565b6000612a17602d83612df9565b9150612a228261342d565b604082019050919050565b6000612a3a601f83612df9565b9150612a458261347c565b602082019050919050565b6000612a5d602083612df9565b9150612a68826134a5565b602082019050919050565b6000612a80602383612df9565b9150612a8b826134ce565b604082019050919050565b6000612aa3602183612df9565b9150612aae8261351d565b604082019050919050565b6000612ac6602683612df9565b9150612ad18261356c565b604082019050919050565b6000612ae9602283612df9565b9150612af4826135bb565b604082019050919050565b612b088161309d565b82525050565b612b17816130a7565b82525050565b6000612b2982846128ab565b915081905092915050565b6000602082019050612b49600083018461288d565b92915050565b6000602082019050612b64600083018461289c565b92915050565b60006020820190508181036000830152612b8481846128dc565b905092915050565b60006020820190508181036000830152612ba581612915565b9050919050565b60006020820190508181036000830152612bc581612938565b9050919050565b60006020820190508181036000830152612be58161295b565b9050919050565b60006020820190508181036000830152612c058161297e565b9050919050565b60006020820190508181036000830152612c25816129a1565b9050919050565b60006020820190508181036000830152612c45816129c4565b9050919050565b60006020820190508181036000830152612c65816129e7565b9050919050565b60006020820190508181036000830152612c8581612a0a565b9050919050565b60006020820190508181036000830152612ca581612a2d565b9050919050565b60006020820190508181036000830152612cc581612a50565b9050919050565b60006020820190508181036000830152612ce581612a73565b9050919050565b60006020820190508181036000830152612d0581612a96565b9050919050565b60006020820190508181036000830152612d2581612ab9565b9050919050565b60006020820190508181036000830152612d4581612adc565b9050919050565b6000602082019050612d616000830184612aff565b92915050565b6000602082019050612d7c6000830184612b0e565b92915050565b6000612d8c612d9d565b9050612d988282613128565b919050565b6000604051905090565b600067ffffffffffffffff821115612dc257612dc16131b7565b5b612dcb826131e6565b9050602081019050919050565b600081519050919050565b600081519050919050565b600081905092915050565b600082825260208201905092915050565b6000612e158261309d565b9150612e208361309d565b9250827fffffffffffffffffffffffffffffffffffffffffffffffffffffffffffffffff03821115612e5557612e54613159565b5b828201905092915050565b6000808291508390505b6001851115612eaa57808604811115612e8657612e85613159565b5b6001851615612e955780820291505b8081029050612ea3856131f7565b9450612e6a565b94509492505050565b6000612ebe8261309d565b9150612ec9836130a7565b9250612ef67fffffffffffffffffffffffffffffffffffffffffffffffffffffffffffffffff8484612efe565b905092915050565b600082612f0e5760019050612fca565b81612f1c5760009050612fca565b8160018114612f325760028114612f3c57612f6b565b6001915050612fca565b60ff841115612f4e57612f4d613159565b5b8360020a915084821115612f6557612f64613159565b5b50612fca565b5060208310610133831016604e8410600b8410161715612fa05782820a905083811115612f9b57612f9a613159565b5b612fca565b612fad8484846001612e60565b92509050818404811115612fc457612fc3613159565b5b81810290505b9392505050565b6000612fdc8261309d565b9150612fe78361309d565b9250817fffffffffffffffffffffffffffffffffffffffffffffffffffffffffffffffff04831182151516156130205761301f613159565b5b828202905092915050565b60006130368261309d565b91506130418361309d565b92508282101561305457613053613159565b5b828203905092915050565b600061306a8261307d565b9050919050565b60008115159050919050565b600073ffffffffffffffffffffffffffffffffffffffff82169050919050565b6000819050919050565b600060ff82169050919050565b82818337600083830152505050565b60005b838110156130e15780820151818401526020810190506130c6565b838111156130f0576000848401525b50505050565b6000600282049050600182168061310e57607f821691505b6020821081141561312257613121613188565b5b50919050565b613131826131e6565b810181811067ffffffffffffffff821117156131505761314f6131b7565b5b80604052505050565b7f4e487b7100000000000000000000000000000000000000000000000000000000600052601160045260246000fd5b7f4e487b7100000000000000000000000000000000000000000000000000000000600052602260045260246000fd5b7f4e487b7100000000000000000000000000000000000000000000000000000000600052604160045260246000fd5b6000601f19601f8301169050919050565b60008160011c9050919050565b7f42455032303a207472616e736665722066726f6d20746865207a65726f20616460008201527f6472657373000000000000000000000000000000000000000000000000000000602082015250565b7f42455032303a20617070726f76652066726f6d20746865207a65726f2061646460008201527f7265737300000000000000000000000000000000000000000000000000000000602082015250565b7f45524331393637557067726164653a207570677261646520627265616b73206660008201527f7572746865722075706772616465730000000000000000000000000000000000602082015250565b7f4f776e61626c653a206e6577206f776e657220697320746865207a65726f206160008201527f6464726573730000000000000000000000000000000000000000000000000000602082015250565b7f46756e6374696f6e206d7573742062652063616c6c6564207468726f7567682060008201527f64656c656761746563616c6c0000000000000000000000000000000000000000602082015250565b7f46756e6374696f6e206d7573742062652063616c6c6564207468726f7567682060008201527f6163746976652070726f78790000000000000000000000000000000000000000602082015250565b7f496e697469616c697a61626c653a20636f6e747261637420697320616c72656160008201527f647920696e697469616c697a6564000000000000000000000000000000000000602082015250565b7f455243313936373a206e657720696d706c656d656e746174696f6e206973206e60008201527f6f74206120636f6e747261637400000000000000000000000000000000000000602082015250565b7f42455032303a206d696e7420746f20746865207a65726f206164647265737300600082015250565b7f4f776e61626c653a2063616c6c6572206973206e6f7420746865206f776e6572600082015250565b7f42455032303a207472616e7366657220746f20746865207a65726f206164647260008201527f6573730000000000000000000000000000000000000000000000000000000000602082015250565b7f42455032303a206275726e2066726f6d20746865207a65726f2061646472657360008201527f7300000000000000000000000000000000000000000000000000000000000000602082015250565b7f416464726573733a2064656c65676174652063616c6c20746f206e6f6e2d636f60008201527f6e74726163740000000000000000000000000000000000000000000000000000602082015250565b7f42455032303a20617070726f766520746f20746865207a65726f20616464726560008201527f7373000000000000000000000000000000000000000000000000000000000000602082015250565b6136138161305f565b811461361e57600080fd5b50565b61362a8161309d565b811461363557600080fd5b5056fe42455032303a207472616e7366657220616d6f756e74206578636565647320616c6c6f77616e6365416464726573733a206c6f772d6c6576656c2064656c65676174652063616c6c206661696c656442455032303a207472616e7366657220616d6f756e7420657863656564732062616c616e636542455032303a2064656372656173656420616c6c6f77616e63652062656c6f77207a65726f42455032303a206275726e20616d6f756e7420657863656564732062616c616e636542455032303a206275726e20616d6f756e74206578636565647320616c6c6f77616e6365a2646970667358221220bfd540977ff5df3aa2265c405249ce991f9d07f220b7a13411eb174586d9309564736f6c63430008040033",
  "devdoc": {
    "kind": "dev",
    "methods": {
      "allowance(address,address)": {
        "details": "See {BEP20-allowance}."
      },
      "approve(address,uint256)": {
        "details": "See {BEP20-approve}. Requirements: - `spender` cannot be the zero address."
      },
      "balanceOf(address)": {
        "details": "See {BEP20-balanceOf}."
      },
      "burn(uint256)": {
        "details": "Burn `amount` tokens Requirements - `msg.sender` must have a balance of at least `amount`"
      },
      "burnFrom(address,uint256)": {
        "details": "Burn `amount` tokens of `account` from allowed sender"
      },
      "decimals()": {
        "details": "Returns the token decimals."
      },
      "decreaseAllowance(address,uint256)": {
        "details": "Atomically decreases the allowance granted to `spender` by the caller. This is an alternative to {approve} that can be used as a mitigation for problems described in {BEP20-approve}. Emits an {Approval} event indicating the updated allowance. Requirements: - `spender` cannot be the zero address. - `spender` must have allowance for the caller of at least `subtractedValue`."
      },
      "getOwner()": {
        "details": "Returns the bep token owner."
      },
      "increaseAllowance(address,uint256)": {
        "details": "Atomically increases the allowance granted to `spender` by the caller. This is an alternative to {approve} that can be used as a mitigation for problems described in {BEP20-approve}. Emits an {Approval} event indicating the updated allowance. Requirements: - `spender` cannot be the zero address."
      },
      "mint(uint256)": {
        "details": "Creates `amount` tokens and assigns them to `msg.sender`, increasing the total supply. Requirements - `msg.sender` must be the token owner"
      },
      "name()": {
        "details": "Returns the token name."
      },
      "owner()": {
        "details": "Returns the address of the current owner."
      },
      "renounceOwnership()": {
        "details": "Leaves the contract without owner. It will not be possible to call `onlyOwner` functions anymore. Can only be called by the current owner. NOTE: Renouncing ownership will leave the contract without an owner, thereby removing any functionality that is only available to the owner."
      },
      "symbol()": {
        "details": "Returns the token symbol."
      },
      "totalSupply()": {
        "details": "See {BEP20-totalSupply}."
      },
      "transfer(address,uint256)": {
        "details": "See {BEP20-transfer}. Requirements: - `recipient` cannot be the zero address. - the caller must have a balance of at least `amount`."
      },
      "transferFrom(address,address,uint256)": {
        "details": "See {BEP20-transferFrom}. Emits an {Approval} event indicating the updated allowance. This is not required by the EIP. See the note at the beginning of {BEP20}; Requirements: - `sender` and `recipient` cannot be the zero address. - `sender` must have a balance of at least `amount`. - the caller must have allowance for `sender`'s tokens of at least `amount`."
      },
      "transferOwnership(address)": {
        "details": "Transfers ownership of the contract to a new account (`newOwner`). Can only be called by the current owner."
      },
      "upgradeTo(address)": {
        "details": "Upgrade the implementation of the proxy to `newImplementation`. Calls {_authorizeUpgrade}. Emits an {Upgraded} event."
      },
      "upgradeToAndCall(address,bytes)": {
        "details": "Upgrade the implementation of the proxy to `newImplementation`, and subsequently execute the function call encoded in `data`. Calls {_authorizeUpgrade}. Emits an {Upgraded} event."
      }
    },
    "version": 1
  },
  "userdoc": {
    "kind": "user",
    "methods": {},
    "version": 1
  },
  "storageLayout": {
    "storage": [
      {
        "astId": 946,
        "contract": "contracts/token/CoinBHO.sol:CoinBHO",
        "label": "_initialized",
        "offset": 0,
        "slot": "0",
        "type": "t_bool"
      },
      {
        "astId": 949,
        "contract": "contracts/token/CoinBHO.sol:CoinBHO",
        "label": "_initializing",
        "offset": 1,
        "slot": "0",
        "type": "t_bool"
      },
      {
        "astId": 1385,
        "contract": "contracts/token/CoinBHO.sol:CoinBHO",
        "label": "__gap",
        "offset": 0,
        "slot": "1",
        "type": "t_array(t_uint256)50_storage"
      },
      {
        "astId": 418,
        "contract": "contracts/token/CoinBHO.sol:CoinBHO",
        "label": "_owner",
        "offset": 0,
        "slot": "51",
        "type": "t_address"
      },
      {
        "astId": 531,
        "contract": "contracts/token/CoinBHO.sol:CoinBHO",
        "label": "__gap",
        "offset": 0,
        "slot": "52",
        "type": "t_array(t_uint256)49_storage"
      },
      {
        "astId": 929,
        "contract": "contracts/token/CoinBHO.sol:CoinBHO",
        "label": "__gap",
        "offset": 0,
        "slot": "101",
        "type": "t_array(t_uint256)50_storage"
      },
      {
        "astId": 1096,
        "contract": "contracts/token/CoinBHO.sol:CoinBHO",
        "label": "__gap",
        "offset": 0,
        "slot": "151",
        "type": "t_array(t_uint256)50_storage"
      },
      {
        "astId": 3864,
        "contract": "contracts/token/CoinBHO.sol:CoinBHO",
        "label": "_balances",
        "offset": 0,
        "slot": "201",
        "type": "t_mapping(t_address,t_uint256)"
      },
      {
        "astId": 3870,
        "contract": "contracts/token/CoinBHO.sol:CoinBHO",
        "label": "_allowances",
        "offset": 0,
        "slot": "202",
        "type": "t_mapping(t_address,t_mapping(t_address,t_uint256))"
      },
      {
        "astId": 3872,
        "contract": "contracts/token/CoinBHO.sol:CoinBHO",
        "label": "_totalSupply",
        "offset": 0,
        "slot": "203",
        "type": "t_uint256"
      },
      {
        "astId": 3874,
        "contract": "contracts/token/CoinBHO.sol:CoinBHO",
        "label": "_decimals",
        "offset": 0,
        "slot": "204",
        "type": "t_uint8"
      },
      {
        "astId": 3876,
        "contract": "contracts/token/CoinBHO.sol:CoinBHO",
        "label": "_symbol",
        "offset": 0,
        "slot": "205",
        "type": "t_string_storage"
      },
      {
        "astId": 3878,
        "contract": "contracts/token/CoinBHO.sol:CoinBHO",
        "label": "_name",
        "offset": 0,
        "slot": "206",
        "type": "t_string_storage"
      }
    ],
    "types": {
      "t_address": {
        "encoding": "inplace",
        "label": "address",
        "numberOfBytes": "20"
      },
      "t_array(t_uint256)49_storage": {
        "base": "t_uint256",
        "encoding": "inplace",
        "label": "uint256[49]",
        "numberOfBytes": "1568"
      },
      "t_array(t_uint256)50_storage": {
        "base": "t_uint256",
        "encoding": "inplace",
        "label": "uint256[50]",
        "numberOfBytes": "1600"
      },
      "t_bool": {
        "encoding": "inplace",
        "label": "bool",
        "numberOfBytes": "1"
      },
      "t_mapping(t_address,t_mapping(t_address,t_uint256))": {
        "encoding": "mapping",
        "key": "t_address",
        "label": "mapping(address => mapping(address => uint256))",
        "numberOfBytes": "32",
        "value": "t_mapping(t_address,t_uint256)"
      },
      "t_mapping(t_address,t_uint256)": {
        "encoding": "mapping",
        "key": "t_address",
        "label": "mapping(address => uint256)",
        "numberOfBytes": "32",
        "value": "t_uint256"
      },
      "t_string_storage": {
        "encoding": "bytes",
        "label": "string",
        "numberOfBytes": "32"
      },
      "t_uint256": {
        "encoding": "inplace",
        "label": "uint256",
        "numberOfBytes": "32"
      },
      "t_uint8": {
        "encoding": "inplace",
        "label": "uint8",
        "numberOfBytes": "1"
      }
    }
  }
}