{
  "address": "0xf1Ff08174db0109165d6115B7424fA0C2bf0a1dF",
  "abi": [
    {
      "anonymous": false,
      "inputs": [
        {
          "indexed": false,
          "internalType": "address",
          "name": "previousAdmin",
          "type": "address"
        },
        {
          "indexed": false,
          "internalType": "address",
          "name": "newAdmin",
          "type": "address"
        }
      ],
      "name": "AdminChanged",
      "type": "event"
    },
    {
      "anonymous": false,
      "inputs": [
        {
          "indexed": true,
          "internalType": "address",
          "name": "owner",
          "type": "address"
        },
        {
          "indexed": true,
          "internalType": "address",
          "name": "spender",
          "type": "address"
        },
        {
          "indexed": false,
          "internalType": "uint256",
          "name": "value",
          "type": "uint256"
        }
      ],
      "name": "Approval",
      "type": "event"
    },
    {
      "anonymous": false,
      "inputs": [
        {
          "indexed": true,
          "internalType": "address",
          "name": "beacon",
          "type": "address"
        }
      ],
      "name": "BeaconUpgraded",
      "type": "event"
    },
    {
      "anonymous": false,
      "inputs": [
        {
          "indexed": true,
          "internalType": "address",
          "name": "previousOwner",
          "type": "address"
        },
        {
          "indexed": true,
          "internalType": "address",
          "name": "newOwner",
          "type": "address"
        }
      ],
      "name": "OwnershipTransferred",
      "type": "event"
    },
    {
      "anonymous": false,
      "inputs": [
        {
          "indexed": true,
          "internalType": "bytes32",
          "name": "role",
          "type": "bytes32"
        },
        {
          "indexed": true,
          "internalType": "bytes32",
          "name": "previousAdminRole",
          "type": "bytes32"
        },
        {
          "indexed": true,
          "internalType": "bytes32",
          "name": "newAdminRole",
          "type": "bytes32"
        }
      ],
      "name": "RoleAdminChanged",
      "type": "event"
    },
    {
      "anonymous": false,
      "inputs": [
        {
          "indexed": true,
          "internalType": "bytes32",
          "name": "role",
          "type": "bytes32"
        },
        {
          "indexed": true,
          "internalType": "address",
          "name": "account",
          "type": "address"
        },
        {
          "indexed": true,
          "internalType": "address",
          "name": "sender",
          "type": "address"
        }
      ],
      "name": "RoleGranted",
      "type": "event"
    },
    {
      "anonymous": false,
      "inputs": [
        {
          "indexed": true,
          "internalType": "bytes32",
          "name": "role",
          "type": "bytes32"
        },
        {
          "indexed": true,
          "internalType": "address",
          "name": "account",
          "type": "address"
        },
        {
          "indexed": true,
          "internalType": "address",
          "name": "sender",
          "type": "address"
        }
      ],
      "name": "RoleRevoked",
      "type": "event"
    },
    {
      "anonymous": false,
      "inputs": [
        {
          "indexed": true,
          "internalType": "address",
          "name": "from",
          "type": "address"
        },
        {
          "indexed": true,
          "internalType": "address",
          "name": "to",
          "type": "address"
        },
        {
          "indexed": false,
          "internalType": "uint256",
          "name": "value",
          "type": "uint256"
        }
      ],
      "name": "Transfer",
      "type": "event"
    },
    {
      "anonymous": false,
      "inputs": [
        {
          "indexed": true,
          "internalType": "address",
          "name": "implementation",
          "type": "address"
        }
      ],
      "name": "Upgraded",
      "type": "event"
    },
    {
      "inputs": [],
      "name": "DEFAULT_ADMIN_ROLE",
      "outputs": [
        {
          "internalType": "bytes32",
          "name": "",
          "type": "bytes32"
        }
      ],
      "stateMutability": "view",
      "type": "function"
    },
    {
      "inputs": [],
      "name": "MINTER_ROLE",
      "outputs": [
        {
          "internalType": "bytes32",
          "name": "",
          "type": "bytes32"
        }
      ],
      "stateMutability": "view",
      "type": "function"
    },
    {
      "inputs": [
        {
          "internalType": "address",
          "name": "owner",
          "type": "address"
        },
        {
          "internalType": "address",
          "name": "spender",
          "type": "address"
        }
      ],
      "name": "allowance",
      "outputs": [
        {
          "internalType": "uint256",
          "name": "",
          "type": "uint256"
        }
      ],
      "stateMutability": "view",
      "type": "function"
    },
    {
      "inputs": [
        {
          "internalType": "address",
          "name": "spender",
          "type": "address"
        },
        {
          "internalType": "uint256",
          "name": "amount",
          "type": "uint256"
        }
      ],
      "name": "approve",
      "outputs": [
        {
          "internalType": "bool",
          "name": "",
          "type": "bool"
        }
      ],
      "stateMutability": "nonpayable",
      "type": "function"
    },
    {
      "inputs": [
        {
          "internalType": "address",
          "name": "account",
          "type": "address"
        }
      ],
      "name": "balanceOf",
      "outputs": [
        {
          "internalType": "uint256",
          "name": "",
          "type": "uint256"
        }
      ],
      "stateMutability": "view",
      "type": "function"
    },
    {
      "inputs": [
        {
          "internalType": "uint256",
          "name": "amount",
          "type": "uint256"
        }
      ],
      "name": "burn",
      "outputs": [
        {
          "internalType": "bool",
          "name": "",
          "type": "bool"
        }
      ],
      "stateMutability": "nonpayable",
      "type": "function"
    },
    {
      "inputs": [
        {
          "internalType": "address",
          "name": "account",
          "type": "address"
        },
        {
          "internalType": "uint256",
          "name": "amount",
          "type": "uint256"
        }
      ],
      "name": "burnFrom",
      "outputs": [
        {
          "internalType": "bool",
          "name": "",
          "type": "bool"
        }
      ],
      "stateMutability": "nonpayable",
      "type": "function"
    },
    {
      "inputs": [],
      "name": "decimals",
      "outputs": [
        {
          "internalType": "uint8",
          "name": "",
          "type": "uint8"
        }
      ],
      "stateMutability": "view",
      "type": "function"
    },
    {
      "inputs": [
        {
          "internalType": "address",
          "name": "spender",
          "type": "address"
        },
        {
          "internalType": "uint256",
          "name": "subtractedValue",
          "type": "uint256"
        }
      ],
      "name": "decreaseAllowance",
      "outputs": [
        {
          "internalType": "bool",
          "name": "",
          "type": "bool"
        }
      ],
      "stateMutability": "nonpayable",
      "type": "function"
    },
    {
      "inputs": [],
      "name": "getOwner",
      "outputs": [
        {
          "internalType": "address",
          "name": "",
          "type": "address"
        }
      ],
      "stateMutability": "view",
      "type": "function"
    },
    {
      "inputs": [
        {
          "internalType": "bytes32",
          "name": "role",
          "type": "bytes32"
        }
      ],
      "name": "getRoleAdmin",
      "outputs": [
        {
          "internalType": "bytes32",
          "name": "",
          "type": "bytes32"
        }
      ],
      "stateMutability": "view",
      "type": "function"
    },
    {
      "inputs": [
        {
          "internalType": "bytes32",
          "name": "role",
          "type": "bytes32"
        },
        {
          "internalType": "address",
          "name": "account",
          "type": "address"
        }
      ],
      "name": "grantRole",
      "outputs": [],
      "stateMutability": "nonpayable",
      "type": "function"
    },
    {
      "inputs": [
        {
          "internalType": "bytes32",
          "name": "role",
          "type": "bytes32"
        },
        {
          "internalType": "address",
          "name": "account",
          "type": "address"
        }
      ],
      "name": "hasRole",
      "outputs": [
        {
          "internalType": "bool",
          "name": "",
          "type": "bool"
        }
      ],
      "stateMutability": "view",
      "type": "function"
    },
    {
      "inputs": [
        {
          "internalType": "address",
          "name": "spender",
          "type": "address"
        },
        {
          "internalType": "uint256",
          "name": "addedValue",
          "type": "uint256"
        }
      ],
      "name": "increaseAllowance",
      "outputs": [
        {
          "internalType": "bool",
          "name": "",
          "type": "bool"
        }
      ],
      "stateMutability": "nonpayable",
      "type": "function"
    },
    {
      "inputs": [],
      "name": "initialize",
      "outputs": [
        {
          "internalType": "bool",
          "name": "",
          "type": "bool"
        }
      ],
      "stateMutability": "nonpayable",
      "type": "function"
    },
    {
      "inputs": [],
      "name": "initialize_v2",
      "outputs": [
        {
          "internalType": "bool",
          "name": "",
          "type": "bool"
        }
      ],
      "stateMutability": "nonpayable",
      "type": "function"
    },
    {
      "inputs": [
        {
          "internalType": "address",
          "name": "user",
          "type": "address"
        },
        {
          "internalType": "uint256",
          "name": "amount",
          "type": "uint256"
        }
      ],
      "name": "mint",
      "outputs": [
        {
          "internalType": "bool",
          "name": "",
          "type": "bool"
        }
      ],
      "stateMutability": "nonpayable",
      "type": "function"
    },
    {
      "inputs": [
        {
          "internalType": "uint256",
          "name": "amount",
          "type": "uint256"
        }
      ],
      "name": "mint",
      "outputs": [
        {
          "internalType": "bool",
          "name": "",
          "type": "bool"
        }
      ],
      "stateMutability": "nonpayable",
      "type": "function"
    },
    {
      "inputs": [],
      "name": "name",
      "outputs": [
        {
          "internalType": "string",
          "name": "",
          "type": "string"
        }
      ],
      "stateMutability": "view",
      "type": "function"
    },
    {
      "inputs": [],
      "name": "owner",
      "outputs": [
        {
          "internalType": "address",
          "name": "",
          "type": "address"
        }
      ],
      "stateMutability": "view",
      "type": "function"
    },
    {
      "inputs": [],
      "name": "renounceOwnership",
      "outputs": [],
      "stateMutability": "nonpayable",
      "type": "function"
    },
    {
      "inputs": [
        {
          "internalType": "bytes32",
          "name": "role",
          "type": "bytes32"
        },
        {
          "internalType": "address",
          "name": "account",
          "type": "address"
        }
      ],
      "name": "renounceRole",
      "outputs": [],
      "stateMutability": "nonpayable",
      "type": "function"
    },
    {
      "inputs": [
        {
          "internalType": "bytes32",
          "name": "role",
          "type": "bytes32"
        },
        {
          "internalType": "address",
          "name": "account",
          "type": "address"
        }
      ],
      "name": "revokeRole",
      "outputs": [],
      "stateMutability": "nonpayable",
      "type": "function"
    },
    {
      "inputs": [
        {
          "internalType": "bytes4",
          "name": "interfaceId",
          "type": "bytes4"
        }
      ],
      "name": "supportsInterface",
      "outputs": [
        {
          "internalType": "bool",
          "name": "",
          "type": "bool"
        }
      ],
      "stateMutability": "view",
      "type": "function"
    },
    {
      "inputs": [],
      "name": "symbol",
      "outputs": [
        {
          "internalType": "string",
          "name": "",
          "type": "string"
        }
      ],
      "stateMutability": "view",
      "type": "function"
    },
    {
      "inputs": [],
      "name": "totalSupply",
      "outputs": [
        {
          "internalType": "uint256",
          "name": "",
          "type": "uint256"
        }
      ],
      "stateMutability": "view",
      "type": "function"
    },
    {
      "inputs": [
        {
          "internalType": "address",
          "name": "recipient",
          "type": "address"
        },
        {
          "internalType": "uint256",
          "name": "amount",
          "type": "uint256"
        }
      ],
      "name": "transfer",
      "outputs": [
        {
          "internalType": "bool",
          "name": "",
          "type": "bool"
        }
      ],
      "stateMutability": "nonpayable",
      "type": "function"
    },
    {
      "inputs": [
        {
          "internalType": "address",
          "name": "sender",
          "type": "address"
        },
        {
          "internalType": "address",
          "name": "recipient",
          "type": "address"
        },
        {
          "internalType": "uint256",
          "name": "amount",
          "type": "uint256"
        }
      ],
      "name": "transferFrom",
      "outputs": [
        {
          "internalType": "bool",
          "name": "",
          "type": "bool"
        }
      ],
      "stateMutability": "nonpayable",
      "type": "function"
    },
    {
      "inputs": [
        {
          "internalType": "address",
          "name": "newOwner",
          "type": "address"
        }
      ],
      "name": "transferOwnership",
      "outputs": [],
      "stateMutability": "nonpayable",
      "type": "function"
    },
    {
      "inputs": [
        {
          "internalType": "address",
          "name": "newImplementation",
          "type": "address"
        }
      ],
      "name": "upgradeTo",
      "outputs": [],
      "stateMutability": "nonpayable",
      "type": "function"
    },
    {
      "inputs": [
        {
          "internalType": "address",
          "name": "newImplementation",
          "type": "address"
        },
        {
          "internalType": "bytes",
          "name": "data",
          "type": "bytes"
        }
      ],
      "name": "upgradeToAndCall",
      "outputs": [],
      "stateMutability": "payable",
      "type": "function"
    }
  ],
  "transactionHash": "0xf1ce0785758e74372d422eacc9d5d34459a50a10e2060dae322ca3a30d907d78",
  "args": [],
  "solcInputHash": "eff1b2e6f5db0f5b1f60202ca8f4a642",
  "bytecode": "0x608060405234801561001057600080fd5b506144b1806100206000396000f3fe6080604052600436106101d85760003560e01c806370a0823111610102578063a0712d6811610095578063d539139311610064578063d539139314610727578063d547741f14610752578063dd62ed3e1461077b578063f2fde38b146107b8576101d8565b8063a0712d6814610645578063a217fddf14610682578063a457c2d7146106ad578063a9059cbb146106ea576101d8565b8063893d20e8116100d1578063893d20e8146105875780638da5cb5b146105b257806391d14854146105dd57806395d89b411461061a576101d8565b806370a08231146104cb578063715018a61461050857806379cc67901461051f5780638129fc1c1461055c576101d8565b8063313ce5671161017a57806340c10f191161014957806340c10f191461040a57806342966c68146104475780634f1ef2861461048457806361bd3678146104a0576101d8565b8063313ce5671461035057806336568abe1461037b5780633659cfe6146103a457806339509351146103cd576101d8565b806318160ddd116101b657806318160ddd1461028257806323b872dd146102ad578063248a9ca3146102ea5780632f2ff15d14610327576101d8565b806301ffc9a7146101dd57806306fdde031461021a578063095ea7b314610245575b600080fd5b3480156101e957600080fd5b5061020460048036038101906101ff9190613300565b6107e1565b604051610211919061371a565b60405180910390f35b34801561022657600080fd5b5061022f61085b565b60405161023c9190613750565b60405180910390f35b34801561025157600080fd5b5061026c6004803603810190610267919061325f565b6108ed565b604051610279919061371a565b60405180910390f35b34801561028e57600080fd5b5061029761090b565b6040516102a49190613972565b60405180910390f35b3480156102b957600080fd5b506102d460048036038101906102cf91906131bc565b610915565b6040516102e1919061371a565b60405180910390f35b3480156102f657600080fd5b50610311600480360381019061030c919061329b565b6109ee565b60405161031e9190613735565b60405180910390f35b34801561033357600080fd5b5061034e600480360381019061034991906132c4565b610a0f565b005b34801561035c57600080fd5b50610365610a38565b604051610372919061398d565b60405180910390f35b34801561038757600080fd5b506103a2600480360381019061039d91906132c4565b610a4f565b005b3480156103b057600080fd5b506103cb60048036038101906103c69190613157565b610ad2565b005b3480156103d957600080fd5b506103f460048036038101906103ef919061325f565b610af9565b604051610401919061371a565b60405180910390f35b34801561041657600080fd5b50610431600480360381019061042c919061325f565b610bac565b60405161043e919061371a565b60405180910390f35b34801561045357600080fd5b5061046e60048036038101906104699190613329565b610c32565b60405161047b919061371a565b60405180910390f35b61049e6004803603810190610499919061320b565b610c4e565b005b3480156104ac57600080fd5b506104b5610c67565b6040516104c2919061371a565b60405180910390f35b3480156104d757600080fd5b506104f260048036038101906104ed9190613157565b610cf1565b6040516104ff9190613972565b60405180910390f35b34801561051457600080fd5b5061051d610d3a565b005b34801561052b57600080fd5b506105466004803603810190610541919061325f565b610e77565b604051610553919061371a565b60405180910390f35b34801561056857600080fd5b50610571610e8d565b60405161057e919061371a565b60405180910390f35b34801561059357600080fd5b5061059c611110565b6040516105a991906136ff565b60405180910390f35b3480156105be57600080fd5b506105c761111f565b6040516105d491906136ff565b60405180910390f35b3480156105e957600080fd5b5061060460048036038101906105ff91906132c4565b611149565b604051610611919061371a565b60405180910390f35b34801561062657600080fd5b5061062f6111b5565b60405161063c9190613750565b60405180910390f35b34801561065157600080fd5b5061066c60048036038101906106679190613329565b611247565b604051610679919061371a565b60405180910390f35b34801561068e57600080fd5b506106976112df565b6040516106a49190613735565b60405180910390f35b3480156106b957600080fd5b506106d460048036038101906106cf919061325f565b6112e6565b6040516106e1919061371a565b60405180910390f35b3480156106f657600080fd5b50610711600480360381019061070c919061325f565b6113b3565b60405161071e919061371a565b60405180910390f35b34801561073357600080fd5b5061073c6113d1565b6040516107499190613735565b60405180910390f35b34801561075e57600080fd5b50610779600480360381019061077491906132c4565b6113f5565b005b34801561078757600080fd5b506107a2600480360381019061079d9190613180565b61141e565b6040516107af9190613972565b60405180910390f35b3480156107c457600080fd5b506107df60048036038101906107da9190613157565b6114a5565b005b60007f7965db0b000000000000000000000000000000000000000000000000000000007bffffffffffffffffffffffffffffffffffffffffffffffffffffffff1916827bffffffffffffffffffffffffffffffffffffffffffffffffffffffff19161480610854575061085382611651565b5b9050919050565b606060ce805461086a90613d87565b80601f016020809104026020016040519081016040528092919081815260200182805461089690613d87565b80156108e35780601f106108b8576101008083540402835291602001916108e3565b820191906000526020600020905b8154815290600101906020018083116108c657829003601f168201915b5050505050905090565b60006109016108fa6116bb565b84846116c3565b6001905092915050565b600060cb54905090565b600061092284848461188e565b6109e38461092e6116bb565b6109de8560405180606001604052806028815260200161439c6028913960ca60008b73ffffffffffffffffffffffffffffffffffffffff1673ffffffffffffffffffffffffffffffffffffffff16815260200190815260200160002060006109946116bb565b73ffffffffffffffffffffffffffffffffffffffff1673ffffffffffffffffffffffffffffffffffffffff16815260200190815260200160002054611b1c9092919063ffffffff16565b6116c3565b600190509392505050565b60006101016000838152602001908152602001600020600101549050919050565b610a18826109ee565b610a2981610a246116bb565b611b71565b610a338383611c0e565b505050565b600060cc60009054906101000a900460ff16905090565b610a576116bb565b73ffffffffffffffffffffffffffffffffffffffff168173ffffffffffffffffffffffffffffffffffffffff1614610ac4576040517f08c379a0000000000000000000000000000000000000000000000000000000008152600401610abb90613952565b60405180910390fd5b610ace8282611cf0565b5050565b610adb81611dd3565b610af681604051806020016040528060008152506000611e52565b50565b6000610ba2610b066116bb565b84610b9d8560ca6000610b176116bb565b73ffffffffffffffffffffffffffffffffffffffff1673ffffffffffffffffffffffffffffffffffffffff16815260200190815260200160002060008973ffffffffffffffffffffffffffffffffffffffff1673ffffffffffffffffffffffffffffffffffffffff1681526020019081526020016000205461206690919063ffffffff16565b6116c3565b6001905092915050565b6000610bdf7f9f2df0fed2c77648de5860a4cc508cd0818c85b8b8a1ab4ceeef8d981c8956a6610bda6116bb565b611149565b610c1e576040517f08c379a0000000000000000000000000000000000000000000000000000000008152600401610c1590613832565b60405180910390fd5b610c28838361207c565b6001905092915050565b6000610c45610c3f6116bb565b83612206565b60019050919050565b610c5782611dd3565b610c6382826001611e52565b5050565b600061013360009054906101000a900460ff1615610cba576040517f08c379a0000000000000000000000000000000000000000000000000000000008152600401610cb190613792565b60405180910390fd5b610cce6000801b610cc96116bb565b6123aa565b600161013360006101000a81548160ff0219169083151502179055506001905090565b600060c960008373ffffffffffffffffffffffffffffffffffffffff1673ffffffffffffffffffffffffffffffffffffffff168152602001908152602001600020549050919050565b610d426116bb565b73ffffffffffffffffffffffffffffffffffffffff16610d6061111f565b73ffffffffffffffffffffffffffffffffffffffff1614610db6576040517f08c379a0000000000000000000000000000000000000000000000000000000008152600401610dad906138b2565b60405180910390fd5b600073ffffffffffffffffffffffffffffffffffffffff16603360009054906101000a900473ffffffffffffffffffffffffffffffffffffffff1673ffffffffffffffffffffffffffffffffffffffff167f8be0079c531659141344cd1fd0a4f28419497f9722a3daafe3b4186f6b6457e060405160405180910390a36000603360006101000a81548173ffffffffffffffffffffffffffffffffffffffff021916908373ffffffffffffffffffffffffffffffffffffffff160217905550565b6000610e8383836123b8565b6001905092915050565b60008060019054906101000a900460ff1680610eb4575060008054906101000a900460ff16155b610ef3576040517f08c379a0000000000000000000000000000000000000000000000000000000008152600401610eea90613852565b60405180910390fd5b60008060019054906101000a900460ff161590508015610f43576001600060016101000a81548160ff02191690831515021790555060016000806101000a81548160ff0219169083151502179055505b610f4b612487565b610f53612570565b6040518060400160405280600d81526020017f42686f6c64757320546f6b656e0000000000000000000000000000000000000081525060ce9080519060200190610f9e929190612ff8565b506040518060400160405280600381526020017f42484f000000000000000000000000000000000000000000000000000000000081525060cd9080519060200190610fea929190612ff8565b50601260cc60006101000a81548160ff021916908360ff16021790555060cc60009054906101000a900460ff16600a6110239190613ae4565b6402540be4006110339190613c02565b60cb8190555060cb5460c960003373ffffffffffffffffffffffffffffffffffffffff1673ffffffffffffffffffffffffffffffffffffffff168152602001908152602001600020819055503373ffffffffffffffffffffffffffffffffffffffff16600073ffffffffffffffffffffffffffffffffffffffff167fddf252ad1be2c89b69c2b068fc378daa952ba7f163c4a11628f55a4df523b3ef60cb546040516110df9190613972565b60405180910390a360019150801561110c5760008060016101000a81548160ff0219169083151502179055505b5090565b600061111a61111f565b905090565b6000603360009054906101000a900473ffffffffffffffffffffffffffffffffffffffff16905090565b6000610101600084815260200190815260200160002060000160008373ffffffffffffffffffffffffffffffffffffffff1673ffffffffffffffffffffffffffffffffffffffff16815260200190815260200160002060009054906101000a900460ff16905092915050565b606060cd80546111c490613d87565b80601f01602080910402602001604051908101604052809291908181526020018280546111f090613d87565b801561123d5780601f106112125761010080835404028352916020019161123d565b820191906000526020600020905b81548152906001019060200180831161122057829003601f168201915b5050505050905090565b60006112516116bb565b73ffffffffffffffffffffffffffffffffffffffff1661126f61111f565b73ffffffffffffffffffffffffffffffffffffffff16146112c5576040517f08c379a00000000000000000000000000000000000000000000000000000000081526004016112bc906138b2565b60405180910390fd5b6112d66112d06116bb565b8361207c565b60019050919050565b6000801b81565b60006113a96112f36116bb565b846113a4856040518060600160405280602581526020016144116025913960ca600061131d6116bb565b73ffffffffffffffffffffffffffffffffffffffff1673ffffffffffffffffffffffffffffffffffffffff16815260200190815260200160002060008a73ffffffffffffffffffffffffffffffffffffffff1673ffffffffffffffffffffffffffffffffffffffff16815260200190815260200160002054611b1c9092919063ffffffff16565b6116c3565b6001905092915050565b60006113c76113c06116bb565b848461188e565b6001905092915050565b7f9f2df0fed2c77648de5860a4cc508cd0818c85b8b8a1ab4ceeef8d981c8956a681565b6113fe826109ee565b61140f8161140a6116bb565b611b71565b6114198383611cf0565b505050565b600060ca60008473ffffffffffffffffffffffffffffffffffffffff1673ffffffffffffffffffffffffffffffffffffffff16815260200190815260200160002060008373ffffffffffffffffffffffffffffffffffffffff1673ffffffffffffffffffffffffffffffffffffffff16815260200190815260200160002054905092915050565b6114ad6116bb565b73ffffffffffffffffffffffffffffffffffffffff166114cb61111f565b73ffffffffffffffffffffffffffffffffffffffff1614611521576040517f08c379a0000000000000000000000000000000000000000000000000000000008152600401611518906138b2565b60405180910390fd5b600073ffffffffffffffffffffffffffffffffffffffff168173ffffffffffffffffffffffffffffffffffffffff161415611591576040517f08c379a000000000000000000000000000000000000000000000000000000000815260040161158890613812565b60405180910390fd5b8073ffffffffffffffffffffffffffffffffffffffff16603360009054906101000a900473ffffffffffffffffffffffffffffffffffffffff1673ffffffffffffffffffffffffffffffffffffffff167f8be0079c531659141344cd1fd0a4f28419497f9722a3daafe3b4186f6b6457e060405160405180910390a380603360006101000a81548173ffffffffffffffffffffffffffffffffffffffff021916908373ffffffffffffffffffffffffffffffffffffffff16021790555050565b60007f01ffc9a7000000000000000000000000000000000000000000000000000000007bffffffffffffffffffffffffffffffffffffffffffffffffffffffff1916827bffffffffffffffffffffffffffffffffffffffffffffffffffffffff1916149050919050565b600033905090565b600073ffffffffffffffffffffffffffffffffffffffff168373ffffffffffffffffffffffffffffffffffffffff161415611733576040517f08c379a000000000000000000000000000000000000000000000000000000000815260040161172a906137d2565b60405180910390fd5b600073ffffffffffffffffffffffffffffffffffffffff168273ffffffffffffffffffffffffffffffffffffffff1614156117a3576040517f08c379a000000000000000000000000000000000000000000000000000000000815260040161179a90613932565b60405180910390fd5b8060ca60008573ffffffffffffffffffffffffffffffffffffffff1673ffffffffffffffffffffffffffffffffffffffff16815260200190815260200160002060008473ffffffffffffffffffffffffffffffffffffffff1673ffffffffffffffffffffffffffffffffffffffff168152602001908152602001600020819055508173ffffffffffffffffffffffffffffffffffffffff168373ffffffffffffffffffffffffffffffffffffffff167f8c5be1e5ebec7d5bd14f71427d1e84f3dd0314c0f7b2291e5b200ac8c7c3b925836040516118819190613972565b60405180910390a3505050565b600073ffffffffffffffffffffffffffffffffffffffff168373ffffffffffffffffffffffffffffffffffffffff1614156118fe576040517f08c379a00000000000000000000000000000000000000000000000000000000081526004016118f5906137b2565b60405180910390fd5b600073ffffffffffffffffffffffffffffffffffffffff168273ffffffffffffffffffffffffffffffffffffffff16141561196e576040517f08c379a0000000000000000000000000000000000000000000000000000000008152600401611965906138d2565b60405180910390fd5b6119da816040518060600160405280602681526020016143eb6026913960c960008773ffffffffffffffffffffffffffffffffffffffff1673ffffffffffffffffffffffffffffffffffffffff16815260200190815260200160002054611b1c9092919063ffffffff16565b60c960008573ffffffffffffffffffffffffffffffffffffffff1673ffffffffffffffffffffffffffffffffffffffff16815260200190815260200160002081905550611a6f8160c960008573ffffffffffffffffffffffffffffffffffffffff1673ffffffffffffffffffffffffffffffffffffffff1681526020019081526020016000205461206690919063ffffffff16565b60c960008473ffffffffffffffffffffffffffffffffffffffff1673ffffffffffffffffffffffffffffffffffffffff168152602001908152602001600020819055508173ffffffffffffffffffffffffffffffffffffffff168373ffffffffffffffffffffffffffffffffffffffff167fddf252ad1be2c89b69c2b068fc378daa952ba7f163c4a11628f55a4df523b3ef83604051611b0f9190613972565b60405180910390a3505050565b6000838311158290611b64576040517f08c379a0000000000000000000000000000000000000000000000000000000008152600401611b5b9190613750565b60405180910390fd5b5082840390509392505050565b611b7b8282611149565b611c0a57611ba08173ffffffffffffffffffffffffffffffffffffffff166014612659565b611bae8360001c6020612659565b604051602001611bbf9291906136c5565b6040516020818303038152906040526040517f08c379a0000000000000000000000000000000000000000000000000000000008152600401611c019190613750565b60405180910390fd5b5050565b611c188282611149565b611cec576001610101600084815260200190815260200160002060000160008373ffffffffffffffffffffffffffffffffffffffff1673ffffffffffffffffffffffffffffffffffffffff16815260200190815260200160002060006101000a81548160ff021916908315150217905550611c916116bb565b73ffffffffffffffffffffffffffffffffffffffff168173ffffffffffffffffffffffffffffffffffffffff16837f2f8788117e7eff1d82e926ec794901d17c78024a50270940304540a733656f0d60405160405180910390a45b5050565b611cfa8282611149565b15611dcf576000610101600084815260200190815260200160002060000160008373ffffffffffffffffffffffffffffffffffffffff1673ffffffffffffffffffffffffffffffffffffffff16815260200190815260200160002060006101000a81548160ff021916908315150217905550611d746116bb565b73ffffffffffffffffffffffffffffffffffffffff168173ffffffffffffffffffffffffffffffffffffffff16837ff6391f5c32d9c69d2a47ea670b442974b53935d1edc7fd64eb21e047a839171b60405160405180910390a45b5050565b611ddb6116bb565b73ffffffffffffffffffffffffffffffffffffffff16611df961111f565b73ffffffffffffffffffffffffffffffffffffffff1614611e4f576040517f08c379a0000000000000000000000000000000000000000000000000000000008152600401611e46906138b2565b60405180910390fd5b50565b6000611e5c612953565b9050611e67846129aa565b600083511180611e745750815b15611e8557611e838484612a63565b505b6000611eb37f4910fdfa16fed3260ed0e7147f7cc6da11a60208b5b9406d12a635614ffd914360001b612b47565b90508060000160009054906101000a900460ff1661205f5760018160000160006101000a81548160ff021916908315150217905550611f7f8583604051602401611efd91906136ff565b6040516020818303038152906040527f3659cfe6000000000000000000000000000000000000000000000000000000007bffffffffffffffffffffffffffffffffffffffffffffffffffffffff19166020820180517bffffffffffffffffffffffffffffffffffffffffffffffffffffffff8381831617835250505050612a63565b5060008160000160006101000a81548160ff021916908315150217905550611fa5612953565b73ffffffffffffffffffffffffffffffffffffffff168273ffffffffffffffffffffffffffffffffffffffff1614612012576040517f08c379a0000000000000000000000000000000000000000000000000000000008152600401612009906137f2565b60405180910390fd5b61201b856129aa565b8473ffffffffffffffffffffffffffffffffffffffff167fbc7cd75a20ee27fd9adebab32041f755214dbc6bffa90cc0225b39da2e5c2d3b60405160405180910390a25b5050505050565b600081836120749190613a3b565b905092915050565b600073ffffffffffffffffffffffffffffffffffffffff168273ffffffffffffffffffffffffffffffffffffffff1614156120ec576040517f08c379a00000000000000000000000000000000000000000000000000000000081526004016120e390613892565b60405180910390fd5b6121018160cb5461206690919063ffffffff16565b60cb819055506121598160c960008573ffffffffffffffffffffffffffffffffffffffff1673ffffffffffffffffffffffffffffffffffffffff1681526020019081526020016000205461206690919063ffffffff16565b60c960008473ffffffffffffffffffffffffffffffffffffffff1673ffffffffffffffffffffffffffffffffffffffff168152602001908152602001600020819055508173ffffffffffffffffffffffffffffffffffffffff16600073ffffffffffffffffffffffffffffffffffffffff167fddf252ad1be2c89b69c2b068fc378daa952ba7f163c4a11628f55a4df523b3ef836040516121fa9190613972565b60405180910390a35050565b600073ffffffffffffffffffffffffffffffffffffffff168273ffffffffffffffffffffffffffffffffffffffff161415612276576040517f08c379a000000000000000000000000000000000000000000000000000000000815260040161226d906138f2565b60405180910390fd5b6122e2816040518060600160405280602281526020016144366022913960c960008673ffffffffffffffffffffffffffffffffffffffff1673ffffffffffffffffffffffffffffffffffffffff16815260200190815260200160002054611b1c9092919063ffffffff16565b60c960008473ffffffffffffffffffffffffffffffffffffffff1673ffffffffffffffffffffffffffffffffffffffff1681526020019081526020016000208190555061233a8160cb54612b5190919063ffffffff16565b60cb81905550600073ffffffffffffffffffffffffffffffffffffffff168273ffffffffffffffffffffffffffffffffffffffff167fddf252ad1be2c89b69c2b068fc378daa952ba7f163c4a11628f55a4df523b3ef8360405161239e9190613972565b60405180910390a35050565b6123b48282611c0e565b5050565b6123c28282612206565b612483826123ce6116bb565b61247e846040518060600160405280602481526020016144586024913960ca60008973ffffffffffffffffffffffffffffffffffffffff1673ffffffffffffffffffffffffffffffffffffffff16815260200190815260200160002060006124346116bb565b73ffffffffffffffffffffffffffffffffffffffff1673ffffffffffffffffffffffffffffffffffffffff16815260200190815260200160002054611b1c9092919063ffffffff16565b6116c3565b5050565b600060019054906101000a900460ff16806124ad575060008054906101000a900460ff16155b6124ec576040517f08c379a00000000000000000000000000000000000000000000000000000000081526004016124e390613852565b60405180910390fd5b60008060019054906101000a900460ff16159050801561253c576001600060016101000a81548160ff02191690831515021790555060016000806101000a81548160ff0219169083151502179055505b612544612b67565b61254c612c40565b801561256d5760008060016101000a81548160ff0219169083151502179055505b50565b600060019054906101000a900460ff1680612596575060008054906101000a900460ff16155b6125d5576040517f08c379a00000000000000000000000000000000000000000000000000000000081526004016125cc90613852565b60405180910390fd5b60008060019054906101000a900460ff161590508015612625576001600060016101000a81548160ff02191690831515021790555060016000806101000a81548160ff0219169083151502179055505b61262d612dc2565b612635612e9b565b80156126565760008060016101000a81548160ff0219169083151502179055505b50565b60606000600283600261266c9190613c02565b6126769190613a3b565b67ffffffffffffffff8111156126b5577f4e487b7100000000000000000000000000000000000000000000000000000000600052604160045260246000fd5b6040519080825280601f01601f1916602001820160405280156126e75781602001600182028036833780820191505090505b5090507f300000000000000000000000000000000000000000000000000000000000000081600081518110612745577f4e487b7100000000000000000000000000000000000000000000000000000000600052603260045260246000fd5b60200101907effffffffffffffffffffffffffffffffffffffffffffffffffffffffffffff1916908160001a9053507f7800000000000000000000000000000000000000000000000000000000000000816001815181106127cf577f4e487b7100000000000000000000000000000000000000000000000000000000600052603260045260246000fd5b60200101907effffffffffffffffffffffffffffffffffffffffffffffffffffffffffffff1916908160001a9053506000600184600261280f9190613c02565b6128199190613a3b565b90505b6001811115612905577f3031323334353637383961626364656600000000000000000000000000000000600f861660108110612881577f4e487b7100000000000000000000000000000000000000000000000000000000600052603260045260246000fd5b1a60f81b8282815181106128be577f4e487b7100000000000000000000000000000000000000000000000000000000600052603260045260246000fd5b60200101907effffffffffffffffffffffffffffffffffffffffffffffffffffffffffffff1916908160001a905350600485901c9450806128fe90613d5d565b905061281c565b5060008414612949576040517f08c379a000000000000000000000000000000000000000000000000000000000815260040161294090613772565b60405180910390fd5b8091505092915050565b60006129817f360894a13ba1a3210667c828492db98dca3e2076cc3735a920a3ca505d382bbc60001b612f74565b60000160009054906101000a900473ffffffffffffffffffffffffffffffffffffffff16905090565b6129b381612f7e565b6129f2576040517f08c379a00000000000000000000000000000000000000000000000000000000081526004016129e990613872565b60405180910390fd5b80612a1f7f360894a13ba1a3210667c828492db98dca3e2076cc3735a920a3ca505d382bbc60001b612f74565b60000160006101000a81548173ffffffffffffffffffffffffffffffffffffffff021916908373ffffffffffffffffffffffffffffffffffffffff16021790555050565b6060612a6e83612f7e565b612aad576040517f08c379a0000000000000000000000000000000000000000000000000000000008152600401612aa490613912565b60405180910390fd5b6000808473ffffffffffffffffffffffffffffffffffffffff1684604051612ad591906136ae565b600060405180830381855af49150503d8060008114612b10576040519150601f19603f3d011682016040523d82523d6000602084013e612b15565b606091505b5091509150612b3d82826040518060600160405280602781526020016143c460279139612f91565b9250505092915050565b6000819050919050565b60008183612b5f9190613c5c565b905092915050565b600060019054906101000a900460ff1680612b8d575060008054906101000a900460ff16155b612bcc576040517f08c379a0000000000000000000000000000000000000000000000000000000008152600401612bc390613852565b60405180910390fd5b60008060019054906101000a900460ff161590508015612c1c576001600060016101000a81548160ff02191690831515021790555060016000806101000a81548160ff0219169083151502179055505b8015612c3d5760008060016101000a81548160ff0219169083151502179055505b50565b600060019054906101000a900460ff1680612c66575060008054906101000a900460ff16155b612ca5576040517f08c379a0000000000000000000000000000000000000000000000000000000008152600401612c9c90613852565b60405180910390fd5b60008060019054906101000a900460ff161590508015612cf5576001600060016101000a81548160ff02191690831515021790555060016000806101000a81548160ff0219169083151502179055505b6000612cff6116bb565b905080603360006101000a81548173ffffffffffffffffffffffffffffffffffffffff021916908373ffffffffffffffffffffffffffffffffffffffff1602179055508073ffffffffffffffffffffffffffffffffffffffff16600073ffffffffffffffffffffffffffffffffffffffff167f8be0079c531659141344cd1fd0a4f28419497f9722a3daafe3b4186f6b6457e060405160405180910390a3508015612dbf5760008060016101000a81548160ff0219169083151502179055505b50565b600060019054906101000a900460ff1680612de8575060008054906101000a900460ff16155b612e27576040517f08c379a0000000000000000000000000000000000000000000000000000000008152600401612e1e90613852565b60405180910390fd5b60008060019054906101000a900460ff161590508015612e77576001600060016101000a81548160ff02191690831515021790555060016000806101000a81548160ff0219169083151502179055505b8015612e985760008060016101000a81548160ff0219169083151502179055505b50565b600060019054906101000a900460ff1680612ec1575060008054906101000a900460ff16155b612f00576040517f08c379a0000000000000000000000000000000000000000000000000000000008152600401612ef790613852565b60405180910390fd5b60008060019054906101000a900460ff161590508015612f50576001600060016101000a81548160ff02191690831515021790555060016000806101000a81548160ff0219169083151502179055505b8015612f715760008060016101000a81548160ff0219169083151502179055505b50565b6000819050919050565b600080823b905060008111915050919050565b60608315612fa157829050612ff1565b600083511115612fb45782518084602001fd5b816040517f08c379a0000000000000000000000000000000000000000000000000000000008152600401612fe89190613750565b60405180910390fd5b9392505050565b82805461300490613d87565b90600052602060002090601f016020900481019282613026576000855561306d565b82601f1061303f57805160ff191683800117855561306d565b8280016001018555821561306d579182015b8281111561306c578251825591602001919060010190613051565b5b50905061307a919061307e565b5090565b5b8082111561309757600081600090555060010161307f565b5090565b60006130ae6130a9846139cd565b6139a8565b9050828152602081018484840111156130c657600080fd5b6130d1848285613d1b565b509392505050565b6000813590506130e88161433f565b92915050565b6000813590506130fd81614356565b92915050565b6000813590506131128161436d565b92915050565b600082601f83011261312957600080fd5b813561313984826020860161309b565b91505092915050565b60008135905061315181614384565b92915050565b60006020828403121561316957600080fd5b6000613177848285016130d9565b91505092915050565b6000806040838503121561319357600080fd5b60006131a1858286016130d9565b92505060206131b2858286016130d9565b9150509250929050565b6000806000606084860312156131d157600080fd5b60006131df868287016130d9565b93505060206131f0868287016130d9565b925050604061320186828701613142565b9150509250925092565b6000806040838503121561321e57600080fd5b600061322c858286016130d9565b925050602083013567ffffffffffffffff81111561324957600080fd5b61325585828601613118565b9150509250929050565b6000806040838503121561327257600080fd5b6000613280858286016130d9565b925050602061329185828601613142565b9150509250929050565b6000602082840312156132ad57600080fd5b60006132bb848285016130ee565b91505092915050565b600080604083850312156132d757600080fd5b60006132e5858286016130ee565b92505060206132f6858286016130d9565b9150509250929050565b60006020828403121561331257600080fd5b600061332084828501613103565b91505092915050565b60006020828403121561333b57600080fd5b600061334984828501613142565b91505092915050565b61335b81613c90565b82525050565b61336a81613ca2565b82525050565b61337981613cae565b82525050565b600061338a826139fe565b6133948185613a14565b93506133a4818560208601613d2a565b80840191505092915050565b60006133bb82613a09565b6133c58185613a1f565b93506133d5818560208601613d2a565b6133de81613e77565b840191505092915050565b60006133f482613a09565b6133fe8185613a30565b935061340e818560208601613d2a565b80840191505092915050565b6000613427602083613a1f565b915061343282613e95565b602082019050919050565b600061344a601e83613a1f565b915061345582613ebe565b602082019050919050565b600061346d602583613a1f565b915061347882613ee7565b604082019050919050565b6000613490602483613a1f565b915061349b82613f36565b604082019050919050565b60006134b3602f83613a1f565b91506134be82613f85565b604082019050919050565b60006134d6602683613a1f565b91506134e182613fd4565b604082019050919050565b60006134f9602e83613a1f565b915061350482614023565b604082019050919050565b600061351c602e83613a1f565b915061352782614072565b604082019050919050565b600061353f602d83613a1f565b915061354a826140c1565b604082019050919050565b6000613562601f83613a1f565b915061356d82614110565b602082019050919050565b6000613585602083613a1f565b915061359082614139565b602082019050919050565b60006135a8602383613a1f565b91506135b382614162565b604082019050919050565b60006135cb602183613a1f565b91506135d6826141b1565b604082019050919050565b60006135ee602683613a1f565b91506135f982614200565b604082019050919050565b6000613611601783613a30565b915061361c8261424f565b601782019050919050565b6000613634602283613a1f565b915061363f82614278565b604082019050919050565b6000613657601183613a30565b9150613662826142c7565b601182019050919050565b600061367a602f83613a1f565b9150613685826142f0565b604082019050919050565b61369981613d04565b82525050565b6136a881613d0e565b82525050565b60006136ba828461337f565b915081905092915050565b60006136d082613604565b91506136dc82856133e9565b91506136e78261364a565b91506136f382846133e9565b91508190509392505050565b60006020820190506137146000830184613352565b92915050565b600060208201905061372f6000830184613361565b92915050565b600060208201905061374a6000830184613370565b92915050565b6000602082019050818103600083015261376a81846133b0565b905092915050565b6000602082019050818103600083015261378b8161341a565b9050919050565b600060208201905081810360008301526137ab8161343d565b9050919050565b600060208201905081810360008301526137cb81613460565b9050919050565b600060208201905081810360008301526137eb81613483565b9050919050565b6000602082019050818103600083015261380b816134a6565b9050919050565b6000602082019050818103600083015261382b816134c9565b9050919050565b6000602082019050818103600083015261384b816134ec565b9050919050565b6000602082019050818103600083015261386b8161350f565b9050919050565b6000602082019050818103600083015261388b81613532565b9050919050565b600060208201905081810360008301526138ab81613555565b9050919050565b600060208201905081810360008301526138cb81613578565b9050919050565b600060208201905081810360008301526138eb8161359b565b9050919050565b6000602082019050818103600083015261390b816135be565b9050919050565b6000602082019050818103600083015261392b816135e1565b9050919050565b6000602082019050818103600083015261394b81613627565b9050919050565b6000602082019050818103600083015261396b8161366d565b9050919050565b60006020820190506139876000830184613690565b92915050565b60006020820190506139a2600083018461369f565b92915050565b60006139b26139c3565b90506139be8282613db9565b919050565b6000604051905090565b600067ffffffffffffffff8211156139e8576139e7613e48565b5b6139f182613e77565b9050602081019050919050565b600081519050919050565b600081519050919050565b600081905092915050565b600082825260208201905092915050565b600081905092915050565b6000613a4682613d04565b9150613a5183613d04565b9250827fffffffffffffffffffffffffffffffffffffffffffffffffffffffffffffffff03821115613a8657613a85613dea565b5b828201905092915050565b6000808291508390505b6001851115613adb57808604811115613ab757613ab6613dea565b5b6001851615613ac65780820291505b8081029050613ad485613e88565b9450613a9b565b94509492505050565b6000613aef82613d04565b9150613afa83613d0e565b9250613b277fffffffffffffffffffffffffffffffffffffffffffffffffffffffffffffffff8484613b2f565b905092915050565b600082613b3f5760019050613bfb565b81613b4d5760009050613bfb565b8160018114613b635760028114613b6d57613b9c565b6001915050613bfb565b60ff841115613b7f57613b7e613dea565b5b8360020a915084821115613b9657613b95613dea565b5b50613bfb565b5060208310610133831016604e8410600b8410161715613bd15782820a905083811115613bcc57613bcb613dea565b5b613bfb565b613bde8484846001613a91565b92509050818404811115613bf557613bf4613dea565b5b81810290505b9392505050565b6000613c0d82613d04565b9150613c1883613d04565b9250817fffffffffffffffffffffffffffffffffffffffffffffffffffffffffffffffff0483118215151615613c5157613c50613dea565b5b828202905092915050565b6000613c6782613d04565b9150613c7283613d04565b925082821015613c8557613c84613dea565b5b828203905092915050565b6000613c9b82613ce4565b9050919050565b60008115159050919050565b6000819050919050565b60007fffffffff0000000000000000000000000000000000000000000000000000000082169050919050565b600073ffffffffffffffffffffffffffffffffffffffff82169050919050565b6000819050919050565b600060ff82169050919050565b82818337600083830152505050565b60005b83811015613d48578082015181840152602081019050613d2d565b83811115613d57576000848401525b50505050565b6000613d6882613d04565b91506000821415613d7c57613d7b613dea565b5b600182039050919050565b60006002820490506001821680613d9f57607f821691505b60208210811415613db357613db2613e19565b5b50919050565b613dc282613e77565b810181811067ffffffffffffffff82111715613de157613de0613e48565b5b80604052505050565b7f4e487b7100000000000000000000000000000000000000000000000000000000600052601160045260246000fd5b7f4e487b7100000000000000000000000000000000000000000000000000000000600052602260045260246000fd5b7f4e487b7100000000000000000000000000000000000000000000000000000000600052604160045260246000fd5b6000601f19601f8301169050919050565b60008160011c9050919050565b7f537472696e67733a20686578206c656e67746820696e73756666696369656e74600082015250565b7f436f696e42484f56323a20616c726561647920696e697469616c697a65640000600082015250565b7f42455032303a207472616e736665722066726f6d20746865207a65726f20616460008201527f6472657373000000000000000000000000000000000000000000000000000000602082015250565b7f42455032303a20617070726f76652066726f6d20746865207a65726f2061646460008201527f7265737300000000000000000000000000000000000000000000000000000000602082015250565b7f45524331393637557067726164653a207570677261646520627265616b73206660008201527f7572746865722075706772616465730000000000000000000000000000000000602082015250565b7f4f776e61626c653a206e6577206f776e657220697320746865207a65726f206160008201527f6464726573730000000000000000000000000000000000000000000000000000602082015250565b7f436f696e42484f56323a2053656e6465722077697468204d494e5445525f524f60008201527f4c45206973207265717569726564000000000000000000000000000000000000602082015250565b7f496e697469616c697a61626c653a20636f6e747261637420697320616c72656160008201527f647920696e697469616c697a6564000000000000000000000000000000000000602082015250565b7f455243313936373a206e657720696d706c656d656e746174696f6e206973206e60008201527f6f74206120636f6e747261637400000000000000000000000000000000000000602082015250565b7f42455032303a206d696e7420746f20746865207a65726f206164647265737300600082015250565b7f4f776e61626c653a2063616c6c6572206973206e6f7420746865206f776e6572600082015250565b7f42455032303a207472616e7366657220746f20746865207a65726f206164647260008201527f6573730000000000000000000000000000000000000000000000000000000000602082015250565b7f42455032303a206275726e2066726f6d20746865207a65726f2061646472657360008201527f7300000000000000000000000000000000000000000000000000000000000000602082015250565b7f416464726573733a2064656c65676174652063616c6c20746f206e6f6e2d636f60008201527f6e74726163740000000000000000000000000000000000000000000000000000602082015250565b7f416363657373436f6e74726f6c3a206163636f756e7420000000000000000000600082015250565b7f42455032303a20617070726f766520746f20746865207a65726f20616464726560008201527f7373000000000000000000000000000000000000000000000000000000000000602082015250565b7f206973206d697373696e6720726f6c6520000000000000000000000000000000600082015250565b7f416363657373436f6e74726f6c3a2063616e206f6e6c792072656e6f756e636560008201527f20726f6c657320666f722073656c660000000000000000000000000000000000602082015250565b61434881613c90565b811461435357600080fd5b50565b61435f81613cae565b811461436a57600080fd5b50565b61437681613cb8565b811461438157600080fd5b50565b61438d81613d04565b811461439857600080fd5b5056fe42455032303a207472616e7366657220616d6f756e74206578636565647320616c6c6f77616e6365416464726573733a206c6f772d6c6576656c2064656c65676174652063616c6c206661696c656442455032303a207472616e7366657220616d6f756e7420657863656564732062616c616e636542455032303a2064656372656173656420616c6c6f77616e63652062656c6f77207a65726f42455032303a206275726e20616d6f756e7420657863656564732062616c616e636542455032303a206275726e20616d6f756e74206578636565647320616c6c6f77616e6365a2646970667358221220441d17c0530f28f24dbc0c5a799b17e9dd59eb5b6d9497d3e474b08e3897d7aa64736f6c63430008040033",
  "devdoc": {
    "kind": "dev",
    "methods": {
      "allowance(address,address)": {
        "details": "See {BEP20-allowance}."
      },
      "approve(address,uint256)": {
        "details": "See {BEP20-approve}. Requirements: - `spender` cannot be the zero address."
      },
      "balanceOf(address)": {
        "details": "See {BEP20-balanceOf}."
      },
      "burn(uint256)": {
        "details": "Burn `amount` tokens Requirements - `msg.sender` must have a balance of at least `amount`"
      },
      "burnFrom(address,uint256)": {
        "details": "Burn `amount` tokens of `account` from allowed sender"
      },
      "decimals()": {
        "details": "Returns the token decimals."
      },
      "decreaseAllowance(address,uint256)": {
        "details": "Atomically decreases the allowance granted to `spender` by the caller. This is an alternative to {approve} that can be used as a mitigation for problems described in {BEP20-approve}. Emits an {Approval} event indicating the updated allowance. Requirements: - `spender` cannot be the zero address. - `spender` must have allowance for the caller of at least `subtractedValue`."
      },
      "getOwner()": {
        "details": "Returns the bep token owner."
      },
      "getRoleAdmin(bytes32)": {
        "details": "Returns the admin role that controls `role`. See {grantRole} and {revokeRole}. To change a role's admin, use {_setRoleAdmin}."
      },
      "grantRole(bytes32,address)": {
        "details": "Grants `role` to `account`. If `account` had not been already granted `role`, emits a {RoleGranted} event. Requirements: - the caller must have ``role``'s admin role."
      },
      "hasRole(bytes32,address)": {
        "details": "Returns `true` if `account` has been granted `role`."
      },
      "increaseAllowance(address,uint256)": {
        "details": "Atomically increases the allowance granted to `spender` by the caller. This is an alternative to {approve} that can be used as a mitigation for problems described in {BEP20-approve}. Emits an {Approval} event indicating the updated allowance. Requirements: - `spender` cannot be the zero address."
      },
      "mint(uint256)": {
        "details": "Creates `amount` tokens and assigns them to `msg.sender`, increasing the total supply. Requirements - `msg.sender` must be the token owner"
      },
      "name()": {
        "details": "Returns the token name."
      },
      "owner()": {
        "details": "Returns the address of the current owner."
      },
      "renounceOwnership()": {
        "details": "Leaves the contract without owner. It will not be possible to call `onlyOwner` functions anymore. Can only be called by the current owner. NOTE: Renouncing ownership will leave the contract without an owner, thereby removing any functionality that is only available to the owner."
      },
      "renounceRole(bytes32,address)": {
        "details": "Revokes `role` from the calling account. Roles are often managed via {grantRole} and {revokeRole}: this function's purpose is to provide a mechanism for accounts to lose their privileges if they are compromised (such as when a trusted device is misplaced). If the calling account had been granted `role`, emits a {RoleRevoked} event. Requirements: - the caller must be `account`."
      },
      "revokeRole(bytes32,address)": {
        "details": "Revokes `role` from `account`. If `account` had been granted `role`, emits a {RoleRevoked} event. Requirements: - the caller must have ``role``'s admin role."
      },
      "supportsInterface(bytes4)": {
        "details": "See {IERC165-supportsInterface}."
      },
      "symbol()": {
        "details": "Returns the token symbol."
      },
      "totalSupply()": {
        "details": "See {BEP20-totalSupply}."
      },
      "transfer(address,uint256)": {
        "details": "See {BEP20-transfer}. Requirements: - `recipient` cannot be the zero address. - the caller must have a balance of at least `amount`."
      },
      "transferFrom(address,address,uint256)": {
        "details": "See {BEP20-transferFrom}. Emits an {Approval} event indicating the updated allowance. This is not required by the EIP. See the note at the beginning of {BEP20}; Requirements: - `sender` and `recipient` cannot be the zero address. - `sender` must have a balance of at least `amount`. - the caller must have allowance for `sender`'s tokens of at least `amount`."
      },
      "transferOwnership(address)": {
        "details": "Transfers ownership of the contract to a new account (`newOwner`). Can only be called by the current owner."
      }
    },
    "version": 1
  },
  "userdoc": {
    "kind": "user",
    "methods": {},
    "version": 1
  },
  "storageLayout": {
    "storage": [
      {
        "astId": 976,
        "contract": "contracts/token/CoinBHOV2.sol:CoinBHOV2",
        "label": "_initialized",
        "offset": 0,
        "slot": "0",
        "type": "t_bool"
      },
      {
        "astId": 979,
        "contract": "contracts/token/CoinBHOV2.sol:CoinBHOV2",
        "label": "_initializing",
        "offset": 1,
        "slot": "0",
        "type": "t_bool"
      },
      {
        "astId": 1378,
        "contract": "contracts/token/CoinBHOV2.sol:CoinBHOV2",
        "label": "__gap",
        "offset": 0,
        "slot": "1",
        "type": "t_array(t_uint256)50_storage"
      },
      {
        "astId": 406,
        "contract": "contracts/token/CoinBHOV2.sol:CoinBHOV2",
        "label": "_owner",
        "offset": 0,
        "slot": "51",
        "type": "t_address"
      },
      {
        "astId": 525,
        "contract": "contracts/token/CoinBHOV2.sol:CoinBHOV2",
        "label": "__gap",
        "offset": 0,
        "slot": "52",
        "type": "t_array(t_uint256)49_storage"
      },
      {
        "astId": 959,
        "contract": "contracts/token/CoinBHOV2.sol:CoinBHOV2",
        "label": "__gap",
        "offset": 0,
        "slot": "101",
        "type": "t_array(t_uint256)50_storage"
      },
      {
        "astId": 1089,
        "contract": "contracts/token/CoinBHOV2.sol:CoinBHOV2",
        "label": "__gap",
        "offset": 0,
        "slot": "151",
        "type": "t_array(t_uint256)50_storage"
      },
      {
        "astId": 2132,
        "contract": "contracts/token/CoinBHOV2.sol:CoinBHOV2",
        "label": "_balances",
        "offset": 0,
        "slot": "201",
        "type": "t_mapping(t_address,t_uint256)"
      },
      {
        "astId": 2138,
        "contract": "contracts/token/CoinBHOV2.sol:CoinBHOV2",
        "label": "_allowances",
        "offset": 0,
        "slot": "202",
        "type": "t_mapping(t_address,t_mapping(t_address,t_uint256))"
      },
      {
        "astId": 2140,
        "contract": "contracts/token/CoinBHOV2.sol:CoinBHOV2",
        "label": "_totalSupply",
        "offset": 0,
        "slot": "203",
        "type": "t_uint256"
      },
      {
        "astId": 2142,
        "contract": "contracts/token/CoinBHOV2.sol:CoinBHOV2",
        "label": "_decimals",
        "offset": 0,
        "slot": "204",
        "type": "t_uint8"
      },
      {
        "astId": 2144,
        "contract": "contracts/token/CoinBHOV2.sol:CoinBHOV2",
        "label": "_symbol",
        "offset": 0,
        "slot": "205",
        "type": "t_string_storage"
      },
      {
        "astId": 2146,
        "contract": "contracts/token/CoinBHOV2.sol:CoinBHOV2",
        "label": "_name",
        "offset": 0,
        "slot": "206",
        "type": "t_string_storage"
      },
      {
        "astId": 1687,
        "contract": "contracts/token/CoinBHOV2.sol:CoinBHOV2",
        "label": "__gap",
        "offset": 0,
        "slot": "207",
        "type": "t_array(t_uint256)50_storage"
      },
      {
        "astId": 86,
        "contract": "contracts/token/CoinBHOV2.sol:CoinBHOV2",
        "label": "_roles",
        "offset": 0,
        "slot": "257",
        "type": "t_mapping(t_bytes32,t_struct(RoleData)81_storage)"
      },
      {
        "astId": 394,
        "contract": "contracts/token/CoinBHOV2.sol:CoinBHOV2",
        "label": "__gap",
        "offset": 0,
        "slot": "258",
        "type": "t_array(t_uint256)49_storage"
      },
      {
        "astId": 2728,
        "contract": "contracts/token/CoinBHOV2.sol:CoinBHOV2",
        "label": "_initialized_v2",
        "offset": 0,
        "slot": "307",
        "type": "t_bool"
      }
    ],
    "types": {
      "t_address": {
        "encoding": "inplace",
        "label": "address",
        "numberOfBytes": "20"
      },
      "t_array(t_uint256)49_storage": {
        "base": "t_uint256",
        "encoding": "inplace",
        "label": "uint256[49]",
        "numberOfBytes": "1568"
      },
      "t_array(t_uint256)50_storage": {
        "base": "t_uint256",
        "encoding": "inplace",
        "label": "uint256[50]",
        "numberOfBytes": "1600"
      },
      "t_bool": {
        "encoding": "inplace",
        "label": "bool",
        "numberOfBytes": "1"
      },
      "t_bytes32": {
        "encoding": "inplace",
        "label": "bytes32",
        "numberOfBytes": "32"
      },
      "t_mapping(t_address,t_bool)": {
        "encoding": "mapping",
        "key": "t_address",
        "label": "mapping(address => bool)",
        "numberOfBytes": "32",
        "value": "t_bool"
      },
      "t_mapping(t_address,t_mapping(t_address,t_uint256))": {
        "encoding": "mapping",
        "key": "t_address",
        "label": "mapping(address => mapping(address => uint256))",
        "numberOfBytes": "32",
        "value": "t_mapping(t_address,t_uint256)"
      },
      "t_mapping(t_address,t_uint256)": {
        "encoding": "mapping",
        "key": "t_address",
        "label": "mapping(address => uint256)",
        "numberOfBytes": "32",
        "value": "t_uint256"
      },
      "t_mapping(t_bytes32,t_struct(RoleData)81_storage)": {
        "encoding": "mapping",
        "key": "t_bytes32",
        "label": "mapping(bytes32 => struct AccessControlUpgradeable.RoleData)",
        "numberOfBytes": "32",
        "value": "t_struct(RoleData)81_storage"
      },
      "t_string_storage": {
        "encoding": "bytes",
        "label": "string",
        "numberOfBytes": "32"
      },
      "t_struct(RoleData)81_storage": {
        "encoding": "inplace",
        "label": "struct AccessControlUpgradeable.RoleData",
        "members": [
          {
            "astId": 78,
            "contract": "contracts/token/CoinBHOV2.sol:CoinBHOV2",
            "label": "members",
            "offset": 0,
            "slot": "0",
            "type": "t_mapping(t_address,t_bool)"
          },
          {
            "astId": 80,
            "contract": "contracts/token/CoinBHOV2.sol:CoinBHOV2",
            "label": "adminRole",
            "offset": 0,
            "slot": "1",
            "type": "t_bytes32"
          }
        ],
        "numberOfBytes": "64"
      },
      "t_uint256": {
        "encoding": "inplace",
        "label": "uint256",
        "numberOfBytes": "32"
      },
      "t_uint8": {
        "encoding": "inplace",
        "label": "uint8",
        "numberOfBytes": "1"
      }
    }
  }
}