{
  "address": "0x65a0736a5E323cB8C731973f464372bB66Ee57ec",
  "abi": [
    {
      "anonymous": false,
      "inputs": [
        {
          "indexed": true,
          "internalType": "address",
          "name": "admin",
          "type": "address"
        },
        {
          "indexed": true,
          "internalType": "address",
          "name": "who",
          "type": "address"
        },
        {
          "indexed": false,
          "internalType": "uint256",
          "name": "amount",
          "type": "uint256"
        },
        {
          "indexed": true,
          "internalType": "uint64",
          "name": "stakingId",
          "type": "uint64"
        }
      ],
      "name": "EmergencyWithdraw",
      "type": "event"
    },
    {
      "anonymous": false,
      "inputs": [
        {
          "indexed": true,
          "internalType": "address",
          "name": "who",
          "type": "address"
        },
        {
          "indexed": false,
          "internalType": "uint256",
          "name": "amount",
          "type": "uint256"
        },
        {
          "indexed": true,
          "internalType": "uint64",
          "name": "stakingId",
          "type": "uint64"
        }
      ],
      "name": "EnterStaking",
      "type": "event"
    },
    {
      "anonymous": false,
      "inputs": [
        {
          "indexed": true,
          "internalType": "address",
          "name": "who",
          "type": "address"
        },
        {
          "indexed": false,
          "internalType": "uint256",
          "name": "reward",
          "type": "uint256"
        },
        {
          "indexed": false,
          "internalType": "uint256",
          "name": "totalAmount",
          "type": "uint256"
        },
        {
          "indexed": true,
          "internalType": "uint64",
          "name": "stakingId",
          "type": "uint64"
        }
      ],
      "name": "LeaveStaking",
      "type": "event"
    },
    {
      "anonymous": false,
      "inputs": [
        {
          "indexed": true,
          "internalType": "address",
          "name": "who",
          "type": "address"
        },
        {
          "indexed": true,
          "internalType": "uint64",
          "name": "programId",
          "type": "uint64"
        }
      ],
      "name": "RegisterProgram",
      "type": "event"
    },
    {
      "anonymous": false,
      "inputs": [
        {
          "indexed": true,
          "internalType": "bytes32",
          "name": "role",
          "type": "bytes32"
        },
        {
          "indexed": true,
          "internalType": "bytes32",
          "name": "previousAdminRole",
          "type": "bytes32"
        },
        {
          "indexed": true,
          "internalType": "bytes32",
          "name": "newAdminRole",
          "type": "bytes32"
        }
      ],
      "name": "RoleAdminChanged",
      "type": "event"
    },
    {
      "anonymous": false,
      "inputs": [
        {
          "indexed": true,
          "internalType": "bytes32",
          "name": "role",
          "type": "bytes32"
        },
        {
          "indexed": true,
          "internalType": "address",
          "name": "account",
          "type": "address"
        },
        {
          "indexed": true,
          "internalType": "address",
          "name": "sender",
          "type": "address"
        }
      ],
      "name": "RoleGranted",
      "type": "event"
    },
    {
      "anonymous": false,
      "inputs": [
        {
          "indexed": true,
          "internalType": "bytes32",
          "name": "role",
          "type": "bytes32"
        },
        {
          "indexed": true,
          "internalType": "address",
          "name": "account",
          "type": "address"
        },
        {
          "indexed": true,
          "internalType": "address",
          "name": "sender",
          "type": "address"
        }
      ],
      "name": "RoleRevoked",
      "type": "event"
    },
    {
      "inputs": [],
      "name": "APY_PROGRAM_1",
      "outputs": [
        {
          "internalType": "uint256",
          "name": "",
          "type": "uint256"
        }
      ],
      "stateMutability": "view",
      "type": "function"
    },
    {
      "inputs": [],
      "name": "APY_PROGRAM_2",
      "outputs": [
        {
          "internalType": "uint256",
          "name": "",
          "type": "uint256"
        }
      ],
      "stateMutability": "view",
      "type": "function"
    },
    {
      "inputs": [],
      "name": "DECEMBER_INTEREST_DATE",
      "outputs": [
        {
          "internalType": "uint256",
          "name": "",
          "type": "uint256"
        }
      ],
      "stateMutability": "view",
      "type": "function"
    },
    {
      "inputs": [],
      "name": "DEFAULT_ADMIN_ROLE",
      "outputs": [
        {
          "internalType": "bytes32",
          "name": "",
          "type": "bytes32"
        }
      ],
      "stateMutability": "view",
      "type": "function"
    },
    {
      "inputs": [],
      "name": "EMERGENCY_ROLE",
      "outputs": [
        {
          "internalType": "bytes32",
          "name": "",
          "type": "bytes32"
        }
      ],
      "stateMutability": "view",
      "type": "function"
    },
    {
      "inputs": [],
      "name": "NOVEMBER_INTEREST_DATE",
      "outputs": [
        {
          "internalType": "uint256",
          "name": "",
          "type": "uint256"
        }
      ],
      "stateMutability": "view",
      "type": "function"
    },
    {
      "inputs": [],
      "name": "OCTOBER_INTEREST_DATE",
      "outputs": [
        {
          "internalType": "uint256",
          "name": "",
          "type": "uint256"
        }
      ],
      "stateMutability": "view",
      "type": "function"
    },
    {
      "inputs": [],
      "name": "PROGRAM_AUTHOR_ROLE",
      "outputs": [
        {
          "internalType": "bytes32",
          "name": "",
          "type": "bytes32"
        }
      ],
      "stateMutability": "view",
      "type": "function"
    },
    {
      "inputs": [],
      "name": "REMAINDER_COLLECT_ROLE",
      "outputs": [
        {
          "internalType": "bytes32",
          "name": "",
          "type": "bytes32"
        }
      ],
      "stateMutability": "view",
      "type": "function"
    },
    {
      "inputs": [],
      "name": "SEPTEMBER_INTEREST_DATE",
      "outputs": [
        {
          "internalType": "uint256",
          "name": "",
          "type": "uint256"
        }
      ],
      "stateMutability": "view",
      "type": "function"
    },
    {
      "inputs": [
        {
          "internalType": "address",
          "name": "staker",
          "type": "address"
        },
        {
          "internalType": "uint64",
          "name": "stakingId",
          "type": "uint64"
        }
      ],
      "name": "emergencyWithdraw",
      "outputs": [
        {
          "internalType": "bool",
          "name": "",
          "type": "bool"
        }
      ],
      "stateMutability": "nonpayable",
      "type": "function"
    },
    {
      "inputs": [
        {
          "internalType": "uint32",
          "name": "programId",
          "type": "uint32"
        },
        {
          "internalType": "uint256",
          "name": "amount",
          "type": "uint256"
        }
      ],
      "name": "enterStaking",
      "outputs": [
        {
          "internalType": "bool",
          "name": "",
          "type": "bool"
        }
      ],
      "stateMutability": "nonpayable",
      "type": "function"
    },
    {
      "inputs": [
        {
          "internalType": "bytes32",
          "name": "role",
          "type": "bytes32"
        }
      ],
      "name": "getRoleAdmin",
      "outputs": [
        {
          "internalType": "bytes32",
          "name": "",
          "type": "bytes32"
        }
      ],
      "stateMutability": "view",
      "type": "function"
    },
    {
      "inputs": [
        {
          "internalType": "bytes32",
          "name": "role",
          "type": "bytes32"
        },
        {
          "internalType": "address",
          "name": "account",
          "type": "address"
        }
      ],
      "name": "grantRole",
      "outputs": [],
      "stateMutability": "nonpayable",
      "type": "function"
    },
    {
      "inputs": [
        {
          "internalType": "bytes32",
          "name": "role",
          "type": "bytes32"
        },
        {
          "internalType": "address",
          "name": "account",
          "type": "address"
        }
      ],
      "name": "hasRole",
      "outputs": [
        {
          "internalType": "bool",
          "name": "",
          "type": "bool"
        }
      ],
      "stateMutability": "view",
      "type": "function"
    },
    {
      "inputs": [
        {
          "internalType": "address",
          "name": "admin",
          "type": "address"
        },
        {
          "internalType": "address",
          "name": "token",
          "type": "address"
        },
        {
          "internalType": "address",
          "name": "feeCollector",
          "type": "address"
        }
      ],
      "name": "initialize",
      "outputs": [
        {
          "internalType": "bool",
          "name": "",
          "type": "bool"
        }
      ],
      "stateMutability": "nonpayable",
      "type": "function"
    },
    {
      "inputs": [
        {
          "internalType": "uint32",
          "name": "stakingId",
          "type": "uint32"
        }
      ],
      "name": "leaveStaking",
      "outputs": [
        {
          "internalType": "bool",
          "name": "",
          "type": "bool"
        }
      ],
      "stateMutability": "nonpayable",
      "type": "function"
    },
    {
      "inputs": [],
      "name": "nextProgramId",
      "outputs": [
        {
          "internalType": "uint64",
          "name": "",
          "type": "uint64"
        }
      ],
      "stateMutability": "view",
      "type": "function"
    },
    {
      "inputs": [
        {
          "internalType": "address",
          "name": "staker",
          "type": "address"
        }
      ],
      "name": "nextStakingId",
      "outputs": [
        {
          "internalType": "uint64",
          "name": "",
          "type": "uint64"
        }
      ],
      "stateMutability": "view",
      "type": "function"
    },
    {
      "inputs": [
        {
          "internalType": "uint64",
          "name": "programId",
          "type": "uint64"
        }
      ],
      "name": "programInfo",
      "outputs": [
        {
          "components": [
            {
              "internalType": "uint256[]",
              "name": "interestDates",
              "type": "uint256[]"
            },
            {
              "internalType": "uint256",
              "name": "apy",
              "type": "uint256"
            },
            {
              "internalType": "bool",
              "name": "isExist",
              "type": "bool"
            }
          ],
          "internalType": "struct StakingBHOPoolTest.ProgramInfo",
          "name": "",
          "type": "tuple"
        }
      ],
      "stateMutability": "view",
      "type": "function"
    },
    {
      "inputs": [
        {
          "internalType": "uint256",
          "name": "apy",
          "type": "uint256"
        },
        {
          "internalType": "uint256[]",
          "name": "interestDates",
          "type": "uint256[]"
        }
      ],
      "name": "registerProgram",
      "outputs": [
        {
          "internalType": "bool",
          "name": "",
          "type": "bool"
        }
      ],
      "stateMutability": "nonpayable",
      "type": "function"
    },
    {
      "inputs": [
        {
          "internalType": "bytes32",
          "name": "role",
          "type": "bytes32"
        },
        {
          "internalType": "address",
          "name": "account",
          "type": "address"
        }
      ],
      "name": "renounceRole",
      "outputs": [],
      "stateMutability": "nonpayable",
      "type": "function"
    },
    {
      "inputs": [
        {
          "internalType": "bytes32",
          "name": "role",
          "type": "bytes32"
        },
        {
          "internalType": "address",
          "name": "account",
          "type": "address"
        }
      ],
      "name": "revokeRole",
      "outputs": [],
      "stateMutability": "nonpayable",
      "type": "function"
    },
    {
      "inputs": [
        {
          "internalType": "address",
          "name": "staker",
          "type": "address"
        },
        {
          "internalType": "uint64",
          "name": "stakingId",
          "type": "uint64"
        }
      ],
      "name": "stakingInfo",
      "outputs": [
        {
          "components": [
            {
              "internalType": "uint256",
              "name": "amount",
              "type": "uint256"
            },
            {
              "internalType": "uint256",
              "name": "startDate",
              "type": "uint256"
            },
            {
              "internalType": "uint32",
              "name": "programId",
              "type": "uint32"
            },
            {
              "internalType": "bool",
              "name": "isWithdrawn",
              "type": "bool"
            },
            {
              "internalType": "bool",
              "name": "isExist",
              "type": "bool"
            }
          ],
          "internalType": "struct StakingBHOPoolTest.StakingInfo",
          "name": "",
          "type": "tuple"
        }
      ],
      "stateMutability": "view",
      "type": "function"
    },
    {
      "inputs": [
        {
          "internalType": "bytes4",
          "name": "interfaceId",
          "type": "bytes4"
        }
      ],
      "name": "supportsInterface",
      "outputs": [
        {
          "internalType": "bool",
          "name": "",
          "type": "bool"
        }
      ],
      "stateMutability": "view",
      "type": "function"
    },
    {
      "inputs": [],
      "name": "withdrawRemainingTokens",
      "outputs": [
        {
          "internalType": "bool",
          "name": "",
          "type": "bool"
        }
      ],
      "stateMutability": "nonpayable",
      "type": "function"
    }
  ],
  "transactionHash": "0xa3d74a644b75bb23802e34bedd36b3e136097e202dd3ebd752d11988580dee3e",
  "args": [],
  "solcInputHash": "e91b4b40dbacabc64903e3b11684360b",
  "bytecode": "0x608060405234801561001057600080fd5b50613d6d806100206000396000f3fe608060405234801561001057600080fd5b506004361061018e5760003560e01c8063717f24c6116100de578063a217fddf11610097578063c414dc7111610071578063c414dc71146104c5578063ce7cb3cf146104f5578063d547741f14610525578063fc7be740146105415761018e565b8063a217fddf14610459578063ba71b33014610477578063c0c53b8b146104955761018e565b8063717f24c6146103815780637be83350146103b157806385b3bb70146103cf5780638afbf669146103ed57806391d148541461040b5780639bb318001461043b5761018e565b80632f2ff15d1161014b578063329f798911610125578063329f7989146102e757806336568abe146103175780634944d8361461033357806368dd20d1146103635761018e565b80632f2ff15d1461028f578063313134f5146102ab57806331d925e5146102c95761018e565b806301ffc9a7146101935780630d6a3634146101c357806320df4359146101e1578063248a9ca3146101ff57806329de65331461022f5780632dd99f061461025f575b600080fd5b6101ad60048036038101906101a89190612c37565b61055f565b6040516101ba9190613260565b60405180910390f35b6101cb6105d9565b6040516101d891906134b5565b60405180910390f35b6101e96105df565b6040516101f6919061327b565b60405180910390f35b61021960048036038101906102149190612bd2565b610603565b604051610226919061327b565b60405180910390f35b61024960048036038101906102449190612cdd565b610623565b6040516102569190613260565b60405180910390f35b61027960048036038101906102749190612b6d565b610b0c565b604051610286919061349a565b60405180910390f35b6102a960048036038101906102a49190612bfb565b610bfb565b005b6102b3610c24565b6040516102c091906134b5565b60405180910390f35b6102d1610c2c565b6040516102de919061327b565b60405180910390f35b61030160048036038101906102fc9190612d06565b610c50565b60405161030e9190613260565b60405180910390f35b610331600480360381019061032c9190612bfb565b61110c565b005b61034d60048036038101906103489190612c89565b61118f565b60405161035a9190613260565b60405180910390f35b61036b61139c565b60405161037891906134b5565b60405180910390f35b61039b60048036038101906103969190612b6d565b6113a2565b6040516103a89190613260565b60405180910390f35b6103b9611676565b6040516103c691906134b5565b60405180910390f35b6103d761167e565b6040516103e491906134b5565b60405180910390f35b6103f5611686565b6040516104029190613260565b60405180910390f35b61042560048036038101906104209190612bfb565b611860565b6040516104329190613260565b60405180910390f35b6104436118cb565b60405161045091906134b5565b60405180910390f35b6104616118d3565b60405161046e919061327b565b60405180910390f35b61047f6118da565b60405161048c91906134f9565b60405180910390f35b6104af60048036038101906104aa9190612b1e565b6118f8565b6040516104bc9190613260565b60405180910390f35b6104df60048036038101906104da9190612af5565b611e92565b6040516104ec91906134f9565b60405180910390f35b61050f600480360381019061050a9190612d42565b611eef565b60405161051c9190613478565b60405180910390f35b61053f600480360381019061053a9190612bfb565b611fad565b005b610549611fd6565b604051610556919061327b565b60405180910390f35b60007f7965db0b000000000000000000000000000000000000000000000000000000007bffffffffffffffffffffffffffffffffffffffffffffffffffffffff1916827bffffffffffffffffffffffffffffffffffffffffffffffffffffffff191614806105d257506105d182611ffa565b5b9050919050565b61138881565b7fbf233dd2aafeb4d50879c4aa5c81e96d92f6e6945c906a58f9f2d1c1631b4b2681565b600060656000838152602001908152602001600020600101549050919050565b60008060986000610632612064565b73ffffffffffffffffffffffffffffffffffffffff1673ffffffffffffffffffffffffffffffffffffffff16815260200190815260200160002060008463ffffffff1667ffffffffffffffff16815260200190815260200160002090508060020160059054906101000a900460ff166106e0576040517f08c379a00000000000000000000000000000000000000000000000000000000081526004016106d7906133f8565b60405180910390fd5b8060020160049054906101000a900460ff1615610732576040517f08c379a000000000000000000000000000000000000000000000000000000000815260040161072990613358565b60405180910390fd5b6000806000609960008560020160009054906101000a900463ffffffff1663ffffffff1667ffffffffffffffff168152602001908152602001600020604051806060016040529081600082018054806020026020016040519081016040528092919081815260200182805480156107c857602002820191906000526020600020905b8154815260200190600101908083116107b4575b50505050508152602001600182015481526020016002820160009054906101000a900460ff161515151581525050905060005b8160000151518110156108b55781600001518181518110610845577f4e487b7100000000000000000000000000000000000000000000000000000000600052603260045260246000fd5b6020026020010151856001015410156108a45781600001518181518110610895577f4e487b7100000000000000000000000000000000000000000000000000000000600052603260045260246000fd5b602002602001015192506108b5565b806108ae9061380a565b90506107fb565b506108cf846000015485600101548442856020015161206c565b9250609b60009054906101000a900473ffffffffffffffffffffffffffffffffffffffff1673ffffffffffffffffffffffffffffffffffffffff1663a9059cbb609a60089054906101000a900473ffffffffffffffffffffffffffffffffffffffff16600a8661093f919061361b565b6040518363ffffffff1660e01b815260040161095c929190613237565b602060405180830381600087803b15801561097657600080fd5b505af115801561098a573d6000803e3d6000fd5b505050506040513d601f19601f820116820180604052508101906109ae9190612ba9565b50609b60009054906101000a900473ffffffffffffffffffffffffffffffffffffffff1673ffffffffffffffffffffffffffffffffffffffff1663a9059cbb6109f5612064565b858760000154610a0591906135c5565b6040518363ffffffff1660e01b8152600401610a22929190613237565b602060405180830381600087803b158015610a3c57600080fd5b505af1158015610a50573d6000803e3d6000fd5b505050506040513d601f19601f82011682018060405250810190610a749190612ba9565b5060018460020160046101000a81548160ff0219169083151502179055508563ffffffff16610aa1612064565b73ffffffffffffffffffffffffffffffffffffffff167fb2c178054742cda76a927f7bb8569dc58843851423dc2cf2c6f96b8696f59ccc85868860000154610ae991906135c5565b604051610af79291906134d0565b60405180910390a36001945050505050919050565b610b146128f1565b609860008473ffffffffffffffffffffffffffffffffffffffff1673ffffffffffffffffffffffffffffffffffffffff16815260200190815260200160002060008367ffffffffffffffff1667ffffffffffffffff1681526020019081526020016000206040518060a001604052908160008201548152602001600182015481526020016002820160009054906101000a900463ffffffff1663ffffffff1663ffffffff1681526020016002820160049054906101000a900460ff161515151581526020016002820160059054906101000a900460ff161515151581525050905092915050565b610c0482610603565b610c1581610c10612064565b6121d7565b610c1f8383612274565b505050565b63617f2e0081565b7fdc484f3f9843e4bdd5b3c0124f7e4faa7a7a7c643906a9d119793b07afadbabc81565b600080609960008563ffffffff1667ffffffffffffffff16815260200190815260200160002060405180606001604052908160008201805480602002602001604051908101604052809291908181526020018280548015610cd057602002820191906000526020600020905b815481526020019060010190808311610cbc575b50505050508152602001600182015481526020016002820160009054906101000a900460ff16151515158152505090508060400151610d44576040517f08c379a0000000000000000000000000000000000000000000000000000000008152600401610d3b90613458565b60405180910390fd5b80600001516001826000015151610d5b91906136a6565b81518110610d92577f4e487b7100000000000000000000000000000000000000000000000000000000600052603260045260246000fd5b60200260200101514210610ddb576040517f08c379a0000000000000000000000000000000000000000000000000000000008152600401610dd290613338565b60405180910390fd5b609b60009054906101000a900473ffffffffffffffffffffffffffffffffffffffff1673ffffffffffffffffffffffffffffffffffffffff166323b872dd610e21612064565b30866040518463ffffffff1660e01b8152600401610e4193929190613200565b602060405180830381600087803b158015610e5b57600080fd5b505af1158015610e6f573d6000803e3d6000fd5b505050506040513d601f19601f82011682018060405250810190610e939190612ba9565b50600060976000610ea2612064565b73ffffffffffffffffffffffffffffffffffffffff1673ffffffffffffffffffffffffffffffffffffffff16815260200190815260200160002060009054906101000a900467ffffffffffffffff1690506040518060a001604052808581526020014281526020018663ffffffff1681526020016000151581526020016001151581525060986000610f32612064565b73ffffffffffffffffffffffffffffffffffffffff1673ffffffffffffffffffffffffffffffffffffffff16815260200190815260200160002060008367ffffffffffffffff1667ffffffffffffffff168152602001908152602001600020600082015181600001556020820151816001015560408201518160020160006101000a81548163ffffffff021916908363ffffffff16021790555060608201518160020160046101000a81548160ff02191690831515021790555060808201518160020160056101000a81548160ff0219169083151502179055509050506097600061101b612064565b73ffffffffffffffffffffffffffffffffffffffff1673ffffffffffffffffffffffffffffffffffffffff168152602001908152602001600020600081819054906101000a900467ffffffffffffffff168092919061107990613853565b91906101000a81548167ffffffffffffffff021916908367ffffffffffffffff160217905550508067ffffffffffffffff166110b3612064565b73ffffffffffffffffffffffffffffffffffffffff167f05f25f069643b90644393551a3680aeafacaad4bb1288736d4160fb658911993866040516110f891906134b5565b60405180910390a360019250505092915050565b611114612064565b73ffffffffffffffffffffffffffffffffffffffff168173ffffffffffffffffffffffffffffffffffffffff1614611181576040517f08c379a000000000000000000000000000000000000000000000000000000000815260040161117890613438565b60405180910390fd5b61118b8282612355565b5050565b60006111c27fdc484f3f9843e4bdd5b3c0124f7e4faa7a7a7c643906a9d119793b07afadbabc6111bd612064565b611860565b611201576040517f08c379a00000000000000000000000000000000000000000000000000000000081526004016111f890613398565b60405180910390fd5b6000825111611245576040517f08c379a000000000000000000000000000000000000000000000000000000000815260040161123c90613418565b60405180910390fd5b6000609a60009054906101000a900467ffffffffffffffff169050604051806060016040528084815260200185815260200160011515815250609960008367ffffffffffffffff1667ffffffffffffffff16815260200190815260200160002060008201518160000190805190602001906112c192919061292a565b506020820151816001015560408201518160020160006101000a81548160ff021916908315150217905550905050609a600081819054906101000a900467ffffffffffffffff168092919061131590613853565b91906101000a81548167ffffffffffffffff021916908367ffffffffffffffff160217905550508067ffffffffffffffff1661134f612064565b73ffffffffffffffffffffffffffffffffffffffff167fa68210e0f22afdeeddcb6bceece4ccdaea118e8af32ed63f3072d79da309c16360405160405180910390a3600191505092915050565b610bb881565b60006113d57fbf233dd2aafeb4d50879c4aa5c81e96d92f6e6945c906a58f9f2d1c1631b4b266113d0612064565b611860565b611414576040517f08c379a000000000000000000000000000000000000000000000000000000000815260040161140b906133d8565b60405180910390fd5b6000609860008573ffffffffffffffffffffffffffffffffffffffff1673ffffffffffffffffffffffffffffffffffffffff16815260200190815260200160002060008467ffffffffffffffff1667ffffffffffffffff16815260200190815260200160002090508060020160059054906101000a900460ff166114cd576040517f08c379a00000000000000000000000000000000000000000000000000000000081526004016114c4906133f8565b60405180910390fd5b8060020160049054906101000a900460ff161561151f576040517f08c379a000000000000000000000000000000000000000000000000000000000815260040161151690613358565b60405180910390fd5b609b60009054906101000a900473ffffffffffffffffffffffffffffffffffffffff1673ffffffffffffffffffffffffffffffffffffffff1663a9059cbb8583600001546040518363ffffffff1660e01b8152600401611580929190613237565b602060405180830381600087803b15801561159a57600080fd5b505af11580156115ae573d6000803e3d6000fd5b505050506040513d601f19601f820116820180604052508101906115d29190612ba9565b5060018160020160046101000a81548160ff0219169083151502179055508267ffffffffffffffff168473ffffffffffffffffffffffffffffffffffffffff1661161a612064565b73ffffffffffffffffffffffffffffffffffffffff167f735f115f9f8b052af379e3379b54c6244b521a3b664a1bda8ac5cd18d4da5fd5846000015460405161166391906134b5565b60405180910390a4600191505092915050565b6361cf998081565b6361564f8081565b60006116b97f7bb251fcb069bccde7e1a4d41266677c9dc51f3b2665dbaa6f8dca5a22fc446c6116b4612064565b611860565b6116f8576040517f08c379a00000000000000000000000000000000000000000000000000000000081526004016116ef906132d8565b60405180910390fd5b609b60009054906101000a900473ffffffffffffffffffffffffffffffffffffffff1673ffffffffffffffffffffffffffffffffffffffff1663a9059cbb61173e612064565b609b60009054906101000a900473ffffffffffffffffffffffffffffffffffffffff1673ffffffffffffffffffffffffffffffffffffffff166370a08231306040518263ffffffff1660e01b815260040161179991906131e5565b60206040518083038186803b1580156117b157600080fd5b505afa1580156117c5573d6000803e3d6000fd5b505050506040513d601f19601f820116820180604052508101906117e99190612c60565b6040518363ffffffff1660e01b8152600401611806929190613237565b602060405180830381600087803b15801561182057600080fd5b505af1158015611834573d6000803e3d6000fd5b505050506040513d601f19601f820116820180604052508101906118589190612ba9565b506001905090565b60006065600084815260200190815260200160002060000160008373ffffffffffffffffffffffffffffffffffffffff1673ffffffffffffffffffffffffffffffffffffffff16815260200190815260200160002060009054906101000a900460ff16905092915050565b6361a6bb0081565b6000801b81565b6000609a60009054906101000a900467ffffffffffffffff16905090565b60008060019054906101000a900460ff168061191f575060008054906101000a900460ff16155b61195e576040517f08c379a000000000000000000000000000000000000000000000000000000000815260040161195590613378565b60405180910390fd5b60008060019054906101000a900460ff1615905080156119ae576001600060016101000a81548160ff02191690831515021790555060016000806101000a81548160ff0219169083151502179055505b6119b6612437565b6119be612510565b6119cb6000801b866125e9565b6119f57fbf233dd2aafeb4d50879c4aa5c81e96d92f6e6945c906a58f9f2d1c1631b4b26866125e9565b611a1f7fdc484f3f9843e4bdd5b3c0124f7e4faa7a7a7c643906a9d119793b07afadbabc866125e9565b611a497f7bb251fcb069bccde7e1a4d41266677c9dc51f3b2665dbaa6f8dca5a22fc446c866125e9565b82609a60086101000a81548173ffffffffffffffffffffffffffffffffffffffff021916908373ffffffffffffffffffffffffffffffffffffffff16021790555083609b60006101000a81548173ffffffffffffffffffffffffffffffffffffffff021916908373ffffffffffffffffffffffffffffffffffffffff1602179055506000600167ffffffffffffffff811115611b0e577f4e487b7100000000000000000000000000000000000000000000000000000000600052604160045260246000fd5b604051908082528060200260200182016040528015611b3c5781602001602082028036833780820191505090505b5090506361cf998081600081518110611b7e577f4e487b7100000000000000000000000000000000000000000000000000000000600052603260045260246000fd5b6020026020010181815250506040518060600160405280828152602001611388815260200160011515815250609960008067ffffffffffffffff1681526020019081526020016000206000820151816000019080519060200190611be392919061292a565b506020820151816001015560408201518160020160006101000a81548160ff0219169083151502179055509050506000600467ffffffffffffffff811115611c54577f4e487b7100000000000000000000000000000000000000000000000000000000600052604160045260246000fd5b604051908082528060200260200182016040528015611c825781602001602082028036833780820191505090505b5090506361564f8081600081518110611cc4577f4e487b7100000000000000000000000000000000000000000000000000000000600052603260045260246000fd5b60200260200101818152505063617f2e0081600181518110611d0f577f4e487b7100000000000000000000000000000000000000000000000000000000600052603260045260246000fd5b6020026020010181815250506361a6bb0081600281518110611d5a577f4e487b7100000000000000000000000000000000000000000000000000000000600052603260045260246000fd5b6020026020010181815250506361cf998081600381518110611da5577f4e487b7100000000000000000000000000000000000000000000000000000000600052603260045260246000fd5b6020026020010181815250506040518060600160405280828152602001610bb881526020016001151581525060996000600167ffffffffffffffff1681526020019081526020016000206000820151816000019080519060200190611e0b92919061292a565b506020820151816001015560408201518160020160006101000a81548160ff0219169083151502179055509050506002609a60006101000a81548167ffffffffffffffff021916908367ffffffffffffffff1602179055506001935050508015611e8a5760008060016101000a81548160ff0219169083151502179055505b509392505050565b6000609760008373ffffffffffffffffffffffffffffffffffffffff1673ffffffffffffffffffffffffffffffffffffffff16815260200190815260200160002060009054906101000a900467ffffffffffffffff169050919050565b611ef7612977565b609960008367ffffffffffffffff1667ffffffffffffffff16815260200190815260200160002060405180606001604052908160008201805480602002602001604051908101604052809291908181526020018280548015611f7857602002820191906000526020600020905b815481526020019060010190808311611f64575b50505050508152602001600182015481526020016002820160009054906101000a900460ff1615151515815250509050919050565b611fb682610603565b611fc781611fc2612064565b6121d7565b611fd18383612355565b505050565b7f7bb251fcb069bccde7e1a4d41266677c9dc51f3b2665dbaa6f8dca5a22fc446c81565b60007f01ffc9a7000000000000000000000000000000000000000000000000000000007bffffffffffffffffffffffffffffffffffffffffffffffffffffffff1916827bffffffffffffffffffffffffffffffffffffffffffffffffffffffff1916149050919050565b600033905090565b60008385106120b0576040517f08c379a00000000000000000000000000000000000000000000000000000000081526004016120a7906132f8565b60405180910390fd5b838310156120f3576040517f08c379a00000000000000000000000000000000000000000000000000000000081526004016120ea906133b8565b60405180910390fd5b600080603c878761210491906136a6565b61210e919061361b565b905060018110156121a1576001603c888761212991906136a6565b612133919061361b565b1015612174576040517f08c379a000000000000000000000000000000000000000000000000000000000815260040161216b90613318565b60405180910390fd5b6237b1d06001858a612186919061364c565b612190919061364c565b61219a919061361b565b91506121c9565b6237b1d081858a6121b2919061364c565b6121bc919061364c565b6121c6919061361b565b91505b819250505095945050505050565b6121e18282611860565b612270576122068173ffffffffffffffffffffffffffffffffffffffff1660146125f7565b6122148360001c60206125f7565b6040516020016122259291906131ab565b6040516020818303038152906040526040517f08c379a00000000000000000000000000000000000000000000000000000000081526004016122679190613296565b60405180910390fd5b5050565b61227e8282611860565b6123515760016065600084815260200190815260200160002060000160008373ffffffffffffffffffffffffffffffffffffffff1673ffffffffffffffffffffffffffffffffffffffff16815260200190815260200160002060006101000a81548160ff0219169083151502179055506122f6612064565b73ffffffffffffffffffffffffffffffffffffffff168173ffffffffffffffffffffffffffffffffffffffff16837f2f8788117e7eff1d82e926ec794901d17c78024a50270940304540a733656f0d60405160405180910390a45b5050565b61235f8282611860565b156124335760006065600084815260200190815260200160002060000160008373ffffffffffffffffffffffffffffffffffffffff1673ffffffffffffffffffffffffffffffffffffffff16815260200190815260200160002060006101000a81548160ff0219169083151502179055506123d8612064565b73ffffffffffffffffffffffffffffffffffffffff168173ffffffffffffffffffffffffffffffffffffffff16837ff6391f5c32d9c69d2a47ea670b442974b53935d1edc7fd64eb21e047a839171b60405160405180910390a45b5050565b600060019054906101000a900460ff168061245d575060008054906101000a900460ff16155b61249c576040517f08c379a000000000000000000000000000000000000000000000000000000000815260040161249390613378565b60405180910390fd5b60008060019054906101000a900460ff1615905080156124ec576001600060016101000a81548160ff02191690831515021790555060016000806101000a81548160ff0219169083151502179055505b801561250d5760008060016101000a81548160ff0219169083151502179055505b50565b600060019054906101000a900460ff1680612536575060008054906101000a900460ff16155b612575576040517f08c379a000000000000000000000000000000000000000000000000000000000815260040161256c90613378565b60405180910390fd5b60008060019054906101000a900460ff1615905080156125c5576001600060016101000a81548160ff02191690831515021790555060016000806101000a81548160ff0219169083151502179055505b80156125e65760008060016101000a81548160ff0219169083151502179055505b50565b6125f38282612274565b5050565b60606000600283600261260a919061364c565b61261491906135c5565b67ffffffffffffffff811115612653577f4e487b7100000000000000000000000000000000000000000000000000000000600052604160045260246000fd5b6040519080825280601f01601f1916602001820160405280156126855781602001600182028036833780820191505090505b5090507f3000000000000000000000000000000000000000000000000000000000000000816000815181106126e3577f4e487b7100000000000000000000000000000000000000000000000000000000600052603260045260246000fd5b60200101907effffffffffffffffffffffffffffffffffffffffffffffffffffffffffffff1916908160001a9053507f78000000000000000000000000000000000000000000000000000000000000008160018151811061276d577f4e487b7100000000000000000000000000000000000000000000000000000000600052603260045260246000fd5b60200101907effffffffffffffffffffffffffffffffffffffffffffffffffffffffffffff1916908160001a905350600060018460026127ad919061364c565b6127b791906135c5565b90505b60018111156128a3577f3031323334353637383961626364656600000000000000000000000000000000600f86166010811061281f577f4e487b7100000000000000000000000000000000000000000000000000000000600052603260045260246000fd5b1a60f81b82828151811061285c577f4e487b7100000000000000000000000000000000000000000000000000000000600052603260045260246000fd5b60200101907effffffffffffffffffffffffffffffffffffffffffffffffffffffffffffff1916908160001a905350600485901c94508061289c906137af565b90506127ba565b50600084146128e7576040517f08c379a00000000000000000000000000000000000000000000000000000000081526004016128de906132b8565b60405180910390fd5b8091505092915050565b6040518060a001604052806000815260200160008152602001600063ffffffff1681526020016000151581526020016000151581525090565b828054828255906000526020600020908101928215612966579160200282015b8281111561296557825182559160200191906001019061294a565b5b509050612973919061299a565b5090565b604051806060016040528060608152602001600081526020016000151581525090565b5b808211156129b357600081600090555060010161299b565b5090565b60006129ca6129c584613539565b613514565b905080838252602082019050828560208602820111156129e957600080fd5b60005b85811015612a1957816129ff8882612aa1565b8452602084019350602083019250506001810190506129ec565b5050509392505050565b600081359050612a3281613c96565b92915050565b600082601f830112612a4957600080fd5b8135612a598482602086016129b7565b91505092915050565b600081519050612a7181613cad565b92915050565b600081359050612a8681613cc4565b92915050565b600081359050612a9b81613cdb565b92915050565b600081359050612ab081613cf2565b92915050565b600081519050612ac581613cf2565b92915050565b600081359050612ada81613d09565b92915050565b600081359050612aef81613d20565b92915050565b600060208284031215612b0757600080fd5b6000612b1584828501612a23565b91505092915050565b600080600060608486031215612b3357600080fd5b6000612b4186828701612a23565b9350506020612b5286828701612a23565b9250506040612b6386828701612a23565b9150509250925092565b60008060408385031215612b8057600080fd5b6000612b8e85828601612a23565b9250506020612b9f85828601612ae0565b9150509250929050565b600060208284031215612bbb57600080fd5b6000612bc984828501612a62565b91505092915050565b600060208284031215612be457600080fd5b6000612bf284828501612a77565b91505092915050565b60008060408385031215612c0e57600080fd5b6000612c1c85828601612a77565b9250506020612c2d85828601612a23565b9150509250929050565b600060208284031215612c4957600080fd5b6000612c5784828501612a8c565b91505092915050565b600060208284031215612c7257600080fd5b6000612c8084828501612ab6565b91505092915050565b60008060408385031215612c9c57600080fd5b6000612caa85828601612aa1565b925050602083013567ffffffffffffffff811115612cc757600080fd5b612cd385828601612a38565b9150509250929050565b600060208284031215612cef57600080fd5b6000612cfd84828501612acb565b91505092915050565b60008060408385031215612d1957600080fd5b6000612d2785828601612acb565b9250506020612d3885828601612aa1565b9150509250929050565b600060208284031215612d5457600080fd5b6000612d6284828501612ae0565b91505092915050565b6000612d77838361316f565b60208301905092915050565b612d8c816136da565b82525050565b6000612d9d82613575565b612da78185613598565b9350612db283613565565b8060005b83811015612de3578151612dca8882612d6b565b9750612dd58361358b565b925050600181019050612db6565b5085935050505092915050565b612df9816136ec565b82525050565b612e08816136ec565b82525050565b612e17816136f8565b82525050565b6000612e2882613580565b612e3281856135a9565b9350612e4281856020860161377c565b612e4b81613911565b840191505092915050565b6000612e6182613580565b612e6b81856135ba565b9350612e7b81856020860161377c565b80840191505092915050565b6000612e946020836135a9565b9150612e9f82613922565b602082019050919050565b6000612eb76028836135a9565b9150612ec28261394b565b604082019050919050565b6000612eda601b836135a9565b9150612ee58261399a565b602082019050919050565b6000612efd6024836135a9565b9150612f08826139c3565b604082019050919050565b6000612f206018836135a9565b9150612f2b82613a12565b602082019050919050565b6000612f43601a836135a9565b9150612f4e82613a3b565b602082019050919050565b6000612f66602e836135a9565b9150612f7182613a64565b604082019050919050565b6000612f896025836135a9565b9150612f9482613ab3565b604082019050919050565b6000612fac601e836135a9565b9150612fb782613b02565b602082019050919050565b6000612fcf6020836135a9565b9150612fda82613b2b565b602082019050919050565b6000612ff2601b836135a9565b9150612ffd82613b54565b602082019050919050565b60006130156027836135a9565b915061302082613b7d565b604082019050919050565b60006130386017836135ba565b915061304382613bcc565b601782019050919050565b600061305b6011836135ba565b915061306682613bf5565b601182019050919050565b600061307e602f836135a9565b915061308982613c1e565b604082019050919050565b60006130a1601b836135a9565b91506130ac82613c6d565b602082019050919050565b600060608301600083015184820360008601526130d48282612d92565b91505060208301516130e9602086018261316f565b5060408301516130fc6040860182612df0565b508091505092915050565b60a08201600082015161311d600085018261316f565b506020820151613130602085018261316f565b506040820151613143604085018261318d565b5060608201516131566060850182612df0565b5060808201516131696080850182612df0565b50505050565b6131788161374e565b82525050565b6131878161374e565b82525050565b61319681613758565b82525050565b6131a581613768565b82525050565b60006131b68261302b565b91506131c28285612e56565b91506131cd8261304e565b91506131d98284612e56565b91508190509392505050565b60006020820190506131fa6000830184612d83565b92915050565b60006060820190506132156000830186612d83565b6132226020830185612d83565b61322f604083018461317e565b949350505050565b600060408201905061324c6000830185612d83565b613259602083018461317e565b9392505050565b60006020820190506132756000830184612dff565b92915050565b60006020820190506132906000830184612e0e565b92915050565b600060208201905081810360008301526132b08184612e1d565b905092915050565b600060208201905081810360008301526132d181612e87565b9050919050565b600060208201905081810360008301526132f181612eaa565b9050919050565b6000602082019050818103600083015261331181612ecd565b9050919050565b6000602082019050818103600083015261333181612ef0565b9050919050565b6000602082019050818103600083015261335181612f13565b9050919050565b6000602082019050818103600083015261337181612f36565b9050919050565b6000602082019050818103600083015261339181612f59565b9050919050565b600060208201905081810360008301526133b181612f7c565b9050919050565b600060208201905081810360008301526133d181612f9f565b9050919050565b600060208201905081810360008301526133f181612fc2565b9050919050565b6000602082019050818103600083015261341181612fe5565b9050919050565b6000602082019050818103600083015261343181613008565b9050919050565b6000602082019050818103600083015261345181613071565b9050919050565b6000602082019050818103600083015261347181613094565b9050919050565b6000602082019050818103600083015261349281846130b7565b905092915050565b600060a0820190506134af6000830184613107565b92915050565b60006020820190506134ca600083018461317e565b92915050565b60006040820190506134e5600083018561317e565b6134f2602083018461317e565b9392505050565b600060208201905061350e600083018461319c565b92915050565b600061351e61352f565b905061352a82826137d9565b919050565b6000604051905090565b600067ffffffffffffffff821115613554576135536138e2565b5b602082029050602081019050919050565b6000819050602082019050919050565b600081519050919050565b600081519050919050565b6000602082019050919050565b600082825260208201905092915050565b600082825260208201905092915050565b600081905092915050565b60006135d08261374e565b91506135db8361374e565b9250827fffffffffffffffffffffffffffffffffffffffffffffffffffffffffffffffff038211156136105761360f613884565b5b828201905092915050565b60006136268261374e565b91506136318361374e565b925082613641576136406138b3565b5b828204905092915050565b60006136578261374e565b91506136628361374e565b9250817fffffffffffffffffffffffffffffffffffffffffffffffffffffffffffffffff048311821515161561369b5761369a613884565b5b828202905092915050565b60006136b18261374e565b91506136bc8361374e565b9250828210156136cf576136ce613884565b5b828203905092915050565b60006136e58261372e565b9050919050565b60008115159050919050565b6000819050919050565b60007fffffffff0000000000000000000000000000000000000000000000000000000082169050919050565b600073ffffffffffffffffffffffffffffffffffffffff82169050919050565b6000819050919050565b600063ffffffff82169050919050565b600067ffffffffffffffff82169050919050565b60005b8381101561379a57808201518184015260208101905061377f565b838111156137a9576000848401525b50505050565b60006137ba8261374e565b915060008214156137ce576137cd613884565b5b600182039050919050565b6137e282613911565b810181811067ffffffffffffffff82111715613801576138006138e2565b5b80604052505050565b60006138158261374e565b91507fffffffffffffffffffffffffffffffffffffffffffffffffffffffffffffffff82141561384857613847613884565b5b600182019050919050565b600061385e82613768565b915067ffffffffffffffff82141561387957613878613884565b5b600182019050919050565b7f4e487b7100000000000000000000000000000000000000000000000000000000600052601160045260246000fd5b7f4e487b7100000000000000000000000000000000000000000000000000000000600052601260045260246000fd5b7f4e487b7100000000000000000000000000000000000000000000000000000000600052604160045260246000fd5b6000601f19601f8301169050919050565b7f537472696e67733a20686578206c656e67746820696e73756666696369656e74600082015250565b7f5374616b696e673a2072656d61696e64657220636f6c6c65637420726f6c652060008201527f7265717569726564000000000000000000000000000000000000000000000000602082015250565b7f5374616b696e673a20696e76616c696420737461727420646174650000000000600082015250565b7f5374616b696e673a2077697468726177616c207265717569726564203234206860008201527f6f75727300000000000000000000000000000000000000000000000000000000602082015250565b7f5374616b696e673a2070726f6772616d206973206f7665720000000000000000600082015250565b7f5374616b696e673a20616c72656164792077697468647261776e000000000000600082015250565b7f496e697469616c697a61626c653a20636f6e747261637420697320616c72656160008201527f647920696e697469616c697a6564000000000000000000000000000000000000602082015250565b7f5374616b696e673a2070726f6772616d20617574686f7220726f6c652072657160008201527f7569726564000000000000000000000000000000000000000000000000000000602082015250565b7f5374616b696e673a20696e76616c696420776974686472617720646174650000600082015250565b7f5374616b696e673a20656d657267656e637920726f6c65207265717569726564600082015250565b7f5374616b696e673a207374616b696e67206e6f74206578697374730000000000600082015250565b7f5374616b696e673a20696e76616c69642070726f6772616d20696e746572657360008201527f7420646174657300000000000000000000000000000000000000000000000000602082015250565b7f416363657373436f6e74726f6c3a206163636f756e7420000000000000000000600082015250565b7f206973206d697373696e6720726f6c6520000000000000000000000000000000600082015250565b7f416363657373436f6e74726f6c3a2063616e206f6e6c792072656e6f756e636560008201527f20726f6c657320666f722073656c660000000000000000000000000000000000602082015250565b7f5374616b696e673a2070726f6772616d206e6f74206578697374730000000000600082015250565b613c9f816136da565b8114613caa57600080fd5b50565b613cb6816136ec565b8114613cc157600080fd5b50565b613ccd816136f8565b8114613cd857600080fd5b50565b613ce481613702565b8114613cef57600080fd5b50565b613cfb8161374e565b8114613d0657600080fd5b50565b613d1281613758565b8114613d1d57600080fd5b50565b613d2981613768565b8114613d3457600080fd5b5056fea264697066735822122048e8c2414175e4ec153d41aa60df5e7dde8678eb1f7c4a038f7c41ab876b5e0b64736f6c63430008040033",
  "devdoc": {
    "kind": "dev",
    "methods": {
      "emergencyWithdraw(address,uint64)": {
        "details": "Withdraw staked amount to users. This is only for emergency, i.e when mistakes happen. And only address that has EMERGENCY_ROLE can withdraw",
        "params": {
          "staker": "staker",
          "stakingId": "staking identifier"
        }
      },
      "enterStaking(uint32,uint256)": {
        "details": "Users can become a staker to earn interest using this function. Before entering staking, users must `approve` this staking contract to transfer their tokens to this contract for lockup.",
        "params": {
          "amount": "Amount of tokens users want to stake",
          "programId": "Staking program described by BHOLDUS. Must either 1 or 2"
        }
      },
      "getRoleAdmin(bytes32)": {
        "details": "Returns the admin role that controls `role`. See {grantRole} and {revokeRole}. To change a role's admin, use {_setRoleAdmin}."
      },
      "grantRole(bytes32,address)": {
        "details": "Grants `role` to `account`. If `account` had not been already granted `role`, emits a {RoleGranted} event. Requirements: - the caller must have ``role``'s admin role."
      },
      "hasRole(bytes32,address)": {
        "details": "Returns `true` if `account` has been granted `role`."
      },
      "initialize(address,address,address)": {
        "details": "Since this staking contract is deployed with proxy approach, this is its constructor",
        "params": {
          "admin": "address with admin rights. This address has highest power",
          "feeCollector": "address that collects fee when users leave staking and withdraw interests",
          "token": "token contract"
        }
      },
      "leaveStaking(uint32)": {
        "details": "Users can withdraw staked amount and reward using this function. Users can only withdraw if interest date is sastisfied",
        "params": {
          "stakingId": "Staking identifiier"
        }
      },
      "renounceRole(bytes32,address)": {
        "details": "Revokes `role` from the calling account. Roles are often managed via {grantRole} and {revokeRole}: this function's purpose is to provide a mechanism for accounts to lose their privileges if they are compromised (such as when a trusted device is misplaced). If the calling account had been granted `role`, emits a {RoleRevoked} event. Requirements: - the caller must be `account`."
      },
      "revokeRole(bytes32,address)": {
        "details": "Revokes `role` from `account`. If `account` had been granted `role`, emits a {RoleRevoked} event. Requirements: - the caller must have ``role``'s admin role."
      },
      "supportsInterface(bytes4)": {
        "details": "See {IERC165-supportsInterface}."
      },
      "withdrawRemainingTokens()": {
        "details": "Withdraw remaining tokens to sender. This is used when staking programs are all over, and devs want to withdraw remaining tokens. Only sender with REMAINDER_COLLECT_ROLE can proceed."
      }
    },
    "version": 1
  },
  "userdoc": {
    "kind": "user",
    "methods": {},
    "version": 1
  },
  "storageLayout": {
    "storage": [
      {
        "astId": 976,
        "contract": "contracts/token/StakingBHOPoolTest.sol:StakingBHOPoolTest",
        "label": "_initialized",
        "offset": 0,
        "slot": "0",
        "type": "t_bool"
      },
      {
        "astId": 979,
        "contract": "contracts/token/StakingBHOPoolTest.sol:StakingBHOPoolTest",
        "label": "_initializing",
        "offset": 1,
        "slot": "0",
        "type": "t_bool"
      },
      {
        "astId": 1378,
        "contract": "contracts/token/StakingBHOPoolTest.sol:StakingBHOPoolTest",
        "label": "__gap",
        "offset": 0,
        "slot": "1",
        "type": "t_array(t_uint256)50_storage"
      },
      {
        "astId": 1687,
        "contract": "contracts/token/StakingBHOPoolTest.sol:StakingBHOPoolTest",
        "label": "__gap",
        "offset": 0,
        "slot": "51",
        "type": "t_array(t_uint256)50_storage"
      },
      {
        "astId": 86,
        "contract": "contracts/token/StakingBHOPoolTest.sol:StakingBHOPoolTest",
        "label": "_roles",
        "offset": 0,
        "slot": "101",
        "type": "t_mapping(t_bytes32,t_struct(RoleData)81_storage)"
      },
      {
        "astId": 394,
        "contract": "contracts/token/StakingBHOPoolTest.sol:StakingBHOPoolTest",
        "label": "__gap",
        "offset": 0,
        "slot": "102",
        "type": "t_array(t_uint256)49_storage"
      },
      {
        "astId": 2746,
        "contract": "contracts/token/StakingBHOPoolTest.sol:StakingBHOPoolTest",
        "label": "_nextStakingIds",
        "offset": 0,
        "slot": "151",
        "type": "t_mapping(t_address,t_uint64)"
      },
      {
        "astId": 2753,
        "contract": "contracts/token/StakingBHOPoolTest.sol:StakingBHOPoolTest",
        "label": "_stakingInfos",
        "offset": 0,
        "slot": "152",
        "type": "t_mapping(t_address,t_mapping(t_uint64,t_struct(StakingInfo)2734_storage))"
      },
      {
        "astId": 2758,
        "contract": "contracts/token/StakingBHOPoolTest.sol:StakingBHOPoolTest",
        "label": "_programInfos",
        "offset": 0,
        "slot": "153",
        "type": "t_mapping(t_uint64,t_struct(ProgramInfo)2742_storage)"
      },
      {
        "astId": 2760,
        "contract": "contracts/token/StakingBHOPoolTest.sol:StakingBHOPoolTest",
        "label": "_nextProgramId",
        "offset": 0,
        "slot": "154",
        "type": "t_uint64"
      },
      {
        "astId": 2762,
        "contract": "contracts/token/StakingBHOPoolTest.sol:StakingBHOPoolTest",
        "label": "_feeCollector",
        "offset": 8,
        "slot": "154",
        "type": "t_address"
      },
      {
        "astId": 2765,
        "contract": "contracts/token/StakingBHOPoolTest.sol:StakingBHOPoolTest",
        "label": "_token",
        "offset": 0,
        "slot": "155",
        "type": "t_contract(CoinBHO)2712"
      }
    ],
    "types": {
      "t_address": {
        "encoding": "inplace",
        "label": "address",
        "numberOfBytes": "20"
      },
      "t_array(t_uint256)49_storage": {
        "base": "t_uint256",
        "encoding": "inplace",
        "label": "uint256[49]",
        "numberOfBytes": "1568"
      },
      "t_array(t_uint256)50_storage": {
        "base": "t_uint256",
        "encoding": "inplace",
        "label": "uint256[50]",
        "numberOfBytes": "1600"
      },
      "t_array(t_uint256)dyn_storage": {
        "base": "t_uint256",
        "encoding": "dynamic_array",
        "label": "uint256[]",
        "numberOfBytes": "32"
      },
      "t_bool": {
        "encoding": "inplace",
        "label": "bool",
        "numberOfBytes": "1"
      },
      "t_bytes32": {
        "encoding": "inplace",
        "label": "bytes32",
        "numberOfBytes": "32"
      },
      "t_contract(CoinBHO)2712": {
        "encoding": "inplace",
        "label": "contract CoinBHO",
        "numberOfBytes": "20"
      },
      "t_mapping(t_address,t_bool)": {
        "encoding": "mapping",
        "key": "t_address",
        "label": "mapping(address => bool)",
        "numberOfBytes": "32",
        "value": "t_bool"
      },
      "t_mapping(t_address,t_mapping(t_uint64,t_struct(StakingInfo)2734_storage))": {
        "encoding": "mapping",
        "key": "t_address",
        "label": "mapping(address => mapping(uint64 => struct StakingBHOPoolTest.StakingInfo))",
        "numberOfBytes": "32",
        "value": "t_mapping(t_uint64,t_struct(StakingInfo)2734_storage)"
      },
      "t_mapping(t_address,t_uint64)": {
        "encoding": "mapping",
        "key": "t_address",
        "label": "mapping(address => uint64)",
        "numberOfBytes": "32",
        "value": "t_uint64"
      },
      "t_mapping(t_bytes32,t_struct(RoleData)81_storage)": {
        "encoding": "mapping",
        "key": "t_bytes32",
        "label": "mapping(bytes32 => struct AccessControlUpgradeable.RoleData)",
        "numberOfBytes": "32",
        "value": "t_struct(RoleData)81_storage"
      },
      "t_mapping(t_uint64,t_struct(ProgramInfo)2742_storage)": {
        "encoding": "mapping",
        "key": "t_uint64",
        "label": "mapping(uint64 => struct StakingBHOPoolTest.ProgramInfo)",
        "numberOfBytes": "32",
        "value": "t_struct(ProgramInfo)2742_storage"
      },
      "t_mapping(t_uint64,t_struct(StakingInfo)2734_storage)": {
        "encoding": "mapping",
        "key": "t_uint64",
        "label": "mapping(uint64 => struct StakingBHOPoolTest.StakingInfo)",
        "numberOfBytes": "32",
        "value": "t_struct(StakingInfo)2734_storage"
      },
      "t_struct(ProgramInfo)2742_storage": {
        "encoding": "inplace",
        "label": "struct StakingBHOPoolTest.ProgramInfo",
        "members": [
          {
            "astId": 2737,
            "contract": "contracts/token/StakingBHOPoolTest.sol:StakingBHOPoolTest",
            "label": "interestDates",
            "offset": 0,
            "slot": "0",
            "type": "t_array(t_uint256)dyn_storage"
          },
          {
            "astId": 2739,
            "contract": "contracts/token/StakingBHOPoolTest.sol:StakingBHOPoolTest",
            "label": "apy",
            "offset": 0,
            "slot": "1",
            "type": "t_uint256"
          },
          {
            "astId": 2741,
            "contract": "contracts/token/StakingBHOPoolTest.sol:StakingBHOPoolTest",
            "label": "isExist",
            "offset": 0,
            "slot": "2",
            "type": "t_bool"
          }
        ],
        "numberOfBytes": "96"
      },
      "t_struct(RoleData)81_storage": {
        "encoding": "inplace",
        "label": "struct AccessControlUpgradeable.RoleData",
        "members": [
          {
            "astId": 78,
            "contract": "contracts/token/StakingBHOPoolTest.sol:StakingBHOPoolTest",
            "label": "members",
            "offset": 0,
            "slot": "0",
            "type": "t_mapping(t_address,t_bool)"
          },
          {
            "astId": 80,
            "contract": "contracts/token/StakingBHOPoolTest.sol:StakingBHOPoolTest",
            "label": "adminRole",
            "offset": 0,
            "slot": "1",
            "type": "t_bytes32"
          }
        ],
        "numberOfBytes": "64"
      },
      "t_struct(StakingInfo)2734_storage": {
        "encoding": "inplace",
        "label": "struct StakingBHOPoolTest.StakingInfo",
        "members": [
          {
            "astId": 2725,
            "contract": "contracts/token/StakingBHOPoolTest.sol:StakingBHOPoolTest",
            "label": "amount",
            "offset": 0,
            "slot": "0",
            "type": "t_uint256"
          },
          {
            "astId": 2727,
            "contract": "contracts/token/StakingBHOPoolTest.sol:StakingBHOPoolTest",
            "label": "startDate",
            "offset": 0,
            "slot": "1",
            "type": "t_uint256"
          },
          {
            "astId": 2729,
            "contract": "contracts/token/StakingBHOPoolTest.sol:StakingBHOPoolTest",
            "label": "programId",
            "offset": 0,
            "slot": "2",
            "type": "t_uint32"
          },
          {
            "astId": 2731,
            "contract": "contracts/token/StakingBHOPoolTest.sol:StakingBHOPoolTest",
            "label": "isWithdrawn",
            "offset": 4,
            "slot": "2",
            "type": "t_bool"
          },
          {
            "astId": 2733,
            "contract": "contracts/token/StakingBHOPoolTest.sol:StakingBHOPoolTest",
            "label": "isExist",
            "offset": 5,
            "slot": "2",
            "type": "t_bool"
          }
        ],
        "numberOfBytes": "96"
      },
      "t_uint256": {
        "encoding": "inplace",
        "label": "uint256",
        "numberOfBytes": "32"
      },
      "t_uint32": {
        "encoding": "inplace",
        "label": "uint32",
        "numberOfBytes": "4"
      },
      "t_uint64": {
        "encoding": "inplace",
        "label": "uint64",
        "numberOfBytes": "8"
      }
    }
  }
}