{
  "address": "0xd2dE28B6D309406184bC51dEaE8b23C0D2Ee6ec7",
  "abi": [
    {
      "anonymous": false,
      "inputs": [
        {
          "indexed": true,
          "internalType": "address",
          "name": "previousOwner",
          "type": "address"
        },
        {
          "indexed": true,
          "internalType": "address",
          "name": "newOwner",
          "type": "address"
        }
      ],
      "name": "OwnershipTransferred",
      "type": "event"
    },
    {
      "anonymous": false,
      "inputs": [
        {
          "indexed": false,
          "internalType": "uint256",
          "name": "phaseReleasedAmount",
          "type": "uint256"
        },
        {
          "indexed": false,
          "internalType": "uint256",
          "name": "totalReleasedAmount",
          "type": "uint256"
        },
        {
          "indexed": false,
          "internalType": "uint32",
          "name": "fromIdx",
          "type": "uint32"
        },
        {
          "indexed": false,
          "internalType": "uint32",
          "name": "toIdx",
          "type": "uint32"
        },
        {
          "indexed": false,
          "internalType": "uint64",
          "name": "date",
          "type": "uint64"
        }
      ],
      "name": "Released",
      "type": "event"
    },
    {
      "anonymous": false,
      "inputs": [
        {
          "indexed": false,
          "internalType": "uint256",
          "name": "amount",
          "type": "uint256"
        },
        {
          "indexed": false,
          "internalType": "address",
          "name": "to",
          "type": "address"
        },
        {
          "indexed": false,
          "internalType": "uint64",
          "name": "date",
          "type": "uint64"
        }
      ],
      "name": "SafetyReleaseActivated",
      "type": "event"
    },
    {
      "inputs": [],
      "name": "amount",
      "outputs": [
        {
          "internalType": "uint256",
          "name": "",
          "type": "uint256"
        }
      ],
      "stateMutability": "view",
      "type": "function"
    },
    {
      "inputs": [],
      "name": "beneficiary",
      "outputs": [
        {
          "internalType": "address",
          "name": "",
          "type": "address"
        }
      ],
      "stateMutability": "view",
      "type": "function"
    },
    {
      "inputs": [
        {
          "internalType": "address",
          "name": "owner_",
          "type": "address"
        },
        {
          "internalType": "address",
          "name": "user_",
          "type": "address"
        },
        {
          "internalType": "address",
          "name": "token_",
          "type": "address"
        },
        {
          "internalType": "uint256",
          "name": "amount_",
          "type": "uint256"
        },
        {
          "internalType": "uint32[]",
          "name": "lockDurations_",
          "type": "uint32[]"
        },
        {
          "internalType": "uint32[]",
          "name": "releasePercents_",
          "type": "uint32[]"
        },
        {
          "internalType": "uint64",
          "name": "startDate_",
          "type": "uint64"
        }
      ],
      "name": "initialize",
      "outputs": [
        {
          "internalType": "bool",
          "name": "",
          "type": "bool"
        }
      ],
      "stateMutability": "nonpayable",
      "type": "function"
    },
    {
      "inputs": [],
      "name": "lockData",
      "outputs": [
        {
          "internalType": "address",
          "name": "user",
          "type": "address"
        },
        {
          "internalType": "address",
          "name": "token_",
          "type": "address"
        },
        {
          "internalType": "uint256",
          "name": "amount_",
          "type": "uint256"
        },
        {
          "internalType": "uint256",
          "name": "releasedAmount_",
          "type": "uint256"
        },
        {
          "internalType": "uint64",
          "name": "startDate_",
          "type": "uint64"
        },
        {
          "internalType": "uint32[]",
          "name": "lockDurations_",
          "type": "uint32[]"
        },
        {
          "internalType": "uint32[]",
          "name": "releasePercents_",
          "type": "uint32[]"
        },
        {
          "internalType": "uint64[]",
          "name": "releaseDates_",
          "type": "uint64[]"
        },
        {
          "internalType": "uint32",
          "name": "nextReleaseIdx_",
          "type": "uint32"
        }
      ],
      "stateMutability": "view",
      "type": "function"
    },
    {
      "inputs": [],
      "name": "lockDurations",
      "outputs": [
        {
          "internalType": "uint32[]",
          "name": "",
          "type": "uint32[]"
        }
      ],
      "stateMutability": "view",
      "type": "function"
    },
    {
      "inputs": [],
      "name": "nextReleaseIdx",
      "outputs": [
        {
          "internalType": "uint32",
          "name": "",
          "type": "uint32"
        }
      ],
      "stateMutability": "view",
      "type": "function"
    },
    {
      "inputs": [],
      "name": "owner",
      "outputs": [
        {
          "internalType": "address",
          "name": "",
          "type": "address"
        }
      ],
      "stateMutability": "view",
      "type": "function"
    },
    {
      "inputs": [],
      "name": "release",
      "outputs": [
        {
          "internalType": "bool",
          "name": "",
          "type": "bool"
        }
      ],
      "stateMutability": "nonpayable",
      "type": "function"
    },
    {
      "inputs": [],
      "name": "releaseDates",
      "outputs": [
        {
          "internalType": "uint64[]",
          "name": "",
          "type": "uint64[]"
        }
      ],
      "stateMutability": "view",
      "type": "function"
    },
    {
      "inputs": [],
      "name": "releasePercents",
      "outputs": [
        {
          "internalType": "uint32[]",
          "name": "",
          "type": "uint32[]"
        }
      ],
      "stateMutability": "view",
      "type": "function"
    },
    {
      "inputs": [],
      "name": "releasedAmount",
      "outputs": [
        {
          "internalType": "uint256",
          "name": "",
          "type": "uint256"
        }
      ],
      "stateMutability": "view",
      "type": "function"
    },
    {
      "inputs": [],
      "name": "renounceOwnership",
      "outputs": [],
      "stateMutability": "nonpayable",
      "type": "function"
    },
    {
      "inputs": [],
      "name": "safetyRelease",
      "outputs": [
        {
          "internalType": "bool",
          "name": "",
          "type": "bool"
        }
      ],
      "stateMutability": "nonpayable",
      "type": "function"
    },
    {
      "inputs": [],
      "name": "startDate",
      "outputs": [
        {
          "internalType": "uint64",
          "name": "",
          "type": "uint64"
        }
      ],
      "stateMutability": "view",
      "type": "function"
    },
    {
      "inputs": [],
      "name": "token",
      "outputs": [
        {
          "internalType": "contract IBEP20",
          "name": "",
          "type": "address"
        }
      ],
      "stateMutability": "view",
      "type": "function"
    },
    {
      "inputs": [
        {
          "internalType": "address",
          "name": "newOwner",
          "type": "address"
        }
      ],
      "name": "transferOwnership",
      "outputs": [],
      "stateMutability": "nonpayable",
      "type": "function"
    }
  ],
  "transactionHash": "0x820e4d24ab60dadf8bcf2e71001ae2192dd2cb5ab1340388324d64a52b338917",
  "args": [],
  "solcInputHash": "1ed0d87acc1e7f75c21212e986aef4c0",
  "bytecode": "0x608060405234801561001057600080fd5b50612e00806100206000396000f3fe608060405234801561001057600080fd5b50600436106101005760003560e01c8063aa8c217c11610097578063e654a5bf11610066578063e654a5bf1461026b578063f2fde38b14610289578063f8fcd156146102a5578063fc0c546a146102cb57610100565b8063aa8c217c146101f3578063c00de5fc14610211578063d6ec52701461022f578063e09000801461024d57610100565b806345d30a17116100d357806345d30a171461018f578063715018a6146101ad57806386d1a69f146101b75780638da5cb5b146101d557610100565b80630b32dc5b146101055780630b97bc86146101355780632a62a4b21461015357806338af3eed14610171575b600080fd5b61011f600480360381019061011a9190611d88565b6102e9565b60405161012c9190612369565b60405180910390f35b61013d61067b565b60405161014a91906125e1565b60405180910390f35b61015b610699565b6040516101689190612325565b60405180910390f35b61017961071d565b604051610186919061223f565b60405180910390f35b610197610747565b6040516101a49190612521565b60405180910390f35b6101b5610751565b005b6101bf61088e565b6040516101cc9190612369565b60405180910390f35b6101dd610e6e565b6040516101ea919061223f565b60405180910390f35b6101fb610e98565b6040516102089190612521565b60405180910390f35b610219610ea2565b6040516102269190612347565b60405180910390f35b610237610f2e565b60405161024491906125c6565b60405180910390f35b610255610f48565b6040516102629190612325565b60405180910390f35b610273610fcc565b6040516102809190612369565b60405180910390f35b6102a3600480360381019061029e9190611d5f565b611161565b005b6102ad61130d565b6040516102c29998979695949392919061225a565b60405180910390f35b6102d3611381565b6040516102e09190612384565b60405180910390f35b60008060019054906101000a900460ff1680610310575060008054906101000a900460ff16155b61034f576040517f08c379a000000000000000000000000000000000000000000000000000000000815260040161034690612441565b60405180910390fd5b60008060019054906101000a900460ff16159050801561039f576001600060016101000a81548160ff02191690831515021790555060016000806101000a81548160ff0219169083151502179055505b6103a76113ab565b8484905087879050146103ef576040517f08c379a00000000000000000000000000000000000000000000000000000000081526004016103e690612461565b60405180910390fd5b6000805b8686905081101561047057868682818110610437577f4e487b7100000000000000000000000000000000000000000000000000000000600052603260045260246000fd5b905060200201602081019061044c9190611eb0565b63ffffffff168261045d91906126a0565b91508061046990612928565b90506103f3565b50606481146104b4576040517f08c379a00000000000000000000000000000000000000000000000000000000081526004016104ab906124a1565b60405180910390fd5b8a606a60006101000a81548173ffffffffffffffffffffffffffffffffffffffff021916908373ffffffffffffffffffffffffffffffffffffffff16021790555089606b60006101000a81548173ffffffffffffffffffffffffffffffffffffffff021916908373ffffffffffffffffffffffffffffffffffffffff16021790555083606a60146101000a81548167ffffffffffffffff021916908367ffffffffffffffff160217905550878760669190610570929190611b08565b50858560679190610582929190611b08565b508860688190555060006069819055506000606a601c6101000a81548163ffffffff021916908363ffffffff16021790555060668054905067ffffffffffffffff8111156105f9577f4e487b7100000000000000000000000000000000000000000000000000000000600052604160045260246000fd5b6040519080825280602002602001820160405280156106275781602001602082028036833780820191505090505b506065908051906020019061063d929190611bbe565b506106478c611161565b6001925050801561066d5760008060016101000a81548160ff0219169083151502179055505b509998505050505050505050565b6000606a60149054906101000a900467ffffffffffffffff16905090565b6060606780548060200260200160405190810160405280929190818152602001828054801561071357602002820191906000526020600020906000905b82829054906101000a900463ffffffff1663ffffffff16815260200190600401906020826003010492830192600103820291508084116106d65790505b5050505050905090565b6000606a60009054906101000a900473ffffffffffffffffffffffffffffffffffffffff16905090565b6000606954905090565b610759611494565b73ffffffffffffffffffffffffffffffffffffffff16610777610e6e565b73ffffffffffffffffffffffffffffffffffffffff16146107cd576040517f08c379a00000000000000000000000000000000000000000000000000000000081526004016107c490612481565b60405180910390fd5b600073ffffffffffffffffffffffffffffffffffffffff16603360009054906101000a900473ffffffffffffffffffffffffffffffffffffffff1673ffffffffffffffffffffffffffffffffffffffff167f8be0079c531659141344cd1fd0a4f28419497f9722a3daafe3b4186f6b6457e060405160405180910390a36000603360006101000a81548173ffffffffffffffffffffffffffffffffffffffff021916908373ffffffffffffffffffffffffffffffffffffffff160217905550565b600080606680549050905080606a601c9054906101000a900463ffffffff1663ffffffff16106108f3576040517f08c379a00000000000000000000000000000000000000000000000000000000081526004016108ea906123c1565b60405180910390fd5b60016066606a601c9054906101000a900463ffffffff1663ffffffff1681548110610947577f4e487b7100000000000000000000000000000000000000000000000000000000600052603260045260246000fd5b90600052602060002090600891828204019190066004029054906101000a900463ffffffff1661097791906127bf565b63ffffffff16606a60149054906101000a900467ffffffffffffffff1661099e91906126f6565b67ffffffffffffffff164210156109ea576040517f08c379a00000000000000000000000000000000000000000000000000000000081526004016109e1906124c1565b60405180910390fd5b6000606a601c9054906101000a900463ffffffff1663ffffffff16905060005b82606a601c9054906101000a900463ffffffff1663ffffffff16108015610ae5575060016066606a601c9054906101000a900463ffffffff1663ffffffff1681548110610a80577f4e487b7100000000000000000000000000000000000000000000000000000000600052603260045260246000fd5b90600052602060002090600891828204019190066004029054906101000a900463ffffffff16610ab091906127bf565b63ffffffff16606a60149054906101000a900467ffffffffffffffff16610ad791906126f6565b67ffffffffffffffff164210155b15610c27576000600184610af991906127fd565b606a601c9054906101000a900463ffffffff1663ffffffff161415610b3a5781606954606854610b2991906127fd565b610b3391906127fd565b9050610bd2565b610bcf6067606a601c9054906101000a900463ffffffff1663ffffffff1681548110610b8f577f4e487b7100000000000000000000000000000000000000000000000000000000600052603260045260246000fd5b90600052602060002090600891828204019190066004029054906101000a900463ffffffff1663ffffffff16606460685461149c9092919063ffffffff16565b90505b8082610bde91906126a0565b9150606a601c81819054906101000a900463ffffffff1680929190610c0290612971565b91906101000a81548163ffffffff021916908363ffffffff1602179055505050610a0a565b6000610c31611381565b73ffffffffffffffffffffffffffffffffffffffff166370a08231306040518263ffffffff1660e01b8152600401610c69919061223f565b60206040518083038186803b158015610c8157600080fd5b505afa158015610c95573d6000803e3d6000fd5b505050506040513d601f19601f82011682018060405250810190610cb99190611e87565b905081811015610cfe576040517f08c379a0000000000000000000000000000000000000000000000000000000008152600401610cf5906124e1565b60405180910390fd5b8160696000828254610d1091906126a0565b92505081905550610d50610d2261071d565b83610d2b611381565b73ffffffffffffffffffffffffffffffffffffffff166115ba9092919063ffffffff16565b600042905060008490505b606a601c9054906101000a900463ffffffff1663ffffffff16811015610e02578160658281548110610db6577f4e487b7100000000000000000000000000000000000000000000000000000000600052603260045260246000fd5b90600052602060002090600491828204019190066008026101000a81548167ffffffffffffffff021916908367ffffffffffffffff16021790555080610dfb90612928565b9050610d5b565b507f76264100b4b20aa06c294636c2e40aaf398c3490112488330659f4577010713f83606954866001606a601c9054906101000a900463ffffffff16610e489190612831565b85604051610e5a959493929190612573565b60405180910390a160019550505050505090565b6000603360009054906101000a900473ffffffffffffffffffffffffffffffffffffffff16905090565b6000606854905090565b60606065805480602002602001604051908101604052809291908181526020018280548015610f2457602002820191906000526020600020906000905b82829054906101000a900467ffffffffffffffff1667ffffffffffffffff1681526020019060080190602082600701049283019260010382029150808411610edf5790505b5050505050905090565b6000606a601c9054906101000a900463ffffffff16905090565b60606066805480602002602001604051908101604052809291908181526020018280548015610fc257602002820191906000526020600020906000905b82829054906101000a900463ffffffff1663ffffffff1681526020019060040190602082600301049283019260010382029150808411610f855790505b5050505050905090565b6000610fd6611494565b73ffffffffffffffffffffffffffffffffffffffff16610ff4610e6e565b73ffffffffffffffffffffffffffffffffffffffff161461104a576040517f08c379a000000000000000000000000000000000000000000000000000000000815260040161104190612481565b60405180910390fd5b6000611054611381565b73ffffffffffffffffffffffffffffffffffffffff166370a08231306040518263ffffffff1660e01b815260040161108c919061223f565b60206040518083038186803b1580156110a457600080fd5b505afa1580156110b8573d6000803e3d6000fd5b505050506040513d601f19601f820116820180604052508101906110dc9190611e87565b90506111176110e9610e6e565b826110f2611381565b73ffffffffffffffffffffffffffffffffffffffff166115ba9092919063ffffffff16565b7fc7dd30278c9650b860dfb93b5ff70512f9f45c7f415e061846777b1303a2141981611141610e6e565b426040516111519392919061253c565b60405180910390a1600191505090565b611169611494565b73ffffffffffffffffffffffffffffffffffffffff16611187610e6e565b73ffffffffffffffffffffffffffffffffffffffff16146111dd576040517f08c379a00000000000000000000000000000000000000000000000000000000081526004016111d490612481565b60405180910390fd5b600073ffffffffffffffffffffffffffffffffffffffff168173ffffffffffffffffffffffffffffffffffffffff16141561124d576040517f08c379a000000000000000000000000000000000000000000000000000000000815260040161124490612401565b60405180910390fd5b8073ffffffffffffffffffffffffffffffffffffffff16603360009054906101000a900473ffffffffffffffffffffffffffffffffffffffff1673ffffffffffffffffffffffffffffffffffffffff167f8be0079c531659141344cd1fd0a4f28419497f9722a3daafe3b4186f6b6457e060405160405180910390a380603360006101000a81548173ffffffffffffffffffffffffffffffffffffffff021916908373ffffffffffffffffffffffffffffffffffffffff16021790555050565b60008060008060006060806060600061132461071d565b61132c611381565b611334610e98565b61133c610747565b61134461067b565b61134c610f48565b611354610699565b61135c610ea2565b611364610f2e565b985098509850985098509850985098509850909192939495969798565b6000606b60009054906101000a900473ffffffffffffffffffffffffffffffffffffffff16905090565b600060019054906101000a900460ff16806113d1575060008054906101000a900460ff16155b611410576040517f08c379a000000000000000000000000000000000000000000000000000000000815260040161140790612441565b60405180910390fd5b60008060019054906101000a900460ff161590508015611460576001600060016101000a81548160ff02191690831515021790555060016000806101000a81548160ff0219169083151502179055505b611468611640565b611470611719565b80156114915760008060016101000a81548160ff0219169083151502179055505b50565b600033905090565b600080826fffffffffffffffffffffffffffffffff16856114bd9190612734565b90506000836fffffffffffffffffffffffffffffffff16866114df919061299e565b90506000846fffffffffffffffffffffffffffffffff16866115019190612734565b90506000856fffffffffffffffffffffffffffffffff1687611523919061299e565b9050856fffffffffffffffffffffffffffffffff1681846115449190612765565b61154e9190612734565b828461155a9190612765565b82866115669190612765565b886fffffffffffffffffffffffffffffffff1685886115859190612765565b61158f9190612765565b61159991906126a0565b6115a391906126a0565b6115ad91906126a0565b9450505050509392505050565b61163b8363a9059cbb60e01b84846040516024016115d99291906122fc565b604051602081830303815290604052907bffffffffffffffffffffffffffffffffffffffffffffffffffffffff19166020820180517bffffffffffffffffffffffffffffffffffffffffffffffffffffffff838183161783525050505061189b565b505050565b600060019054906101000a900460ff1680611666575060008054906101000a900460ff16155b6116a5576040517f08c379a000000000000000000000000000000000000000000000000000000000815260040161169c90612441565b60405180910390fd5b60008060019054906101000a900460ff1615905080156116f5576001600060016101000a81548160ff02191690831515021790555060016000806101000a81548160ff0219169083151502179055505b80156117165760008060016101000a81548160ff0219169083151502179055505b50565b600060019054906101000a900460ff168061173f575060008054906101000a900460ff16155b61177e576040517f08c379a000000000000000000000000000000000000000000000000000000000815260040161177590612441565b60405180910390fd5b60008060019054906101000a900460ff1615905080156117ce576001600060016101000a81548160ff02191690831515021790555060016000806101000a81548160ff0219169083151502179055505b60006117d8611494565b905080603360006101000a81548173ffffffffffffffffffffffffffffffffffffffff021916908373ffffffffffffffffffffffffffffffffffffffff1602179055508073ffffffffffffffffffffffffffffffffffffffff16600073ffffffffffffffffffffffffffffffffffffffff167f8be0079c531659141344cd1fd0a4f28419497f9722a3daafe3b4186f6b6457e060405160405180910390a35080156118985760008060016101000a81548160ff0219169083151502179055505b50565b60006118fd826040518060400160405280602081526020017f5361666542455032303a206c6f772d6c6576656c2063616c6c206661696c65648152508573ffffffffffffffffffffffffffffffffffffffff166119629092919063ffffffff16565b905060008151111561195d578080602001905181019061191d9190611e5e565b61195c576040517f08c379a0000000000000000000000000000000000000000000000000000000008152600401611953906123e1565b60405180910390fd5b5b505050565b6060611971848460008561197a565b90509392505050565b6060824710156119bf576040517f08c379a00000000000000000000000000000000000000000000000000000000081526004016119b690612421565b60405180910390fd5b6119c885611a8e565b611a07576040517f08c379a00000000000000000000000000000000000000000000000000000000081526004016119fe90612501565b60405180910390fd5b6000808673ffffffffffffffffffffffffffffffffffffffff168587604051611a309190612228565b60006040518083038185875af1925050503d8060008114611a6d576040519150601f19603f3d011682016040523d82523d6000602084013e611a72565b606091505b5091509150611a82828286611aa1565b92505050949350505050565b600080823b905060008111915050919050565b60608315611ab157829050611b01565b600083511115611ac45782518084602001fd5b816040517f08c379a0000000000000000000000000000000000000000000000000000000008152600401611af8919061239f565b60405180910390fd5b9392505050565b82805482825590600052602060002090600701600890048101928215611bad5791602002820160005b83821115611b7b57833563ffffffff1683826101000a81548163ffffffff021916908363ffffffff1602179055509260200192600401602081600301049283019260010302611b31565b8015611bab5782816101000a81549063ffffffff0219169055600401602081600301049283019260010302611b7b565b505b509050611bba9190611c7a565b5090565b82805482825590600052602060002090600301600490048101928215611c695791602002820160005b83821115611c3357835183826101000a81548167ffffffffffffffff021916908367ffffffffffffffff1602179055509260200192600801602081600701049283019260010302611be7565b8015611c675782816101000a81549067ffffffffffffffff0219169055600801602081600701049283019260010302611c33565b505b509050611c769190611c7a565b5090565b5b80821115611c93576000816000905550600101611c7b565b5090565b600081359050611ca681612d57565b92915050565b60008083601f840112611cbe57600080fd5b8235905067ffffffffffffffff811115611cd757600080fd5b602083019150836020820283011115611cef57600080fd5b9250929050565b600081519050611d0581612d6e565b92915050565b600081359050611d1a81612d85565b92915050565b600081519050611d2f81612d85565b92915050565b600081359050611d4481612d9c565b92915050565b600081359050611d5981612db3565b92915050565b600060208284031215611d7157600080fd5b6000611d7f84828501611c97565b91505092915050565b600080600080600080600080600060e08a8c031215611da657600080fd5b6000611db48c828d01611c97565b9950506020611dc58c828d01611c97565b9850506040611dd68c828d01611c97565b9750506060611de78c828d01611d0b565b96505060808a013567ffffffffffffffff811115611e0457600080fd5b611e108c828d01611cac565b955095505060a08a013567ffffffffffffffff811115611e2f57600080fd5b611e3b8c828d01611cac565b935093505060c0611e4e8c828d01611d4a565b9150509295985092959850929598565b600060208284031215611e7057600080fd5b6000611e7e84828501611cf6565b91505092915050565b600060208284031215611e9957600080fd5b6000611ea784828501611d20565b91505092915050565b600060208284031215611ec257600080fd5b6000611ed084828501611d35565b91505092915050565b6000611ee583836121ec565b60208301905092915050565b6000611efd838361220a565b60208301905092915050565b611f1281612865565b82525050565b6000611f238261261c565b611f2d8185612662565b9350611f38836125fc565b8060005b83811015611f69578151611f508882611ed9565b9750611f5b83612648565b925050600181019050611f3c565b5085935050505092915050565b6000611f8182612627565b611f8b8185612673565b9350611f968361260c565b8060005b83811015611fc7578151611fae8882611ef1565b9750611fb983612655565b925050600181019050611f9a565b5085935050505092915050565b611fdd81612877565b82525050565b6000611fee82612632565b611ff88185612684565b93506120088185602086016128f5565b80840191505092915050565b61201d816128d1565b82525050565b600061202e8261263d565b612038818561268f565b93506120488185602086016128f5565b61205181612a2d565b840191505092915050565b600061206960268361268f565b915061207482612a3e565b604082019050919050565b600061208c602a8361268f565b915061209782612a8d565b604082019050919050565b60006120af60268361268f565b91506120ba82612adc565b604082019050919050565b60006120d260268361268f565b91506120dd82612b2b565b604082019050919050565b60006120f5602e8361268f565b915061210082612b7a565b604082019050919050565b600061211860268361268f565b915061212382612bc9565b604082019050919050565b600061213b60208361268f565b915061214682612c18565b602082019050919050565b600061215e602b8361268f565b915061216982612c41565b604082019050919050565b600061218160258361268f565b915061218c82612c90565b604082019050919050565b60006121a460238361268f565b91506121af82612cdf565b604082019050919050565b60006121c7601d8361268f565b91506121d282612d2e565b602082019050919050565b6121e6816128a3565b82525050565b6121f5816128ad565b82525050565b612204816128ad565b82525050565b612213816128bd565b82525050565b612222816128bd565b82525050565b60006122348284611fe3565b915081905092915050565b60006020820190506122546000830184611f09565b92915050565b600061012082019050612270600083018c611f09565b61227d602083018b611f09565b61228a604083018a6121dd565b61229760608301896121dd565b6122a46080830188612219565b81810360a08301526122b68187611f18565b905081810360c08301526122ca8186611f18565b905081810360e08301526122de8185611f76565b90506122ee6101008301846121fb565b9a9950505050505050505050565b60006040820190506123116000830185611f09565b61231e60208301846121dd565b9392505050565b6000602082019050818103600083015261233f8184611f18565b905092915050565b600060208201905081810360008301526123618184611f76565b905092915050565b600060208201905061237e6000830184611fd4565b92915050565b60006020820190506123996000830184612014565b92915050565b600060208201905081810360008301526123b98184612023565b905092915050565b600060208201905081810360008301526123da8161205c565b9050919050565b600060208201905081810360008301526123fa8161207f565b9050919050565b6000602082019050818103600083015261241a816120a2565b9050919050565b6000602082019050818103600083015261243a816120c5565b9050919050565b6000602082019050818103600083015261245a816120e8565b9050919050565b6000602082019050818103600083015261247a8161210b565b9050919050565b6000602082019050818103600083015261249a8161212e565b9050919050565b600060208201905081810360008301526124ba81612151565b9050919050565b600060208201905081810360008301526124da81612174565b9050919050565b600060208201905081810360008301526124fa81612197565b9050919050565b6000602082019050818103600083015261251a816121ba565b9050919050565b600060208201905061253660008301846121dd565b92915050565b600060608201905061255160008301866121dd565b61255e6020830185611f09565b61256b6040830184612219565b949350505050565b600060a08201905061258860008301886121dd565b61259560208301876121dd565b6125a260408301866121fb565b6125af60608301856121fb565b6125bc6080830184612219565b9695505050505050565b60006020820190506125db60008301846121fb565b92915050565b60006020820190506125f66000830184612219565b92915050565b6000819050602082019050919050565b6000819050602082019050919050565b600081519050919050565b600081519050919050565b600081519050919050565b600081519050919050565b6000602082019050919050565b6000602082019050919050565b600082825260208201905092915050565b600082825260208201905092915050565b600081905092915050565b600082825260208201905092915050565b60006126ab826128a3565b91506126b6836128a3565b9250827fffffffffffffffffffffffffffffffffffffffffffffffffffffffffffffffff038211156126eb576126ea6129cf565b5b828201905092915050565b6000612701826128bd565b915061270c836128bd565b92508267ffffffffffffffff03821115612729576127286129cf565b5b828201905092915050565b600061273f826128a3565b915061274a836128a3565b92508261275a576127596129fe565b5b828204905092915050565b6000612770826128a3565b915061277b836128a3565b9250817fffffffffffffffffffffffffffffffffffffffffffffffffffffffffffffffff04831182151516156127b4576127b36129cf565b5b828202905092915050565b60006127ca826128ad565b91506127d5836128ad565b92508163ffffffff04831182151516156127f2576127f16129cf565b5b828202905092915050565b6000612808826128a3565b9150612813836128a3565b925082821015612826576128256129cf565b5b828203905092915050565b600061283c826128ad565b9150612847836128ad565b92508282101561285a576128596129cf565b5b828203905092915050565b600061287082612883565b9050919050565b60008115159050919050565b600073ffffffffffffffffffffffffffffffffffffffff82169050919050565b6000819050919050565b600063ffffffff82169050919050565b600067ffffffffffffffff82169050919050565b60006128dc826128e3565b9050919050565b60006128ee82612883565b9050919050565b60005b838110156129135780820151818401526020810190506128f8565b83811115612922576000848401525b50505050565b6000612933826128a3565b91507fffffffffffffffffffffffffffffffffffffffffffffffffffffffffffffffff821415612966576129656129cf565b5b600182019050919050565b600061297c826128ad565b915063ffffffff821415612993576129926129cf565b5b600182019050919050565b60006129a9826128a3565b91506129b4836128a3565b9250826129c4576129c36129fe565b5b828206905092915050565b7f4e487b7100000000000000000000000000000000000000000000000000000000600052601160045260246000fd5b7f4e487b7100000000000000000000000000000000000000000000000000000000600052601260045260246000fd5b6000601f19601f8301169050919050565b7f546f6b656e54696d654c6f636b3a20616c6c207068617365732061726520726560008201527f6c65617365640000000000000000000000000000000000000000000000000000602082015250565b7f5361666542455032303a204245503230206f7065726174696f6e20646964206e60008201527f6f74207375636365656400000000000000000000000000000000000000000000602082015250565b7f4f776e61626c653a206e6577206f776e657220697320746865207a65726f206160008201527f6464726573730000000000000000000000000000000000000000000000000000602082015250565b7f416464726573733a20696e73756666696369656e742062616c616e636520666f60008201527f722063616c6c0000000000000000000000000000000000000000000000000000602082015250565b7f496e697469616c697a61626c653a20636f6e747261637420697320616c72656160008201527f647920696e697469616c697a6564000000000000000000000000000000000000602082015250565b7f546f6b656e54696d654c6f636b3a20756e6c6f636b206c656e677468206e6f7460008201527f206d617463680000000000000000000000000000000000000000000000000000602082015250565b7f4f776e61626c653a2063616c6c6572206973206e6f7420746865206f776e6572600082015250565b7f546f6b656e54696d654c6f636b3a20756e6c6f636b2070657263656e74206e6f60008201527f74206d6174636820313030000000000000000000000000000000000000000000602082015250565b7f546f6b656e54696d654c6f636b3a206e65787420706861736520756e6176616960008201527f6c61626c65000000000000000000000000000000000000000000000000000000602082015250565b7f546f6b656e54696d654c6f636b3a20696e73756666696369656e742062616c6160008201527f6e63650000000000000000000000000000000000000000000000000000000000602082015250565b7f416464726573733a2063616c6c20746f206e6f6e2d636f6e7472616374000000600082015250565b612d6081612865565b8114612d6b57600080fd5b50565b612d7781612877565b8114612d8257600080fd5b50565b612d8e816128a3565b8114612d9957600080fd5b50565b612da5816128ad565b8114612db057600080fd5b50565b612dbc816128bd565b8114612dc757600080fd5b5056fea2646970667358221220e9e89e96c7140fb19a08d51c04d24a725968a125aeca3ed2b5ff2ebc7cab154764736f6c63430008040033",
  "devdoc": {
    "kind": "dev",
    "methods": {
      "owner()": {
        "details": "Returns the address of the current owner."
      },
      "release()": {
        "details": "User (sender) can release unlocked tokens by calling this function. This function will release locked tokens from multiple lock phases that meets unlock requirements Reverts in the following cases: - No tokens to be withdrawn including:     + All lock phases are already released     + Do not meet next unlock requirements - Amount of tokens that this smart contract holds is insufficient. In this case, users should contact the owner of the token.",
        "returns": {
          "_0": "Return `true` if succeeds, otherwise `false`"
        }
      },
      "renounceOwnership()": {
        "details": "Leaves the contract without owner. It will not be possible to call `onlyOwner` functions anymore. Can only be called by the current owner. NOTE: Renouncing ownership will leave the contract without an owner, thereby removing any functionality that is only available to the owner."
      },
      "safetyRelease()": {
        "details": "This is for safety. For example, when someone setup the contract with wrong data and accidentally transfer token to the lockup contract. The owner can get the token back by calling this function"
      },
      "transferOwnership(address)": {
        "details": "Transfers ownership of the contract to a new account (`newOwner`). Can only be called by the current owner."
      }
    },
    "version": 1
  },
  "userdoc": {
    "kind": "user",
    "methods": {
      "initialize(address,address,address,uint256,uint32[],uint32[],uint64)": {
        "notice": "Register a new lock for a user Reverts in the following cases: - Duplicated lock id for a user. - `lockDurations` and `unlockPercents` length don't match. - `unlockPercents` sum is not equal to 100 (100%)."
      },
      "release()": {
        "notice": "Release unlocked tokens to user."
      }
    },
    "version": 1
  },
  "storageLayout": {
    "storage": [
      {
        "astId": 580,
        "contract": "contracts/token/TokenTimeLock.sol:TokenTimeLock",
        "label": "_initialized",
        "offset": 0,
        "slot": "0",
        "type": "t_bool"
      },
      {
        "astId": 583,
        "contract": "contracts/token/TokenTimeLock.sol:TokenTimeLock",
        "label": "_initializing",
        "offset": 1,
        "slot": "0",
        "type": "t_bool"
      },
      {
        "astId": 982,
        "contract": "contracts/token/TokenTimeLock.sol:TokenTimeLock",
        "label": "__gap",
        "offset": 0,
        "slot": "1",
        "type": "t_array(t_uint256)50_storage"
      },
      {
        "astId": 10,
        "contract": "contracts/token/TokenTimeLock.sol:TokenTimeLock",
        "label": "_owner",
        "offset": 0,
        "slot": "51",
        "type": "t_address"
      },
      {
        "astId": 129,
        "contract": "contracts/token/TokenTimeLock.sol:TokenTimeLock",
        "label": "__gap",
        "offset": 0,
        "slot": "52",
        "type": "t_array(t_uint256)49_storage"
      },
      {
        "astId": 3443,
        "contract": "contracts/token/TokenTimeLock.sol:TokenTimeLock",
        "label": "_releaseDates",
        "offset": 0,
        "slot": "101",
        "type": "t_array(t_uint64)dyn_storage"
      },
      {
        "astId": 3447,
        "contract": "contracts/token/TokenTimeLock.sol:TokenTimeLock",
        "label": "_lockDurations",
        "offset": 0,
        "slot": "102",
        "type": "t_array(t_uint32)dyn_storage"
      },
      {
        "astId": 3451,
        "contract": "contracts/token/TokenTimeLock.sol:TokenTimeLock",
        "label": "_releasePercents",
        "offset": 0,
        "slot": "103",
        "type": "t_array(t_uint32)dyn_storage"
      },
      {
        "astId": 3454,
        "contract": "contracts/token/TokenTimeLock.sol:TokenTimeLock",
        "label": "_amount",
        "offset": 0,
        "slot": "104",
        "type": "t_uint256"
      },
      {
        "astId": 3457,
        "contract": "contracts/token/TokenTimeLock.sol:TokenTimeLock",
        "label": "_releasedAmount",
        "offset": 0,
        "slot": "105",
        "type": "t_uint256"
      },
      {
        "astId": 3460,
        "contract": "contracts/token/TokenTimeLock.sol:TokenTimeLock",
        "label": "_user",
        "offset": 0,
        "slot": "106",
        "type": "t_address"
      },
      {
        "astId": 3463,
        "contract": "contracts/token/TokenTimeLock.sol:TokenTimeLock",
        "label": "_startDate",
        "offset": 20,
        "slot": "106",
        "type": "t_uint64"
      },
      {
        "astId": 3466,
        "contract": "contracts/token/TokenTimeLock.sol:TokenTimeLock",
        "label": "_nextReleaseIdx",
        "offset": 28,
        "slot": "106",
        "type": "t_uint32"
      },
      {
        "astId": 3469,
        "contract": "contracts/token/TokenTimeLock.sol:TokenTimeLock",
        "label": "_token",
        "offset": 0,
        "slot": "107",
        "type": "t_address"
      }
    ],
    "types": {
      "t_address": {
        "encoding": "inplace",
        "label": "address",
        "numberOfBytes": "20"
      },
      "t_array(t_uint256)49_storage": {
        "base": "t_uint256",
        "encoding": "inplace",
        "label": "uint256[49]",
        "numberOfBytes": "1568"
      },
      "t_array(t_uint256)50_storage": {
        "base": "t_uint256",
        "encoding": "inplace",
        "label": "uint256[50]",
        "numberOfBytes": "1600"
      },
      "t_array(t_uint32)dyn_storage": {
        "base": "t_uint32",
        "encoding": "dynamic_array",
        "label": "uint32[]",
        "numberOfBytes": "32"
      },
      "t_array(t_uint64)dyn_storage": {
        "base": "t_uint64",
        "encoding": "dynamic_array",
        "label": "uint64[]",
        "numberOfBytes": "32"
      },
      "t_bool": {
        "encoding": "inplace",
        "label": "bool",
        "numberOfBytes": "1"
      },
      "t_uint256": {
        "encoding": "inplace",
        "label": "uint256",
        "numberOfBytes": "32"
      },
      "t_uint32": {
        "encoding": "inplace",
        "label": "uint32",
        "numberOfBytes": "4"
      },
      "t_uint64": {
        "encoding": "inplace",
        "label": "uint64",
        "numberOfBytes": "8"
      }
    }
  }
}