{
  "address": "0xcb0b860CeD2bcB466E77d67AB5DdEC400A642829",
  "abi": [
    {
      "anonymous": false,
      "inputs": [
        {
          "indexed": true,
          "internalType": "address",
          "name": "previousOwner",
          "type": "address"
        },
        {
          "indexed": true,
          "internalType": "address",
          "name": "newOwner",
          "type": "address"
        }
      ],
      "name": "OwnershipTransferred",
      "type": "event"
    },
    {
      "anonymous": false,
      "inputs": [
        {
          "indexed": false,
          "internalType": "address",
          "name": "proxy",
          "type": "address"
        },
        {
          "indexed": false,
          "internalType": "address",
          "name": "implementation",
          "type": "address"
        },
        {
          "indexed": false,
          "internalType": "address",
          "name": "proxyOwner",
          "type": "address"
        }
      ],
      "name": "ProxyCreated",
      "type": "event"
    },
    {
      "inputs": [
        {
          "internalType": "address",
          "name": "owner_",
          "type": "address"
        },
        {
          "internalType": "address",
          "name": "lock",
          "type": "address"
        },
        {
          "internalType": "address",
          "name": "user_",
          "type": "address"
        },
        {
          "internalType": "address",
          "name": "token_",
          "type": "address"
        },
        {
          "internalType": "uint32[]",
          "name": "lockDurations_",
          "type": "uint32[]"
        },
        {
          "internalType": "uint256[]",
          "name": "releaseAmounts_",
          "type": "uint256[]"
        },
        {
          "internalType": "uint64",
          "name": "startDate_",
          "type": "uint64"
        }
      ],
      "name": "createProxy",
      "outputs": [
        {
          "internalType": "address",
          "name": "",
          "type": "address"
        }
      ],
      "stateMutability": "nonpayable",
      "type": "function"
    },
    {
      "inputs": [],
      "name": "owner",
      "outputs": [
        {
          "internalType": "address",
          "name": "",
          "type": "address"
        }
      ],
      "stateMutability": "view",
      "type": "function"
    },
    {
      "inputs": [],
      "name": "renounceOwnership",
      "outputs": [],
      "stateMutability": "nonpayable",
      "type": "function"
    },
    {
      "inputs": [
        {
          "internalType": "address",
          "name": "newOwner",
          "type": "address"
        }
      ],
      "name": "transferOwnership",
      "outputs": [],
      "stateMutability": "nonpayable",
      "type": "function"
    }
  ],
  "transactionHash": "0xb15ed3e076b16fe2c4848a953e96237abeff88d6497aa54f7b0e8be14b537176",
  "args": [],
  "solcInputHash": "21422a61bdf860c534b2d8d3ca91a90f",
  "bytecode": "0x608060405234801561001057600080fd5b5060006100216100c460201b60201c565b9050806000806101000a81548173ffffffffffffffffffffffffffffffffffffffff021916908373ffffffffffffffffffffffffffffffffffffffff1602179055508073ffffffffffffffffffffffffffffffffffffffff16600073ffffffffffffffffffffffffffffffffffffffff167f8be0079c531659141344cd1fd0a4f28419497f9722a3daafe3b4186f6b6457e060405160405180910390a3506100cc565b600033905090565b610d15806100db6000396000f3fe608060405234801561001057600080fd5b506004361061004c5760003560e01c80636300388914610051578063715018a6146100815780638da5cb5b1461008b578063f2fde38b146100a9575b600080fd5b61006b600480360381019061006691906106f7565b6100c5565b604051610078919061097c565b60405180910390f35b6100896101fd565b005b610093610337565b6040516100a0919061097c565b60405180910390f35b6100c360048036038101906100be91906106ce565b610360565b005b6000806100d18a610509565b905060008173ffffffffffffffffffffffffffffffffffffffff1663bf8626828d8c8c8c8c8c8c8c6040518963ffffffff1660e01b815260040161011c9897969594939291906109ce565b602060405180830381600087803b15801561013657600080fd5b505af115801561014a573d6000803e3d6000fd5b505050506040513d601f19601f8201168201806040525081019061016e91906107cd565b9050806101b0576040517f08c379a00000000000000000000000000000000000000000000000000000000081526004016101a790610aa1565b60405180910390fd5b7f5983cdcaa370320b76fe01a3a32a0430e6a13b9f47a55e806afb13b5aef95a12828c8e6040516101e393929190610997565b60405180910390a181925050509998505050505050505050565b6102056105de565b73ffffffffffffffffffffffffffffffffffffffff16610223610337565b73ffffffffffffffffffffffffffffffffffffffff1614610279576040517f08c379a000000000000000000000000000000000000000000000000000000000815260040161027090610a81565b60405180910390fd5b600073ffffffffffffffffffffffffffffffffffffffff1660008054906101000a900473ffffffffffffffffffffffffffffffffffffffff1673ffffffffffffffffffffffffffffffffffffffff167f8be0079c531659141344cd1fd0a4f28419497f9722a3daafe3b4186f6b6457e060405160405180910390a360008060006101000a81548173ffffffffffffffffffffffffffffffffffffffff021916908373ffffffffffffffffffffffffffffffffffffffff160217905550565b60008060009054906101000a900473ffffffffffffffffffffffffffffffffffffffff16905090565b6103686105de565b73ffffffffffffffffffffffffffffffffffffffff16610386610337565b73ffffffffffffffffffffffffffffffffffffffff16146103dc576040517f08c379a00000000000000000000000000000000000000000000000000000000081526004016103d390610a81565b60405180910390fd5b600073ffffffffffffffffffffffffffffffffffffffff168173ffffffffffffffffffffffffffffffffffffffff16141561044c576040517f08c379a000000000000000000000000000000000000000000000000000000000815260040161044390610a41565b60405180910390fd5b8073ffffffffffffffffffffffffffffffffffffffff1660008054906101000a900473ffffffffffffffffffffffffffffffffffffffff1673ffffffffffffffffffffffffffffffffffffffff167f8be0079c531659141344cd1fd0a4f28419497f9722a3daafe3b4186f6b6457e060405160405180910390a3806000806101000a81548173ffffffffffffffffffffffffffffffffffffffff021916908373ffffffffffffffffffffffffffffffffffffffff16021790555050565b60006040517f3d602d80600a3d3981f3363d3d373d3d3d363d7300000000000000000000000081528260601b60148201527f5af43d82803e903d91602b57fd5bf3000000000000000000000000000000000060288201526037816000f0915050600073ffffffffffffffffffffffffffffffffffffffff168173ffffffffffffffffffffffffffffffffffffffff1614156105d9576040517f08c379a00000000000000000000000000000000000000000000000000000000081526004016105d090610a61565b60405180910390fd5b919050565b600033905090565b6000813590506105f581610c83565b92915050565b60008083601f84011261060d57600080fd5b8235905067ffffffffffffffff81111561062657600080fd5b60208301915083602082028301111561063e57600080fd5b9250929050565b60008083601f84011261065757600080fd5b8235905067ffffffffffffffff81111561067057600080fd5b60208301915083602082028301111561068857600080fd5b9250929050565b60008151905061069e81610c9a565b92915050565b6000813590506106b381610cb1565b92915050565b6000813590506106c881610cc8565b92915050565b6000602082840312156106e057600080fd5b60006106ee848285016105e6565b91505092915050565b600080600080600080600080600060e08a8c03121561071557600080fd5b60006107238c828d016105e6565b99505060206107348c828d016105e6565b98505060406107458c828d016105e6565b97505060606107568c828d016105e6565b96505060808a013567ffffffffffffffff81111561077357600080fd5b61077f8c828d01610645565b955095505060a08a013567ffffffffffffffff81111561079e57600080fd5b6107aa8c828d016105fb565b935093505060c06107bd8c828d016106b9565b9150509295985092959850929598565b6000602082840312156107df57600080fd5b60006107ed8482850161068f565b91505092915050565b6000610802838361095e565b60208301905092915050565b61081781610b22565b82525050565b60006108298385610ad8565b93507f07ffffffffffffffffffffffffffffffffffffffffffffffffffffffffffffff83111561085857600080fd5b602083029250610869838584610b84565b82840190509392505050565b60006108818385610ae9565b935061088c82610ac1565b8060005b858110156108c5576108a28284610b0b565b6108ac88826107f6565b97506108b783610acb565b925050600181019050610890565b5085925050509392505050565b60006108df602683610afa565b91506108ea82610b93565b604082019050919050565b6000610902601683610afa565b915061090d82610be2565b602082019050919050565b6000610925602083610afa565b915061093082610c0b565b602082019050919050565b6000610948602783610afa565b915061095382610c34565b604082019050919050565b61096781610b60565b82525050565b61097681610b70565b82525050565b6000602082019050610991600083018461080e565b92915050565b60006060820190506109ac600083018661080e565b6109b9602083018561080e565b6109c6604083018461080e565b949350505050565b600060c0820190506109e3600083018b61080e565b6109f0602083018a61080e565b6109fd604083018961080e565b8181036060830152610a10818789610875565b90508181036080830152610a2581858761081d565b9050610a3460a083018461096d565b9998505050505050505050565b60006020820190508181036000830152610a5a816108d2565b9050919050565b60006020820190508181036000830152610a7a816108f5565b9050919050565b60006020820190508181036000830152610a9a81610918565b9050919050565b60006020820190508181036000830152610aba8161093b565b9050919050565b6000819050919050565b6000602082019050919050565b600082825260208201905092915050565b600082825260208201905092915050565b600082825260208201905092915050565b6000610b1a60208401846106a4565b905092915050565b6000610b2d82610b40565b9050919050565b60008115159050919050565b600073ffffffffffffffffffffffffffffffffffffffff82169050919050565b600063ffffffff82169050919050565b600067ffffffffffffffff82169050919050565b82818337600083830152505050565b7f4f776e61626c653a206e6577206f776e657220697320746865207a65726f206160008201527f6464726573730000000000000000000000000000000000000000000000000000602082015250565b7f455243313136373a20637265617465206661696c656400000000000000000000600082015250565b7f4f776e61626c653a2063616c6c6572206973206e6f7420746865206f776e6572600082015250565b7f546f6b656e54696d654c6f636b4279416d6f756e7450726f78793a2063616e2760008201527f7420736574757000000000000000000000000000000000000000000000000000602082015250565b610c8c81610b22565b8114610c9757600080fd5b50565b610ca381610b34565b8114610cae57600080fd5b50565b610cba81610b60565b8114610cc557600080fd5b50565b610cd181610b70565b8114610cdc57600080fd5b5056fea2646970667358221220b41c4908f28fc1fb03f85d7b967365bce8347275c21eb2e2535e73b9b6f013ab64736f6c63430008040033",
  "devdoc": {
    "kind": "dev",
    "methods": {
      "owner()": {
        "details": "Returns the address of the current owner."
      },
      "renounceOwnership()": {
        "details": "Leaves the contract without owner. It will not be possible to call `onlyOwner` functions anymore. Can only be called by the current owner. NOTE: Renouncing ownership will leave the contract without an owner, thereby removing any functionality that is only available to the owner."
      },
      "transferOwnership(address)": {
        "details": "Transfers ownership of the contract to a new account (`newOwner`). Can only be called by the current owner."
      }
    },
    "version": 1
  },
  "userdoc": {
    "kind": "user",
    "methods": {},
    "version": 1
  },
  "storageLayout": {
    "storage": [
      {
        "astId": 229,
        "contract": "contracts/token/TokenTimeLockByAmountProxyFactory.sol:TokenTimeLockByAmountProxyFactory",
        "label": "_owner",
        "offset": 0,
        "slot": "0",
        "type": "t_address"
      }
    ],
    "types": {
      "t_address": {
        "encoding": "inplace",
        "label": "address",
        "numberOfBytes": "20"
      }
    }
  }
}