{
  "address": "0x53c57544152BaB8e8e9415dC672b2725a7Ad36fF",
  "abi": [
    {
      "inputs": [
        {
          "internalType": "contract IBEP20",
          "name": "token_",
          "type": "address"
        }
      ],
      "stateMutability": "nonpayable",
      "type": "constructor"
    },
    {
      "anonymous": false,
      "inputs": [
        {
          "indexed": true,
          "internalType": "address",
          "name": "previousOwner",
          "type": "address"
        },
        {
          "indexed": true,
          "internalType": "address",
          "name": "newOwner",
          "type": "address"
        }
      ],
      "name": "OwnershipTransferred",
      "type": "event"
    },
    {
      "inputs": [
        {
          "internalType": "address",
          "name": "user_",
          "type": "address"
        },
        {
          "internalType": "string",
          "name": "lockId_",
          "type": "string"
        }
      ],
      "name": "getLock",
      "outputs": [
        {
          "components": [
            {
              "internalType": "string",
              "name": "lockId",
              "type": "string"
            },
            {
              "internalType": "uint256",
              "name": "amount",
              "type": "uint256"
            },
            {
              "internalType": "uint256",
              "name": "withdrawnAmount",
              "type": "uint256"
            },
            {
              "internalType": "uint32[]",
              "name": "unlockDates",
              "type": "uint32[]"
            },
            {
              "internalType": "uint32[]",
              "name": "unlockPercents",
              "type": "uint32[]"
            },
            {
              "internalType": "uint64",
              "name": "startTimestamp",
              "type": "uint64"
            },
            {
              "internalType": "uint32",
              "name": "nextUnlockIdx",
              "type": "uint32"
            },
            {
              "internalType": "bool",
              "name": "alreadyExists",
              "type": "bool"
            }
          ],
          "internalType": "struct TokenPhaseLock.PhaseLock",
          "name": "",
          "type": "tuple"
        }
      ],
      "stateMutability": "view",
      "type": "function"
    },
    {
      "inputs": [
        {
          "internalType": "contract IBEP20",
          "name": "token_",
          "type": "address"
        }
      ],
      "name": "initialize",
      "outputs": [],
      "stateMutability": "nonpayable",
      "type": "function"
    },
    {
      "inputs": [],
      "name": "owner",
      "outputs": [
        {
          "internalType": "address",
          "name": "",
          "type": "address"
        }
      ],
      "stateMutability": "view",
      "type": "function"
    },
    {
      "inputs": [
        {
          "internalType": "address",
          "name": "user",
          "type": "address"
        },
        {
          "internalType": "string",
          "name": "lockId",
          "type": "string"
        },
        {
          "internalType": "uint256",
          "name": "amount",
          "type": "uint256"
        },
        {
          "internalType": "uint32[]",
          "name": "unlockDates",
          "type": "uint32[]"
        },
        {
          "internalType": "uint32[]",
          "name": "unlockPercents",
          "type": "uint32[]"
        },
        {
          "internalType": "uint64",
          "name": "startTimestamp",
          "type": "uint64"
        }
      ],
      "name": "registerNewLock",
      "outputs": [
        {
          "internalType": "bool",
          "name": "",
          "type": "bool"
        }
      ],
      "stateMutability": "nonpayable",
      "type": "function"
    },
    {
      "inputs": [
        {
          "internalType": "string",
          "name": "lockId",
          "type": "string"
        }
      ],
      "name": "release",
      "outputs": [
        {
          "internalType": "bool",
          "name": "",
          "type": "bool"
        }
      ],
      "stateMutability": "nonpayable",
      "type": "function"
    },
    {
      "inputs": [],
      "name": "renounceOwnership",
      "outputs": [],
      "stateMutability": "nonpayable",
      "type": "function"
    },
    {
      "inputs": [],
      "name": "token",
      "outputs": [
        {
          "internalType": "contract IBEP20",
          "name": "",
          "type": "address"
        }
      ],
      "stateMutability": "view",
      "type": "function"
    },
    {
      "inputs": [
        {
          "internalType": "address",
          "name": "newOwner",
          "type": "address"
        }
      ],
      "name": "transferOwnership",
      "outputs": [],
      "stateMutability": "nonpayable",
      "type": "function"
    }
  ],
  "transactionHash": "0xbd1abcc5a3bbddc3f5475099b2215db9e9ddb605b1b56e533199f66d4be66903",
  "args": [
    "0x1586e1861F5aA125d7659C9bbefaD4E322b4e304"
  ],
  "solcInputHash": "52b3d3b9f5171f05b377c6b94849c74c",
  "bytecode": "0x60806040523480156200001157600080fd5b5060405162001c7c38038062001c7c833981016040819052620000349162000171565b600080546001600160a01b031916339081178255604051909182917f8be0079c531659141344cd1fd0a4f28419497f9722a3daafe3b4186f6b6457e0908290a350620000808162000087565b50620001a1565b600054600160a81b900460ff1680620000aa5750600054600160a01b900460ff16155b620001125760405162461bcd60e51b815260206004820152602e60248201527f496e697469616c697a61626c653a20636f6e747261637420697320616c72656160448201526d191e481a5b9a5d1a585b1a5e995960921b606482015260840160405180910390fd5b600054600160a81b900460ff161580156200013d576000805461ffff60a01b191661010160a01b1790555b600280546001600160a01b0319166001600160a01b03841617905580156200016d576000805460ff60a81b191690555b5050565b60006020828403121562000183578081fd5b81516001600160a01b03811681146200019a578182fd5b9392505050565b611acb80620001b16000396000f3fe608060405234801561001057600080fd5b50600436106100885760003560e01c8063c4d66de81161005b578063c4d66de814610104578063f2fde38b14610117578063f34e37231461012a578063fc0c546a1461013d57600080fd5b80630bf623f41461008d578063715018a6146100b557806375de8300146100bf5780638da5cb5b146100df575b600080fd5b6100a061009b36600461161d565b61014e565b60405190151581526020015b60405180910390f35b6100bd610447565b005b6100d26100cd3660046115cf565b6104f8565b6040516100ac91906117dc565b6000546001600160a01b03165b6040516001600160a01b0390911681526020016100ac565b6100bd6101123660046115b3565b610785565b6100bd6101253660046115b3565b6108da565b6100a06101383660046116f6565b610a18565b6002546001600160a01b03166100ec565b600080546001600160a01b031633146101ae5760405162461bcd60e51b815260206004820181905260248201527f4f776e61626c653a2063616c6c6572206973206e6f7420746865206f776e657260448201526064015b60405180910390fd5b6001600160a01b0387166000908152600160205260409081902090516101d59088906117ad565b9081526040519081900360200190206005015460ff600160601b90910416156102405760405162461bcd60e51b815260206004820152601b60248201527f546f6b656e50686173654c6f636b3a20647570206c6f636b206964000000000060448201526064016101a5565b82518451146102b75760405162461bcd60e51b815260206004820152602760248201527f546f6b656e50686173654c6f636b3a20756e6c6f636b206c656e677468206e6f60448201527f74206d617463680000000000000000000000000000000000000000000000000060648201526084016101a5565b6000805b845181101561030f578481815181106102e457634e487b7160e01b600052603260045260246000fd5b602002602001015163ffffffff16826102fd91906118c3565b9150610308816119e8565b90506102bb565b50806064146103865760405162461bcd60e51b815260206004820152602c60248201527f546f6b656e50686173654c6f636b3a20756e6c6f636b2070657263656e74206e60448201527f6f74206d6174636820313030000000000000000000000000000000000000000060648201526084016101a5565b6001600160a01b03881660009081526001602052604080822090516103ac908a906117ad565b90815260200160405180910390209050878160000190805190602001906103d4929190611375565b50600181018790556000600282015585516103f890600383019060208901906113f9565b50845161040e90600483019060208801906113f9565b5060050180546cffffffffffffffffffffffffff191667ffffffffffffffff851617600160601b17905550600190509695505050505050565b6000546001600160a01b031633146104a15760405162461bcd60e51b815260206004820181905260248201527f4f776e61626c653a2063616c6c6572206973206e6f7420746865206f776e657260448201526064016101a5565b600080546040516001600160a01b03909116907f8be0079c531659141344cd1fd0a4f28419497f9722a3daafe3b4186f6b6457e0908390a36000805473ffffffffffffffffffffffffffffffffffffffff19169055565b6105526040518061010001604052806060815260200160008152602001600081526020016060815260200160608152602001600067ffffffffffffffff168152602001600063ffffffff1681526020016000151581525090565b6001600160a01b03831660009081526001602052604080822090516105789085906117ad565b9081526020016040518091039020905080604051806101000160405290816000820180546105a5906119ad565b80601f01602080910402602001604051908101604052809291908181526020018280546105d1906119ad565b801561061e5780601f106105f35761010080835404028352916020019161061e565b820191906000526020600020905b81548152906001019060200180831161060157829003601f168201915b505050505081526020016001820154815260200160028201548152602001600382018054806020026020016040519081016040528092919081815260200182805480156106b657602002820191906000526020600020906000905b82829054906101000a900463ffffffff1663ffffffff16815260200190600401906020826003010492830192600103820291508084116106795790505b505050505081526020016004820180548060200260200160405190810160405280929190818152602001828054801561073a57602002820191906000526020600020906000905b82829054906101000a900463ffffffff1663ffffffff16815260200190600401906020826003010492830192600103820291508084116106fd5790505b50505091835250506005919091015467ffffffffffffffff81166020830152600160401b810463ffffffff166040830152600160601b900460ff161515606090910152949350505050565b600054600160a81b900460ff16806107b8575060005474010000000000000000000000000000000000000000900460ff16155b61082a5760405162461bcd60e51b815260206004820152602e60248201527f496e697469616c697a61626c653a20636f6e747261637420697320616c72656160448201527f647920696e697469616c697a656400000000000000000000000000000000000060648201526084016101a5565b600054600160a81b900460ff1615801561087f57600080547fffffffffffffffffffff0000ffffffffffffffffffffffffffffffffffffffff1675010100000000000000000000000000000000000000001790555b6002805473ffffffffffffffffffffffffffffffffffffffff19166001600160a01b03841617905580156108d657600080547fffffffffffffffffffff00ffffffffffffffffffffffffffffffffffffffffff1690555b5050565b6000546001600160a01b031633146109345760405162461bcd60e51b815260206004820181905260248201527f4f776e61626c653a2063616c6c6572206973206e6f7420746865206f776e657260448201526064016101a5565b6001600160a01b0381166109b05760405162461bcd60e51b815260206004820152602660248201527f4f776e61626c653a206e6577206f776e657220697320746865207a65726f206160448201527f646472657373000000000000000000000000000000000000000000000000000060648201526084016101a5565b600080546040516001600160a01b03808516939216917f8be0079c531659141344cd1fd0a4f28419497f9722a3daafe3b4186f6b6457e091a36000805473ffffffffffffffffffffffffffffffffffffffff19166001600160a01b0392909216919091179055565b336000908152600160205260408082209051829190610a389085906117ad565b908152604051908190036020019020600481015460058201549192509060ff600160601b90910416610aac5760405162461bcd60e51b815260206004820152601f60248201527f546f6b656e50686173654c6f636b3a206c6f636b206e6f74206578697374730060448201526064016101a5565b6005820154600160401b900463ffffffff168111610b325760405162461bcd60e51b815260206004820152602760248201527f546f6b656e50686173654c6f636b3a20616c6c2070686173657320617265207260448201527f656c65617365640000000000000000000000000000000000000000000000000060648201526084016101a5565b60058201546003830180549091600160401b900463ffffffff16908110610b6957634e487b7160e01b600052603260045260246000fd5b90600052602060002090600891828204019190066004029054906101000a900463ffffffff1662015180610b9d919061193a565b6005830154610bbc9163ffffffff169067ffffffffffffffff166118db565b67ffffffffffffffff16421015610c3b5760405162461bcd60e51b815260206004820152602660248201527f546f6b656e50686173654c6f636b3a206e65787420706861736520756e61766160448201527f696c61626c65000000000000000000000000000000000000000000000000000060648201526084016101a5565b60005b6005830154600160401b900463ffffffff1682118015610cf1575060058301546003840180549091600160401b900463ffffffff16908110610c9057634e487b7160e01b600052603260045260246000fd5b90600052602060002090600891828204019190066004029054906101000a900463ffffffff1662015180610cc4919061193a565b6005840154610ce39163ffffffff169067ffffffffffffffff166118db565b67ffffffffffffffff164210155b15610e03576000610d03600184611966565b6005850154600160401b900463ffffffff161415610d41578184600201548560010154610d309190611966565b610d3a9190611966565b9050610db1565b6005840154600485018054610dae92600160401b900463ffffffff16908110610d7a57634e487b7160e01b600052603260045260246000fd5b600091825260209091206008820401546001870154916007166004026101000a900463ffffffff90811690606490610f6d16565b90505b610dbb81836118c3565b600585018054919350600160401b90910463ffffffff16906008610dde83611a03565b91906101000a81548163ffffffff021916908363ffffffff1602179055505050610c3e565b6000610e176002546001600160a01b031690565b6040517f70a082310000000000000000000000000000000000000000000000000000000081523060048201526001600160a01b0391909116906370a082319060240160206040518083038186803b158015610e7157600080fd5b505afa158015610e85573d6000803e3d6000fd5b505050506040513d601f19601f82011682018060405250810190610ea99190611729565b905081811015610f205760405162461bcd60e51b8152602060048201526024808201527f546f6b656e50686173654c6f636b3a20696e73756666696369656e742062616c60448201527f616e63650000000000000000000000000000000000000000000000000000000060648201526084016101a5565b81846002016000828254610f3491906118c3565b90915550610f6190503383610f516002546001600160a01b031690565b6001600160a01b0316919061107c565b50600195945050505050565b600080610f8c6fffffffffffffffffffffffffffffffff841686611907565b90506000610fac6fffffffffffffffffffffffffffffffff851687611a27565b90506000610fcc6fffffffffffffffffffffffffffffffff861687611907565b90506000610fec6fffffffffffffffffffffffffffffffff871688611a27565b90506fffffffffffffffffffffffffffffffff861661100b828561191b565b6110159190611907565b61101f838561191b565b611029838761191b565b6fffffffffffffffffffffffffffffffff8916611046868961191b565b611050919061191b565b61105a91906118c3565b61106491906118c3565b61106e91906118c3565b9450505050505b9392505050565b604080516001600160a01b038416602482015260448082018490528251808303909101815260649091019091526020810180517bffffffffffffffffffffffffffffffffffffffffffffffffffffffff167fa9059cbb000000000000000000000000000000000000000000000000000000001790526110fc908490611101565b505050565b6000611156826040518060400160405280602081526020017f5361666542455032303a206c6f772d6c6576656c2063616c6c206661696c6564815250856001600160a01b03166111e69092919063ffffffff16565b8051909150156110fc578080602001905181019061117491906116d6565b6110fc5760405162461bcd60e51b815260206004820152602a60248201527f5361666542455032303a204245503230206f7065726174696f6e20646964206e60448201527f6f7420737563636565640000000000000000000000000000000000000000000060648201526084016101a5565b60606111f584846000856111fd565b949350505050565b6060824710156112755760405162461bcd60e51b815260206004820152602660248201527f416464726573733a20696e73756666696369656e742062616c616e636520666f60448201527f722063616c6c000000000000000000000000000000000000000000000000000060648201526084016101a5565b843b6112c35760405162461bcd60e51b815260206004820152601d60248201527f416464726573733a2063616c6c20746f206e6f6e2d636f6e747261637400000060448201526064016101a5565b600080866001600160a01b031685876040516112df91906117ad565b60006040518083038185875af1925050503d806000811461131c576040519150601f19603f3d011682016040523d82523d6000602084013e611321565b606091505b509150915061133182828661133c565b979650505050505050565b6060831561134b575081611075565b82511561135b5782518084602001fd5b8160405162461bcd60e51b81526004016101a591906117c9565b828054611381906119ad565b90600052602060002090601f0160209004810192826113a357600085556113e9565b82601f106113bc57805160ff19168380011785556113e9565b828001600101855582156113e9579182015b828111156113e95782518255916020019190600101906113ce565b506113f592915061149f565b5090565b828054828255906000526020600020906007016008900481019282156113e95791602002820160005b8382111561146657835183826101000a81548163ffffffff021916908363ffffffff1602179055509260200192600401602081600301049283019260010302611422565b80156114965782816101000a81549063ffffffff0219169055600401602081600301049283019260010302611466565b50506113f59291505b5b808211156113f557600081556001016114a0565b600082601f8301126114c4578081fd5b8135602067ffffffffffffffff8211156114e0576114e0611a67565b8160051b6114ef828201611892565b838152828101908684018388018501891015611509578687fd5b8693505b8584101561153c57803563ffffffff81168114611528578788fd5b83526001939093019291840191840161150d565b50979650505050505050565b600082601f830112611558578081fd5b813567ffffffffffffffff81111561157257611572611a67565b611585601f8201601f1916602001611892565b818152846020838601011115611599578283fd5b816020850160208301379081016020019190915292915050565b6000602082840312156115c4578081fd5b813561107581611a7d565b600080604083850312156115e1578081fd5b82356115ec81611a7d565b9150602083013567ffffffffffffffff811115611607578182fd5b61161385828601611548565b9150509250929050565b60008060008060008060c08789031215611635578182fd5b863561164081611a7d565b9550602087013567ffffffffffffffff8082111561165c578384fd5b6116688a838b01611548565b9650604089013595506060890135915080821115611684578384fd5b6116908a838b016114b4565b945060808901359150808211156116a5578384fd5b6116b18a838b016114b4565b935060a0890135915080821682146116c7578283fd5b50809150509295509295509295565b6000602082840312156116e7578081fd5b81518015158114611075578182fd5b600060208284031215611707578081fd5b813567ffffffffffffffff81111561171d578182fd5b6111f584828501611548565b60006020828403121561173a578081fd5b5051919050565b6000815180845260208085019450808401835b8381101561177657815163ffffffff1687529582019590820190600101611754565b509495945050505050565b6000815180845261179981602086016020860161197d565b601f01601f19169290920160200192915050565b600082516117bf81846020870161197d565b9190910192915050565b6020815260006110756020830184611781565b60208152600082516101008060208501526117fb610120850183611781565b915060208501516040850152604085015160608501526060850151601f198086850301608087015261182d8483611741565b935060808701519150808685030160a08701525061184b8382611741565b92505060a085015161186960c086018267ffffffffffffffff169052565b5060c085015163ffffffff811660e08601525060e0850151801515858301525090949350505050565b604051601f8201601f1916810167ffffffffffffffff811182821017156118bb576118bb611a67565b604052919050565b600082198211156118d6576118d6611a3b565b500190565b600067ffffffffffffffff8083168185168083038211156118fe576118fe611a3b565b01949350505050565b60008261191657611916611a51565b500490565b600081600019048311821515161561193557611935611a3b565b500290565b600063ffffffff8083168185168183048111821515161561195d5761195d611a3b565b02949350505050565b60008282101561197857611978611a3b565b500390565b60005b83811015611998578181015183820152602001611980565b838111156119a7576000848401525b50505050565b600181811c908216806119c157607f821691505b602082108114156119e257634e487b7160e01b600052602260045260246000fd5b50919050565b60006000198214156119fc576119fc611a3b565b5060010190565b600063ffffffff80831681811415611a1d57611a1d611a3b565b6001019392505050565b600082611a3657611a36611a51565b500690565b634e487b7160e01b600052601160045260246000fd5b634e487b7160e01b600052601260045260246000fd5b634e487b7160e01b600052604160045260246000fd5b6001600160a01b0381168114611a9257600080fd5b5056fea2646970667358221220be83fc4530220d9b2429820a4ebc732cf5877a06143280c2463b5afc5b14286864736f6c63430008040033",
  "devdoc": {
    "kind": "dev",
    "methods": {
      "getLock(address,string)": {
        "returns": {
          "_0": ""
        }
      },
      "owner()": {
        "details": "Returns the address of the current owner."
      },
      "registerNewLock(address,string,uint256,uint32[],uint32[],uint64)": {
        "details": "Each user can have multiple locks identified by lock id. Reverts in the following cases: - Duplicated lock id for a user. - `unlockDates` and `unlockPercents` length don't match. - `unlockPercents` sum is not equal to 100 (100%).",
        "params": {
          "amount": "amount of tokens to be locked.",
          "lockId": "lock id representing the lock.",
          "unlockDates": "an array of durations (in days) that some amount of locked tokens to be unlocked.",
          "unlockPercents": "an array of percentages of total locked tokens to be unlocked at corresponding `unlockDates`.",
          "user": "user receiving tokens when they are unlocked."
        },
        "returns": {
          "_0": "Return `true` if register successfully, otherwise `false`."
        }
      },
      "release(string)": {
        "details": "User (sender) can withdraw unlocked tokens by calling this function. This function will release locked tokens from multiple lock phases that meets unlock requirements Reverts in the following cases: - Lock id not exists - No tokens to be withdrawn including:     + All lock phases are already released     + Do not meet next unlock requirements - Amount of tokens that this smart contract holds is insufficient. In this case, users should contact the owner of the token.",
        "params": {
          "lockId": "Lock id that users want to withdraw"
        },
        "returns": {
          "_0": "Return `true` if succeeds, otherwise `false`"
        }
      },
      "renounceOwnership()": {
        "details": "Leaves the contract without owner. It will not be possible to call `onlyOwner` functions anymore. Can only be called by the current owner. NOTE: Renouncing ownership will leave the contract without an owner, thereby removing any functionality that is only available to the owner."
      },
      "token()": {
        "returns": {
          "_0": "Token being held"
        }
      },
      "transferOwnership(address)": {
        "details": "Transfers ownership of the contract to a new account (`newOwner`). Can only be called by the current owner."
      }
    },
    "version": 1
  },
  "userdoc": {
    "kind": "user",
    "methods": {
      "registerNewLock(address,string,uint256,uint32[],uint32[],uint64)": {
        "notice": "Register a new lock for a user"
      },
      "release(string)": {
        "notice": "Withdraw unlocked tokens to user."
      }
    },
    "version": 1
  },
  "storageLayout": {
    "storage": [
      {
        "astId": 7,
        "contract": "contracts/token/BEP20/TokenPhaseLock.sol:TokenPhaseLock",
        "label": "_owner",
        "offset": 0,
        "slot": "0",
        "type": "t_address"
      },
      {
        "astId": 115,
        "contract": "contracts/token/BEP20/TokenPhaseLock.sol:TokenPhaseLock",
        "label": "_initialized",
        "offset": 20,
        "slot": "0",
        "type": "t_bool"
      },
      {
        "astId": 118,
        "contract": "contracts/token/BEP20/TokenPhaseLock.sol:TokenPhaseLock",
        "label": "_initializing",
        "offset": 21,
        "slot": "0",
        "type": "t_bool"
      },
      {
        "astId": 1600,
        "contract": "contracts/token/BEP20/TokenPhaseLock.sol:TokenPhaseLock",
        "label": "_phaseLocks",
        "offset": 0,
        "slot": "1",
        "type": "t_mapping(t_address,t_mapping(t_string_memory_ptr,t_struct(PhaseLock)1622_storage))"
      },
      {
        "astId": 1603,
        "contract": "contracts/token/BEP20/TokenPhaseLock.sol:TokenPhaseLock",
        "label": "_token",
        "offset": 0,
        "slot": "2",
        "type": "t_contract(IBEP20)1346"
      }
    ],
    "types": {
      "t_address": {
        "encoding": "inplace",
        "label": "address",
        "numberOfBytes": "20"
      },
      "t_array(t_uint32)dyn_storage": {
        "base": "t_uint32",
        "encoding": "dynamic_array",
        "label": "uint32[]",
        "numberOfBytes": "32"
      },
      "t_bool": {
        "encoding": "inplace",
        "label": "bool",
        "numberOfBytes": "1"
      },
      "t_contract(IBEP20)1346": {
        "encoding": "inplace",
        "label": "contract IBEP20",
        "numberOfBytes": "20"
      },
      "t_mapping(t_address,t_mapping(t_string_memory_ptr,t_struct(PhaseLock)1622_storage))": {
        "encoding": "mapping",
        "key": "t_address",
        "label": "mapping(address => mapping(string => struct TokenPhaseLock.PhaseLock))",
        "numberOfBytes": "32",
        "value": "t_mapping(t_string_memory_ptr,t_struct(PhaseLock)1622_storage)"
      },
      "t_mapping(t_string_memory_ptr,t_struct(PhaseLock)1622_storage)": {
        "encoding": "mapping",
        "key": "t_string_memory_ptr",
        "label": "mapping(string => struct TokenPhaseLock.PhaseLock)",
        "numberOfBytes": "32",
        "value": "t_struct(PhaseLock)1622_storage"
      },
      "t_string_memory_ptr": {
        "encoding": "bytes",
        "label": "string",
        "numberOfBytes": "32"
      },
      "t_string_storage": {
        "encoding": "bytes",
        "label": "string",
        "numberOfBytes": "32"
      },
      "t_struct(PhaseLock)1622_storage": {
        "encoding": "inplace",
        "label": "struct TokenPhaseLock.PhaseLock",
        "members": [
          {
            "astId": 1605,
            "contract": "contracts/token/BEP20/TokenPhaseLock.sol:TokenPhaseLock",
            "label": "lockId",
            "offset": 0,
            "slot": "0",
            "type": "t_string_storage"
          },
          {
            "astId": 1607,
            "contract": "contracts/token/BEP20/TokenPhaseLock.sol:TokenPhaseLock",
            "label": "amount",
            "offset": 0,
            "slot": "1",
            "type": "t_uint256"
          },
          {
            "astId": 1609,
            "contract": "contracts/token/BEP20/TokenPhaseLock.sol:TokenPhaseLock",
            "label": "withdrawnAmount",
            "offset": 0,
            "slot": "2",
            "type": "t_uint256"
          },
          {
            "astId": 1612,
            "contract": "contracts/token/BEP20/TokenPhaseLock.sol:TokenPhaseLock",
            "label": "unlockDates",
            "offset": 0,
            "slot": "3",
            "type": "t_array(t_uint32)dyn_storage"
          },
          {
            "astId": 1615,
            "contract": "contracts/token/BEP20/TokenPhaseLock.sol:TokenPhaseLock",
            "label": "unlockPercents",
            "offset": 0,
            "slot": "4",
            "type": "t_array(t_uint32)dyn_storage"
          },
          {
            "astId": 1617,
            "contract": "contracts/token/BEP20/TokenPhaseLock.sol:TokenPhaseLock",
            "label": "startTimestamp",
            "offset": 0,
            "slot": "5",
            "type": "t_uint64"
          },
          {
            "astId": 1619,
            "contract": "contracts/token/BEP20/TokenPhaseLock.sol:TokenPhaseLock",
            "label": "nextUnlockIdx",
            "offset": 8,
            "slot": "5",
            "type": "t_uint32"
          },
          {
            "astId": 1621,
            "contract": "contracts/token/BEP20/TokenPhaseLock.sol:TokenPhaseLock",
            "label": "alreadyExists",
            "offset": 12,
            "slot": "5",
            "type": "t_bool"
          }
        ],
        "numberOfBytes": "192"
      },
      "t_uint256": {
        "encoding": "inplace",
        "label": "uint256",
        "numberOfBytes": "32"
      },
      "t_uint32": {
        "encoding": "inplace",
        "label": "uint32",
        "numberOfBytes": "4"
      },
      "t_uint64": {
        "encoding": "inplace",
        "label": "uint64",
        "numberOfBytes": "8"
      }
    }
  }
}