{
  "address": "0x7f8208a876Df4024b1C8424953BeCf277Ed34374",
  "abi": [
    {
      "anonymous": false,
      "inputs": [
        {
          "indexed": true,
          "internalType": "address",
          "name": "previousOwner",
          "type": "address"
        },
        {
          "indexed": true,
          "internalType": "address",
          "name": "newOwner",
          "type": "address"
        }
      ],
      "name": "OwnershipTransferred",
      "type": "event"
    },
    {
      "anonymous": false,
      "inputs": [
        {
          "indexed": false,
          "internalType": "address",
          "name": "proxy",
          "type": "address"
        },
        {
          "indexed": false,
          "internalType": "address",
          "name": "implementation",
          "type": "address"
        },
        {
          "indexed": false,
          "internalType": "address",
          "name": "proxyOwner",
          "type": "address"
        }
      ],
      "name": "ProxyCreated",
      "type": "event"
    },
    {
      "inputs": [
        {
          "internalType": "address",
          "name": "owner_",
          "type": "address"
        },
        {
          "internalType": "address",
          "name": "lock",
          "type": "address"
        },
        {
          "internalType": "address",
          "name": "user_",
          "type": "address"
        },
        {
          "internalType": "address",
          "name": "token_",
          "type": "address"
        },
        {
          "internalType": "uint256",
          "name": "amount_",
          "type": "uint256"
        },
        {
          "internalType": "uint32[]",
          "name": "lockDurations_",
          "type": "uint32[]"
        },
        {
          "internalType": "uint32[]",
          "name": "releasePercents_",
          "type": "uint32[]"
        },
        {
          "internalType": "uint64",
          "name": "startDate_",
          "type": "uint64"
        }
      ],
      "name": "createProxy",
      "outputs": [
        {
          "internalType": "address",
          "name": "",
          "type": "address"
        }
      ],
      "stateMutability": "nonpayable",
      "type": "function"
    },
    {
      "inputs": [],
      "name": "owner",
      "outputs": [
        {
          "internalType": "address",
          "name": "",
          "type": "address"
        }
      ],
      "stateMutability": "view",
      "type": "function"
    },
    {
      "inputs": [],
      "name": "renounceOwnership",
      "outputs": [],
      "stateMutability": "nonpayable",
      "type": "function"
    },
    {
      "inputs": [
        {
          "internalType": "address",
          "name": "newOwner",
          "type": "address"
        }
      ],
      "name": "transferOwnership",
      "outputs": [],
      "stateMutability": "nonpayable",
      "type": "function"
    }
  ],
  "transactionHash": "0xc255726f70c1e43947f71afbe5a069f82474bb7eb225277b319c820b218fae83",
  "args": [],
  "solcInputHash": "1ed0d87acc1e7f75c21212e986aef4c0",
  "bytecode": "0x608060405234801561001057600080fd5b5060006100216100c460201b60201c565b9050806000806101000a81548173ffffffffffffffffffffffffffffffffffffffff021916908373ffffffffffffffffffffffffffffffffffffffff1602179055508073ffffffffffffffffffffffffffffffffffffffff16600073ffffffffffffffffffffffffffffffffffffffff167f8be0079c531659141344cd1fd0a4f28419497f9722a3daafe3b4186f6b6457e060405160405180910390a3506100cc565b600033905090565b610c98806100db6000396000f3fe608060405234801561001057600080fd5b506004361061004c5760003560e01c806306f50c8d14610051578063715018a6146100815780638da5cb5b1461008b578063f2fde38b146100a9575b600080fd5b61006b600480360381019061006691906106c5565b6100c5565b6040516100789190610916565b60405180910390f35b610089610200565b005b61009361033a565b6040516100a09190610916565b60405180910390f35b6100c360048036038101906100be919061069c565b610363565b005b6000806100d18b61050c565b905060008173ffffffffffffffffffffffffffffffffffffffff16630b32dc5b8e8d8d8d8d8d8d8d8d6040518a63ffffffff1660e01b815260040161011e99989796959493929190610968565b602060405180830381600087803b15801561013857600080fd5b505af115801561014c573d6000803e3d6000fd5b505050506040513d601f19601f8201168201806040525081019061017091906107b0565b9050806101b2576040517f08c379a00000000000000000000000000000000000000000000000000000000081526004016101a990610a09565b60405180910390fd5b7f5983cdcaa370320b76fe01a3a32a0430e6a13b9f47a55e806afb13b5aef95a12828d8f6040516101e593929190610931565b60405180910390a181925050509a9950505050505050505050565b6102086105e1565b73ffffffffffffffffffffffffffffffffffffffff1661022661033a565b73ffffffffffffffffffffffffffffffffffffffff161461027c576040517f08c379a000000000000000000000000000000000000000000000000000000000815260040161027390610a49565b60405180910390fd5b600073ffffffffffffffffffffffffffffffffffffffff1660008054906101000a900473ffffffffffffffffffffffffffffffffffffffff1673ffffffffffffffffffffffffffffffffffffffff167f8be0079c531659141344cd1fd0a4f28419497f9722a3daafe3b4186f6b6457e060405160405180910390a360008060006101000a81548173ffffffffffffffffffffffffffffffffffffffff021916908373ffffffffffffffffffffffffffffffffffffffff160217905550565b60008060009054906101000a900473ffffffffffffffffffffffffffffffffffffffff16905090565b61036b6105e1565b73ffffffffffffffffffffffffffffffffffffffff1661038961033a565b73ffffffffffffffffffffffffffffffffffffffff16146103df576040517f08c379a00000000000000000000000000000000000000000000000000000000081526004016103d690610a49565b60405180910390fd5b600073ffffffffffffffffffffffffffffffffffffffff168173ffffffffffffffffffffffffffffffffffffffff16141561044f576040517f08c379a0000000000000000000000000000000000000000000000000000000008152600401610446906109e9565b60405180910390fd5b8073ffffffffffffffffffffffffffffffffffffffff1660008054906101000a900473ffffffffffffffffffffffffffffffffffffffff1673ffffffffffffffffffffffffffffffffffffffff167f8be0079c531659141344cd1fd0a4f28419497f9722a3daafe3b4186f6b6457e060405160405180910390a3806000806101000a81548173ffffffffffffffffffffffffffffffffffffffff021916908373ffffffffffffffffffffffffffffffffffffffff16021790555050565b60006040517f3d602d80600a3d3981f3363d3d373d3d3d363d7300000000000000000000000081528260601b60148201527f5af43d82803e903d91602b57fd5bf3000000000000000000000000000000000060288201526037816000f0915050600073ffffffffffffffffffffffffffffffffffffffff168173ffffffffffffffffffffffffffffffffffffffff1614156105dc576040517f08c379a00000000000000000000000000000000000000000000000000000000081526004016105d390610a29565b60405180910390fd5b919050565b600033905090565b6000813590506105f881610bef565b92915050565b60008083601f84011261061057600080fd5b8235905067ffffffffffffffff81111561062957600080fd5b60208301915083602082028301111561064157600080fd5b9250929050565b60008151905061065781610c06565b92915050565b60008135905061066c81610c1d565b92915050565b60008135905061068181610c34565b92915050565b60008135905061069681610c4b565b92915050565b6000602082840312156106ae57600080fd5b60006106bc848285016105e9565b91505092915050565b6000806000806000806000806000806101008b8d0312156106e557600080fd5b60006106f38d828e016105e9565b9a505060206107048d828e016105e9565b99505060406107158d828e016105e9565b98505060606107268d828e016105e9565b97505060806107378d828e0161065d565b96505060a08b013567ffffffffffffffff81111561075457600080fd5b6107608d828e016105fe565b955095505060c08b013567ffffffffffffffff81111561077f57600080fd5b61078b8d828e016105fe565b935093505060e061079e8d828e01610687565b9150509295989b9194979a5092959850565b6000602082840312156107c257600080fd5b60006107d084828501610648565b91505092915050565b60006107e583836108f8565b60208301905092915050565b6107fa81610ab9565b82525050565b600061080c8385610a80565b935061081782610a69565b8060005b858110156108505761082d8284610aa2565b61083788826107d9565b975061084283610a73565b92505060018101905061081b565b5085925050509392505050565b600061086a602683610a91565b915061087582610b25565b604082019050919050565b600061088d601f83610a91565b915061089882610b74565b602082019050919050565b60006108b0601683610a91565b91506108bb82610b9d565b602082019050919050565b60006108d3602083610a91565b91506108de82610bc6565b602082019050919050565b6108f281610af7565b82525050565b61090181610b01565b82525050565b61091081610b11565b82525050565b600060208201905061092b60008301846107f1565b92915050565b600060608201905061094660008301866107f1565b61095360208301856107f1565b61096060408301846107f1565b949350505050565b600060e08201905061097d600083018c6107f1565b61098a602083018b6107f1565b610997604083018a6107f1565b6109a460608301896108e9565b81810360808301526109b7818789610800565b905081810360a08301526109cc818587610800565b90506109db60c0830184610907565b9a9950505050505050505050565b60006020820190508181036000830152610a028161085d565b9050919050565b60006020820190508181036000830152610a2281610880565b9050919050565b60006020820190508181036000830152610a42816108a3565b9050919050565b60006020820190508181036000830152610a62816108c6565b9050919050565b6000819050919050565b6000602082019050919050565b600082825260208201905092915050565b600082825260208201905092915050565b6000610ab16020840184610672565b905092915050565b6000610ac482610ad7565b9050919050565b60008115159050919050565b600073ffffffffffffffffffffffffffffffffffffffff82169050919050565b6000819050919050565b600063ffffffff82169050919050565b600067ffffffffffffffff82169050919050565b7f4f776e61626c653a206e6577206f776e657220697320746865207a65726f206160008201527f6464726573730000000000000000000000000000000000000000000000000000602082015250565b7f546f6b656e54696d654c6f636b50726f78793a2063616e277420736574757000600082015250565b7f455243313136373a20637265617465206661696c656400000000000000000000600082015250565b7f4f776e61626c653a2063616c6c6572206973206e6f7420746865206f776e6572600082015250565b610bf881610ab9565b8114610c0357600080fd5b50565b610c0f81610acb565b8114610c1a57600080fd5b50565b610c2681610af7565b8114610c3157600080fd5b50565b610c3d81610b01565b8114610c4857600080fd5b50565b610c5481610b11565b8114610c5f57600080fd5b5056fea264697066735822122040f4dfe4941efd2ff7157c18a2738a7f1c94e74df8cd167252cb38150d2e78b764736f6c63430008040033",
  "devdoc": {
    "kind": "dev",
    "methods": {
      "owner()": {
        "details": "Returns the address of the current owner."
      },
      "renounceOwnership()": {
        "details": "Leaves the contract without owner. It will not be possible to call `onlyOwner` functions anymore. Can only be called by the current owner. NOTE: Renouncing ownership will leave the contract without an owner, thereby removing any functionality that is only available to the owner."
      },
      "transferOwnership(address)": {
        "details": "Transfers ownership of the contract to a new account (`newOwner`). Can only be called by the current owner."
      }
    },
    "version": 1
  },
  "userdoc": {
    "kind": "user",
    "methods": {},
    "version": 1
  },
  "storageLayout": {
    "storage": [
      {
        "astId": 1051,
        "contract": "contracts/token/TokenTimeLockProxyFactory.sol:TokenTimeLockProxyFactory",
        "label": "_owner",
        "offset": 0,
        "slot": "0",
        "type": "t_address"
      }
    ],
    "types": {
      "t_address": {
        "encoding": "inplace",
        "label": "address",
        "numberOfBytes": "20"
      }
    }
  }
}