{
  "address": "0x41C25f27C3BA916888CDA995CC962a5Ea4a6E1de",
  "abi": [
    {
      "anonymous": false,
      "inputs": [
        {
          "indexed": false,
          "internalType": "address",
          "name": "previousAdmin",
          "type": "address"
        },
        {
          "indexed": false,
          "internalType": "address",
          "name": "newAdmin",
          "type": "address"
        }
      ],
      "name": "AdminChanged",
      "type": "event"
    },
    {
      "anonymous": false,
      "inputs": [
        {
          "indexed": true,
          "internalType": "address",
          "name": "beacon",
          "type": "address"
        }
      ],
      "name": "BeaconUpgraded",
      "type": "event"
    },
    {
      "anonymous": false,
      "inputs": [
        {
          "indexed": true,
          "internalType": "address",
          "name": "previousOwner",
          "type": "address"
        },
        {
          "indexed": true,
          "internalType": "address",
          "name": "newOwner",
          "type": "address"
        }
      ],
      "name": "OwnershipTransferred",
      "type": "event"
    },
    {
      "anonymous": false,
      "inputs": [
        {
          "indexed": true,
          "internalType": "uint256",
          "name": "transfer_id",
          "type": "uint256"
        },
        {
          "indexed": true,
          "internalType": "bytes32",
          "name": "from",
          "type": "bytes32"
        },
        {
          "indexed": true,
          "internalType": "address",
          "name": "to",
          "type": "address"
        },
        {
          "indexed": false,
          "internalType": "uint256",
          "name": "amount",
          "type": "uint256"
        }
      ],
      "name": "TokensReleased",
      "type": "event"
    },
    {
      "anonymous": false,
      "inputs": [
        {
          "indexed": true,
          "internalType": "uint256",
          "name": "transfer_id",
          "type": "uint256"
        },
        {
          "indexed": true,
          "internalType": "address",
          "name": "from",
          "type": "address"
        },
        {
          "indexed": true,
          "internalType": "bytes32",
          "name": "to",
          "type": "bytes32"
        },
        {
          "indexed": false,
          "internalType": "uint256",
          "name": "amount",
          "type": "uint256"
        },
        {
          "indexed": false,
          "internalType": "uint16",
          "name": "targetChain",
          "type": "uint16"
        }
      ],
      "name": "TransferInitiated",
      "type": "event"
    },
    {
      "anonymous": false,
      "inputs": [
        {
          "indexed": true,
          "internalType": "address",
          "name": "implementation",
          "type": "address"
        }
      ],
      "name": "Upgraded",
      "type": "event"
    },
    {
      "inputs": [],
      "name": "bholdusToken",
      "outputs": [
        {
          "internalType": "address",
          "name": "",
          "type": "address"
        }
      ],
      "stateMutability": "view",
      "type": "function"
    },
    {
      "inputs": [
        {
          "internalType": "uint16",
          "name": "",
          "type": "uint16"
        }
      ],
      "name": "chains",
      "outputs": [
        {
          "internalType": "bool",
          "name": "",
          "type": "bool"
        }
      ],
      "stateMutability": "view",
      "type": "function"
    },
    {
      "inputs": [
        {
          "internalType": "uint256",
          "name": "transfer_id",
          "type": "uint256"
        }
      ],
      "name": "confirmTransfer",
      "outputs": [],
      "stateMutability": "nonpayable",
      "type": "function"
    },
    {
      "inputs": [],
      "name": "forceFreeze",
      "outputs": [],
      "stateMutability": "nonpayable",
      "type": "function"
    },
    {
      "inputs": [
        {
          "internalType": "uint16",
          "name": "chain",
          "type": "uint16"
        }
      ],
      "name": "forceRegisterChain",
      "outputs": [],
      "stateMutability": "nonpayable",
      "type": "function"
    },
    {
      "inputs": [
        {
          "internalType": "address",
          "name": "_relayer",
          "type": "address"
        }
      ],
      "name": "forceRegisterRelayer",
      "outputs": [],
      "stateMutability": "nonpayable",
      "type": "function"
    },
    {
      "inputs": [
        {
          "internalType": "address",
          "name": "_token",
          "type": "address"
        }
      ],
      "name": "forceRegisterToken",
      "outputs": [],
      "stateMutability": "nonpayable",
      "type": "function"
    },
    {
      "inputs": [
        {
          "internalType": "uint256",
          "name": "amount",
          "type": "uint256"
        }
      ],
      "name": "forceSetMinDeposit",
      "outputs": [],
      "stateMutability": "nonpayable",
      "type": "function"
    },
    {
      "inputs": [
        {
          "internalType": "uint256",
          "name": "_fee",
          "type": "uint256"
        }
      ],
      "name": "forceSetPlatformFee",
      "outputs": [],
      "stateMutability": "nonpayable",
      "type": "function"
    },
    {
      "inputs": [
        {
          "internalType": "uint256",
          "name": "_fee",
          "type": "uint256"
        }
      ],
      "name": "forceSetServiceFee",
      "outputs": [],
      "stateMutability": "nonpayable",
      "type": "function"
    },
    {
      "inputs": [],
      "name": "forceUnfreeze",
      "outputs": [],
      "stateMutability": "nonpayable",
      "type": "function"
    },
    {
      "inputs": [
        {
          "internalType": "uint16",
          "name": "chain",
          "type": "uint16"
        }
      ],
      "name": "forceUnregisterChain",
      "outputs": [],
      "stateMutability": "nonpayable",
      "type": "function"
    },
    {
      "inputs": [
        {
          "internalType": "address",
          "name": "_relayer",
          "type": "address"
        }
      ],
      "name": "forceUnregisterRelayer",
      "outputs": [],
      "stateMutability": "nonpayable",
      "type": "function"
    },
    {
      "inputs": [
        {
          "internalType": "address",
          "name": "to",
          "type": "address"
        }
      ],
      "name": "forceWithdraw",
      "outputs": [],
      "stateMutability": "nonpayable",
      "type": "function"
    },
    {
      "inputs": [
        {
          "internalType": "address payable",
          "name": "to",
          "type": "address"
        }
      ],
      "name": "forceWithdrawNative",
      "outputs": [],
      "stateMutability": "nonpayable",
      "type": "function"
    },
    {
      "inputs": [],
      "name": "frozen",
      "outputs": [
        {
          "internalType": "bool",
          "name": "",
          "type": "bool"
        }
      ],
      "stateMutability": "view",
      "type": "function"
    },
    {
      "inputs": [
        {
          "internalType": "address",
          "name": "addr",
          "type": "address"
        }
      ],
      "name": "getBalance",
      "outputs": [
        {
          "internalType": "uint256",
          "name": "",
          "type": "uint256"
        }
      ],
      "stateMutability": "view",
      "type": "function"
    },
    {
      "inputs": [
        {
          "internalType": "address",
          "name": "_admin",
          "type": "address"
        },
        {
          "internalType": "address",
          "name": "_token",
          "type": "address"
        },
        {
          "internalType": "uint256",
          "name": "_fee",
          "type": "uint256"
        },
        {
          "internalType": "uint256",
          "name": "_minDeposit",
          "type": "uint256"
        }
      ],
      "name": "initialize",
      "outputs": [
        {
          "internalType": "bool",
          "name": "",
          "type": "bool"
        }
      ],
      "stateMutability": "nonpayable",
      "type": "function"
    },
    {
      "inputs": [
        {
          "internalType": "bytes32",
          "name": "to",
          "type": "bytes32"
        },
        {
          "internalType": "uint256",
          "name": "amount",
          "type": "uint256"
        },
        {
          "internalType": "uint16",
          "name": "targetChain",
          "type": "uint16"
        }
      ],
      "name": "initiateTransfer",
      "outputs": [],
      "stateMutability": "payable",
      "type": "function"
    },
    {
      "inputs": [],
      "name": "minDeposit",
      "outputs": [
        {
          "internalType": "uint256",
          "name": "",
          "type": "uint256"
        }
      ],
      "stateMutability": "view",
      "type": "function"
    },
    {
      "inputs": [],
      "name": "nextConfirmOutboundTransferId",
      "outputs": [
        {
          "internalType": "uint256",
          "name": "",
          "type": "uint256"
        }
      ],
      "stateMutability": "view",
      "type": "function"
    },
    {
      "inputs": [],
      "name": "nextInboundTransferId",
      "outputs": [
        {
          "internalType": "uint256",
          "name": "",
          "type": "uint256"
        }
      ],
      "stateMutability": "view",
      "type": "function"
    },
    {
      "inputs": [],
      "name": "nextOutboundTransferId",
      "outputs": [
        {
          "internalType": "uint256",
          "name": "",
          "type": "uint256"
        }
      ],
      "stateMutability": "view",
      "type": "function"
    },
    {
      "inputs": [
        {
          "internalType": "uint256",
          "name": "",
          "type": "uint256"
        }
      ],
      "name": "outboundTransfers",
      "outputs": [
        {
          "internalType": "uint256",
          "name": "amount",
          "type": "uint256"
        },
        {
          "internalType": "uint256",
          "name": "serviceFee",
          "type": "uint256"
        },
        {
          "internalType": "address",
          "name": "from",
          "type": "address"
        },
        {
          "internalType": "bytes32",
          "name": "to",
          "type": "bytes32"
        },
        {
          "internalType": "uint16",
          "name": "targetChain",
          "type": "uint16"
        },
        {
          "internalType": "bool",
          "name": "isExist",
          "type": "bool"
        }
      ],
      "stateMutability": "view",
      "type": "function"
    },
    {
      "inputs": [],
      "name": "owner",
      "outputs": [
        {
          "internalType": "address",
          "name": "",
          "type": "address"
        }
      ],
      "stateMutability": "view",
      "type": "function"
    },
    {
      "inputs": [],
      "name": "platformFee",
      "outputs": [
        {
          "internalType": "uint256",
          "name": "",
          "type": "uint256"
        }
      ],
      "stateMutability": "view",
      "type": "function"
    },
    {
      "inputs": [
        {
          "internalType": "address",
          "name": "",
          "type": "address"
        }
      ],
      "name": "relayers",
      "outputs": [
        {
          "internalType": "bool",
          "name": "",
          "type": "bool"
        }
      ],
      "stateMutability": "view",
      "type": "function"
    },
    {
      "inputs": [
        {
          "internalType": "uint256",
          "name": "transfer_id",
          "type": "uint256"
        },
        {
          "internalType": "bytes32",
          "name": "from",
          "type": "bytes32"
        },
        {
          "internalType": "address",
          "name": "to",
          "type": "address"
        },
        {
          "internalType": "uint256",
          "name": "amount",
          "type": "uint256"
        }
      ],
      "name": "releaseToken",
      "outputs": [],
      "stateMutability": "nonpayable",
      "type": "function"
    },
    {
      "inputs": [],
      "name": "renounceOwnership",
      "outputs": [],
      "stateMutability": "nonpayable",
      "type": "function"
    },
    {
      "inputs": [],
      "name": "serviceFee",
      "outputs": [
        {
          "internalType": "uint256",
          "name": "",
          "type": "uint256"
        }
      ],
      "stateMutability": "view",
      "type": "function"
    },
    {
      "inputs": [
        {
          "internalType": "address",
          "name": "newOwner",
          "type": "address"
        }
      ],
      "name": "transferOwnership",
      "outputs": [],
      "stateMutability": "nonpayable",
      "type": "function"
    },
    {
      "inputs": [
        {
          "internalType": "address",
          "name": "newImplementation",
          "type": "address"
        }
      ],
      "name": "upgradeTo",
      "outputs": [],
      "stateMutability": "nonpayable",
      "type": "function"
    },
    {
      "inputs": [
        {
          "internalType": "address",
          "name": "newImplementation",
          "type": "address"
        },
        {
          "internalType": "bytes",
          "name": "data",
          "type": "bytes"
        }
      ],
      "name": "upgradeToAndCall",
      "outputs": [],
      "stateMutability": "payable",
      "type": "function"
    }
  ],
  "transactionHash": "0x0de5c17e7d121063aac86ce674d62a2581fb907be1c48a8ec63fb5432c734568",
  "args": [],
  "solcInputHash": "69c13e6198c769c5a605a64d32d4b40a",
  "bytecode": "0x60a06040523073ffffffffffffffffffffffffffffffffffffffff1660809073ffffffffffffffffffffffffffffffffffffffff1660601b81525034801561004657600080fd5b5060805160601c613bfb61007a60003960008181610d3d01528181610dcc0152818161105101526110e00152613bfb6000f3fe6080604052600436106101ee5760003560e01c8063609c951a1161010d57806396d0a303116100a0578063eb990c591161006f578063eb990c591461067f578063eb9b93bc146106bc578063f2fde38b146106d8578063f8b2cb4f14610701578063fed8c3a61461073e576101ee565b806396d0a303146105ed578063b6e5c6ca14610616578063b800f9931461063f578063d851f1f414610656576101ee565b80637c033df7116100dc5780637c033df714610543578063882f3e161461056e5780638abdf5aa146105975780638da5cb5b146105c2576101ee565b8063609c951a14610498578063616497a1146104c1578063715018a6146104ea57806372e39cc914610501576101ee565b80633659cfe6116101855780634f1ef286116101545780634f1ef286146103eb5780635300f841146104075780635c385ba8146104445780635f8568cd1461046f576101ee565b80633659cfe6146103575780633c263d331461038057806341b3d185146103975780634cd9bf58146103c2576101ee565b80631e166f1c116101c15780631e166f1c146102af57806326232a2e146102da5780632c48e7db146103055780632e34147c1461032e576101ee565b8063054f7d9c146101f35780630e7401561461021e578063116e354b146102475780631a8fbf6714610284575b600080fd5b3480156101ff57600080fd5b50610208610767565b6040516102159190613289565b60405180910390f35b34801561022a57600080fd5b5061024560048036038101906102409190612ed2565b61077a565b005b34801561025357600080fd5b5061026e60048036038101906102699190612e57565b6109c1565b60405161027b9190613289565b60405180910390f35b34801561029057600080fd5b506102996109e1565b6040516102a6919061320e565b60405180910390f35b3480156102bb57600080fd5b506102c4610a07565b6040516102d191906134a6565b60405180910390f35b3480156102e657600080fd5b506102ef610a0d565b6040516102fc91906134a6565b60405180910390f35b34801561031157600080fd5b5061032c60048036038101906103279190612e80565b610a13565b005b34801561033a57600080fd5b5061035560048036038101906103509190612e80565b610cb5565b005b34801561036357600080fd5b5061037e60048036038101906103799190612cd6565b610d3b565b005b34801561038c57600080fd5b50610395610eea565b005b3480156103a357600080fd5b506103ac610f83565b6040516103b991906134a6565b60405180910390f35b3480156103ce57600080fd5b506103e960048036038101906103e49190612cff565b610f89565b005b61040560048036038101906104009190612d8b565b61104f565b005b34801561041357600080fd5b5061042e60048036038101906104299190612cd6565b61118c565b60405161043b9190613289565b60405180910390f35b34801561045057600080fd5b506104596111ac565b60405161046691906134a6565b60405180910390f35b34801561047b57600080fd5b5061049660048036038101906104919190612cd6565b6111b2565b005b3480156104a457600080fd5b506104bf60048036038101906104ba9190612e57565b611272565b005b3480156104cd57600080fd5b506104e860048036038101906104e39190612e80565b611325565b005b3480156104f657600080fd5b506104ff6113ab565b005b34801561050d57600080fd5b5061052860048036038101906105239190612e80565b611433565b60405161053a969594939291906134ea565b60405180910390f35b34801561054f57600080fd5b506105586114aa565b60405161056591906134a6565b60405180910390f35b34801561057a57600080fd5b5061059560048036038101906105909190612cd6565b6114b0565b005b3480156105a357600080fd5b506105ac611689565b6040516105b991906134a6565b60405180910390f35b3480156105ce57600080fd5b506105d761168f565b6040516105e4919061320e565b60405180910390f35b3480156105f957600080fd5b50610614600480360381019061060f9190612e57565b6116b9565b005b34801561062257600080fd5b5061063d60048036038101906106389190612cd6565b61176c565b005b34801561064b57600080fd5b50610654611843565b005b34801561066257600080fd5b5061067d60048036038101906106789190612cd6565b6118dc565b005b34801561068b57600080fd5b506106a660048036038101906106a19190612d28565b6119b3565b6040516106b39190613289565b60405180910390f35b6106d660048036038101906106d19190612e08565b611aff565b005b3480156106e457600080fd5b506106ff60048036038101906106fa9190612cd6565b611eb2565b005b34801561070d57600080fd5b5061072860048036038101906107239190612cd6565b611faa565b60405161073591906134a6565b60405180910390f35b34801561074a57600080fd5b5061076560048036038101906107609190612e80565b611fcb565b005b60d160149054906101000a900460ff1681565b6001151560ca60003373ffffffffffffffffffffffffffffffffffffffff1673ffffffffffffffffffffffffffffffffffffffff16815260200190815260200160002060009054906101000a900460ff1615151461080d576040517f08c379a000000000000000000000000000000000000000000000000000000000815260040161080490613326565b60405180910390fd5b60d160149054906101000a900460ff161561085d576040517f08c379a000000000000000000000000000000000000000000000000000000000815260040161085490613466565b60405180910390fd5b60ce5484146108a1576040517f08c379a000000000000000000000000000000000000000000000000000000000815260040161089890613406565b60405180910390fd5b60d160009054906101000a900473ffffffffffffffffffffffffffffffffffffffff1673ffffffffffffffffffffffffffffffffffffffff1663a9059cbb83836040518363ffffffff1660e01b81526004016108fe929190613260565b602060405180830381600087803b15801561091857600080fd5b505af115801561092c573d6000803e3d6000fd5b505050506040513d601f19601f820116820180604052508101906109509190612ddf565b50600160ce600082825461096491906135d3565b925050819055508173ffffffffffffffffffffffffffffffffffffffff1683857f60c4bb98a247ace5183d5a5fa34a6cf34ce8101a7608d5edcd508cb5de5e222e846040516109b391906134a6565b60405180910390a450505050565b60cb6020528060005260406000206000915054906101000a900460ff1681565b60d160009054906101000a900473ffffffffffffffffffffffffffffffffffffffff1681565b60cc5481565b60d25481565b6001151560ca60003373ffffffffffffffffffffffffffffffffffffffff1673ffffffffffffffffffffffffffffffffffffffff16815260200190815260200160002060009054906101000a900460ff16151514610aa6576040517f08c379a0000000000000000000000000000000000000000000000000000000008152600401610a9d90613326565b60405180910390fd5b60d160149054906101000a900460ff1615610af6576040517f08c379a0000000000000000000000000000000000000000000000000000000008152600401610aed90613466565b60405180910390fd5b60cc5460cd5410610b3c576040517f08c379a0000000000000000000000000000000000000000000000000000000008152600401610b33906133e6565b60405180910390fd5b8060cd5414610b80576040517f08c379a0000000000000000000000000000000000000000000000000000000008152600401610b7790613406565b60405180910390fd5b600060c960008381526020019081526020016000206040518060c001604052908160008201548152602001600182015481526020016002820160009054906101000a900473ffffffffffffffffffffffffffffffffffffffff1673ffffffffffffffffffffffffffffffffffffffff1673ffffffffffffffffffffffffffffffffffffffff168152602001600382015481526020016004820160009054906101000a900461ffff1661ffff1661ffff1681526020016004820160029054906101000a900460ff16151515158152505090503373ffffffffffffffffffffffffffffffffffffffff166108fc82602001519081150290604051600060405180830381858888f19350505050158015610c9b573d6000803e3d6000fd5b50600160cd54610cab91906135d3565b60cd819055505050565b610cbd612051565b73ffffffffffffffffffffffffffffffffffffffff16610cdb61168f565b73ffffffffffffffffffffffffffffffffffffffff1614610d31576040517f08c379a0000000000000000000000000000000000000000000000000000000008152600401610d2890613446565b60405180910390fd5b8060cf8190555050565b7f000000000000000000000000000000000000000000000000000000000000000073ffffffffffffffffffffffffffffffffffffffff163073ffffffffffffffffffffffffffffffffffffffff161415610dca576040517f08c379a0000000000000000000000000000000000000000000000000000000008152600401610dc190613346565b60405180910390fd5b7f000000000000000000000000000000000000000000000000000000000000000073ffffffffffffffffffffffffffffffffffffffff16610e09612059565b73ffffffffffffffffffffffffffffffffffffffff1614610e5f576040517f08c379a0000000000000000000000000000000000000000000000000000000008152600401610e5690613366565b60405180910390fd5b610e68816120b0565b610ee781600067ffffffffffffffff811115610ead577f4e487b7100000000000000000000000000000000000000000000000000000000600052604160045260246000fd5b6040519080825280601f01601f191660200182016040528015610edf5781602001600182028036833780820191505090505b50600061212f565b50565b610ef2612051565b73ffffffffffffffffffffffffffffffffffffffff16610f1061168f565b73ffffffffffffffffffffffffffffffffffffffff1614610f66576040517f08c379a0000000000000000000000000000000000000000000000000000000008152600401610f5d90613446565b60405180910390fd5b600060d160146101000a81548160ff021916908315150217905550565b60d05481565b610f91612051565b73ffffffffffffffffffffffffffffffffffffffff16610faf61168f565b73ffffffffffffffffffffffffffffffffffffffff1614611005576040517f08c379a0000000000000000000000000000000000000000000000000000000008152600401610ffc90613446565b60405180910390fd5b8073ffffffffffffffffffffffffffffffffffffffff166108fc479081150290604051600060405180830381858888f1935050505015801561104b573d6000803e3d6000fd5b5050565b7f000000000000000000000000000000000000000000000000000000000000000073ffffffffffffffffffffffffffffffffffffffff163073ffffffffffffffffffffffffffffffffffffffff1614156110de576040517f08c379a00000000000000000000000000000000000000000000000000000000081526004016110d590613346565b60405180910390fd5b7f000000000000000000000000000000000000000000000000000000000000000073ffffffffffffffffffffffffffffffffffffffff1661111d612059565b73ffffffffffffffffffffffffffffffffffffffff1614611173576040517f08c379a000000000000000000000000000000000000000000000000000000000815260040161116a90613366565b60405180910390fd5b61117c826120b0565b6111888282600161212f565b5050565b60ca6020528060005260406000206000915054906101000a900460ff1681565b60ce5481565b6111ba612051565b73ffffffffffffffffffffffffffffffffffffffff166111d861168f565b73ffffffffffffffffffffffffffffffffffffffff161461122e576040517f08c379a000000000000000000000000000000000000000000000000000000000815260040161122590613446565b60405180910390fd5b8060d160006101000a81548173ffffffffffffffffffffffffffffffffffffffff021916908373ffffffffffffffffffffffffffffffffffffffff16021790555050565b61127a612051565b73ffffffffffffffffffffffffffffffffffffffff1661129861168f565b73ffffffffffffffffffffffffffffffffffffffff16146112ee576040517f08c379a00000000000000000000000000000000000000000000000000000000081526004016112e590613446565b60405180910390fd5b600160cb60008361ffff1661ffff16815260200190815260200160002060006101000a81548160ff02191690831515021790555050565b61132d612051565b73ffffffffffffffffffffffffffffffffffffffff1661134b61168f565b73ffffffffffffffffffffffffffffffffffffffff16146113a1576040517f08c379a000000000000000000000000000000000000000000000000000000000815260040161139890613446565b60405180910390fd5b8060d28190555050565b6113b3612051565b73ffffffffffffffffffffffffffffffffffffffff166113d161168f565b73ffffffffffffffffffffffffffffffffffffffff1614611427576040517f08c379a000000000000000000000000000000000000000000000000000000000815260040161141e90613446565b60405180910390fd5b6114316000612300565b565b60c96020528060005260406000206000915090508060000154908060010154908060020160009054906101000a900473ffffffffffffffffffffffffffffffffffffffff16908060030154908060040160009054906101000a900461ffff16908060040160029054906101000a900460ff16905086565b60cd5481565b6114b8612051565b73ffffffffffffffffffffffffffffffffffffffff166114d661168f565b73ffffffffffffffffffffffffffffffffffffffff161461152c576040517f08c379a000000000000000000000000000000000000000000000000000000000815260040161152390613446565b60405180910390fd5b60d160009054906101000a900473ffffffffffffffffffffffffffffffffffffffff1673ffffffffffffffffffffffffffffffffffffffff1663a9059cbb8260d160009054906101000a900473ffffffffffffffffffffffffffffffffffffffff1673ffffffffffffffffffffffffffffffffffffffff166370a08231306040518263ffffffff1660e01b81526004016115c6919061320e565b60206040518083038186803b1580156115de57600080fd5b505afa1580156115f2573d6000803e3d6000fd5b505050506040513d601f19601f820116820180604052508101906116169190612ea9565b6040518363ffffffff1660e01b8152600401611633929190613260565b602060405180830381600087803b15801561164d57600080fd5b505af1158015611661573d6000803e3d6000fd5b505050506040513d601f19601f820116820180604052508101906116859190612ddf565b5050565b60cf5481565b6000603360009054906101000a900473ffffffffffffffffffffffffffffffffffffffff16905090565b6116c1612051565b73ffffffffffffffffffffffffffffffffffffffff166116df61168f565b73ffffffffffffffffffffffffffffffffffffffff1614611735576040517f08c379a000000000000000000000000000000000000000000000000000000000815260040161172c90613446565b60405180910390fd5b600060cb60008361ffff1661ffff16815260200190815260200160002060006101000a81548160ff02191690831515021790555050565b611774612051565b73ffffffffffffffffffffffffffffffffffffffff1661179261168f565b73ffffffffffffffffffffffffffffffffffffffff16146117e8576040517f08c379a00000000000000000000000000000000000000000000000000000000081526004016117df90613446565b60405180910390fd5b600060ca60008373ffffffffffffffffffffffffffffffffffffffff1673ffffffffffffffffffffffffffffffffffffffff16815260200190815260200160002060006101000a81548160ff02191690831515021790555050565b61184b612051565b73ffffffffffffffffffffffffffffffffffffffff1661186961168f565b73ffffffffffffffffffffffffffffffffffffffff16146118bf576040517f08c379a00000000000000000000000000000000000000000000000000000000081526004016118b690613446565b60405180910390fd5b600160d160146101000a81548160ff021916908315150217905550565b6118e4612051565b73ffffffffffffffffffffffffffffffffffffffff1661190261168f565b73ffffffffffffffffffffffffffffffffffffffff1614611958576040517f08c379a000000000000000000000000000000000000000000000000000000000815260040161194f90613446565b60405180910390fd5b600160ca60008373ffffffffffffffffffffffffffffffffffffffff1673ffffffffffffffffffffffffffffffffffffffff16815260200190815260200160002060006101000a81548160ff02191690831515021790555050565b60008060019054906101000a900460ff16806119da575060008054906101000a900460ff16155b611a19576040517f08c379a0000000000000000000000000000000000000000000000000000000008152600401611a10906133a6565b60405180910390fd5b60008060019054906101000a900460ff161590508015611a69576001600060016101000a81548160ff02191690831515021790555060016000806101000a81548160ff0219169083151502179055505b611a716123c6565b611a796124af565b8460d160006101000a81548173ffffffffffffffffffffffffffffffffffffffff021916908373ffffffffffffffffffffffffffffffffffffffff1602179055508360cf819055508260d081905550611ad186611eb2565b600191508015611af65760008060016101000a81548160ff0219169083151502179055505b50949350505050565b60d160149054906101000a900460ff1615611b4f576040517f08c379a0000000000000000000000000000000000000000000000000000000008152600401611b4690613466565b60405180910390fd5b60cb60008261ffff1661ffff16815260200190815260200160002060009054906101000a900460ff16611bb7576040517f08c379a0000000000000000000000000000000000000000000000000000000008152600401611bae906132c6565b60405180910390fd5b60d25460cf54611bc791906135d3565b3414611c08576040517f08c379a0000000000000000000000000000000000000000000000000000000008152600401611bff90613386565b60405180910390fd5b60d054821015611c4d576040517f08c379a0000000000000000000000000000000000000000000000000000000008152600401611c44906133c6565b60405180910390fd5b60d160009054906101000a900473ffffffffffffffffffffffffffffffffffffffff1673ffffffffffffffffffffffffffffffffffffffff166323b872dd3330856040518463ffffffff1660e01b8152600401611cac93929190613229565b602060405180830381600087803b158015611cc657600080fd5b505af1158015611cda573d6000803e3d6000fd5b505050506040513d601f19601f82011682018060405250810190611cfe9190612ddf565b50611d07612b86565b348160200181815250508281600001818152505033816040019073ffffffffffffffffffffffffffffffffffffffff16908173ffffffffffffffffffffffffffffffffffffffff16815250508381606001818152505081816080019061ffff16908161ffff168152505060018160a00190151590811515815250508060c9600060cc548152602001908152602001600020600082015181600001556020820151816001015560408201518160020160006101000a81548173ffffffffffffffffffffffffffffffffffffffff021916908373ffffffffffffffffffffffffffffffffffffffff1602179055506060820151816003015560808201518160040160006101000a81548161ffff021916908361ffff16021790555060a08201518160040160026101000a81548160ff021916908315150217905550905050833373ffffffffffffffffffffffffffffffffffffffff1660cc547f6eda71a50ae771fd150241e0e84416fc65df5420a5513ddf916f82ed22eebaeb8686604051611e8f9291906134c1565b60405180910390a4600160cc54611ea691906135d3565b60cc8190555050505050565b611eba612051565b73ffffffffffffffffffffffffffffffffffffffff16611ed861168f565b73ffffffffffffffffffffffffffffffffffffffff1614611f2e576040517f08c379a0000000000000000000000000000000000000000000000000000000008152600401611f2590613446565b60405180910390fd5b600073ffffffffffffffffffffffffffffffffffffffff168173ffffffffffffffffffffffffffffffffffffffff161415611f9e576040517f08c379a0000000000000000000000000000000000000000000000000000000008152600401611f9590613306565b60405180910390fd5b611fa781612300565b50565b60008173ffffffffffffffffffffffffffffffffffffffff16319050919050565b611fd3612051565b73ffffffffffffffffffffffffffffffffffffffff16611ff161168f565b73ffffffffffffffffffffffffffffffffffffffff1614612047576040517f08c379a000000000000000000000000000000000000000000000000000000000815260040161203e90613446565b60405180910390fd5b8060d08190555050565b600033905090565b60006120877f360894a13ba1a3210667c828492db98dca3e2076cc3735a920a3ca505d382bbc60001b612598565b60000160009054906101000a900473ffffffffffffffffffffffffffffffffffffffff16905090565b6120b8612051565b73ffffffffffffffffffffffffffffffffffffffff166120d661168f565b73ffffffffffffffffffffffffffffffffffffffff161461212c576040517f08c379a000000000000000000000000000000000000000000000000000000000815260040161212390613446565b60405180910390fd5b50565b6000612139612059565b9050612144846125a2565b6000835111806121515750815b1561216257612160848461265b565b505b60006121907f4910fdfa16fed3260ed0e7147f7cc6da11a60208b5b9406d12a635614ffd914360001b61273f565b90508060000160009054906101000a900460ff166122f95760018160000160006101000a81548160ff02191690831515021790555061225c85836040516024016121da919061320e565b6040516020818303038152906040527f3659cfe6000000000000000000000000000000000000000000000000000000007bffffffffffffffffffffffffffffffffffffffffffffffffffffffff19166020820180517bffffffffffffffffffffffffffffffffffffffffffffffffffffffff838183161783525050505061265b565b5060008160000160006101000a81548160ff021916908315150217905550612282612059565b73ffffffffffffffffffffffffffffffffffffffff168273ffffffffffffffffffffffffffffffffffffffff16146122ef576040517f08c379a00000000000000000000000000000000000000000000000000000000081526004016122e6906132e6565b60405180910390fd5b6122f885612749565b5b5050505050565b6000603360009054906101000a900473ffffffffffffffffffffffffffffffffffffffff16905081603360006101000a81548173ffffffffffffffffffffffffffffffffffffffff021916908373ffffffffffffffffffffffffffffffffffffffff1602179055508173ffffffffffffffffffffffffffffffffffffffff168173ffffffffffffffffffffffffffffffffffffffff167f8be0079c531659141344cd1fd0a4f28419497f9722a3daafe3b4186f6b6457e060405160405180910390a35050565b600060019054906101000a900460ff16806123ec575060008054906101000a900460ff16155b61242b576040517f08c379a0000000000000000000000000000000000000000000000000000000008152600401612422906133a6565b60405180910390fd5b60008060019054906101000a900460ff16159050801561247b576001600060016101000a81548160ff02191690831515021790555060016000806101000a81548160ff0219169083151502179055505b612483612798565b61248b612871565b80156124ac5760008060016101000a81548160ff0219169083151502179055505b50565b600060019054906101000a900460ff16806124d5575060008054906101000a900460ff16155b612514576040517f08c379a000000000000000000000000000000000000000000000000000000000815260040161250b906133a6565b60405180910390fd5b60008060019054906101000a900460ff161590508015612564576001600060016101000a81548160ff02191690831515021790555060016000806101000a81548160ff0219169083151502179055505b61256c61295a565b612574612a33565b80156125955760008060016101000a81548160ff0219169083151502179055505b50565b6000819050919050565b6125ab81612b0c565b6125ea576040517f08c379a00000000000000000000000000000000000000000000000000000000081526004016125e190613426565b60405180910390fd5b806126177f360894a13ba1a3210667c828492db98dca3e2076cc3735a920a3ca505d382bbc60001b612598565b60000160006101000a81548173ffffffffffffffffffffffffffffffffffffffff021916908373ffffffffffffffffffffffffffffffffffffffff16021790555050565b606061266683612b0c565b6126a5576040517f08c379a000000000000000000000000000000000000000000000000000000000815260040161269c90613486565b60405180910390fd5b6000808473ffffffffffffffffffffffffffffffffffffffff16846040516126cd91906131f7565b600060405180830381855af49150503d8060008114612708576040519150601f19603f3d011682016040523d82523d6000602084013e61270d565b606091505b50915091506127358282604051806060016040528060278152602001613b9f60279139612b1f565b9250505092915050565b6000819050919050565b612752816125a2565b8073ffffffffffffffffffffffffffffffffffffffff167fbc7cd75a20ee27fd9adebab32041f755214dbc6bffa90cc0225b39da2e5c2d3b60405160405180910390a250565b600060019054906101000a900460ff16806127be575060008054906101000a900460ff16155b6127fd576040517f08c379a00000000000000000000000000000000000000000000000000000000081526004016127f4906133a6565b60405180910390fd5b60008060019054906101000a900460ff16159050801561284d576001600060016101000a81548160ff02191690831515021790555060016000806101000a81548160ff0219169083151502179055505b801561286e5760008060016101000a81548160ff0219169083151502179055505b50565b600060019054906101000a900460ff1680612897575060008054906101000a900460ff16155b6128d6576040517f08c379a00000000000000000000000000000000000000000000000000000000081526004016128cd906133a6565b60405180910390fd5b60008060019054906101000a900460ff161590508015612926576001600060016101000a81548160ff02191690831515021790555060016000806101000a81548160ff0219169083151502179055505b612936612931612051565b612300565b80156129575760008060016101000a81548160ff0219169083151502179055505b50565b600060019054906101000a900460ff1680612980575060008054906101000a900460ff16155b6129bf576040517f08c379a00000000000000000000000000000000000000000000000000000000081526004016129b6906133a6565b60405180910390fd5b60008060019054906101000a900460ff161590508015612a0f576001600060016101000a81548160ff02191690831515021790555060016000806101000a81548160ff0219169083151502179055505b8015612a305760008060016101000a81548160ff0219169083151502179055505b50565b600060019054906101000a900460ff1680612a59575060008054906101000a900460ff16155b612a98576040517f08c379a0000000000000000000000000000000000000000000000000000000008152600401612a8f906133a6565b60405180910390fd5b60008060019054906101000a900460ff161590508015612ae8576001600060016101000a81548160ff02191690831515021790555060016000806101000a81548160ff0219169083151502179055505b8015612b095760008060016101000a81548160ff0219169083151502179055505b50565b600080823b905060008111915050919050565b60608315612b2f57829050612b7f565b600083511115612b425782518084602001fd5b816040517f08c379a0000000000000000000000000000000000000000000000000000000008152600401612b7691906132a4565b60405180910390fd5b9392505050565b6040518060c001604052806000815260200160008152602001600073ffffffffffffffffffffffffffffffffffffffff16815260200160008019168152602001600061ffff1681526020016000151581525090565b6000612bee612be984613570565b61354b565b905082815260208101848484011115612c0657600080fd5b612c1184828561369b565b509392505050565b600081359050612c2881613b14565b92915050565b600081359050612c3d81613b2b565b92915050565b600081519050612c5281613b42565b92915050565b600081359050612c6781613b59565b92915050565b600082601f830112612c7e57600080fd5b8135612c8e848260208601612bdb565b91505092915050565b600081359050612ca681613b70565b92915050565b600081359050612cbb81613b87565b92915050565b600081519050612cd081613b87565b92915050565b600060208284031215612ce857600080fd5b6000612cf684828501612c19565b91505092915050565b600060208284031215612d1157600080fd5b6000612d1f84828501612c2e565b91505092915050565b60008060008060808587031215612d3e57600080fd5b6000612d4c87828801612c19565b9450506020612d5d87828801612c19565b9350506040612d6e87828801612cac565b9250506060612d7f87828801612cac565b91505092959194509250565b60008060408385031215612d9e57600080fd5b6000612dac85828601612c19565b925050602083013567ffffffffffffffff811115612dc957600080fd5b612dd585828601612c6d565b9150509250929050565b600060208284031215612df157600080fd5b6000612dff84828501612c43565b91505092915050565b600080600060608486031215612e1d57600080fd5b6000612e2b86828701612c58565b9350506020612e3c86828701612cac565b9250506040612e4d86828701612c97565b9150509250925092565b600060208284031215612e6957600080fd5b6000612e7784828501612c97565b91505092915050565b600060208284031215612e9257600080fd5b6000612ea084828501612cac565b91505092915050565b600060208284031215612ebb57600080fd5b6000612ec984828501612cc1565b91505092915050565b60008060008060808587031215612ee857600080fd5b6000612ef687828801612cac565b9450506020612f0787828801612c58565b9350506040612f1887828801612c19565b9250506060612f2987828801612cac565b91505092959194509250565b612f3e81613629565b82525050565b612f4d8161364d565b82525050565b612f5c81613659565b82525050565b6000612f6d826135a1565b612f7781856135b7565b9350612f878185602086016136aa565b80840191505092915050565b6000612f9e826135ac565b612fa881856135c2565b9350612fb88185602086016136aa565b612fc18161376c565b840191505092915050565b6000612fd96011836135c2565b9150612fe48261377d565b602082019050919050565b6000612ffc602f836135c2565b9150613007826137a6565b604082019050919050565b600061301f6026836135c2565b915061302a826137f5565b604082019050919050565b60006130426024836135c2565b915061304d82613844565b604082019050919050565b6000613065602c836135c2565b915061307082613893565b604082019050919050565b6000613088602c836135c2565b9150613093826138e2565b604082019050919050565b60006130ab6013836135c2565b91506130b682613931565b602082019050919050565b60006130ce602e836135c2565b91506130d98261395a565b604082019050919050565b60006130f16017836135c2565b91506130fc826139a9565b602082019050919050565b6000613114601b836135c2565b915061311f826139d2565b602082019050919050565b60006131376013836135c2565b9150613142826139fb565b602082019050919050565b600061315a602d836135c2565b915061316582613a24565b604082019050919050565b600061317d6020836135c2565b915061318882613a73565b602082019050919050565b60006131a06019836135c2565b91506131ab82613a9c565b602082019050919050565b60006131c36026836135c2565b91506131ce82613ac5565b604082019050919050565b6131e281613663565b82525050565b6131f181613691565b82525050565b60006132038284612f62565b915081905092915050565b60006020820190506132236000830184612f35565b92915050565b600060608201905061323e6000830186612f35565b61324b6020830185612f35565b61325860408301846131e8565b949350505050565b60006040820190506132756000830185612f35565b61328260208301846131e8565b9392505050565b600060208201905061329e6000830184612f44565b92915050565b600060208201905081810360008301526132be8184612f93565b905092915050565b600060208201905081810360008301526132df81612fcc565b9050919050565b600060208201905081810360008301526132ff81612fef565b9050919050565b6000602082019050818103600083015261331f81613012565b9050919050565b6000602082019050818103600083015261333f81613035565b9050919050565b6000602082019050818103600083015261335f81613058565b9050919050565b6000602082019050818103600083015261337f8161307b565b9050919050565b6000602082019050818103600083015261339f8161309e565b9050919050565b600060208201905081810360008301526133bf816130c1565b9050919050565b600060208201905081810360008301526133df816130e4565b9050919050565b600060208201905081810360008301526133ff81613107565b9050919050565b6000602082019050818103600083015261341f8161312a565b9050919050565b6000602082019050818103600083015261343f8161314d565b9050919050565b6000602082019050818103600083015261345f81613170565b9050919050565b6000602082019050818103600083015261347f81613193565b9050919050565b6000602082019050818103600083015261349f816131b6565b9050919050565b60006020820190506134bb60008301846131e8565b92915050565b60006040820190506134d660008301856131e8565b6134e360208301846131d9565b9392505050565b600060c0820190506134ff60008301896131e8565b61350c60208301886131e8565b6135196040830187612f35565b6135266060830186612f53565b61353360808301856131d9565b61354060a0830184612f44565b979650505050505050565b6000613555613566565b905061356182826136dd565b919050565b6000604051905090565b600067ffffffffffffffff82111561358b5761358a61373d565b5b6135948261376c565b9050602081019050919050565b600081519050919050565b600081519050919050565b600081905092915050565b600082825260208201905092915050565b60006135de82613691565b91506135e983613691565b9250827fffffffffffffffffffffffffffffffffffffffffffffffffffffffffffffffff0382111561361e5761361d61370e565b5b828201905092915050565b600061363482613671565b9050919050565b600061364682613671565b9050919050565b60008115159050919050565b6000819050919050565b600061ffff82169050919050565b600073ffffffffffffffffffffffffffffffffffffffff82169050919050565b6000819050919050565b82818337600083830152505050565b60005b838110156136c85780820151818401526020810190506136ad565b838111156136d7576000848401525b50505050565b6136e68261376c565b810181811067ffffffffffffffff821117156137055761370461373d565b5b80604052505050565b7f4e487b7100000000000000000000000000000000000000000000000000000000600052601160045260246000fd5b7f4e487b7100000000000000000000000000000000000000000000000000000000600052604160045260246000fd5b6000601f19601f8301169050919050565b7f556e737570706f7274656420636861696e000000000000000000000000000000600082015250565b7f45524331393637557067726164653a207570677261646520627265616b73206660008201527f7572746865722075706772616465730000000000000000000000000000000000602082015250565b7f4f776e61626c653a206e6577206f776e657220697320746865207a65726f206160008201527f6464726573730000000000000000000000000000000000000000000000000000602082015250565b7f43616c6c6572206973206e6f742074686520726567697374657265642072656c60008201527f6179657200000000000000000000000000000000000000000000000000000000602082015250565b7f46756e6374696f6e206d7573742062652063616c6c6564207468726f7567682060008201527f64656c656761746563616c6c0000000000000000000000000000000000000000602082015250565b7f46756e6374696f6e206d7573742062652063616c6c6564207468726f7567682060008201527f6163746976652070726f78790000000000000000000000000000000000000000602082015250565b7f4d697373696e6720736572766963652066656500000000000000000000000000600082015250565b7f496e697469616c697a61626c653a20636f6e747261637420697320616c72656160008201527f647920696e697469616c697a6564000000000000000000000000000000000000602082015250565b7f4d696e696d756d20616d6f756e74207265717569726564000000000000000000600082015250565b7f416c6c207472616e73666572732061726520636f6e6669726d65640000000000600082015250565b7f496e76616c6964207472616e7366657220696400000000000000000000000000600082015250565b7f455243313936373a206e657720696d706c656d656e746174696f6e206973206e60008201527f6f74206120636f6e747261637400000000000000000000000000000000000000602082015250565b7f4f776e61626c653a2063616c6c6572206973206e6f7420746865206f776e6572600082015250565b7f4272696467652069732066726f7a656e2062792061646d696e00000000000000600082015250565b7f416464726573733a2064656c65676174652063616c6c20746f206e6f6e2d636f60008201527f6e74726163740000000000000000000000000000000000000000000000000000602082015250565b613b1d81613629565b8114613b2857600080fd5b50565b613b348161363b565b8114613b3f57600080fd5b50565b613b4b8161364d565b8114613b5657600080fd5b50565b613b6281613659565b8114613b6d57600080fd5b50565b613b7981613663565b8114613b8457600080fd5b50565b613b9081613691565b8114613b9b57600080fd5b5056fe416464726573733a206c6f772d6c6576656c2064656c65676174652063616c6c206661696c6564a26469706673582212209bd29db259dcd6e666bfa3b3970d3d7cc1b7152772455d28d02669369c244b8a64736f6c63430008040033",
  "devdoc": {
    "kind": "dev",
    "methods": {
      "owner()": {
        "details": "Returns the address of the current owner."
      },
      "renounceOwnership()": {
        "details": "Leaves the contract without owner. It will not be possible to call `onlyOwner` functions anymore. Can only be called by the current owner. NOTE: Renouncing ownership will leave the contract without an owner, thereby removing any functionality that is only available to the owner."
      },
      "transferOwnership(address)": {
        "details": "Transfers ownership of the contract to a new account (`newOwner`). Can only be called by the current owner."
      },
      "upgradeTo(address)": {
        "details": "Upgrade the implementation of the proxy to `newImplementation`. Calls {_authorizeUpgrade}. Emits an {Upgraded} event."
      },
      "upgradeToAndCall(address,bytes)": {
        "details": "Upgrade the implementation of the proxy to `newImplementation`, and subsequently execute the function call encoded in `data`. Calls {_authorizeUpgrade}. Emits an {Upgraded} event."
      }
    },
    "version": 1
  },
  "userdoc": {
    "kind": "user",
    "methods": {},
    "version": 1
  },
  "storageLayout": {
    "storage": [
      {
        "astId": 538,
        "contract": "contracts/bridge/Bridge.sol:Bridge",
        "label": "_initialized",
        "offset": 0,
        "slot": "0",
        "type": "t_bool"
      },
      {
        "astId": 541,
        "contract": "contracts/bridge/Bridge.sol:Bridge",
        "label": "_initializing",
        "offset": 1,
        "slot": "0",
        "type": "t_bool"
      },
      {
        "astId": 977,
        "contract": "contracts/bridge/Bridge.sol:Bridge",
        "label": "__gap",
        "offset": 0,
        "slot": "1",
        "type": "t_array(t_uint256)50_storage"
      },
      {
        "astId": 10,
        "contract": "contracts/bridge/Bridge.sol:Bridge",
        "label": "_owner",
        "offset": 0,
        "slot": "51",
        "type": "t_address"
      },
      {
        "astId": 123,
        "contract": "contracts/bridge/Bridge.sol:Bridge",
        "label": "__gap",
        "offset": 0,
        "slot": "52",
        "type": "t_array(t_uint256)49_storage"
      },
      {
        "astId": 521,
        "contract": "contracts/bridge/Bridge.sol:Bridge",
        "label": "__gap",
        "offset": 0,
        "slot": "101",
        "type": "t_array(t_uint256)50_storage"
      },
      {
        "astId": 688,
        "contract": "contracts/bridge/Bridge.sol:Bridge",
        "label": "__gap",
        "offset": 0,
        "slot": "151",
        "type": "t_array(t_uint256)50_storage"
      },
      {
        "astId": 1065,
        "contract": "contracts/bridge/Bridge.sol:Bridge",
        "label": "outboundTransfers",
        "offset": 0,
        "slot": "201",
        "type": "t_mapping(t_uint256,t_struct(TransferInfo)1060_storage)"
      },
      {
        "astId": 1069,
        "contract": "contracts/bridge/Bridge.sol:Bridge",
        "label": "relayers",
        "offset": 0,
        "slot": "202",
        "type": "t_mapping(t_address,t_bool)"
      },
      {
        "astId": 1073,
        "contract": "contracts/bridge/Bridge.sol:Bridge",
        "label": "chains",
        "offset": 0,
        "slot": "203",
        "type": "t_mapping(t_uint16,t_bool)"
      },
      {
        "astId": 1075,
        "contract": "contracts/bridge/Bridge.sol:Bridge",
        "label": "nextOutboundTransferId",
        "offset": 0,
        "slot": "204",
        "type": "t_uint256"
      },
      {
        "astId": 1077,
        "contract": "contracts/bridge/Bridge.sol:Bridge",
        "label": "nextConfirmOutboundTransferId",
        "offset": 0,
        "slot": "205",
        "type": "t_uint256"
      },
      {
        "astId": 1079,
        "contract": "contracts/bridge/Bridge.sol:Bridge",
        "label": "nextInboundTransferId",
        "offset": 0,
        "slot": "206",
        "type": "t_uint256"
      },
      {
        "astId": 1081,
        "contract": "contracts/bridge/Bridge.sol:Bridge",
        "label": "serviceFee",
        "offset": 0,
        "slot": "207",
        "type": "t_uint256"
      },
      {
        "astId": 1083,
        "contract": "contracts/bridge/Bridge.sol:Bridge",
        "label": "minDeposit",
        "offset": 0,
        "slot": "208",
        "type": "t_uint256"
      },
      {
        "astId": 1085,
        "contract": "contracts/bridge/Bridge.sol:Bridge",
        "label": "bholdusToken",
        "offset": 0,
        "slot": "209",
        "type": "t_address"
      },
      {
        "astId": 1087,
        "contract": "contracts/bridge/Bridge.sol:Bridge",
        "label": "frozen",
        "offset": 20,
        "slot": "209",
        "type": "t_bool"
      },
      {
        "astId": 1089,
        "contract": "contracts/bridge/Bridge.sol:Bridge",
        "label": "platformFee",
        "offset": 0,
        "slot": "210",
        "type": "t_uint256"
      }
    ],
    "types": {
      "t_address": {
        "encoding": "inplace",
        "label": "address",
        "numberOfBytes": "20"
      },
      "t_array(t_uint256)49_storage": {
        "base": "t_uint256",
        "encoding": "inplace",
        "label": "uint256[49]",
        "numberOfBytes": "1568"
      },
      "t_array(t_uint256)50_storage": {
        "base": "t_uint256",
        "encoding": "inplace",
        "label": "uint256[50]",
        "numberOfBytes": "1600"
      },
      "t_bool": {
        "encoding": "inplace",
        "label": "bool",
        "numberOfBytes": "1"
      },
      "t_bytes32": {
        "encoding": "inplace",
        "label": "bytes32",
        "numberOfBytes": "32"
      },
      "t_mapping(t_address,t_bool)": {
        "encoding": "mapping",
        "key": "t_address",
        "label": "mapping(address => bool)",
        "numberOfBytes": "32",
        "value": "t_bool"
      },
      "t_mapping(t_uint16,t_bool)": {
        "encoding": "mapping",
        "key": "t_uint16",
        "label": "mapping(uint16 => bool)",
        "numberOfBytes": "32",
        "value": "t_bool"
      },
      "t_mapping(t_uint256,t_struct(TransferInfo)1060_storage)": {
        "encoding": "mapping",
        "key": "t_uint256",
        "label": "mapping(uint256 => struct Bridge.TransferInfo)",
        "numberOfBytes": "32",
        "value": "t_struct(TransferInfo)1060_storage"
      },
      "t_struct(TransferInfo)1060_storage": {
        "encoding": "inplace",
        "label": "struct Bridge.TransferInfo",
        "members": [
          {
            "astId": 1049,
            "contract": "contracts/bridge/Bridge.sol:Bridge",
            "label": "amount",
            "offset": 0,
            "slot": "0",
            "type": "t_uint256"
          },
          {
            "astId": 1051,
            "contract": "contracts/bridge/Bridge.sol:Bridge",
            "label": "serviceFee",
            "offset": 0,
            "slot": "1",
            "type": "t_uint256"
          },
          {
            "astId": 1053,
            "contract": "contracts/bridge/Bridge.sol:Bridge",
            "label": "from",
            "offset": 0,
            "slot": "2",
            "type": "t_address"
          },
          {
            "astId": 1055,
            "contract": "contracts/bridge/Bridge.sol:Bridge",
            "label": "to",
            "offset": 0,
            "slot": "3",
            "type": "t_bytes32"
          },
          {
            "astId": 1057,
            "contract": "contracts/bridge/Bridge.sol:Bridge",
            "label": "targetChain",
            "offset": 0,
            "slot": "4",
            "type": "t_uint16"
          },
          {
            "astId": 1059,
            "contract": "contracts/bridge/Bridge.sol:Bridge",
            "label": "isExist",
            "offset": 2,
            "slot": "4",
            "type": "t_bool"
          }
        ],
        "numberOfBytes": "160"
      },
      "t_uint16": {
        "encoding": "inplace",
        "label": "uint16",
        "numberOfBytes": "2"
      },
      "t_uint256": {
        "encoding": "inplace",
        "label": "uint256",
        "numberOfBytes": "32"
      }
    }
  }
}