{
  "address": "0x5Df44a45f22b110101bdE4b4EF01072e3B525013",
  "abi": [
    {
      "anonymous": false,
      "inputs": [
        {
          "indexed": false,
          "internalType": "address",
          "name": "previousAdmin",
          "type": "address"
        },
        {
          "indexed": false,
          "internalType": "address",
          "name": "newAdmin",
          "type": "address"
        }
      ],
      "name": "AdminChanged",
      "type": "event"
    },
    {
      "anonymous": false,
      "inputs": [
        {
          "indexed": true,
          "internalType": "address",
          "name": "owner",
          "type": "address"
        },
        {
          "indexed": true,
          "internalType": "address",
          "name": "spender",
          "type": "address"
        },
        {
          "indexed": false,
          "internalType": "uint256",
          "name": "value",
          "type": "uint256"
        }
      ],
      "name": "Approval",
      "type": "event"
    },
    {
      "anonymous": false,
      "inputs": [
        {
          "indexed": true,
          "internalType": "address",
          "name": "beacon",
          "type": "address"
        }
      ],
      "name": "BeaconUpgraded",
      "type": "event"
    },
    {
      "anonymous": false,
      "inputs": [
        {
          "indexed": true,
          "internalType": "address",
          "name": "previousOwner",
          "type": "address"
        },
        {
          "indexed": true,
          "internalType": "address",
          "name": "newOwner",
          "type": "address"
        }
      ],
      "name": "OwnershipTransferred",
      "type": "event"
    },
    {
      "anonymous": false,
      "inputs": [
        {
          "indexed": true,
          "internalType": "address",
          "name": "from",
          "type": "address"
        },
        {
          "indexed": true,
          "internalType": "address",
          "name": "to",
          "type": "address"
        },
        {
          "indexed": false,
          "internalType": "uint256",
          "name": "value",
          "type": "uint256"
        }
      ],
      "name": "Transfer",
      "type": "event"
    },
    {
      "anonymous": false,
      "inputs": [
        {
          "indexed": true,
          "internalType": "address",
          "name": "implementation",
          "type": "address"
        }
      ],
      "name": "Upgraded",
      "type": "event"
    },
    {
      "inputs": [
        {
          "internalType": "address",
          "name": "owner",
          "type": "address"
        },
        {
          "internalType": "address",
          "name": "spender",
          "type": "address"
        }
      ],
      "name": "allowance",
      "outputs": [
        {
          "internalType": "uint256",
          "name": "",
          "type": "uint256"
        }
      ],
      "stateMutability": "view",
      "type": "function"
    },
    {
      "inputs": [
        {
          "internalType": "address",
          "name": "spender",
          "type": "address"
        },
        {
          "internalType": "uint256",
          "name": "amount",
          "type": "uint256"
        }
      ],
      "name": "approve",
      "outputs": [
        {
          "internalType": "bool",
          "name": "",
          "type": "bool"
        }
      ],
      "stateMutability": "nonpayable",
      "type": "function"
    },
    {
      "inputs": [
        {
          "internalType": "address",
          "name": "account",
          "type": "address"
        }
      ],
      "name": "balanceOf",
      "outputs": [
        {
          "internalType": "uint256",
          "name": "",
          "type": "uint256"
        }
      ],
      "stateMutability": "view",
      "type": "function"
    },
    {
      "inputs": [
        {
          "internalType": "uint256",
          "name": "amount",
          "type": "uint256"
        }
      ],
      "name": "burn",
      "outputs": [
        {
          "internalType": "bool",
          "name": "",
          "type": "bool"
        }
      ],
      "stateMutability": "nonpayable",
      "type": "function"
    },
    {
      "inputs": [
        {
          "internalType": "address",
          "name": "account",
          "type": "address"
        },
        {
          "internalType": "uint256",
          "name": "amount",
          "type": "uint256"
        }
      ],
      "name": "burnFrom",
      "outputs": [
        {
          "internalType": "bool",
          "name": "",
          "type": "bool"
        }
      ],
      "stateMutability": "nonpayable",
      "type": "function"
    },
    {
      "inputs": [],
      "name": "decimals",
      "outputs": [
        {
          "internalType": "uint8",
          "name": "",
          "type": "uint8"
        }
      ],
      "stateMutability": "view",
      "type": "function"
    },
    {
      "inputs": [
        {
          "internalType": "address",
          "name": "spender",
          "type": "address"
        },
        {
          "internalType": "uint256",
          "name": "subtractedValue",
          "type": "uint256"
        }
      ],
      "name": "decreaseAllowance",
      "outputs": [
        {
          "internalType": "bool",
          "name": "",
          "type": "bool"
        }
      ],
      "stateMutability": "nonpayable",
      "type": "function"
    },
    {
      "inputs": [],
      "name": "getOwner",
      "outputs": [
        {
          "internalType": "address",
          "name": "",
          "type": "address"
        }
      ],
      "stateMutability": "view",
      "type": "function"
    },
    {
      "inputs": [
        {
          "internalType": "address",
          "name": "spender",
          "type": "address"
        },
        {
          "internalType": "uint256",
          "name": "addedValue",
          "type": "uint256"
        }
      ],
      "name": "increaseAllowance",
      "outputs": [
        {
          "internalType": "bool",
          "name": "",
          "type": "bool"
        }
      ],
      "stateMutability": "nonpayable",
      "type": "function"
    },
    {
      "inputs": [],
      "name": "initialize",
      "outputs": [
        {
          "internalType": "bool",
          "name": "",
          "type": "bool"
        }
      ],
      "stateMutability": "nonpayable",
      "type": "function"
    },
    {
      "inputs": [
        {
          "internalType": "uint256",
          "name": "amount",
          "type": "uint256"
        }
      ],
      "name": "mint",
      "outputs": [
        {
          "internalType": "bool",
          "name": "",
          "type": "bool"
        }
      ],
      "stateMutability": "nonpayable",
      "type": "function"
    },
    {
      "inputs": [],
      "name": "name",
      "outputs": [
        {
          "internalType": "string",
          "name": "",
          "type": "string"
        }
      ],
      "stateMutability": "view",
      "type": "function"
    },
    {
      "inputs": [],
      "name": "owner",
      "outputs": [
        {
          "internalType": "address",
          "name": "",
          "type": "address"
        }
      ],
      "stateMutability": "view",
      "type": "function"
    },
    {
      "inputs": [],
      "name": "renounceOwnership",
      "outputs": [],
      "stateMutability": "nonpayable",
      "type": "function"
    },
    {
      "inputs": [],
      "name": "symbol",
      "outputs": [
        {
          "internalType": "string",
          "name": "",
          "type": "string"
        }
      ],
      "stateMutability": "view",
      "type": "function"
    },
    {
      "inputs": [],
      "name": "totalSupply",
      "outputs": [
        {
          "internalType": "uint256",
          "name": "",
          "type": "uint256"
        }
      ],
      "stateMutability": "view",
      "type": "function"
    },
    {
      "inputs": [
        {
          "internalType": "address",
          "name": "recipient",
          "type": "address"
        },
        {
          "internalType": "uint256",
          "name": "amount",
          "type": "uint256"
        }
      ],
      "name": "transfer",
      "outputs": [
        {
          "internalType": "bool",
          "name": "",
          "type": "bool"
        }
      ],
      "stateMutability": "nonpayable",
      "type": "function"
    },
    {
      "inputs": [
        {
          "internalType": "address",
          "name": "sender",
          "type": "address"
        },
        {
          "internalType": "address",
          "name": "recipient",
          "type": "address"
        },
        {
          "internalType": "uint256",
          "name": "amount",
          "type": "uint256"
        }
      ],
      "name": "transferFrom",
      "outputs": [
        {
          "internalType": "bool",
          "name": "",
          "type": "bool"
        }
      ],
      "stateMutability": "nonpayable",
      "type": "function"
    },
    {
      "inputs": [
        {
          "internalType": "address",
          "name": "newOwner",
          "type": "address"
        }
      ],
      "name": "transferOwnership",
      "outputs": [],
      "stateMutability": "nonpayable",
      "type": "function"
    },
    {
      "inputs": [
        {
          "internalType": "address",
          "name": "newImplementation",
          "type": "address"
        }
      ],
      "name": "upgradeTo",
      "outputs": [],
      "stateMutability": "nonpayable",
      "type": "function"
    },
    {
      "inputs": [
        {
          "internalType": "address",
          "name": "newImplementation",
          "type": "address"
        },
        {
          "internalType": "bytes",
          "name": "data",
          "type": "bytes"
        }
      ],
      "name": "upgradeToAndCall",
      "outputs": [],
      "stateMutability": "payable",
      "type": "function"
    }
  ],
  "transactionHash": "0xfcaba6ea823e5489ee89c92b351e6a8a409a6a4bb28551667fa1d89241066458",
  "args": [],
  "solcInputHash": "68240423dc28ccb5dde6377c2175f2e0",
  "bytecode": "0x608060405234801561001057600080fd5b506134ae806100206000396000f3fe60806040526004361061012a5760003560e01c8063715018a6116100ab57806395d89b411161006f57806395d89b41146103fb578063a0712d6814610426578063a457c2d714610463578063a9059cbb146104a0578063dd62ed3e146104dd578063f2fde38b1461051a5761012a565b8063715018a61461032657806379cc67901461033d5780638129fc1c1461037a578063893d20e8146103a55780638da5cb5b146103d05761012a565b80633659cfe6116100f25780633659cfe61461022a578063395093511461025357806342966c68146102905780634f1ef286146102cd57806370a08231146102e95761012a565b806306fdde031461012f578063095ea7b31461015a57806318160ddd1461019757806323b872dd146101c2578063313ce567146101ff575b600080fd5b34801561013b57600080fd5b50610144610543565b60405161015191906129a8565b60405180910390f35b34801561016657600080fd5b50610181600480360381019061017c91906126ac565b6105d5565b60405161018e919061298d565b60405180910390f35b3480156101a357600080fd5b506101ac6105f3565b6040516101b99190612b4a565b60405180910390f35b3480156101ce57600080fd5b506101e960048036038101906101e49190612609565b6105fd565b6040516101f6919061298d565b60405180910390f35b34801561020b57600080fd5b506102146106d6565b6040516102219190612b65565b60405180910390f35b34801561023657600080fd5b50610251600480360381019061024c91906125a4565b6106ed565b005b34801561025f57600080fd5b5061027a600480360381019061027591906126ac565b610714565b604051610287919061298d565b60405180910390f35b34801561029c57600080fd5b506102b760048036038101906102b291906126e8565b6107c7565b6040516102c4919061298d565b60405180910390f35b6102e760048036038101906102e29190612658565b6107e3565b005b3480156102f557600080fd5b50610310600480360381019061030b91906125a4565b6107fc565b60405161031d9190612b4a565b60405180910390f35b34801561033257600080fd5b5061033b610845565b005b34801561034957600080fd5b50610364600480360381019061035f91906126ac565b610982565b604051610371919061298d565b60405180910390f35b34801561038657600080fd5b5061038f610998565b60405161039c919061298d565b60405180910390f35b3480156103b157600080fd5b506103ba610c1b565b6040516103c79190612972565b60405180910390f35b3480156103dc57600080fd5b506103e5610c2a565b6040516103f29190612972565b60405180910390f35b34801561040757600080fd5b50610410610c54565b60405161041d91906129a8565b60405180910390f35b34801561043257600080fd5b5061044d600480360381019061044891906126e8565b610ce6565b60405161045a919061298d565b60405180910390f35b34801561046f57600080fd5b5061048a600480360381019061048591906126ac565b610d7e565b604051610497919061298d565b60405180910390f35b3480156104ac57600080fd5b506104c760048036038101906104c291906126ac565b610e4b565b6040516104d4919061298d565b60405180910390f35b3480156104e957600080fd5b5061050460048036038101906104ff91906125cd565b610e69565b6040516105119190612b4a565b60405180910390f35b34801561052657600080fd5b50610541600480360381019061053c91906125a4565b610ef0565b005b606060ce805461055290612ef4565b80601f016020809104026020016040519081016040528092919081815260200182805461057e90612ef4565b80156105cb5780601f106105a0576101008083540402835291602001916105cb565b820191906000526020600020905b8154815290600101906020018083116105ae57829003601f168201915b5050505050905090565b60006105e96105e261109c565b84846110a4565b6001905092915050565b600060cb54905090565b600061060a84848461126f565b6106cb8461061661109c565b6106c6856040518060600160405280602881526020016133996028913960ca60008b73ffffffffffffffffffffffffffffffffffffffff1673ffffffffffffffffffffffffffffffffffffffff168152602001908152602001600020600061067c61109c565b73ffffffffffffffffffffffffffffffffffffffff1673ffffffffffffffffffffffffffffffffffffffff168152602001908152602001600020546114fd9092919063ffffffff16565b6110a4565b600190509392505050565b600060cc60009054906101000a900460ff16905090565b6106f681611552565b610711816040518060200160405280600081525060006115d1565b50565b60006107bd61072161109c565b846107b88560ca600061073261109c565b73ffffffffffffffffffffffffffffffffffffffff1673ffffffffffffffffffffffffffffffffffffffff16815260200190815260200160002060008973ffffffffffffffffffffffffffffffffffffffff1673ffffffffffffffffffffffffffffffffffffffff168152602001908152602001600020546117e590919063ffffffff16565b6110a4565b6001905092915050565b60006107da6107d461109c565b836117fb565b60019050919050565b6107ec82611552565b6107f8828260016115d1565b5050565b600060c960008373ffffffffffffffffffffffffffffffffffffffff1673ffffffffffffffffffffffffffffffffffffffff168152602001908152602001600020549050919050565b61084d61109c565b73ffffffffffffffffffffffffffffffffffffffff1661086b610c2a565b73ffffffffffffffffffffffffffffffffffffffff16146108c1576040517f08c379a00000000000000000000000000000000000000000000000000000000081526004016108b890612aaa565b60405180910390fd5b600073ffffffffffffffffffffffffffffffffffffffff16603360009054906101000a900473ffffffffffffffffffffffffffffffffffffffff1673ffffffffffffffffffffffffffffffffffffffff167f8be0079c531659141344cd1fd0a4f28419497f9722a3daafe3b4186f6b6457e060405160405180910390a36000603360006101000a81548173ffffffffffffffffffffffffffffffffffffffff021916908373ffffffffffffffffffffffffffffffffffffffff160217905550565b600061098e838361199f565b6001905092915050565b60008060019054906101000a900460ff16806109bf575060008054906101000a900460ff16155b6109fe576040517f08c379a00000000000000000000000000000000000000000000000000000000081526004016109f590612a4a565b60405180910390fd5b60008060019054906101000a900460ff161590508015610a4e576001600060016101000a81548160ff02191690831515021790555060016000806101000a81548160ff0219169083151502179055505b610a56611a6e565b610a5e611b57565b6040518060400160405280600d81526020017f42686f6c64757320546f6b656e0000000000000000000000000000000000000081525060ce9080519060200190610aa992919061246f565b506040518060400160405280600381526020017f42484f000000000000000000000000000000000000000000000000000000000081525060cd9080519060200190610af592919061246f565b50601260cc60006101000a81548160ff021916908360ff16021790555060cc60009054906101000a900460ff16600a610b2e9190612cb1565b6402540be400610b3e9190612dcf565b60cb8190555060cb5460c960003373ffffffffffffffffffffffffffffffffffffffff1673ffffffffffffffffffffffffffffffffffffffff168152602001908152602001600020819055503373ffffffffffffffffffffffffffffffffffffffff16600073ffffffffffffffffffffffffffffffffffffffff167fddf252ad1be2c89b69c2b068fc378daa952ba7f163c4a11628f55a4df523b3ef60cb54604051610bea9190612b4a565b60405180910390a3600191508015610c175760008060016101000a81548160ff0219169083151502179055505b5090565b6000610c25610c2a565b905090565b6000603360009054906101000a900473ffffffffffffffffffffffffffffffffffffffff16905090565b606060cd8054610c6390612ef4565b80601f0160208091040260200160405190810160405280929190818152602001828054610c8f90612ef4565b8015610cdc5780601f10610cb157610100808354040283529160200191610cdc565b820191906000526020600020905b815481529060010190602001808311610cbf57829003601f168201915b5050505050905090565b6000610cf061109c565b73ffffffffffffffffffffffffffffffffffffffff16610d0e610c2a565b73ffffffffffffffffffffffffffffffffffffffff1614610d64576040517f08c379a0000000000000000000000000000000000000000000000000000000008152600401610d5b90612aaa565b60405180910390fd5b610d75610d6f61109c565b83611c40565b60019050919050565b6000610e41610d8b61109c565b84610e3c8560405180606001604052806025815260200161340e6025913960ca6000610db561109c565b73ffffffffffffffffffffffffffffffffffffffff1673ffffffffffffffffffffffffffffffffffffffff16815260200190815260200160002060008a73ffffffffffffffffffffffffffffffffffffffff1673ffffffffffffffffffffffffffffffffffffffff168152602001908152602001600020546114fd9092919063ffffffff16565b6110a4565b6001905092915050565b6000610e5f610e5861109c565b848461126f565b6001905092915050565b600060ca60008473ffffffffffffffffffffffffffffffffffffffff1673ffffffffffffffffffffffffffffffffffffffff16815260200190815260200160002060008373ffffffffffffffffffffffffffffffffffffffff1673ffffffffffffffffffffffffffffffffffffffff16815260200190815260200160002054905092915050565b610ef861109c565b73ffffffffffffffffffffffffffffffffffffffff16610f16610c2a565b73ffffffffffffffffffffffffffffffffffffffff1614610f6c576040517f08c379a0000000000000000000000000000000000000000000000000000000008152600401610f6390612aaa565b60405180910390fd5b600073ffffffffffffffffffffffffffffffffffffffff168173ffffffffffffffffffffffffffffffffffffffff161415610fdc576040517f08c379a0000000000000000000000000000000000000000000000000000000008152600401610fd390612a2a565b60405180910390fd5b8073ffffffffffffffffffffffffffffffffffffffff16603360009054906101000a900473ffffffffffffffffffffffffffffffffffffffff1673ffffffffffffffffffffffffffffffffffffffff167f8be0079c531659141344cd1fd0a4f28419497f9722a3daafe3b4186f6b6457e060405160405180910390a380603360006101000a81548173ffffffffffffffffffffffffffffffffffffffff021916908373ffffffffffffffffffffffffffffffffffffffff16021790555050565b600033905090565b600073ffffffffffffffffffffffffffffffffffffffff168373ffffffffffffffffffffffffffffffffffffffff161415611114576040517f08c379a000000000000000000000000000000000000000000000000000000000815260040161110b906129ea565b60405180910390fd5b600073ffffffffffffffffffffffffffffffffffffffff168273ffffffffffffffffffffffffffffffffffffffff161415611184576040517f08c379a000000000000000000000000000000000000000000000000000000000815260040161117b90612b2a565b60405180910390fd5b8060ca60008573ffffffffffffffffffffffffffffffffffffffff1673ffffffffffffffffffffffffffffffffffffffff16815260200190815260200160002060008473ffffffffffffffffffffffffffffffffffffffff1673ffffffffffffffffffffffffffffffffffffffff168152602001908152602001600020819055508173ffffffffffffffffffffffffffffffffffffffff168373ffffffffffffffffffffffffffffffffffffffff167f8c5be1e5ebec7d5bd14f71427d1e84f3dd0314c0f7b2291e5b200ac8c7c3b925836040516112629190612b4a565b60405180910390a3505050565b600073ffffffffffffffffffffffffffffffffffffffff168373ffffffffffffffffffffffffffffffffffffffff1614156112df576040517f08c379a00000000000000000000000000000000000000000000000000000000081526004016112d6906129ca565b60405180910390fd5b600073ffffffffffffffffffffffffffffffffffffffff168273ffffffffffffffffffffffffffffffffffffffff16141561134f576040517f08c379a000000000000000000000000000000000000000000000000000000000815260040161134690612aca565b60405180910390fd5b6113bb816040518060600160405280602681526020016133e86026913960c960008773ffffffffffffffffffffffffffffffffffffffff1673ffffffffffffffffffffffffffffffffffffffff168152602001908152602001600020546114fd9092919063ffffffff16565b60c960008573ffffffffffffffffffffffffffffffffffffffff1673ffffffffffffffffffffffffffffffffffffffff168152602001908152602001600020819055506114508160c960008573ffffffffffffffffffffffffffffffffffffffff1673ffffffffffffffffffffffffffffffffffffffff168152602001908152602001600020546117e590919063ffffffff16565b60c960008473ffffffffffffffffffffffffffffffffffffffff1673ffffffffffffffffffffffffffffffffffffffff168152602001908152602001600020819055508173ffffffffffffffffffffffffffffffffffffffff168373ffffffffffffffffffffffffffffffffffffffff167fddf252ad1be2c89b69c2b068fc378daa952ba7f163c4a11628f55a4df523b3ef836040516114f09190612b4a565b60405180910390a3505050565b6000838311158290611545576040517f08c379a000000000000000000000000000000000000000000000000000000000815260040161153c91906129a8565b60405180910390fd5b5082840390509392505050565b61155a61109c565b73ffffffffffffffffffffffffffffffffffffffff16611578610c2a565b73ffffffffffffffffffffffffffffffffffffffff16146115ce576040517f08c379a00000000000000000000000000000000000000000000000000000000081526004016115c590612aaa565b60405180910390fd5b50565b60006115db611dca565b90506115e684611e21565b6000835111806115f35750815b15611604576116028484611eda565b505b60006116327f4910fdfa16fed3260ed0e7147f7cc6da11a60208b5b9406d12a635614ffd914360001b611fbe565b90508060000160009054906101000a900460ff166117de5760018160000160006101000a81548160ff0219169083151502179055506116fe858360405160240161167c9190612972565b6040516020818303038152906040527f3659cfe6000000000000000000000000000000000000000000000000000000007bffffffffffffffffffffffffffffffffffffffffffffffffffffffff19166020820180517bffffffffffffffffffffffffffffffffffffffffffffffffffffffff8381831617835250505050611eda565b5060008160000160006101000a81548160ff021916908315150217905550611724611dca565b73ffffffffffffffffffffffffffffffffffffffff168273ffffffffffffffffffffffffffffffffffffffff1614611791576040517f08c379a000000000000000000000000000000000000000000000000000000000815260040161178890612a0a565b60405180910390fd5b61179a85611e21565b8473ffffffffffffffffffffffffffffffffffffffff167fbc7cd75a20ee27fd9adebab32041f755214dbc6bffa90cc0225b39da2e5c2d3b60405160405180910390a25b5050505050565b600081836117f39190612c08565b905092915050565b600073ffffffffffffffffffffffffffffffffffffffff168273ffffffffffffffffffffffffffffffffffffffff16141561186b576040517f08c379a000000000000000000000000000000000000000000000000000000000815260040161186290612aea565b60405180910390fd5b6118d7816040518060600160405280602281526020016134336022913960c960008673ffffffffffffffffffffffffffffffffffffffff1673ffffffffffffffffffffffffffffffffffffffff168152602001908152602001600020546114fd9092919063ffffffff16565b60c960008473ffffffffffffffffffffffffffffffffffffffff1673ffffffffffffffffffffffffffffffffffffffff1681526020019081526020016000208190555061192f8160cb54611fc890919063ffffffff16565b60cb81905550600073ffffffffffffffffffffffffffffffffffffffff168273ffffffffffffffffffffffffffffffffffffffff167fddf252ad1be2c89b69c2b068fc378daa952ba7f163c4a11628f55a4df523b3ef836040516119939190612b4a565b60405180910390a35050565b6119a982826117fb565b611a6a826119b561109c565b611a65846040518060600160405280602481526020016134556024913960ca60008973ffffffffffffffffffffffffffffffffffffffff1673ffffffffffffffffffffffffffffffffffffffff1681526020019081526020016000206000611a1b61109c565b73ffffffffffffffffffffffffffffffffffffffff1673ffffffffffffffffffffffffffffffffffffffff168152602001908152602001600020546114fd9092919063ffffffff16565b6110a4565b5050565b600060019054906101000a900460ff1680611a94575060008054906101000a900460ff16155b611ad3576040517f08c379a0000000000000000000000000000000000000000000000000000000008152600401611aca90612a4a565b60405180910390fd5b60008060019054906101000a900460ff161590508015611b23576001600060016101000a81548160ff02191690831515021790555060016000806101000a81548160ff0219169083151502179055505b611b2b611fde565b611b336120b7565b8015611b545760008060016101000a81548160ff0219169083151502179055505b50565b600060019054906101000a900460ff1680611b7d575060008054906101000a900460ff16155b611bbc576040517f08c379a0000000000000000000000000000000000000000000000000000000008152600401611bb390612a4a565b60405180910390fd5b60008060019054906101000a900460ff161590508015611c0c576001600060016101000a81548160ff02191690831515021790555060016000806101000a81548160ff0219169083151502179055505b611c14612239565b611c1c612312565b8015611c3d5760008060016101000a81548160ff0219169083151502179055505b50565b600073ffffffffffffffffffffffffffffffffffffffff168273ffffffffffffffffffffffffffffffffffffffff161415611cb0576040517f08c379a0000000000000000000000000000000000000000000000000000000008152600401611ca790612a8a565b60405180910390fd5b611cc58160cb546117e590919063ffffffff16565b60cb81905550611d1d8160c960008573ffffffffffffffffffffffffffffffffffffffff1673ffffffffffffffffffffffffffffffffffffffff168152602001908152602001600020546117e590919063ffffffff16565b60c960008473ffffffffffffffffffffffffffffffffffffffff1673ffffffffffffffffffffffffffffffffffffffff168152602001908152602001600020819055508173ffffffffffffffffffffffffffffffffffffffff16600073ffffffffffffffffffffffffffffffffffffffff167fddf252ad1be2c89b69c2b068fc378daa952ba7f163c4a11628f55a4df523b3ef83604051611dbe9190612b4a565b60405180910390a35050565b6000611df87f360894a13ba1a3210667c828492db98dca3e2076cc3735a920a3ca505d382bbc60001b6123eb565b60000160009054906101000a900473ffffffffffffffffffffffffffffffffffffffff16905090565b611e2a816123f5565b611e69576040517f08c379a0000000000000000000000000000000000000000000000000000000008152600401611e6090612a6a565b60405180910390fd5b80611e967f360894a13ba1a3210667c828492db98dca3e2076cc3735a920a3ca505d382bbc60001b6123eb565b60000160006101000a81548173ffffffffffffffffffffffffffffffffffffffff021916908373ffffffffffffffffffffffffffffffffffffffff16021790555050565b6060611ee5836123f5565b611f24576040517f08c379a0000000000000000000000000000000000000000000000000000000008152600401611f1b90612b0a565b60405180910390fd5b6000808473ffffffffffffffffffffffffffffffffffffffff1684604051611f4c919061295b565b600060405180830381855af49150503d8060008114611f87576040519150601f19603f3d011682016040523d82523d6000602084013e611f8c565b606091505b5091509150611fb482826040518060600160405280602781526020016133c160279139612408565b9250505092915050565b6000819050919050565b60008183611fd69190612e29565b905092915050565b600060019054906101000a900460ff1680612004575060008054906101000a900460ff16155b612043576040517f08c379a000000000000000000000000000000000000000000000000000000000815260040161203a90612a4a565b60405180910390fd5b60008060019054906101000a900460ff161590508015612093576001600060016101000a81548160ff02191690831515021790555060016000806101000a81548160ff0219169083151502179055505b80156120b45760008060016101000a81548160ff0219169083151502179055505b50565b600060019054906101000a900460ff16806120dd575060008054906101000a900460ff16155b61211c576040517f08c379a000000000000000000000000000000000000000000000000000000000815260040161211390612a4a565b60405180910390fd5b60008060019054906101000a900460ff16159050801561216c576001600060016101000a81548160ff02191690831515021790555060016000806101000a81548160ff0219169083151502179055505b600061217661109c565b905080603360006101000a81548173ffffffffffffffffffffffffffffffffffffffff021916908373ffffffffffffffffffffffffffffffffffffffff1602179055508073ffffffffffffffffffffffffffffffffffffffff16600073ffffffffffffffffffffffffffffffffffffffff167f8be0079c531659141344cd1fd0a4f28419497f9722a3daafe3b4186f6b6457e060405160405180910390a35080156122365760008060016101000a81548160ff0219169083151502179055505b50565b600060019054906101000a900460ff168061225f575060008054906101000a900460ff16155b61229e576040517f08c379a000000000000000000000000000000000000000000000000000000000815260040161229590612a4a565b60405180910390fd5b60008060019054906101000a900460ff1615905080156122ee576001600060016101000a81548160ff02191690831515021790555060016000806101000a81548160ff0219169083151502179055505b801561230f5760008060016101000a81548160ff0219169083151502179055505b50565b600060019054906101000a900460ff1680612338575060008054906101000a900460ff16155b612377576040517f08c379a000000000000000000000000000000000000000000000000000000000815260040161236e90612a4a565b60405180910390fd5b60008060019054906101000a900460ff1615905080156123c7576001600060016101000a81548160ff02191690831515021790555060016000806101000a81548160ff0219169083151502179055505b80156123e85760008060016101000a81548160ff0219169083151502179055505b50565b6000819050919050565b600080823b905060008111915050919050565b6060831561241857829050612468565b60008351111561242b5782518084602001fd5b816040517f08c379a000000000000000000000000000000000000000000000000000000000815260040161245f91906129a8565b60405180910390fd5b9392505050565b82805461247b90612ef4565b90600052602060002090601f01602090048101928261249d57600085556124e4565b82601f106124b657805160ff19168380011785556124e4565b828001600101855582156124e4579182015b828111156124e35782518255916020019190600101906124c8565b5b5090506124f191906124f5565b5090565b5b8082111561250e5760008160009055506001016124f6565b5090565b600061252561252084612ba5565b612b80565b90508281526020810184848401111561253d57600080fd5b612548848285612eb2565b509392505050565b60008135905061255f8161336a565b92915050565b600082601f83011261257657600080fd5b8135612586848260208601612512565b91505092915050565b60008135905061259e81613381565b92915050565b6000602082840312156125b657600080fd5b60006125c484828501612550565b91505092915050565b600080604083850312156125e057600080fd5b60006125ee85828601612550565b92505060206125ff85828601612550565b9150509250929050565b60008060006060848603121561261e57600080fd5b600061262c86828701612550565b935050602061263d86828701612550565b925050604061264e8682870161258f565b9150509250925092565b6000806040838503121561266b57600080fd5b600061267985828601612550565b925050602083013567ffffffffffffffff81111561269657600080fd5b6126a285828601612565565b9150509250929050565b600080604083850312156126bf57600080fd5b60006126cd85828601612550565b92505060206126de8582860161258f565b9150509250929050565b6000602082840312156126fa57600080fd5b60006127088482850161258f565b91505092915050565b61271a81612e5d565b82525050565b61272981612e6f565b82525050565b600061273a82612bd6565b6127448185612bec565b9350612754818560208601612ec1565b80840191505092915050565b600061276b82612be1565b6127758185612bf7565b9350612785818560208601612ec1565b61278e81612fe4565b840191505092915050565b60006127a6602583612bf7565b91506127b182613002565b604082019050919050565b60006127c9602483612bf7565b91506127d482613051565b604082019050919050565b60006127ec602f83612bf7565b91506127f7826130a0565b604082019050919050565b600061280f602683612bf7565b915061281a826130ef565b604082019050919050565b6000612832602e83612bf7565b915061283d8261313e565b604082019050919050565b6000612855602d83612bf7565b91506128608261318d565b604082019050919050565b6000612878601f83612bf7565b9150612883826131dc565b602082019050919050565b600061289b602083612bf7565b91506128a682613205565b602082019050919050565b60006128be602383612bf7565b91506128c98261322e565b604082019050919050565b60006128e1602183612bf7565b91506128ec8261327d565b604082019050919050565b6000612904602683612bf7565b915061290f826132cc565b604082019050919050565b6000612927602283612bf7565b91506129328261331b565b604082019050919050565b61294681612e9b565b82525050565b61295581612ea5565b82525050565b6000612967828461272f565b915081905092915050565b60006020820190506129876000830184612711565b92915050565b60006020820190506129a26000830184612720565b92915050565b600060208201905081810360008301526129c28184612760565b905092915050565b600060208201905081810360008301526129e381612799565b9050919050565b60006020820190508181036000830152612a03816127bc565b9050919050565b60006020820190508181036000830152612a23816127df565b9050919050565b60006020820190508181036000830152612a4381612802565b9050919050565b60006020820190508181036000830152612a6381612825565b9050919050565b60006020820190508181036000830152612a8381612848565b9050919050565b60006020820190508181036000830152612aa38161286b565b9050919050565b60006020820190508181036000830152612ac38161288e565b9050919050565b60006020820190508181036000830152612ae3816128b1565b9050919050565b60006020820190508181036000830152612b03816128d4565b9050919050565b60006020820190508181036000830152612b23816128f7565b9050919050565b60006020820190508181036000830152612b438161291a565b9050919050565b6000602082019050612b5f600083018461293d565b92915050565b6000602082019050612b7a600083018461294c565b92915050565b6000612b8a612b9b565b9050612b968282612f26565b919050565b6000604051905090565b600067ffffffffffffffff821115612bc057612bbf612fb5565b5b612bc982612fe4565b9050602081019050919050565b600081519050919050565b600081519050919050565b600081905092915050565b600082825260208201905092915050565b6000612c1382612e9b565b9150612c1e83612e9b565b9250827fffffffffffffffffffffffffffffffffffffffffffffffffffffffffffffffff03821115612c5357612c52612f57565b5b828201905092915050565b6000808291508390505b6001851115612ca857808604811115612c8457612c83612f57565b5b6001851615612c935780820291505b8081029050612ca185612ff5565b9450612c68565b94509492505050565b6000612cbc82612e9b565b9150612cc783612ea5565b9250612cf47fffffffffffffffffffffffffffffffffffffffffffffffffffffffffffffffff8484612cfc565b905092915050565b600082612d0c5760019050612dc8565b81612d1a5760009050612dc8565b8160018114612d305760028114612d3a57612d69565b6001915050612dc8565b60ff841115612d4c57612d4b612f57565b5b8360020a915084821115612d6357612d62612f57565b5b50612dc8565b5060208310610133831016604e8410600b8410161715612d9e5782820a905083811115612d9957612d98612f57565b5b612dc8565b612dab8484846001612c5e565b92509050818404811115612dc257612dc1612f57565b5b81810290505b9392505050565b6000612dda82612e9b565b9150612de583612e9b565b9250817fffffffffffffffffffffffffffffffffffffffffffffffffffffffffffffffff0483118215151615612e1e57612e1d612f57565b5b828202905092915050565b6000612e3482612e9b565b9150612e3f83612e9b565b925082821015612e5257612e51612f57565b5b828203905092915050565b6000612e6882612e7b565b9050919050565b60008115159050919050565b600073ffffffffffffffffffffffffffffffffffffffff82169050919050565b6000819050919050565b600060ff82169050919050565b82818337600083830152505050565b60005b83811015612edf578082015181840152602081019050612ec4565b83811115612eee576000848401525b50505050565b60006002820490506001821680612f0c57607f821691505b60208210811415612f2057612f1f612f86565b5b50919050565b612f2f82612fe4565b810181811067ffffffffffffffff82111715612f4e57612f4d612fb5565b5b80604052505050565b7f4e487b7100000000000000000000000000000000000000000000000000000000600052601160045260246000fd5b7f4e487b7100000000000000000000000000000000000000000000000000000000600052602260045260246000fd5b7f4e487b7100000000000000000000000000000000000000000000000000000000600052604160045260246000fd5b6000601f19601f8301169050919050565b60008160011c9050919050565b7f42455032303a207472616e736665722066726f6d20746865207a65726f20616460008201527f6472657373000000000000000000000000000000000000000000000000000000602082015250565b7f42455032303a20617070726f76652066726f6d20746865207a65726f2061646460008201527f7265737300000000000000000000000000000000000000000000000000000000602082015250565b7f45524331393637557067726164653a207570677261646520627265616b73206660008201527f7572746865722075706772616465730000000000000000000000000000000000602082015250565b7f4f776e61626c653a206e6577206f776e657220697320746865207a65726f206160008201527f6464726573730000000000000000000000000000000000000000000000000000602082015250565b7f496e697469616c697a61626c653a20636f6e747261637420697320616c72656160008201527f647920696e697469616c697a6564000000000000000000000000000000000000602082015250565b7f455243313936373a206e657720696d706c656d656e746174696f6e206973206e60008201527f6f74206120636f6e747261637400000000000000000000000000000000000000602082015250565b7f42455032303a206d696e7420746f20746865207a65726f206164647265737300600082015250565b7f4f776e61626c653a2063616c6c6572206973206e6f7420746865206f776e6572600082015250565b7f42455032303a207472616e7366657220746f20746865207a65726f206164647260008201527f6573730000000000000000000000000000000000000000000000000000000000602082015250565b7f42455032303a206275726e2066726f6d20746865207a65726f2061646472657360008201527f7300000000000000000000000000000000000000000000000000000000000000602082015250565b7f416464726573733a2064656c65676174652063616c6c20746f206e6f6e2d636f60008201527f6e74726163740000000000000000000000000000000000000000000000000000602082015250565b7f42455032303a20617070726f766520746f20746865207a65726f20616464726560008201527f7373000000000000000000000000000000000000000000000000000000000000602082015250565b61337381612e5d565b811461337e57600080fd5b50565b61338a81612e9b565b811461339557600080fd5b5056fe42455032303a207472616e7366657220616d6f756e74206578636565647320616c6c6f77616e6365416464726573733a206c6f772d6c6576656c2064656c65676174652063616c6c206661696c656442455032303a207472616e7366657220616d6f756e7420657863656564732062616c616e636542455032303a2064656372656173656420616c6c6f77616e63652062656c6f77207a65726f42455032303a206275726e20616d6f756e7420657863656564732062616c616e636542455032303a206275726e20616d6f756e74206578636565647320616c6c6f77616e6365a2646970667358221220be410be83879e9661b38eec144026659356bb39466367d29ca50603ed58b3dcf64736f6c63430008040033",
  "devdoc": {
    "kind": "dev",
    "methods": {
      "allowance(address,address)": {
        "details": "See {BEP20-allowance}."
      },
      "approve(address,uint256)": {
        "details": "See {BEP20-approve}. Requirements: - `spender` cannot be the zero address."
      },
      "balanceOf(address)": {
        "details": "See {BEP20-balanceOf}."
      },
      "burn(uint256)": {
        "details": "Burn `amount` tokens Requirements - `msg.sender` must have a balance of at least `amount`"
      },
      "burnFrom(address,uint256)": {
        "details": "Burn `amount` tokens of `account` from allowed sender"
      },
      "decimals()": {
        "details": "Returns the token decimals."
      },
      "decreaseAllowance(address,uint256)": {
        "details": "Atomically decreases the allowance granted to `spender` by the caller. This is an alternative to {approve} that can be used as a mitigation for problems described in {BEP20-approve}. Emits an {Approval} event indicating the updated allowance. Requirements: - `spender` cannot be the zero address. - `spender` must have allowance for the caller of at least `subtractedValue`."
      },
      "getOwner()": {
        "details": "Returns the bep token owner."
      },
      "increaseAllowance(address,uint256)": {
        "details": "Atomically increases the allowance granted to `spender` by the caller. This is an alternative to {approve} that can be used as a mitigation for problems described in {BEP20-approve}. Emits an {Approval} event indicating the updated allowance. Requirements: - `spender` cannot be the zero address."
      },
      "mint(uint256)": {
        "details": "Creates `amount` tokens and assigns them to `msg.sender`, increasing the total supply. Requirements - `msg.sender` must be the token owner"
      },
      "name()": {
        "details": "Returns the token name."
      },
      "owner()": {
        "details": "Returns the address of the current owner."
      },
      "renounceOwnership()": {
        "details": "Leaves the contract without owner. It will not be possible to call `onlyOwner` functions anymore. Can only be called by the current owner. NOTE: Renouncing ownership will leave the contract without an owner, thereby removing any functionality that is only available to the owner."
      },
      "symbol()": {
        "details": "Returns the token symbol."
      },
      "totalSupply()": {
        "details": "See {BEP20-totalSupply}."
      },
      "transfer(address,uint256)": {
        "details": "See {BEP20-transfer}. Requirements: - `recipient` cannot be the zero address. - the caller must have a balance of at least `amount`."
      },
      "transferFrom(address,address,uint256)": {
        "details": "See {BEP20-transferFrom}. Emits an {Approval} event indicating the updated allowance. This is not required by the EIP. See the note at the beginning of {BEP20}; Requirements: - `sender` and `recipient` cannot be the zero address. - `sender` must have a balance of at least `amount`. - the caller must have allowance for `sender`'s tokens of at least `amount`."
      },
      "transferOwnership(address)": {
        "details": "Transfers ownership of the contract to a new account (`newOwner`). Can only be called by the current owner."
      }
    },
    "version": 1
  },
  "userdoc": {
    "kind": "user",
    "methods": {},
    "version": 1
  },
  "storageLayout": {
    "storage": [
      {
        "astId": 976,
        "contract": "contracts/token/CoinBHO.sol:CoinBHO",
        "label": "_initialized",
        "offset": 0,
        "slot": "0",
        "type": "t_bool"
      },
      {
        "astId": 979,
        "contract": "contracts/token/CoinBHO.sol:CoinBHO",
        "label": "_initializing",
        "offset": 1,
        "slot": "0",
        "type": "t_bool"
      },
      {
        "astId": 1378,
        "contract": "contracts/token/CoinBHO.sol:CoinBHO",
        "label": "__gap",
        "offset": 0,
        "slot": "1",
        "type": "t_array(t_uint256)50_storage"
      },
      {
        "astId": 406,
        "contract": "contracts/token/CoinBHO.sol:CoinBHO",
        "label": "_owner",
        "offset": 0,
        "slot": "51",
        "type": "t_address"
      },
      {
        "astId": 525,
        "contract": "contracts/token/CoinBHO.sol:CoinBHO",
        "label": "__gap",
        "offset": 0,
        "slot": "52",
        "type": "t_array(t_uint256)49_storage"
      },
      {
        "astId": 959,
        "contract": "contracts/token/CoinBHO.sol:CoinBHO",
        "label": "__gap",
        "offset": 0,
        "slot": "101",
        "type": "t_array(t_uint256)50_storage"
      },
      {
        "astId": 1089,
        "contract": "contracts/token/CoinBHO.sol:CoinBHO",
        "label": "__gap",
        "offset": 0,
        "slot": "151",
        "type": "t_array(t_uint256)50_storage"
      },
      {
        "astId": 3371,
        "contract": "contracts/token/CoinBHO.sol:CoinBHO",
        "label": "_balances",
        "offset": 0,
        "slot": "201",
        "type": "t_mapping(t_address,t_uint256)"
      },
      {
        "astId": 3377,
        "contract": "contracts/token/CoinBHO.sol:CoinBHO",
        "label": "_allowances",
        "offset": 0,
        "slot": "202",
        "type": "t_mapping(t_address,t_mapping(t_address,t_uint256))"
      },
      {
        "astId": 3379,
        "contract": "contracts/token/CoinBHO.sol:CoinBHO",
        "label": "_totalSupply",
        "offset": 0,
        "slot": "203",
        "type": "t_uint256"
      },
      {
        "astId": 3381,
        "contract": "contracts/token/CoinBHO.sol:CoinBHO",
        "label": "_decimals",
        "offset": 0,
        "slot": "204",
        "type": "t_uint8"
      },
      {
        "astId": 3383,
        "contract": "contracts/token/CoinBHO.sol:CoinBHO",
        "label": "_symbol",
        "offset": 0,
        "slot": "205",
        "type": "t_string_storage"
      },
      {
        "astId": 3385,
        "contract": "contracts/token/CoinBHO.sol:CoinBHO",
        "label": "_name",
        "offset": 0,
        "slot": "206",
        "type": "t_string_storage"
      }
    ],
    "types": {
      "t_address": {
        "encoding": "inplace",
        "label": "address",
        "numberOfBytes": "20"
      },
      "t_array(t_uint256)49_storage": {
        "base": "t_uint256",
        "encoding": "inplace",
        "label": "uint256[49]",
        "numberOfBytes": "1568"
      },
      "t_array(t_uint256)50_storage": {
        "base": "t_uint256",
        "encoding": "inplace",
        "label": "uint256[50]",
        "numberOfBytes": "1600"
      },
      "t_bool": {
        "encoding": "inplace",
        "label": "bool",
        "numberOfBytes": "1"
      },
      "t_mapping(t_address,t_mapping(t_address,t_uint256))": {
        "encoding": "mapping",
        "key": "t_address",
        "label": "mapping(address => mapping(address => uint256))",
        "numberOfBytes": "32",
        "value": "t_mapping(t_address,t_uint256)"
      },
      "t_mapping(t_address,t_uint256)": {
        "encoding": "mapping",
        "key": "t_address",
        "label": "mapping(address => uint256)",
        "numberOfBytes": "32",
        "value": "t_uint256"
      },
      "t_string_storage": {
        "encoding": "bytes",
        "label": "string",
        "numberOfBytes": "32"
      },
      "t_uint256": {
        "encoding": "inplace",
        "label": "uint256",
        "numberOfBytes": "32"
      },
      "t_uint8": {
        "encoding": "inplace",
        "label": "uint8",
        "numberOfBytes": "1"
      }
    }
  }
}